:100000000C9460020C947D020C947D020C947D0291
:100010000C947D020C947D020C947D020C947D0264
:100020000C947D020C947D020C94F9080C947D02D2
:100030000C947D020C947D020C947D020C947D0244
:100040000C947D020C947D020C947D020C947D0234
:100050000C947D020C947D020C947D020C947D0224
:100060000C947D020C947D020C947D020C947D0214
:100070000C947D020C947D020C947D020C947D0204
:100080000C947D020C947D020C947D020C947D02F4
:100090000C947D020C947D020C947D020C947D02E4
:1000A0000C947D020C947D020C947D02C20A8A0A93
:1000B000ED098A0AED09680A410AED092D0A0B0AC1
:1000C000EA1EB01F991F471D471D471D471D471DAD
:1000D000471D471D951F471D471D471D471D471DB0
:1000E000471D471D671F5C1F471D471D471D471FB5
:1000F000471D471D471D471D471D471D471D471DE0
:10010000471D471D321F2A1D471D471D471D471DFF
:10011000471D471D471D471D471D471D471D471DBF
:100120003F20511D481D0520DF1FBB1FB91FC920DF
:10013000A8209B206120CB205A1D471D471D471D2D
:100140005420511D481D8A1E5F1E5D1E431E471D03
:10015000471D471D471D471D471D471D471D471D7F
:100160002E1EEF1DB01DA41D471D471D471D471D19
:10017000471D471D471D471D471D471D471D471D5F
:10018000471D471D471D471D471D471D471D471D4F
:10019000471D471D471D471D471D471D471D471D3F
:1001A000931D7B1D6F1D631DC31E471D471D471DEE
:1001B000471D471D471D471D471D471D471DB71EAE
:1001C0001F21351D471D471D471D471D471D471D45
:1001D000471D471D471D471D471D471D471D471DFF
:1001E000471D471D471D471D471D471D471D471DEF
:1001F000471D471D471D471D471D471D471D471DDF
:10020000DA1E181F0521CE1E011FF81E471D471DAF
:10021000471D471D471D471D471D471D471D471DBE
:10022000471D471D471D471D471D471D471D471DAE
:10023000471D471D471D471D471D471D471D471D9E
:10024000471D471D471D471D471D471D471D471D8E
:10025000471D471D471D471D471D471D471D471D7E
:10026000471D471D471D471D471D471D471D471D6E
:10027000471D471D471D471D471D471D471D471D5E
:10028000471D471D471D471DF61E18203220000040
:100290000202020A0A2A1A0606061616563607002F
:1002A0000101010505150D0303030B0B2B1B0303B4
:1002B00000000002020A060101010505150D1F03D9
:1002C000070000010105030F0F0F2F2FAF6F1F0352
:1002D000070700010105030F0F0F2F2FAF6F0F014D
:1002E00003030200000201070707171757371F0310
:1002F000070701050001030F0F0F2F2FAF6F0F012D
:10030000030300020200010707071717573707000A
:10031000010101050515000303030B0B2B1B010154
:100320000505051515553500000002020A061F03D4
:10033000070707171757370F0000010105031F03B1
:10034000070707171757370F0F00010105030F01A4
:100350000303030B0B2B1B070702000002011F0303
:10036000070707171757370F0F01050001030F0184
:100370000303030B0B2B1B070700020200010700FE
:100380000101010505150D0303030B0B2B000001F3
:100390000203040405060503040505060706030019
:1003A0000102030304050402030404050605020315
:1003B0000001020203040301020303040504050310
:1003C00003000101020302040506060708070503EE
:1003D00003040001020302040506060708070402DD
:1003E00002030300010201030405050607060503D5
:1003F00003040203000102040506060708070402BD
:1004000002030102030001030405050607060301B8
:1004100001020303040500020304040506050102AA
:100420000304050506070600010202030403050391
:100430000304050506070604000101020302050383
:100440000304050506070604050001020302040271
:100450000203040405060503040300010201050369
:100460000304050506070604050203000102040251
:10047000020304040506050304010203000103014D
:100480000102030304050402030404050600090233
:100490002000010100806409040000020000000047
:1004A000070502024000000705810240000012011A
:1004B000000200000020C016DE050100000000015F
:1004C00011241FBEC0E0D2E0DEBFCDBF11E0A0E02E
:1004D000B1E0EEE1F3E402C005900D92AC30B1075B
:1004E000D9F721E0ACE0B1E001C01D92A23AB20719
:1004F000E1F70E946B0C0C948D210C94000058982D
:1005000059981092B9008CE08093B80084E08093F1
:10051000BC0080E580935A01089594EA9093BC0052
:100520009091BC0097FFFCCF9091B900987F9830D4
:1005300021F0903111F080E008958093BB0084E8B1
:100540008093BC008091BC0087FFFCCF8091B900F4
:10055000887F883111F0803471F781E0089522E3BB
:1005600030E044EA54E864E94093BC009091BC0058
:1005700097FFFCCF9091B900987F983039F0903177
:1005800029F02150310981F780E008958093BB0064
:100590005093BC009091BC0097FFFCCF9091B900A4
:1005A000987F903221F0983511F081E008956093A2
:1005B000BC009091BC0094FDFCCFE3CFCF93C091E1
:1005C00059018091840190918501A0918601B0919B
:1005D000870120915701220F220F220F04C0B695E8
:1005E000A795979587952A95D2F780FDC26081FDE2
:1005F000C46082FDC8608C2F0E94AF028823E9F09E
:10060000809157018230F9F08091840190918501A9
:10061000A0918601B09187018093BB0084E880930C
:10062000BC009091BC0097FFFCCF8091B90080E5A1
:1006300080935A018C2FCF91089581E580935A01C0
:1006400080E0CF9108958091840190918501A091DF
:100650008601B0918701892F9A2FAB2FBB278093FA
:10066000BB0084E88093BC008091BC0087FFFCCF76
:100670008091B900C9CFFF920F931F93CF93DF935F
:100680001092980182E08093E900C0E014E804E948
:1006900004C08091E80082FD24C08091680190919F
:1006A0006901A0916A01B0916B01892B8A2B8B2B78
:1006B00081F7CC2369F084E98093BC008091BC0071
:1006C00084FDFCCF8FE19EE40197F1F700C00000AC
:1006D00080E580935A01DF91CF911F910F91FF9098
:1006E00008958091680190916901A0916A01B0918B
:1006F0006B0181349105A105B10508F045C0409119
:1007000068015091690160916A0170916B01F42E4A
:100710008091680190916901A0916A01B0916B018B
:10072000841B9109A109B109809368019093690123
:10073000A0936A01B0936B01442301F1D0E0CC2374
:10074000D1F18091F1008093BB001093BC008091A7
:10075000BC0087FFFCCF8091B900C15061F40093C9
:10076000BC008091BC0084FDFCCF8FE19EE401972A
:10077000F1F700C00000DF5FDF1508F38091E800AB
:100780008B778093E80089CF80916801909169010F
:10079000A0916A01B0916B0180549109A109B1093E
:1007A0008093680190936901A0936A01B0936B01F3
:1007B00080E4F82EC3CF209158018091840190915C
:1007C0008501A0918601B0918701C0915801215007
:1007D0008223C81B0E94DE028091840190918501D2
:1007E000A0918601B09187018C0F911DA11DB11DB3
:1007F0008093840190938501A0938601B093870133
:1008000080915A01813509F09CCF8091E8008B7767
:100810008093E800DF91CF911F910F91FF90089591
:100820001092980181E08093E9000E94DE0290918D
:100830005A01913509F475C08F5F0E948D0244EC16
:1008400054E804C08091E80080FD17C080916801E1
:1008500090916901A0916A01B0916B01892B8A2B5B
:100860008B2B81F784E98093BC008091BC0084FDD0
:10087000FCCF80E580935A010895809168019091A2
:100880006901A0916A01B0916B0181349105A105C4
:10089000B105F0F58091680190916901A0916A011C
:1008A000B0916B01382F882369F120E080916801B5
:1008B00090916901A0916A01B0916B010197A10526
:1008C000B10541F14093BC008091BC0087FFFCCF93
:1008D0008091BB008093F100809168019091690143
:1008E000A0916A01B0916B010197A109B1098093B0
:1008F000680190936901A0936A01B0936B012F5F27
:100900002317A0F28091E8008E778093E8009ECFB5
:1009100030E4CBCF5093BC008091BC0087FFFCCF6C
:10092000D7CF8091E8008E778093E80008951CBCB3
:100930001092C90080E880BFE4E6F0E080818C621C
:100940008083E5E6F0E08081816080831092BC00C6
:100950008DEF84B980E185B90895FC018081809391
:100960001101818180931001828180930F01838125
:1009700080930E01848180930D01089584E185B9EF
:1009800025E09FE152E09695892F880F880F8470AB
:1009900080612B9A42E0352F3A95F1F785B92150C5
:1009A00091F780E185B92B9A942F9A95F1F794E10C
:1009B00095B92B9A942F9A95F1F785B940930C012C
:1009C000089520910C0190E1299F90011124282B7A
:1009D00030E0F901E257FC4F4491F901E257FD4F35
:1009E0002491922F990F990F9470906195B93FEFD0
:1009F000340F442371F052E02695922F990F990FEE
:100A0000947090612B9A452F4A95F1F795B9315022
:100A100098F780930C01089580910C018B3009F1B7
:100A20008430D9F0813029F18230F9F0893049F1F0
:100A3000833099F0853009F1863031F18730E9F063
:100A40008830B9F08A3069F08C3011F18D3021F1A5
:100A50008E30F1F08F3069F0089585E080930C01BD
:100A600008958CE080930C01089589E080930C0137
:100A7000089582E080930C01089588E080930C0132
:100A8000089510920C01089587E080930C01089559
:100A90008FE080930C0108958EE080930C010895FF
:100AA000CF92DF92EF92FF926B017C0181E185B9D9
:100AB000442311F181E0C81AD108E108F10811F1CD
:100AC00080E090E0DC0169E152E031E165B9252F79
:100AD0002A95F1F735B90196A11DB11D8C159D051B
:100AE000AE05BF0598F341110DC080E185B9FF90B7
:100AF000EF90DF90CF900895C114D104E104F10488
:100B0000F9F6F3CF85E185B98DE185B982E08A9563
:100B1000F1F781E185B90E940C0580E185B9FF906C
:100B2000EF90DF90CF900895EF92FF920F931F9375
:100B3000CF93DF93EC01DB01109761F120E030E00F
:100B400060E070E080E001E010E02F5F3F4FFE01C9
:100B5000E80FF11D90819170A217B30789F19061A0
:100B600095B92B9A508156955083199B07C07801EF
:100B7000072E01C0EE0C0A94EAF76E2995B97F5F43
:100B8000783089F0A217B30701F7772319F0C80F5F
:100B9000D11D688341110CC0DF91CF911F910F913E
:100BA000FF90EF90089560838F5F60E070E0EACF80
:100BB000DF91CF911F910F91FF90EF900C940C0556
:100BC000442369F29461CCCFBF92CF92DF92EF922F
:100BD000FF920F931F93CF93DF9300D000D0CDB738
:100BE000DEB78C0180E4F80111928A95E9F70E9442
:100BF000BE048BE00E94E10420E290E24FEF5FEF41
:100C0000BA0183B1842F8170806185B92B9A769562
:100C100067955795479585B9915099F7215069F790
:100C200084E00E94E10430E290E180E223B195B9D2
:100C30002B9A95B98150D1F73150B9F79AE081E0FC
:100C400041E050E060E070E0C12CD12C7601199BAE
:100C500004C0C42AD52AE62AF72A806185B92B9ACE
:100C6000440F551F661F771F85B9915080E079F7B3
:100C7000C114D104E104F10409F459C0BB24B394B4
:100C8000F694E794D794C794C0FC04C0B394FAE0F8
:100C9000BF12F6CF80E00E94E1048BE00E94E104E5
:100CA00037E090E180E223B195B92B9A95B9815054
:100CB000D1F73150B9F78FE19EE40197F1F700C009
:100CC000000083B181E185B92B9A85B9FF24F394A3
:100CD00080E193B185B92B9A85B991FD05C0F39454
:100CE0009FEFF912F6CFF12C82E00E94E104F801A7
:100CF000B082F18280E00E94E10484E00E94E1047D
:100D0000F12C40E060E270E0CE0101960E94940573
:100D10008C81F80182838B8183838A81848389819A
:100D20008583F3940C5F1F4FFB1458F303C080E0DE
:100D30000E94E1040F900F900F900F90DF91CF91E0
:100D40001F910F91FF90EF90DF90CF90BF9008958B
:100D5000FF920F931F93CF93DF93EC018B01F42E3F
:100D60008BE00E94E104409110014423D1F050E057
:100D700060E070E081E185B980E090E0DC01F9E1BC
:100D8000E2E031E1F5B92E2F2A95F1F735B9019658
:100D9000A11DB11D84179507A607B70798F380E139
:100DA00085B980910F0181110AC04F2DB801CE0184
:100DB000DF91CF911F910F91FF900C94940540E02B
:100DC000B801CE010E94940560910F0170E080E0AF
:100DD00090E04F2DDF91CF911F910F91FF900C94D8
:100DE0005005FF920F931F93CF93DF93EC018B017C
:100DF000F42E84E00E94E10440910E014423D1F0DE
:100E000050E060E070E081E185B980E090E0DC01D5
:100E1000F9E1E2E031E1F5B92E2F2A95F1F735B984
:100E20000196A11DB11D84179507A607B70798F372
:100E300080E185B980910D0181110AC04F2DB80163
:100E4000CE01DF91CF911F910F91FF900C949405EB
:100E500040E0B801CE010E94940560910D0170E060
:100E600080E090E04F2DDF91CF911F910F91FF9087
:100E70000C945005209166013091670126173707C1
:100E800050F06115710579F52091E8002E772093D7
:100E9000E80020E030E0FC0140E00EC0853029F1A0
:100EA0008091E80083FD23C08091E80082FD15C099
:100EB0008091E80080FD1DC02115310511F4442307
:100EC00061F080915F018111E9CF82E00895809106
:100ED0005F018823D1F3853041F08091E80082FFE3
:100EE000F6CF80E008959B01D6CF83E0089581E09E
:100EF00008954091F3008091F20090E0942B211529
:100F0000310519F08032910568F041E0809709F0D1
:100F100040E08091E8008E778093E800CDCF80326A
:100F2000910599F341914093F100215031090196C7
:100F300021153105A1F7E9CF6115710591F4809173
:100F4000E8008B778093E80006C080915F018823DA
:100F5000C1F0853079F18091E80080FFF6CF80E024
:100F60000895FC010AC0853029F18091E80083FDD5
:100F700023C08091E80082FD06C080915F0181114D
:100F8000F2CF82E008952091F3008091F20090E08A
:100F9000922B892B31F08091F1008193615071097E
:100FA00091F78091E8008B778093E80061157105D7
:100FB00021F7D1CF83E0089581E008952091660163
:100FC000309167012617370750F06115710579F5E3
:100FD0002091E8002E772093E80020E030E0FC012B
:100FE00040E00EC0853029F18091E80083FD23C0E8
:100FF0008091E80082FD15C08091E80080FD1DC051
:101000002115310511F4442361F080915F018111B4
:10101000E9CF82E0089580915F018823D1F3853084
:1010200041F08091E80082FFF6CF80E008959B01B7
:10103000D6CF83E0089581E008954091F300809138
:10104000F20090E0942B2115310519F080329105C2
:1010500068F041E0809709F040E08091E8008E77E9
:101060008093E800CDCF8032910599F3449140936D
:10107000F10031962150310901962115310599F77A
:10108000E8CF873078F58093E900982F242F762FCA
:1010900050E00AC09093E900891751F17091EC007B
:1010A0002091ED005091F00021FF19C03091EB002C
:1010B0003E7F3093EB003091ED003D7F3093ED00AB
:1010C0003091EB0031603093EB007093EC00209393
:1010D000ED005093F0002091EE0027FF07C09F5FC6
:1010E0009730C1F68093E90081E0089580E008958B
:1010F000242F762F50E0D8CF8091600187FF05C064
:1011000012C080915F01882349F08091E80080FF40
:10111000F8CF8091E8008E778093E8000895809161
:101120005F018823D9F38091E80082FFF8CF809196
:10113000E8008B778093E80008950F931F93CF9377
:10114000DF930E94EC080E94F408C8EDD0E088818B
:101150008F77888388818068888388818F7D888362
:1011600019BC10925F0110925B0110925D01109208
:101170005C0100EE10E0F80180818B7F8083888124
:101180008160888342E260E080E00E944108E1EEF5
:10119000F0E080818E7F8083E2EEF0E080818160EC
:1011A0008083808188608083F80180818E7F808346
:1011B000888180618883DF91CF911F910F9108957D
:1011C000E7EDF0E08081816080838AE482BF81E086
:1011D00080935E010C949D08E8EDF0E080818E7FA5
:1011E00080831092E20008951092DA001092E100DC
:1011F00008951F920F920FB60F9211242F933F93D1
:101200004F935F936F937F938F939F93AF93BF930E
:10121000EF93FF938091E10082FF04C08091E20090
:1012200082FD8CC08091DA0080FF04C08091D800DC
:1012300080FD6EC08091E10080FF04C08091E200DB
:1012400080FD84C08091E10084FF29C08091E2008C
:1012500084FF25C080E189BD82E189BD09B400FE1B
:10126000FDCF8091D8008F7D8093D8008091E100E0
:101270008F7E8093E1008091E2008F7E8093E20078
:101280008091E20081608093E20080915B0188237D
:1012900009F472C084E080935F010E94370B809153
:1012A000E10083FF24C08091E20083FF20C0809191
:1012B000E100877F8093E10082E080935F011092DC
:1012C0005B018091E1008E7F8093E1008091E200DC
:1012D0008E7F8093E2008091E20080618093E20043
:1012E00042E260E080E00E9441080E94370BFF91DB
:1012F000EF91BF91AF919F918F917F916F915F918E
:101300004F913F912F910F900FBE0F901F90189506
:101310008091DA008E7F8093DA008091D90080FF7F
:1013200031C080E189BD82E189BD09B400FEFDCFF5
:1013300081E080935F010E94370B7CCF8091E100B8
:101340008B7F8093E1000E94D30B6CCF8091E200F1
:101350008E7F8093E2008091E20080618093E200C2
:101360008091D80080628093D80019BC85E080937A
:101370005F010E94370B66CF8091E30087FD8ACF23
:1013800081E089CF19BC10925F010E94370B52CFC8
:101390000F931F93CF93DF93CDB7DEB7AA970FB606
:1013A000F894DEBF0FBECDBFE0E6F1E028E631E005
:1013B0008091F10081932E173F07D1F70E941D1DE8
:1013C0008091E80083FF09C02091600130916101A4
:1013D000832F90E08A309105C8F08091E80083FF68
:1013E0000AC08091EB0080628093EB008091E8005E
:1013F000877F8093E800AA960FB6F894DEBF0FBEF1
:10140000CDBFDF91CF911F910F910895FC01EA5A52
:10141000FF4F0C9458212111E0CF809162019091EF
:10142000630199270297CCF68091E800877F80932B
:10143000E8008091620180935B010E947C088091AA
:101440005B0181110CC18091E30087FD08C181E03F
:1014500080935F010E94BB0BC0CF203809F0BDCF45
:101460008091E800877F8093E80080915B01809302
:10147000F1008091E8008E778093E8000E947C085C
:10148000ACCF2058223008F0A8CF80916201909113
:1014900063018C3D53E0950709F4ACC0AE014F5F8A
:1014A0005F4F609164010E943821BC01892B09F4CF
:1014B00094CF9091E800977F9093E80089819A817A
:1014C0000E94DE078091E8008B778093E80085CF4B
:1014D000211183CF109162011F770FB7F89480918B
:1014E000E800877F8093E8000E947C088091E800F4
:1014F00080FFFCCF8091E3008078812B8093E30014
:1015000080688093E300111173C082E080935F01D3
:101510000FBF63CF222309F457C0223009F05DCFFB
:1015200080916201811124C080916401877009F467
:1015300054CF8093E9009091EB0090FF19C03330B5
:1015400009F48FC09091EB0090619093EB0021E043
:1015500030E0A90102C0440F551F8A95E2F740937D
:10156000EA001092EA008091EB0088608093EB0023
:101570001092E9008091E800877F8093E8000E9444
:101580007C082BCF203861F1223809F026CF8091DA
:10159000640187708093E9008091EB0085FB8827C8
:1015A00080F91092E9009091E800977F9093E8000D
:1015B0008093F1001092F1008091E8008E77809383
:1015C000E8000E947C0809CF80916201813009F017
:1015D00004CF81E0333009F080E080935D01C8CF13
:1015E00080915C0190915D019923E9F28260DBCFEB
:1015F00083E08CCF83E08A838AE289835FB7F894A3
:10160000DE01139620E03EE041E207C090E0C7967D
:101610008D939D932F5F243181F0E32FF0E0409371
:101620005700849120FF03C082958F703F5F8F70B9
:101630008A3060F790E0C096EBCF5FBF8091E80002
:10164000877F8093E8006AE270E0CE0101960E94F5
:101650003A078091E8008B778093E800BECE84E063
:10166000F7CE8091EB0080628093EB0081CF0895EC
:10167000CF9380915F01882359F0C091E900C77032
:101680001092E9008091E80083FD04C0C093E90056
:10169000CF9108950E94C809F9CFCF93DF93CDB7BA
:1016A000DEB72C970FB6F894DEBF0FBECDBF84B760
:1016B000877F84BF0FB6F894A895809160008861F9
:1016C00080936000109260000FBE90E080E80FB63B
:1016D000F89480936100909361000FBE52985A9ADB
:1016E0008AB188618AB98BB188618BB968E070E092
:1016F00080E090E00E94850C2FEF80E792E021507F
:1017000080409040E1F700C0000086E0E4E0F1E0B6
:10171000DE01179601900D928A95E1F746E050E0C0
:1017200060E070E0CE0101960E94652110921401E4
:10173000FE013796DE0111969E01235F3F4F919186
:101740008D91981306C0E217F307C9F781E08093E3
:1017500014018091140181110CC05C980E94E00872
:101760002C960FB6F894DEBF0FBECDBFDF91CF91A0
:1017700008955B98F3CF42E360E882E00E9441085D
:1017800042E361E881E00E944108E2EEF0E08081FE
:1017900084608083109268011092690110926A013E
:1017A00010926B01089580917D01882391F08091C2
:1017B000130191E0980F90931301883C50F0109220
:1017C0001301809114019BB1811104C088E0892725
:1017D0008BB9089580E189278BB9089540919701CD
:1017E000609168017091690180916A0190916B012B
:1017F0000E945005109268011092690110926A01CE
:1018000010926B0110929801089580915F018430CD
:1018100009F0089580919801813009F43FC08091CA
:1018200098018230E9F1809198018330D9F180915B
:1018300098018430C9F1809198018530B9F1809187
:1018400098018B30A9F1809198018C3011F1809131
:1018500098018E3091F1809198018F3081F18091C3
:101860009801803171F180919801813161F180910D
:101870009801883051F180919801873041F1809131
:101880009801893031F180919801853111F60C94DD
:10189000EE0BE0917701F091780109940C94300DF2
:1018A0000C94C70C0C94700F0C94FE100C94311215
:1018B000E0918C01F0918D0109940C9410040C942A
:1018C0003B030C9434140C9482150C94F5180C946E
:1018D00082180C9462190E944D0B78940E94050C9A
:1018E0000E94380BFBCF882331F0809114018823AC
:1018F00041F05C98089580911401811104C05B9AB5
:1019000008955B9808955C9A08959C0187EF84B9C7
:101910008BEF85B99AB193609AB99BB193609BB9EB
:101920001092BC002115310549F02130310539F103
:101930002230310551F12330310529F180E0683042
:10194000710549F06430710539F06230710569F054
:1019500061307105B1F080689DB587FD0AC09E7F3A
:101960009DBD8F7780658CBD089581689DB587FF8B
:10197000F6CF91609DBD8F7780658CBD089584E022
:10198000DECF8160E9CF8CE0DACF88E0D8CF82E08B
:101990008093E90004C08091E80082FD0FC080912F
:1019A000680190916901A0916A01B0916B01892B46
:1019B0008A2B8B2B81F710929801089580916801F2
:1019C00090916901A0916A01B0916B0181349105F8
:1019D000A105B10578F540916801509169016091C8
:1019E0006A0170916B01242F8091680190916901C7
:1019F000A0916A01B0916B01841B9109A109B10901
:101A00008093680190936901A0936A01B0936B0180
:101A1000442351F080E09091F1009EBD0DB407FE8B
:101A2000FDCF8F5F8217B8F38091E8008B778093AA
:101A3000E800B5CF8091680190916901A0916A0199
:101A4000B0916B0180549109A109B109809368019B
:101A500090936901A0936A01B0936B0120E4DACFFF
:101A6000CF93DF931F92CDB7DEB781E08093E9007B
:101A700004C08091E80080FD16C0809168019091BB
:101A80006901A0916A01B0916B01892B8A2B8B2B84
:101A900081F780916E018111289A109298010F9020
:101AA000DF91CF9108951EBC8091680190916901EA
:101AB000A0916A01B0916B0181349105A105B10536
:101AC00098F180E48983298180916801909169016E
:101AD000A0916A01B0916B01821B9109A109B10922
:101AE0008093680190936901A0936A01B0936B01A0
:101AF0008981823068F08981815089830DB407FE25
:101B0000FDCF8EB58EBD8093F1008981823098F72C
:101B10000DB407FEFDCF8EB58093F1008091E800F3
:101B20008E778093E800A9CF809168019091690138
:101B3000A0916A01B0916B01C5CF809176018EBDF5
:101B40000DB407FEFDCF80918E01843041F180916C
:101B50008E01833009F45FC080918E01823009F4D8
:101B600086C080918E01813009F49EC020917E0153
:101B700030917F018091840190918501A09186012F
:101B8000B0918701820F931FA11DB11D8093840125
:101B900090938501A0938601B09387010895809169
:101BA000840190918501A0918601B09187018B2FCE
:101BB0009927AA27BB278EBD0DB407FEFDCF8091C4
:101BC000840190918501A0918601B0918701CD019A
:101BD000AA27BB278EBD0DB407FEFDCF80918401DF
:101BE00090918501A0918601B0918701892F9A2F4C
:101BF000AB2FBB278EBD0DB407FEFDCF80918401B6
:101C000090918501A0918601B09187018EBD0DB4A0
:101C100007FEFDCFABCF8091840190918501A0910B
:101C20008601B0918701CD01AA27BB278EBD0DB4D7
:101C300007FEFDCF8091840190918501A0918601DE
:101C4000B0918701892F9A2FAB2FBB278EBD0DB482
:101C500007FEFDCF8091840190918501A0918601BE
:101C6000B09187018EBD0DB407FEFDCF7FCF80916F
:101C7000840190918501A0918601B0918701892FFF
:101C80009A2FAB2FBB278EBD0DB407FEFDCF8091E1
:101C9000840190918501A0918601B09187018EBD4C
:101CA0000DB407FEFDCF62CF809184019091850134
:101CB000A0918601B09187018EBD0DB407FEFDCFC6
:101CC00055CF80918E01843081F080918E018330D8
:101CD00009F447C080918E01823009F46EC0809172
:101CE0008E01813009F486C008958091840190911D
:101CF0008501A0918601B09187018B2F9927AA2792
:101D0000BB278EBD0DB407FEFDCF8091840190915D
:101D10008501A0918601B0918701CD01AA27BB273B
:101D20008EBD0DB407FEFDCF809184019091850199
:101D3000A0918601B0918701892F9A2FAB2FBB27E5
:101D40008EBD0DB407FEFDCF809184019091850179
:101D5000A0918601B09187018EBD0DB407FEFDCF25
:101D600008958091840190918501A0918601B091A0
:101D70008701CD01AA27BB278EBD0DB407FEFDCF7D
:101D80008091840190918501A0918601B091870195
:101D9000892F9A2FAB2FBB278EBD0DB407FEFDCF29
:101DA0008091840190918501A0918601B091870175
:101DB0008EBD0DB407FEFDCF0895809184019091F2
:101DC0008501A0918601B0918701892F9A2FAB2FB1
:101DD000BB278EBD0DB407FEFDCF8091840190918D
:101DE0008501A0918601B09187018EBD0DB407FEDB
:101DF000FDCF08958091840190918501A091860185
:101E0000B09187018EBD0DB407FEFDCF08952898CF
:101E10008091A0018EBD0DB407FEFDCF289A0895D4
:101E200028980895289A0895CF93DF9300D000D082
:101E30001F92CDB7DEB719821A821B821C82809155
:101E40008A018823D9F0289880918A018EBD0DB42B
:101E500007FEFDCF3AE13A95F1F700C09FEF9EBD36
:101E60000DB407FEFDCF8EB58D838D81881F882729
:101E7000881F8D838D81882391F3289A28988091DB
:101E80008B018EBD0DB407FEFDCF2FEF85E08A9547
:101E9000F1F7000089819A81AB81BC810196A11D77
:101EA000B11D89839A83AB83BC8389819A81AB817D
:101EB000BC8180319742A105B10549F02EBD0DB41A
:101EC00007FEFDCF8EB58D838D8180FDDFCF289AF3
:101ED0000F900F900F900F900F90DF91CF9108957A
:101EE000CF92DF92EF92FF920F931F9382E0809345
:101EF000E90000E010E0980104C08091E80082FD54
:101F000017C08091680190916901A0916A01B09118
:101F10006B01892B8A2B8B2B81F710929801289AC1
:101F20001F910F91FF90EF90DF90CF900C94140FC2
:101F30008091F3008091F200882309F467C09091AA
:101F4000F1000DB407FEFDCF9EBD482F50E060E0CC
:101F500070E0C0906801D0906901E0906A01F09053
:101F60006B01C416D506E606F70660F440916801D9
:101F70005091690160916A0170916B01842F55271E
:101F800066277727C0906801D0906901E0906A01C8
:101F9000F0906B01C41AD50AE60AF70AC0926801EC
:101FA000D0926901E0926A01F0926B01040F151F53
:101FB000261F371F813049F09091F10081500DB4F8
:101FC00007FEFDCF9EBD8130B9F78091E8008B7789
:101FD0008093E80080917E0190917F01A0E0B0E0C5
:101FE000081719072A073B0709F08BCF8091680172
:101FF00090916901A0916A01B0916B01892B8A2BA4
:102000008B2B51F400E010E098017BCF8091E80029
:102010008B778093E80075CF289A0E94140F289838
:102020008091A0018EBD0DB407FEFDCF289A28989F
:10203000809176018EBD0DB407FEFDCF80918E019B
:10204000843059F180918E01833009F48CC08091E5
:102050008E01823009F46AC080918E01813009F4CA
:1020600058C020917E0130917F0180918401909130
:102070008501A0918601B0918701820F931FA11D58
:10208000B11D8093840190938501A0938601B09344
:10209000870100E010E0980134CF80918401909195
:1020A0008501A0918601B09187018B2F9927AA27DE
:1020B000BB278EBD0DB407FEFDCF809184019091AA
:1020C0008501A0918601B0918701CD01AA27BB2788
:1020D0008EBD0DB407FEFDCF8091840190918501E6
:1020E000A0918601B0918701892F9A2FAB2FBB2732
:1020F0008EBD0DB407FEFDCF8091840190918501C6
:10210000A0918601B09187018EBD0DB407FEFDCF71
:10211000A8CF8091840190918501A0918601B09112
:1021200087018EBD0DB407FEFDCF9BCF809184014A
:1021300090918501A0918601B0918701892F9A2FF6
:10214000AB2FBB278EBD0DB407FEFDCF8091840160
:1021500090918501A0918601B09187018EBD0DB44B
:1021600007FEFDCF7ECF8091840190918501A091E3
:102170008601B0918701CD01AA27BB278EBD0DB482
:1021800007FEFDCF8091840190918501A091860189
:10219000B0918701892F9A2FAB2FBB278EBD0DB42D
:1021A00007FEFDCF8091840190918501A091860169
:1021B000B09187018EBD0DB407FEFDCF52CFCF93F6
:1021C000DF931F92CDB7DEB7289880918B018EBD2B
:1021D0000DB407FEFDCF22E09FEF822F8A95F1F725
:1021E0009EBD0DB407FEFDCF8EB58983898180FD2C
:1021F000F4CF289A0F90DF91CF910895CF92DF927C
:10220000EF92FF92CF93DF9382E08093E90021E089
:1022100004C08091E80085FD14C080916801909110
:102220006901A0916A01B0916B01892B8A2B8B2BDC
:1022300081F7289ADF91CF91FF90EF90DF90CF90B8
:1022400008958091E80082FFE8CF80916801909125
:102250006901A0916A01B0916B0181349105A105DA
:10226000B10508F0D6C0C0906801D0906901E09037
:102270006A01F0906B01DC2DCC2009F4EEC0DD2466
:10228000EE24FF24C0E02898809176018EBD0DB425
:1022900007FEFDCF211135C08091F1008EBD0DB438
:1022A00007FEFDCF289A0E94DF10CF5F20E0CD17F8
:1022B00050F38091680190916901A0916A01B091F9
:1022C0006B018C199D09AE09BF0980936801909339
:1022D0006901A0936A01B0936B01809168019091AC
:1022E0006901A0916A01B0916B01892B8A2B8B2B1C
:1022F00011F4109298018091E8008B778093E800A8
:102300008CCF80918E018430E1F080918E018330FA
:1023100009F453C080918E01823009F481C080910C
:102320008E01813009F0B8CF8091840190918501B0
:10233000A0918601B09187018EBD0DB407FEFDCF3F
:10234000ABCF8091840190918501A0918601B091DD
:1023500087018B2F9927AA27BB278EBD0DB407FEB7
:10236000FDCF8091840190918501A0918601B0916B
:102370008701CD01AA27BB278EBD0DB407FEFDCF77
:102380008091840190918501A0918601B09187018F
:10239000892F9A2FAB2FBB278EBD0DB407FEFDCF23
:1023A0008091840190918501A0918601B09187016F
:1023B0008EBD0DB407FEFDCF6FCF8091840190914B
:1023C0008501A0918601B0918701CD01AA27BB2785
:1023D0008EBD0DB407FEFDCF8091840190918501E3
:1023E000A0918601B0918701892F9A2FAB2FBB272F
:1023F0008EBD0DB407FEFDCF8091840190918501C3
:10240000A0918601B09187018EBD0DB407FEFDCF6E
:1024100043CFE0E4CE2ED12CE12CF12CD0E432CF0E
:102420008091840190918501A0918601B0918701EE
:10243000892F9A2FAB2FBB278EBD0DB407FEFDCF82
:102440008091840190918501A0918601B0918701CE
:102450008EBD0DB407FEFDCF1FCFC12CD12C760150
:1024600028CFCF92DF92EF92FF92CF93DF9382E05B
:102470008093E90021E004C08091E80085FD14C04C
:102480008091680190916901A0916A01B0916B01FE
:10249000892B8A2B8B2B81F7289ADF91CF91FF9084
:1024A000EF90DF90CF9008958091E80082FFE8CF11
:1024B0008091680190916901A0916A01B0916B01CE
:1024C00081349105A105B10508F0DCC0C090680118
:1024D000D0906901E0906A01F0906B01DC2DCC2076
:1024E00009F4F4C0DD24EE24FF24C0E02898809194
:1024F00076018EBD0DB407FEFDCF21113BC080914A
:10250000F1008EBD0DB407FEFDCF8091F1008EBDB0
:102510000DB407FEFDCF289A0E94DF10CE5F20E0A9
:10252000CD1720F38091680190916901A0916A0113
:10253000B0916B018C199D09AE09BF0980936801A8
:1025400090936901A0936A01B0936B018091680137
:1025500090916901A0916A01B0916B01892B8A2B3E
:102560008B2B11F4109298018091E8008B77809367
:10257000E80086CF80918E018430E1F080918E0159
:10258000833009F453C080918E01823009F481C0F8
:1025900080918E01813009F0B2CF809184019091B9
:1025A0008501A0918601B09187018EBD0DB407FE13
:1025B000FDCFA5CF8091840190918501A0918601E6
:1025C000B09187018B2F9927AA27BB278EBD0DB409
:1025D00007FEFDCF8091840190918501A091860135
:1025E000B0918701CD01AA27BB278EBD0DB407FE90
:1025F000FDCF8091840190918501A0918601B091D9
:102600008701892F9A2FAB2FBB278EBD0DB407FEF4
:10261000FDCF8091840190918501A0918601B091B8
:1026200087018EBD0DB407FEFDCF69CF8091840177
:1026300090918501A0918601B0918701CD01AA27D3
:10264000BB278EBD0DB407FEFDCF80918401909114
:102650008501A0918601B0918701892F9A2FAB2F18
:10266000BB278EBD0DB407FEFDCF809184019091F4
:102670008501A0918601B09187018EBD0DB407FE42
:10268000FDCF3DCFE0E4CE2ED12CE12CF12CD0E4D7
:102690002CCF8091840190918501A0918601B09109
:1026A0008701892F9A2FAB2FBB278EBD0DB407FE54
:1026B000FDCF8091840190918501A0918601B09118
:1026C00087018EBD0DB407FEFDCF19CFC12CD12CD3
:1026D000760128CF809315016093A1011CBC87EF80
:1026E00084B989E085B91092BC00519A8091150196
:1026F000813011F059980895599A0895FC0161505C
:1027000021E030E002C0220F331F6A95E2F7211565
:102710003105B9F041E00EC02A9A36952795299ADD
:10272000942F9A95F1F72998942F9A95F1F72115FE
:10273000310539F0BF0162237323672B69F72A98AB
:10274000ECCF0895289A6091A1019091A1016D5F4D
:10275000925023E130E0A90102C0440F551F9A9521
:10276000E2F7CA010E947E13289808950E94A213DE
:10277000289A6091A1019091A1016D5F925022E190
:1027800030E0A90102C0440F551F9A95E2F7CA0133
:102790000E947E1328980895289A6091A101909133
:1027A000A1016D5F925020E130E0A90102C0440F09
:1027B000551F9A95E2F7CA010E947E132898089542
:1027C000CF92DF92EF92FF926B017C01289A63E037
:1027D00086E090E00E947E136091A101C6010E94F4
:1027E0007E1398E080E031E0880F299A232F2A9504
:1027F000F1F72998232F2A95F1F71B9981609150C1
:1028000099F72898FF90EF90DF90CF900895CF929E
:10281000DF92EF92FF926B017C01289A63E086E0E1
:1028200090E00E947E136091A101C6010E947E1378
:1028300020E180E090E041E0880F991F299A342F31
:102840003A95F1F72998342F3A95F1F71B99816061
:10285000215091F7289825E32A95F1F70000FF9081
:10286000EF90DF90CF900895CF92DF92EF92FF929A
:102870000F931F93CF93DF9381E08093E9008091C2
:102880001501813029F481C08091E80080FD17C0D6
:102890008091680190916901A0916A01B0916B01EA
:1028A000892B8A2B8B2B81F710929801DF91CF9186
:1028B0001F910F91FF90EF90DF90CF90089580913E
:1028C000680190916901A0916A01B0916B01813416
:1028D0009105A105B10508F04DC0C0906801D090E8
:1028E0006901E0906A01F0906B01DC2D8091150187
:1028F000882309F484C0DD24EE24FF24DD2301F1C4
:10290000C0E0609184017091850180918601909171
:1029100087018B019C010F5F1F4F2F4F3F4F00938B
:1029200084011093850120938601309387010E94D2
:1029300007149093F1008093F100CE5FCD1708F358
:102940008091680190916901A0916A01B0916B0139
:102950008C199D09AE09BF098093680190936901A4
:10296000A0936A01B0936B018091E8008E77809309
:10297000E8008ECF809115018823E1F0D0E480E457
:10298000C82ED12CE12CF12CBBCF809184019091E9
:102990008501A0918601B0918701B695A79597957D
:1029A00087958093840190938501A0938601B093CD
:1029B00087016ECF90E4C92ED12CE12CF12CD0E40C
:1029C000C0E06091840170918501809186019091B1
:1029D00087018B019C010F5F1F4F2F4F3F4F0093CB
:1029E00084011093850120938601309387010E9412
:1029F000E0138093F100CF5FCD1718F3A1CFCC2067
:102A000021F0DD24EE24FF24DBCFC12CD12C760174
:102A100097CFCF92DF92EF92FF92CF936B017C0121
:102A2000C42F289A63E085E090E00E947E136091B5
:102A3000A101C6010E947E1368E08C2F90E00E94E5
:102A40007E132898289A8AE18A95F1F700C095E0CC
:102A50009A95F1F7000083B1887020E030E00CC057
:102A600085E08A95F1F7000083B188702F5F3F4FB2
:102A70002F3097E2390711F0882391F32898CF91EE
:102A8000FF90EF90DF90CF900895CF92DF92EF927A
:102A9000FF92CF93DF936B017C01EA01289A63E0F8
:102AA00085E090E00E947E136091A101C6010E9422
:102AB0007E1360E1CE010E947E132898289A8AE155
:102AC0008A95F1F700C095E09A95F1F7000083B17F
:102AD000887020E030E00CC085E08A95F1F70000B6
:102AE00083B188702F5F3F4F2F3097E2390711F085
:102AF000882391F32898DF91CF91FF90EF90DF909A
:102B0000CF900895CF92DF92EF92FF92CF93DF9311
:102B10000E94A21382E08093E90080911501813028
:102B200029F4B4C08091E80082FD17C0809168014B
:102B300090916901A0916A01B0916B01892B8A2B58
:102B40008B2B81F70E94CC1310929801DF91CF91CB
:102B5000FF90EF90DF90CF90089580916801909161
:102B60006901A0916A01B0916B0181349105A105C1
:102B7000B10508F04DC04091680150916901609124
:102B80006A0170916B01D42F809168019091690165
:102B9000A0916A01B0916B01841B9109A109B1094F
:102BA0008093680190936901A0936A01B0936B01CF
:102BB00080911501882309F47EC0442319F1C0E0F7
:102BC0002091F1004091F1006091840170918501A4
:102BD00080918601909187016B017C013FEFC31AC0
:102BE000D30AE30AF30AC0928401D0928501E092ED
:102BF0008601F092870150E0522B0E944515CE5F6E
:102C0000CD17F0F28091E8008B778093E8008ECFAB
:102C10008091680190916901A0916A01B0916B0166
:102C200080549109A109B1098093680190936901C9
:102C3000A0936A01B0936B0180911501D0E48111DA
:102C4000BECFC0E04091F100609184017091850198
:102C500080918601909187016B017C012FEFC21A50
:102C6000D20AE20AF20AC0928401D0928501E0926F
:102C70008601F09287010E940915CF5FCD1710F3EE
:102C80008091E8008B778093E80050CF8091840199
:102C900090918501A0918601B0918701B695A79585
:102CA000979587958093840190938501A0938601E1
:102CB000B09387013BCF4111C4CFA4CF98E080E00F
:102CC00031E0880F1B998160299A232F2A95F1F70B
:102CD00029989150B1F7089594E080E031E0880F91
:102CE000880F1B9982601A998160299A232F2A954F
:102CF000F1F72998915099F70895489B1DC080E8F5
:102D0000499980641B9980621A998061299A91E09F
:102D1000292F2A95F1F729989A95F1F74899886013
:102D2000499984601B9982601A998160299A91E07F
:102D30009A95F1F72998089580E0E2CF98E031E084
:102D400009C02A98880F299A232F2A95F1F72998E4
:102D5000915021F087FFF5CF2A9AF4CF089594E09F
:102D600031E087FD10C02B9886FF0BC02A9A299A64
:102D7000232F2A95F1F72998880F880F915089F70A
:102D800008952A98F4CF2B9AEFCF92E031E087FD97
:102D90001CC0589886FF11C0599A85FF11C02B9A04
:102DA00084FF11C02A9A299A232F2A95F1F729988E
:102DB0008295807F915059F70895599885FDEFCFFE
:102DC0002B9884FDEFCF2A98EECF589AE3CF239823
:102DD000229A519A509A599A589A0895229A239A67
:102DE0000895229A239A519A509A089522982398E6
:102DF0000895229823985198509808951CBC1092D9
:102E0000BC000E94E716209A219A299A29980895D1
:102E1000299A81E08A95F1F72998089580919B017C
:102E20008130D9F080919B01823081F18EE996E169
:102E300090937A01809379018EE596E190937001E9
:102E400080936F0187EE96E19093730180937201F6
:102E50009093960180939501089585EC96E1909367
:102E60007A01809379018DE796E1909370018093C8
:102E70006F0181EF96E1909373018093720189EF66
:102E800096E1909396018093950108958FEA96E1DB
:102E900090937A01809379018CE696E1909370018A
:102EA00080936F018EEE96E190937301809372018F
:102EB00086EF96E190939601809395010895843072
:102EC000C9F0823081F18EE996E190937A01809386
:102ED00079018EE596E19093700180936F0187EE02
:102EE00096E1909373018093720190939601809381
:102EF0009501089585EC96E190937A01809379018C
:102F00008DE796E19093700180936F0181EF96E1D8
:102F1000909373018093720189EF96E190939601EB
:102F20008093950108958FEA96E190937A018093BA
:102F300079018CE696E19093700180936F018EEE9B
:102F400096E1909373018093720186EF96E19093DE
:102F50009601809395010895CF9380919B018823DA
:102F6000C9F080919B01813071F080919B0182308A
:102F7000C1F080919B01833031F080919B018430BE
:102F800081F0C0E001C0C4E08C2F0E945F178C2F3D
:102F9000CF910895C1E08C2F0E945F178C2FCF91A5
:102FA0000895C2E08C2F0E945F178C2FCF91089557
:102FB000E0917201F091730109950E94100F8091C8
:102FC000A001E0917901F0917A0109950C94120F1A
:102FD00080918E01843041F160918401709185016E
:102FE0008091860190918701E0917901F0917A01B9
:102FF00009958091840190918501A0918601B091FD
:103000008701E0917901F0917A01892F09958091EA
:10301000840190918501A0918601B0918701E09192
:103020007901F0917A010994809184019091850150
:10303000A0918601B0918701E0917901F0917A0128
:103040008B2F0995C9CFE0917201F0917301099519
:1030500080917601E0917901F0917A0109950C94C3
:10306000E817CF93DF931F92CDB7DEB70E940E17FC
:103070000E94100FE0917201F09173010995809107
:103080008A0181111BC080918B01E0917901F0913F
:103090007A010995E0919501F09196010995E091E9
:1030A0006F01F091700109958983898180FDF7CFC7
:1030B0000E94120F0F90DF91CF91089580918A01A5
:1030C000E0917901F0917A010995E0919501F091F3
:1030D00096010995E0916F01F0917001099589833E
:1030E0008981881F8827881F89838981882391F394
:1030F0000E94120F0E94100FE0917201F091730173
:103100000995C1CFCF93DF93E0917201F0917301E4
:10311000099582E08093E90004C08091E80082FD77
:1031200011C08091680190916901A0916A01B091EC
:103130006B01892B8A2B8B2B81F710929801DF91E1
:10314000CF9108958091680190916901A0916A01E1
:10315000B0916B0181349105A105B10580F54091D5
:1031600068015091690160916A0170916B01D42FDF
:103170008091680190916901A0916A01B0916B0101
:10318000841B9109A109B109809368019093690199
:10319000A0936A01B0936B01442359F0C0E0809181
:1031A000F100E0917901F0917A010995CF5FCD1797
:1031B000B0F38091E8008B778093E800B2CF8091E4
:1031C000680190916901A0916A01B0916B018054EE
:1031D0009109A109B1098093680190936901A093B5
:1031E0006A01B0936B01D0E4D9CF1F93CF93DF93E3
:1031F0001F92CDB7DEB7E0919501F0919601099548
:1032000081E08093E90004C08091E80080FD18C04F
:103210008091680190916901A0916A01B0916B0160
:10322000892B8A2B8B2B81F780916E0181110E9453
:10323000120F109298010F90DF91CF911F91089576
:103240008091680190916901A0916A01B0916B0130
:1032500081349105A105B10560F180E4898329815C
:103260008091680190916901A0916A01B0916B0110
:10327000821B9109A109B1098093680190936901AA
:10328000A0936A01B0936B018981882361F010E0FB
:10329000E0916F01F091700109958093F1001F5F3B
:1032A00089811817A8F38091E8008E778093E80051
:1032B000AFCF8091680190916901A0916A01B091AE
:1032C0006B01CCCFCF93DF9300D000D0CDB7DEB76A
:1032D0008091680190916901A0916A01B0916B01A0
:1032E00089839A83AB83BC8389819A81AB81BC81BA
:1032F000892B8A2B8B2B09F049C067C080917E01F6
:1033000090917F01A0E0B0E0809368019093690103
:10331000A0936A01B0936B0189819A81AB81BC81D2
:10332000409168015091690160916A0170916B014F
:10333000841B950BA60BB70B89839A83AB83BC8345
:1033400020917E0130917F018091840190918501CF
:10335000A0918601B0918701820F931FA11DB11D1D
:103360008093840190938501A0938601B093870197
:103370000E9482180E94120F0E94311889819A813E
:10338000AB81BC81892B8A2B8B2BF9F00E940E1705
:103390000E94D8170E94100F0E9423180E94AC1799
:1033A00080917E0190917F0149815A816B817C815E
:1033B000A0E0B0E084179507A607B70708F49ECFF2
:1033C00089819A81AB81BC819FCF109298010F9027
:1033D0000F900F900F90DF91CF910895482F50E0FC
:1033E00097E068E00AC08AE28A95F1F700C0519838
:1033F00080E28A95F1F79150A0F09A01092E02C05F
:10340000359527950A94E2F7519A20FFECCF862F45
:103410008A95F1F751988AE48A95F1F700C09150A6
:1034200060F7519A88E08A95F1F751988AE08A9579
:10343000F1F789B190E49A95F1F78695817091E062
:1034400089270895582F98E080E048E03AE0519AA3
:10345000242F2A95F1F75198232F2A95F1F729B1B6
:1034600060E46A95F1F7880F21FD8F5F915079F73D
:10347000519A511109C06AE26A95F1F700C051985A
:1034800090E29A95F1F7089598E09A95F1F751989E
:103490009AE49A95F1F700C00895CF93DF93EC0179
:1034A0001CBC519A599A1092BC005198F894519AA8
:1034B0008FE193E00197F1F700C00000519890E38D
:1034C0009A95F1F7519A88E0982F9A95F1F75198CB
:1034D000519A8A95F1F751988AE08A95F1F789B166
:1034E00090E49A95F1F78695817091E08927809311
:1034F0001601188219821A82519887E592E0019785
:10350000F1F700C0000080911201880F816C0E94C9
:10351000EE1980E00E94221A888380E00E94221A1D
:10352000898381E00E94221A8A837894DF91CF9167
:103530000895EF92FF920F931F93CF93DF937C0137
:10354000F894519887E592E00197F1F700C00000E8
:1035500080911201880F806B0E94EE19811107C0C3
:10356000DF91CF911F910F91FF90EF90089580E030
:103570000E94EE195198E7E5F2E03197F1F700C0AB
:10358000000080911201880F816B0E94EE19882340
:1035900039F3E7018701015E1F4F04C080E00E94FC
:1035A000221A8993C017D107C9F781E00E94221A15
:1035B000F701878F519887E592E00197F1F700C0F6
:1035C000000080E20E94EE1980E60E94EE195198F8
:1035D000E7E5F2E03197F1F700C00000882351F0F1
:1035E000F70110A27894DF91CF911F910F91FF9076
:1035F000EF90089581E0F70180A3F4CFDF92EF927E
:10360000FF920F931F93CF93DF938C01F894D09088
:1036100012018D2D880F806BD82E80E190E0A0E004
:10362000B0E08093840190938501A0938601B093CC
:10363000870180E1E82EC0E080917E0190917F01BA
:103640002E2D30E08217930708F058C080917E013C
:1036500090917F01F82E519887E592E00197F1F75C
:1036600000C000008D2D0E94EE19882309F43EC091
:103670008091840190918501A0918601B09187018C
:103680000E94EE19882391F1FF2059F0DF2DDC0F05
:10369000F801EC0FF11D80810E94EE19CF5FDC1361
:1036A000F7CF519887E592E00197F1F700C000004D
:1036B0008FE19EE40197F1F700C00000EF188091C0
:1036C000840190918501A0918601B09187018F0DB1
:1036D000911DA11DB11D8093840190938501A0933C
:1036E0008601B0938701E110A7CF7894DF91CF9145
:1036F0001F910F91FF90EF90DF900895FE2CABCFBC
:10370000F894519887E592E00197F1F700C0000026
:1037100080E20E94EE1980E60E94EE1980E00E948D
:10372000EE19519887E592E00197F1F700C000008B
:1037300078940895FC018081809376018181809343
:10374000A001828180938B01838180938A0184818F
:1037500080938E0185819681982789279827909359
:103760007F0180937E0167817085818592850E94AB
:103770005E2160938401709385018093860190930C
:1037800087012385848590E0A0E0B0E0BA2FA92FBF
:10379000982F8827A22B2585822B809368019093F0
:1037A0006901A0936A01B0936B01868580939B01A8
:1037B00008950F931F93CF93DF93CDB7DEB7609734
:1037C0000FB6F894DEBF0FBECDBF60916601709159
:1037D000670108EE10E0F8018081877F8083CE01C9
:1037E00001960E949C07CE0101960E949A1B0E949E
:1037F000070F0E94100F0E949D0D83E08093980197
:10380000F80180818E77808360960FB6F894DEBFD2
:103810000FBECDBFDF91CF911F910F910895FC0195
:10382000808180937101818180938E016281738197
:10383000848195810E945E2160938401709385014B
:1038400080938601909387012681878190E0A0E094
:10385000B0E0BA2FA92F982F8827A22B2085822B82
:103860008093680190936901A0936A01B0936B0102
:10387000818590E09093920180939101828580935D
:103880009B010895CF938091E800877F8093E800A3
:10389000609166017091670187E191E00E949C0749
:1038A00087E191E00E940F1C0E94100F0E940E17EA
:1038B000E0917201F0917301099580917101E0919D
:1038C0007901F0917A0109950E94E8170E94AC17DE
:1038D000E0919501F0919601099580919101909167
:1038E0009201892B69F0C0E00E940817CF5F809198
:1038F0009101909192012C2F30E028173907A0F305
:1039000088E08093980181E080936E018091E800C7
:103910008E778093E800CF9108958091E800877FAB
:103920008093E800609166017091670187E191E002
:103930000E949C0787E191E00E940F1C0E94100FDB
:10394000809171018EBD0DB407FEFDCF0E94610E06
:103950008091910190919201892B81F080E090E01B
:103960004FEF4EBD0DB407FEFDCF2EB5089620914A
:103970009101309192018217930798F381E080932F
:10398000980180936E018091E8008E778093E80023
:103990000895FC0180819181A281B381809384018B
:1039A00090938501A0938601B093870184819581CE
:1039B000A681B7818093680190936901A0936A0101
:1039C000B0936B018085918590937F0180937E01F8
:1039D000828580938E01089581E08093E00080E2EB
:1039E0008093D800E9ECF0E010828FE19EE401972B
:1039F000F1F700C000001DBA109268001CBC10BE98
:103A00001FBA10927A0010926E0010926F001092FE
:103A10007100109272001082ECEBF0E0108214B88A
:103A200017B81AB81DB810BA108215B818B81BB854
:103A30001EB811BA0C9400370895E09161018E2FE1
:103A400090E0FC017097E73EF10508F5E05AFF4F62
:103A50000C94582140916201417060916401709111
:103A6000650187E191E00E94F1068091E800877F7F
:103A70008093E800609166017091670187E191E0B1
:103A80000E943A078091E8008B778093E8000895C0
:103A90000E94120F8091E800877F8093E8000C94C9
:103AA0007C080E94100F8091E800877F8093E800D7
:103AB0000C947C088091E800877F8093E8000E9446
:103AC0007C080C94B6138091E800877F8093E8000F
:103AD0000E947C0810927D0180E00C94730C809110
:103AE000E800877F8093E8000E947C0810927D01A7
:103AF00081E00C94730C8091E800877F8093E8004C
:103B00008091620190916301909317018093180155
:103B100080916401909165019093190180931A013D
:103B200064E070E0ABCF8091E800877F8093E8008D
:103B300064E070E080E091E00E943A078091E80044
:103B40008B778093E80008958091E800877F8093C9
:103B5000E80080915A018093170161E070E08ECFF8
:103B60008091E800877F8093E80060916601709102
:103B7000670187E191E00E949C07609117017091B5
:103B800018018091190190911A010E945E216093A1
:103B90008401709385018093860190938701209121
:103BA0001B0180911C0190E0A0E0B0E0BA2FA92F8A
:103BB000982F8827A22B20911D01822B80936801CA
:103BC00090936901A0936A01B0936B018091E80022
:103BD0008E778093E8008FE080939801089580911C
:103BE000E800877F8093E80060916601709167012B
:103BF00087E191E00E949C07609117017091180184
:103C00008091190190911A010E945E2160938401B4
:103C100070938501809386019093870120911B0109
:103C200080911C0190E0A0E0B0E0BA2FA92F982F5E
:103C30008827A22B20911D01822B809368019093ED
:103C40006901A0936A01B0936B018091E8008E77BF
:103C50008093E8008EE0809398010895809162013E
:103C6000809359018091640190916501909357016F
:103C7000809358010E947F028091E800877F8093A3
:103C8000E8000C947C088091E800877F8093E8002E
:103C9000609166017091670187E191E00E949C0745
:103CA00087E191E00E949A1B8091E8008E778093D3
:103CB000E80089E08093980108950C94421C2091BB
:103CC000620130916301C9019927A0E0B0E0DC01F5
:103CD00099278827409164015091650160E070E068
:103CE000842B952BA62BB72B8093680190936901A9
:103CF000A0936A01B0936B01832F0E945F1780919C
:103D0000E800877F8093E8000E947C0887E080932A
:103D1000980108952091620130916301C9019927AA
:103D2000A0E0B0E0DC019927882740916401509120
:103D3000650160E070E0842B952BA62BB72B809358
:103D4000680190936901A0936A01B0936B01832F7E
:103D50000E945F178091E800877F8093E8000E94AF
:103D60007C0810926E0188E08093980108958091FC
:103D7000E800877F8093E800809198018093170185
:103D800061E070E07BCE8091E800877F8093E8005F
:103D90000E947C0881E080937D0108958091E80075
:103DA000877F8093E80087E191E00E94991A61E2A1
:103DB00070E064CE809164018093120187E191E00C
:103DC0000E944D1A8091E800877F8093E80063E0AD
:103DD00070E054CE87E191E00E94E4058091E80014
:103DE000877F8093E80060E470E048CE0C94EC1C80
:103DF0000E94801B8091E800877F8093E8000C94EC
:103E00007C088091E800877F8093E80060916601DC
:103E10007091670187E191E00E949C0787E191E042
:103E20000E94FE1A8091E8008E778093E800089542
:103E30008091E800877F8093E8006091660170912F
:103E4000670187E191E00E949C0787E191E00E9471
:103E5000C91C8091E8008E778093E80083E180930D
:103E600098010895409162014170609164017091E0
:103E7000650187E191E00E94A8068091E800877FB4
:103E80008093E8006091660170916701F7CD4091E1
:103E900062014170609164017091650187E191E078
:103EA0000E9494058091E800877F8093E8006091EC
:103EB000660170916701E2CD809164010E94E10486
:103EC0008091E800877F8093E8000C947C08209123
:103ED000620130916301C901A0E0B0E0DC019927E3
:103EE0008827409164015091650160E070E0842B67
:103EF000952BA62BB72BB77080936801909369011F
:103F0000A0936A01B0936B01832F881F8827881FB5
:103F1000809397018091E800877F8093E8000E945A
:103F20007C0885E1809398010895809164010C9448
:103F300097048091E800877F8093E8006091660194
:103F40007091670187E191E00E949C0787E191E011
:103F50000E94AD048091E8008E778093E800089578
:103F60008091E800877F8093E8000E947C080C9491
:103F7000BE040C948D1C8091E800877F8093E8003C
:103F80000E947C088091620190916301A0E0B0E002
:103F9000DC01992788272091640130916501820F07
:103FA000931FA11DB11D8093680190936901A09397
:103FB0006A01B0936B0182E080939801089580912B
:103FC000E800877F8093E8000E947C08809162016E
:103FD00090916301A0E0B0E0DC019927882720914F
:103FE000640130916501820F931FA11DB11D809363
:103FF000680190936901A0936A01B0936B0181E01D
:104000008093980110926E0108958091E800877F57
:104010008093E8008091640190916501019709F413
:1040200021C12C988091E8008E778093E800089554
:104030008091E800877F8093E8006091660170912D
:10404000670187E191E00E949C07409166015091D1
:104050006701609164017091650187E191E00E94C0
:104060007521E0CF4091620150916301609164013C
:104070007091650187E191E00E946521AFCE80914A
:10408000E800877F8093E80060916401709165018A
:1040900080916201909163010E94850C8091E800FB
:1040A0008E778093E80008958091E800877F809361
:1040B000E8000E94FE168091E8008E778093E80069
:1040C00008958091E800877F8093E8006091660101
:1040D0007091670187E191E00E949C076091170150
:1040E000709118018091190190911A010E945E212E
:1040F000609368017093690180936A0190936B01EA
:1041000060911B0170911C0180911D0190911E0115
:104110000E945E21609384017093850180938601E3
:10412000909387018091E8008E778093E80080E18A
:104130008093980108958091E800877F8093E8003C
:104140000E947C0860916501809164010C946A135F
:104150008091E800877F8093E8006091660170910C
:10416000670187E191E00E949C0787E191E00E944E
:104170009A1B8091E8008E778093E800809164011B
:1041800090916501029709F46FC084E080939801D3
:1041900008950C94D91B8091E800877F8093E800F4
:1041A000609166017091670187E191E00E949C0730
:1041B00060911701709118018091190190911A0175
:1041C0000E945E21609368017093690180936A0187
:1041D00090936B0160911B0170911C0180911D01F6
:1041E00090911E010E945E2160938401709385016D
:1041F00080938601909387018091E8008E77809369
:10420000E80081E18093980108958091E800877F1C
:104210008093E800609166017091670187E191E009
:104220000E949C0787E191E00E94C91C8091E800F0
:104230008E778093E80084E18093980108958091BF
:10424000E800877F8093E8006091660170916701C4
:1042500087E191E00E949C078091E8008E7780932F
:10426000E80008952C9ADECE85E0809398010895A9
:10427000292F30E02130310599F02230310541F00D
:1042800080E090E020E030E0FA013183208308955F
:1042900080E290E02EE834E0FA0131832083089533
:1042A00082E190E02EEA34E0FA0131832083089520
:1042B000EE0FFF1F0590F491E02D099469279627D2
:1042C00069277827872778270895DC01CB01FC012F
:1042D000F999FECF06C0F2BDE1BDF89A319600B45F
:1042E0000D9241505040B8F70895DC01CB0103C056
:1042F0002D910E94802141505040D0F70895262FE3
:10430000F999FECF1FBA92BD81BD20BD0FB6F894BA
:0E431000FA9AF99A0FBE01960895F894FFCF1D
:0C431E0043343535504342322E34000049
:00000001FF
