:100000000C9444020C9461020C9461020C94610201
:100010000C9461020C9461020C9461020C946102D4
:100020000C9461020C9461020C9461020C94BF0860
:100030000C9461020C9461020C9461020C946102B4
:100040000C9461020C9461020C9461020C946102A4
:100050000C9461020C9461020C9461020C94610294
:100060000C9461020C9461020C9461020C94610284
:100070000C946102630A2B0A8E092B0A8E09090A65
:10008000E2098E09CE09AC096C1E321F1B1FC91C68
:10009000C91CC91CC91CC91CC91CC91C171FC91CE7
:1000A000C91CC91CC91CC91CC91CC91CE91EDE1EEF
:1000B000C91CC91CC91CC91EC91CC91CC91CC91C16
:1000C000C91CC91CC91CC91CC91CC91CB41EAC1C38
:1000D000C91CC91CC91CC91CC91CC91CC91CC91CF8
:1000E000C91CC91CC91CC91CC11FD31CCA1C871F21
:1000F000611F3D1F3B1F4B202A201D20E31F4D2069
:10010000DC1CC91CC91CC91CD61FD31CCA1C0C1E54
:10011000E11DDF1DC51DC91CC91CC91CC91CC91C8A
:10012000C91CC91CC91CC91CB01D711D321D261D4E
:10013000C91CC91CC91CC91CC91CC91CC91CC91C97
:10014000C91CC91CC91CC91CC91CC91CC91CC91C87
:10015000C91CC91CC91CC91CC91CC91CC91CC91C77
:10016000C91CC91CC91CC91C151DFD1CF11CE51CA2
:10017000451EC91CC91CC91CC91CC91CC91CC91CD9
:10018000C91CC91CC91C391EA120B71CC91CC91C0B
:10019000C91CC91CC91CC91CC91CC91CC91CC91C37
:1001A000C91CC91CC91CC91CC91CC91CC91CC91C27
:1001B000C91CC91CC91CC91CC91CC91CC91CC91C17
:1001C000C91CC91CC91CC91C5C1E9A1E8720501E54
:1001D000831E7A1EC91CC91CC91CC91CC91CC91C88
:1001E000C91CC91CC91CC91CC91CC91CC91CC91CE7
:1001F000C91CC91CC91CC91CC91CC91CC91CC91CD7
:10020000C91CC91CC91CC91CC91CC91CC91CC91CC6
:10021000C91CC91CC91CC91CC91CC91CC91CC91CB6
:10022000C91CC91CC91CC91CC91CC91CC91CC91CA6
:10023000C91CC91CC91CC91CC91CC91CC91CC91C96
:10024000C91CC91CC91CC91CC91CC91CC91CC91C86
:10025000781E9A1FB41F00000202020A0A2A1A0618
:1002600006061616563607000101010505150D0391
:1002700003030B0B2B1B030300000002020A060101
:1002800001010505150D1F03070000010105030FFE
:100290000F0F2F2FAF6F1F03070700010105030F7B
:1002A0000F0F2F2FAF6F0F01030302000002010792
:1002B0000707171757371F03070701050001030F2B
:1002C0000F0F2F2FAF6F0F01030300020200010772
:1002D0000707171757370700010101050515000328
:1002E00003030B0B2B1B01010505051515553500E7
:1002F000000002020A061F03070707171757370FE8
:100300000000010105031F03070707171757370FE1
:100310000F00010105030F010303030B0B2B1B0748
:100320000702000002011F03070707171757370FBF
:100330000F01050001030F010303030B0B2B1B0728
:1003400007000202000107000101010505150D0368
:1003500003030B0B2B000001020304040506050335
:100360000405050607060300010203030405040251
:10037000030404050605020300010202030403014D
:100380000203030405040503030001010203020440
:10039000050606070807050303040001020302041B
:1003A0000506060708070402020303000102010311
:1003B0000405050607060503030402030001020401
:1003C00005060607080704020203010203000103F1
:1003D00004050506070603010102030304050002E4
:1003E00003040405060501020304050506070600CB
:1003F00001020203040305030304050506070604BE
:1004000000010102030205030304050506070604B3
:1004100005000102030204020203040405060503A9
:100420000403000102010503030405050607060491
:100430000502030001020402020304040506050389
:100440000401020300010301010203030405040285
:10045000030404050600090220000101008064096C
:10046000040000020000000007050202400000072F
:100470000581024000001201000200000020C016A9
:10048000DE0501000000000111241FBEC0E0D2E023
:10049000DEBFCDBF11E0A0E0B1E0E2E2F2E402C0D5
:1004A00005900D92AC30B107D9F721E0ACE0B1E096
:1004B00001C01D92A23AB207E1F70E940C0C0C9405
:1004C0000F210C94000084B1806C84B92F9A2E9A6D
:1004D00080E580935A01089598E007C02F98880F0F
:1004E00000002E9A0000915029F02E9887FFF6CF39
:1004F0002F9AF5CF2E982F9A00002E9A84E606C0E8
:1005000095E09A95F1F70000815041F01E9BF8CFDD
:1005100083B18095881F8827881F089580E00895FB
:100520002E9800002F9A00002E9A00002F980000AD
:100530000C946C020F931F93CF93DF93082F2F9887
:1005400000000E946C02182FC1E3D0E006C0802F8B
:100550000E946C02219719F0182F1123C1F3812FEB
:10056000DF91CF911F910F910895CF93C0915901C1
:100570008091840190918501A0918601B0918701BD
:1005800020915701220F220F220F04C0B695A79584
:10059000979587952A95D2F780FDC26081FDC4604A
:1005A00082FDC8608C2F0E949A028823A1F080915E
:1005B00057018230B1F08091840190918501A09122
:1005C0008601B09187010E946C0280E580935A01F8
:1005D0008C2FCF91089581E580935A0180E0CF91CF
:1005E00008958091840190918501A0918601B09138
:1005F0008701892F0E946C02DECF1F93CF93DF9378
:100600001092980182E08093E900C0E004C08091DC
:10061000E80082FD15C08091680190916901A09168
:100620006A01B0916B01892B8A2B8B2B81F7C11149
:10063000A2C080E580935A01DF91CF911F91089568
:100640008091680190916901A0916A01B0916B015C
:1006500081349105A105B10508F06EC04091680193
:100660005091690160916A0170916B01142F809122
:10067000680190916901A0916A01B0916B01841B9E
:100680009109A109B1098093680190936901A09330
:100690006A01B0936B01442309F448C0D0E004C060
:1006A000DF5FD11708F042C0C11129C02091580165
:1006B0008091840190918501A0918601B09187017C
:1006C000C091580121508223C81B0E94B50280911D
:1006D000840190918501A0918601B09187018C0FD2
:1006E000911DA11DB11D8093840190938501A0935C
:1006F0008601B093870180915A01813599F18091EB
:10070000F1000E946C02C15059F62E982F980000FB
:100710002E9A00002F9A00008FE19EE40197F1F7D6
:1007200000C00000DF5FD11708F4BECF8091E80061
:100730008B778093E8006FCF809168019091690179
:10074000A0916A01B0916B0180549109A109B1098E
:100750008093680190936901A0936A01B0936B0143
:1007600010E49CCF8091E8008B778093E800DF91C4
:10077000CF911F9108952E982F9800002E9A000077
:100780002F9A00008FE19EE40197F1F700C000006E
:1007900050CF38E090E020E02E982F9A00002E9A5B
:1007A000000007C045E04A95F1F700009F5F9436CE
:1007B000D1F01E9BF7CF220F1F992F5F315061F7A9
:1007C0002E98811112C02F9800002E9A07C085E044
:1007D0008A95F1F700009F5F943629F01E9BF7CFB2
:1007E0000000822F089580E008952F9AEDCFCF93D7
:1007F000DF931092980181E08093E9000E94B50296
:1008000090915A01913509F46EC08F5F0E94900259
:1008100004C08091E80080FD19C08091680190912A
:100820006901A0916A01B0916B01892B8A2B8B2BF6
:1008300081F72E982F9800002E9A00002F9A000022
:1008400080E580935A01DF91CF91089580916801EE
:1008500090916901A0916A01B0916B018134910579
:10086000A105B105C0F58091680190916901A09141
:100870006A01B0916B01D82F882379F1C0E01BC0C9
:1008800080E00E94C9038093F100809168019091FB
:100890006901A0916A01B0916B010197A109B109A9
:1008A0008093680190936901A0936A01B0936B01F2
:1008B000CF5FCD1790F48091680190916901A0916C
:1008C0006A01B0916B010197A105B105C9F681E0FC
:1008D0000E94C903D8CFD0E4D1CF8091E8008E77B1
:1008E0008093E8009ACF8091E8008E778093E800AB
:1008F000DF91CF9108951CBC1092C90080E880BFA1
:10090000E4E6F0E080818C628083E5E6F0E08081BF
:10091000816080838DEF84B980E185B90895FC0101
:100920008081809311018181809310018281809365
:100930000F01838180930E01848180930D010895BE
:1009400084E185B925E09FE152E09695892F880FD3
:10095000880F847080612B9A42E0352F3A95F1F729
:1009600085B9215091F780E185B92B9A942F9A95FA
:10097000F1F794E195B92B9A942F9A95F1F785B9EF
:1009800040930C01089520910C012295207F282B83
:1009900030E0F901EA5AFC4F4491F901EA5AFD4F5F
:1009A0002491922F990F990F9470906195B93FEF10
:1009B000340F442371F052E02695922F990F990F2E
:1009C000947090612B9A452F4A95F1F795B9315063
:1009D00098F780930C01089580910C018B3009F1F8
:1009E0008430D9F0813029F18230F9F0893049F131
:1009F000833099F0853009F1863031F18730E9F0A4
:100A00008830B9F08A3069F08C3011F18D3021F1E5
:100A10008E30F1F08F3069F0089585E080930C01FD
:100A200008958CE080930C01089589E080930C0177
:100A3000089582E080930C01089588E080930C0172
:100A4000089510920C01089587E080930C01089599
:100A50008FE080930C0108958EE080930C0108953F
:100A6000CF92DF92EF92FF926B017C0181E185B919
:100A7000442311F181E0C81AD108E108F10811F10D
:100A800080E090E0DC0169E152E031E165B9252FB9
:100A90002A95F1F735B90196A11DB11D8C159D055B
:100AA000AE05BF0598F341110DC080E185B9FF90F7
:100AB000EF90DF90CF900895C114D104E104F104C8
:100AC000F9F6F3CF85E185B98DE185B982E08A95A4
:100AD000F1F781E185B90E94EC0480E185B9FF90CE
:100AE000EF90DF90CF900895EF92FF920F931F93B6
:100AF000CF93DF93EC01DB01109761F120E030E050
:100B000060E070E080E001E010E02F5F3F4FFE0109
:100B1000E80FF11D90819170A217B30789F19061E0
:100B200095B92B9A508156955083199B07C078012F
:100B3000072E01C0EE0C0A94EAF76E2995B97F5F83
:100B4000783089F0A217B30701F7772319F0C80F9F
:100B5000D11D688341110CC0DF91CF911F910F917E
:100B6000FF90EF90089560838F5F60E070E0EACFC0
:100B7000DF91CF911F910F91FF90EF900C94EC04B7
:100B8000442369F29461CCCFBF92CF92DF92EF926F
:100B9000FF920F931F93CF93DF9300D000D0CDB778
:100BA000DEB78C0180E4F80111928A95E9F70E9482
:100BB000A0048BE00E94C30420E290E24FEF5FEFBD
:100BC000BA0183B1842F8170806185B92B9A7695A3
:100BD00067955795479585B9915099F7215069F7D1
:100BE00084E00E94C30430E290E180E223B195B931
:100BF0002B9A95B98150D1F73150B9F79AE081E03D
:100C000041E050E060E070E0C12CD12C7601199BEE
:100C100004C0C42AD52AE62AF72A806185B92B9A0E
:100C2000440F551F661F771F85B9915080E079F7F3
:100C3000C114D104E104F10409F459C0BB24B394F4
:100C4000F694E794D794C794C0FC04C0B394FAE038
:100C5000BF12F6CF80E00E94C3048BE00E94C30461
:100C600037E090E180E223B195B92B9A95B9815094
:100C7000D1F73150B9F78FE19EE40197F1F700C049
:100C8000000083B181E185B92B9A85B9FF24F394E3
:100C900080E193B185B92B9A85B991FD05C0F39494
:100CA0009FEFF912F6CFF12C82E00E94C304F80105
:100CB000B082F18280E00E94C30484E00E94C304F9
:100CC000F12C40E060E270E0CE0101960E947405D4
:100CD0008C81F80182838B8183838A8184838981DB
:100CE0008583F3940C5F1F4FFB1458F303C080E01F
:100CF0000E94C3040F900F900F900F90DF91CF913F
:100D00001F910F91FF90EF90DF90CF90BF900895CB
:100D1000FF920F931F93CF93DF93EC018B01F42E7F
:100D20008BE00E94C304409110014423D1F050E0B5
:100D300060E070E081E185B980E090E0DC01F9E1FC
:100D4000E2E031E1F5B92E2F2A95F1F735B9019698
:100D5000A11DB11D84179507A607B70798F380E179
:100D600085B980910F0181110AC04F2DB801CE01C4
:100D7000DF91CF911F910F91FF900C94740540E08B
:100D8000B801CE010E94740560910F0170E080E00F
:100D900090E04F2DDF91CF911F910F91FF900C9418
:100DA0003005FF920F931F93CF93DF93EC018B01DC
:100DB000F42E84E00E94C30440910E014423D1F03C
:100DC00050E060E070E081E185B980E090E0DC0116
:100DD000F9E1E2E031E1F5B92E2F2A95F1F735B9C5
:100DE0000196A11DB11D84179507A607B70798F3B3
:100DF00080E185B980910D0181110AC04F2DB801A4
:100E0000CE01DF91CF911F910F91FF900C9474054B
:100E100040E0B801CE010E94740560910D0170E0C0
:100E200080E090E04F2DDF91CF911F910F91FF90C7
:100E30000C94300520916601309167012617370721
:100E400050F06115710579F52091E8002E77209317
:100E5000E80020E030E0FC0140E00EC0853029F1E0
:100E60008091E80083FD23C08091E80082FD15C0D9
:100E70008091E80080FD1DC02115310511F4442347
:100E800061F080915F018111E9CF82E00895809146
:100E90005F018823D1F3853041F08091E80082FF23
:100EA000F6CF80E008959B01D6CF83E0089581E0DE
:100EB00008958091F20090E02115310519F08032FB
:100EC000910568F041E0809709F040E08091E800EA
:100ED0008E778093E800D0CF8032910599F34191CD
:100EE0004093F10021503109019621153105A1F7F8
:100EF000E9CF6115710591F48091E8008B778093BB
:100F0000E80006C080915F018823C1F0853059F167
:100F10008091E80080FFF6CF80E00895FC010AC0D0
:100F2000853009F18091E80083FD1FC08091E800C1
:100F300082FD06C080915F018111F2CF82E00895A9
:100F40008091F200882331F08091F100819361500B
:100F50007109B1F78091E8008B778093E800611503
:100F6000710541F7D5CF83E0089581E00895209180
:100F70006601309167012617370750F0611571053A
:100F800079F52091E8002E772093E80020E030E00A
:100F9000FC0140E00EC0853029F18091E80083FD1E
:100FA00023C08091E80082FD15C08091E80080FD9B
:100FB0001DC02115310511F4442361F080915F01BA
:100FC0008111E9CF82E0089580915F018823D1F3F8
:100FD000853041F08091E80082FFF6CF80E00895EF
:100FE0009B01D6CF83E0089581E008958091F200BF
:100FF00090E02115310519F08032910568F041E04B
:10100000809709F040E08091E8008E778093E800B7
:10101000D0CF8032910599F344914093F1003196FD
:101020002150310901962115310599F7E8CF853016
:1010300078F58093E900982F242F762F50E00AC08E
:101040009093E900891751F17091EC002091ED0027
:101050005091F00021FF19C03091EB003E7F30939A
:10106000EB003091ED003D7F3093ED003091EB00CF
:1010700031603093EB007093EC002093ED005093BF
:10108000F0002091EE0027FF07C09F5F9530C1F66A
:101090008093E90081E0089580E00895242F762F61
:1010A00050E0D8CF8091600187FF05C012C08091C9
:1010B0005F01882349F08091E80080FFF8CF80919C
:1010C000E8008E778093E800089580915F0188237F
:1010D000D9F38091E80082FFF8CF8091E8008B7708
:1010E0008093E80008950E94B9080E94BC0880918E
:1010F000D8008F778093D8008091D8008068809343
:10110000D8008091D8008F7D8093D80084E089BD7D
:1011100086E089BD09B400FEFDCF10925F011092F8
:101120005B0110925D0110925C0142E260E080E0A0
:101130000E9417088091E1008E7F8093E1008091EA
:10114000E20081608093E2008091E20088608093F9
:10115000E2008091E0008E7F8093E0000895E3E656
:10116000F0E080818E7F808381E080935E010C942B
:1011700073081092E20008951092E10008951F9202
:101180000F920FB60F9211242F933F934F935F93BB
:101190006F937F938F939F93AF93BF93EF93FF933F
:1011A0008091E10082FF04C08091E20082FD83C053
:1011B0008091E10080FF04C08091E20080FD66C064
:1011C0008091E10084FF29C08091E20084FF25C066
:1011D00084E089BD86E089BD09B400FEFDCF809121
:1011E000D8008F7D8093D8008091E1008F7E80931E
:1011F000E1008091E2008F7E8093E2008091E20026
:1012000081608093E20080915B01882309F45BC0D8
:1012100084E080935F010E94D80A8091E10083FFFF
:1012200024C08091E20083FF20C08091E100877F8D
:101230008093E10082E080935F0110925B018091D6
:10124000E1008E7F8093E1008091E2008E7F8093A9
:10125000E2008091E20080618093E20042E260E07F
:1012600080E00E9417080E94D80AFF91EF91BF9179
:10127000AF919F918F917F916F915F914F913F912E
:101280002F910F900FBE0F901F9018958091E20044
:101290008E7F8093E2008091E20080618093E20083
:1012A0008091D80080628093D80019BC10925F01B1
:1012B0000E94D80A85CF8091E1008B7F8093E10066
:1012C0000E94740B75CF8091E30087FDA1CF81E070
:1012D000A0CF0F931F93CF93DF93CDB7DEB7AA971D
:1012E0000FB6F894DEBF0FBECDBFE0E6F1E028E612
:1012F00031E08091F10081932E173F07D1F70E94D2
:101300009F1C8091E80083FF09C02091600130910B
:101310006101832F90E08A309105C8F08091E80048
:1013200083FF0AC08091EB0080628093EB00809184
:10133000E800877F8093E800AA960FB6F894DEBF96
:101340000FBECDBFDF91CF911F910F910895FC018A
:10135000E65CFF4F0C94DA202111E0CF809162010E
:101360009091630199270297CCF68091E800877FDE
:101370008093E8008091620180935B010E94520893
:1013800080915B0181110CC18091E30087FD08C150
:1013900081E080935F010E945C0BC0CF203809F090
:1013A000BDCF8091E800877F8093E80080915B014A
:1013B0008093F1008091E8008E778093E8000E948E
:1013C0005208ACCF2058223008F0A8CF809162019B
:1013D000909163018C3D53E0950709F4ACC0AE01D8
:1013E0004F5F5F4F609164010E94BA20BC01892B5E
:1013F00009F494CF9091E800977F9093E800898159
:101400009A810E94B7078091E8008B778093E8006B
:1014100085CF211183CF109162011F770FB7F89408
:101420008091E800877F8093E8000E9452088091B5
:10143000E80080FFFCCF8091E3008078812B8093CF
:10144000E30080688093E300111173C082E0809311
:101450005F010FBF63CF222309F457C0223009F088
:101460005DCF80916201811124C0809164018770F9
:1014700009F454CF8093E9009091EB0090FF19C0DC
:10148000333009F48FC09091EB0090619093EB00A2
:1014900021E030E0A90102C0440F551F8A95E2F710
:1014A0004093EA001092EA008091EB0088608093FC
:1014B000EB001092E9008091E800877F8093E800BC
:1014C0000E9452082BCF203861F1223809F026CF34
:1014D0008091640187708093E9008091EB0085FB27
:1014E000882780F91092E9009091E800977F909307
:1014F000E8008093F1001092F1008091E8008E776F
:101500008093E8000E94520809CF809162018130E7
:1015100009F004CF81E0333009F080E080935D0171
:10152000C8CF80915C0190915D019923E9F28260BE
:10153000DBCF83E08CCF83E08A838AE289835FB745
:10154000F894DE01139620E03EE041E207C090E00F
:10155000C7968D939D932F5F243181F0E32FF0E0A8
:1015600040935700849120FF03C082958F703F5FA6
:101570008F708A3060F790E0C096EBCF5FBF8091AC
:10158000E800877F8093E8006AE270E0CE01019670
:101590000E941A078091E8008B778093E800BECE06
:1015A00084E0F7CE8091EB0080628093EB0081CFE6
:1015B0000895CF9380915F01882359F0C091E9008D
:1015C000C7701092E9008091E80083FD04C0C093C9
:1015D000E900CF9108950E946909F9CFCF93DF9375
:1015E000CDB7DEB72C970FB6F894DEBF0FBECDBFD8
:1015F00084B7877F84BF0FB6F894A8958091600068
:10160000886180936000109260000FBE90E080E8D7
:101610000FB6F89480936100909361000FBE5298CA
:101620005A9A8AB188618AB98BB188618BB968E0AE
:1016300070E080E090E00E94260C2FEF80E792E0BF
:10164000215080409040E1F700C0000086E0E4E0D7
:10165000F1E0DE01179601900D928A95E1F746E0E0
:1016600050E060E070E0CE0101960E94E720109209
:101670001401FE013796DE0111969E01235F3F4F54
:1016800091918D91981306C0E217F307C9F781E095
:10169000809314018091140181110CC05C980E9408
:1016A000AF082C960FB6F894DEBF0FBECDBFDF910A
:1016B000CF9108955B98F3CF42E360E882E00E9407
:1016C000170842E361E881E00E941708E2EEF0E0CB
:1016D0008081846080831092680110926901109269
:1016E0006A0110926B01089580917D01882391F029
:1016F0008091130191E0980F90931301883C50F072
:1017000010921301809114019BB1811104C088E0F3
:1017100089278BB9089580E189278BB90895409175
:101720009701609168017091690180916A019091BF
:101730006B010E94300510926801109269011092AD
:101740006A0110926B0110929801089580915F01D7
:10175000843009F0089580919801813009F43FC0E8
:10176000809198018230E9F1809198018330D9F11C
:10177000809198018430C9F1809198018530B9F148
:10178000809198018B30A9F1809198018C3011F1F2
:10179000809198018E3091F1809198018F3081F184
:1017A00080919801803171F180919801813161F1CE
:1017B00080919801883051F180919801873041F1F2
:1017C00080919801893031F180919801853111F62D
:1017D0000C948F0BE0917701F091780109940C94AF
:1017E000C60C0C945D0C0C94060F0C9492100C9487
:1017F000C511E0918C01F0918D0109940C94F703CF
:101800000C94FD020C94C4130C9412150C948818BB
:101810000C9415180C94F5180E94EE0A78940E9406
:10182000A60B0E94D90AFBCF882331F080911401C6
:10183000882341F05C98089580911401811104C0BF
:101840005B9A08955B9808955C9A089527EF24B9F0
:101850002BEF25B9009741F08130910531F18230AD
:10186000910549F1039729F180E06830710549F04D
:101870006430710539F06230710569F061307105CD
:10188000B1F080689DB587FD0AC09E7F9DBD8F77B2
:1018900080658CBD089581689DB587FFF6CF916006
:1018A0009DBD8F7780658CBD089584E0DECF81601B
:1018B000E9CF8CE0DACF88E0D8CF82E08093E900EE
:1018C00004C08091E80082FD0FC080916801909172
:1018D0006901A0916A01B0916B01892B8A2B8B2B36
:1018E00081F71092980108958091680190916901A3
:1018F000A0916A01B0916B0181349105A105B105F8
:1019000078F5409168015091690160916A01709188
:101910006B01242F8091680190916901A0916A0167
:10192000B0916B01841B9109A109B10980936801F1
:1019300090936901A0936A01B0936B01442351F025
:1019400080E09091F1009EBD0DB407FEFDCF8F5F4A
:101950008217B8F38091E8008B778093E800B5CFC9
:101960008091680190916901A0916A01B0916B0129
:1019700080549109A109B10980936801909369018C
:10198000A0936A01B0936B0120E4DACFCF93DF9389
:101990001F92CDB7DEB781E08093E90004C080914B
:1019A000E80080FD16C08091680190916901A091C6
:1019B0006A01B0916B01892B8A2B8B2B81F7809167
:1019C0006E018111289A109298010F90DF91CF91AA
:1019D00008951EBC8091680190916901A0916A01EF
:1019E000B0916B0181349105A105B10598F180E4B6
:1019F000898329818091680190916901A0916A0190
:101A0000B0916B01821B9109A109B1098093680112
:101A100090936901A0936A01B0936B018981823030
:101A200068F08981815089830DB407FEFDCF8EB5A2
:101A30008EBD8093F1008981823098F70DB407FE46
:101A4000FDCF8EB58093F1008091E8008E77809372
:101A5000E800A9CF8091680190916901A0916A0185
:101A6000B0916B01C5CF809176018EBD0DB407FE9C
:101A7000FDCF80918E01843041F180918E018330C1
:101A800009F45FC080918E01823009F486C0809194
:101A90008E01813009F49EC020917E0130917F013A
:101AA0008091840190918501A0918601B091870178
:101AB000820F931FA11DB11D809384019093850116
:101AC000A0938601B093870108958091840190913D
:101AD0008501A0918601B09187018B2F9927AA27B4
:101AE000BB278EBD0DB407FEFDCF80918401909180
:101AF0008501A0918601B0918701CD01AA27BB275E
:101B00008EBD0DB407FEFDCF8091840190918501BB
:101B1000A0918601B0918701892F9A2FAB2FBB2707
:101B20008EBD0DB407FEFDCF80918401909185019B
:101B3000A0918601B09187018EBD0DB407FEFDCF47
:101B4000ABCF8091840190918501A0918601B091E5
:101B50008701CD01AA27BB278EBD0DB407FEFDCF9F
:101B60008091840190918501A0918601B0918701B7
:101B7000892F9A2FAB2FBB278EBD0DB407FEFDCF4B
:101B80008091840190918501A0918601B091870197
:101B90008EBD0DB407FEFDCF7FCF80918401909163
:101BA0008501A0918601B0918701892F9A2FAB2FD3
:101BB000BB278EBD0DB407FEFDCF809184019091AF
:101BC0008501A0918601B09187018EBD0DB407FEFD
:101BD000FDCF62CF8091840190918501A091860113
:101BE000B09187018EBD0DB407FEFDCF55CF80911A
:101BF0008E01843081F080918E01833009F447C0DA
:101C000080918E01823009F46EC080918E01813006
:101C100009F486C008958091840190918501A09176
:101C20008601B09187018B2F9927AA27BB278EBDEC
:101C30000DB407FEFDCF8091840190918501A091A4
:101C40008601B0918701CD01AA27BB278EBD0DB4B7
:101C500007FEFDCF8091840190918501A0918601BE
:101C6000B0918701892F9A2FAB2FBB278EBD0DB462
:101C700007FEFDCF8091840190918501A09186019E
:101C8000B09187018EBD0DB407FEFDCF0895809100
:101C9000840190918501A0918601B0918701CD01C9
:101CA000AA27BB278EBD0DB407FEFDCF809184010E
:101CB00090918501A0918601B0918701892F9A2F7B
:101CC000AB2FBB278EBD0DB407FEFDCF80918401E5
:101CD00090918501A0918601B09187018EBD0DB4D0
:101CE00007FEFDCF08958091840190918501A09118
:101CF0008601B0918701892F9A2FAB2FBB278EBD0C
:101D00000DB407FEFDCF8091840190918501A091D3
:101D10008601B09187018EBD0DB407FEFDCF0895F9
:101D20008091840190918501A0918601B0918701F5
:101D30008EBD0DB407FEFDCF089528988091A001B7
:101D40008EBD0DB407FEFDCF289A089528980895FA
:101D5000289A0895CF93DF9300D000D01F92CDB77B
:101D6000DEB719821A821B821C8280918A01882325
:101D7000D9F0289880918A018EBD0DB407FEFDCF61
:101D80003AE13A95F1F700C09FEF9EBD0DB407FE12
:101D9000FDCF8EB58D838D81881F8827881F8D8309
:101DA0008D81882391F3289A289880918B018EBD8C
:101DB0000DB407FEFDCF2FEF85E08A95F1F7000007
:101DC00089819A81AB81BC810196A11DB11D898356
:101DD0009A83AB83BC8389819A81AB81BC8180313A
:101DE0009742A105B10549F02EBD0DB407FEFDCF08
:101DF0008EB58D838D8180FDDFCF289A0F900F9057
:101E00000F900F900F90DF91CF910895CF92DF92B6
:101E1000EF92FF920F931F9382E08093E90000E01E
:101E200010E0980104C08091E80082FD17C0809105
:101E3000680190916901A0916A01B0916B01892BB1
:101E40008A2B8B2B81F710929801289A1F910F9162
:101E5000FF90EF90DF90CF900C94AA0E8091F2004B
:101E6000882309F467C09091F1000DB407FEFDCFFF
:101E70009EBD482F50E060E070E0C0906801D090B7
:101E80006901E0906A01F0906B01C416D506E60680
:101E9000F70660F4409168015091690160916A0110
:101EA00070916B01842F552766277727C0906801B2
:101EB000D0906901E0906A01F0906B01C41AD50AD4
:101EC000E60AF70AC0926801D0926901E0926A01BD
:101ED000F0926B01040F151F261F371F813049F048
:101EE0009091F10081500DB407FEFDCF9EBD813071
:101EF000B9F78091E8008B778093E80080917E01AC
:101F000090917F01A0E0B0E0081719072A073B076E
:101F100009F08DCF8091680190916901A0916A01CB
:101F2000B0916B01892B8A2B8B2B51F400E010E0D0
:101F300098017DCF8091E8008B778093E80077CF80
:101F4000289A0E94AA0E28988091A0018EBD0DB4F7
:101F500007FEFDCF289A2898809176018EBD0DB49A
:101F600007FEFDCF80918E01843059F180918E0162
:101F7000833009F48CC080918E01823009F46AC0EC
:101F800080918E01813009F458C020917E013091FA
:101F90007F018091840190918501A0918601B0918B
:101FA0008701820F931FA11DB11D8093840190931F
:101FB0008501A0938601B093870100E010E09801AD
:101FC00036CF8091840190918501A0918601B091D6
:101FD00087018B2F9927AA27BB278EBD0DB407FE3B
:101FE000FDCF8091840190918501A0918601B091EF
:101FF0008701CD01AA27BB278EBD0DB407FEFDCFFB
:102000008091840190918501A0918601B091870112
:10201000892F9A2FAB2FBB278EBD0DB407FEFDCFA6
:102020008091840190918501A0918601B0918701F2
:102030008EBD0DB407FEFDCFA8CF80918401909195
:102040008501A0918601B09187018EBD0DB407FE78
:10205000FDCF9BCF8091840190918501A091860155
:10206000B0918701892F9A2FAB2FBB278EBD0DB45E
:1020700007FEFDCF8091840190918501A09186019A
:10208000B09187018EBD0DB407FEFDCF7ECF80914C
:10209000840190918501A0918601B0918701CD01C5
:1020A000AA27BB278EBD0DB407FEFDCF809184010A
:1020B00090918501A0918601B0918701892F9A2F77
:1020C000AB2FBB278EBD0DB407FEFDCF80918401E1
:1020D00090918501A0918601B09187018EBD0DB4CC
:1020E00007FEFDCF52CFCF93DF931F92CDB7DEB760
:1020F000289880918B018EBD0DB407FEFDCF22E0A4
:102100009FEF822F8A95F1F79EBD0DB407FEFDCF9C
:102110008EB58983898180FDF4CF289A0F90DF9155
:10212000CF910895CF92DF92EF92FF92CF93DF93FA
:1021300082E08093E90021E004C08091E80085FD01
:1021400014C08091680190916901A0916A01B091D9
:102150006B01892B8A2B8B2B81F7289ADF91CF91EA
:10216000FF90EF90DF90CF9008958091E80082FF7C
:10217000E8CF8091680190916901A0916A01B091C6
:102180006B0181349105A105B10508F0D6C0C0905E
:102190006801D0906901E0906A01F0906B01DC2D3C
:1021A000CC2009F4EEC0DD24EE24FF24C0E0289802
:1021B000809176018EBD0DB407FEFDCF211135C093
:1021C0008091F1008EBD0DB407FEFDCF289A0E94CC
:1021D0007310CF5F20E0CD1750F38091680190918C
:1021E0006901A0916A01B0916B018C199D09AE093A
:1021F000BF098093680190936901A0936A01B0932D
:102200006B018091680190916901A0916A01B09180
:102210006B01892B8A2B8B2B11F4109298018091E2
:10222000E8008B778093E8008CCF80918E0184301A
:10223000E1F080918E01833009F453C080918E01CA
:10224000823009F481C080918E01813009F0B8CFCD
:102250008091840190918501A0918601B0918701C0
:102260008EBD0DB407FEFDCFABCF80918401909160
:102270008501A0918601B09187018B2F9927AA270C
:10228000BB278EBD0DB407FEFDCF809184019091D8
:102290008501A0918601B0918701CD01AA27BB27B6
:1022A0008EBD0DB407FEFDCF809184019091850114
:1022B000A0918601B0918701892F9A2FAB2FBB2760
:1022C0008EBD0DB407FEFDCF8091840190918501F4
:1022D000A0918601B09187018EBD0DB407FEFDCFA0
:1022E0006FCF8091840190918501A0918601B0917A
:1022F0008701CD01AA27BB278EBD0DB407FEFDCFF8
:102300008091840190918501A0918601B09187010F
:10231000892F9A2FAB2FBB278EBD0DB407FEFDCFA3
:102320008091840190918501A0918601B0918701EF
:102330008EBD0DB407FEFDCF43CFE0E4CE2ED12CF1
:10234000E12CF12CD0E432CF809184019091850171
:10235000A0918601B0918701892F9A2FAB2FBB27BF
:102360008EBD0DB407FEFDCF809184019091850153
:10237000A0918601B09187018EBD0DB407FEFDCFFF
:102380001FCFC12CD12C760128CFCF92DF92EF92B4
:10239000FF92CF93DF9382E08093E90021E004C0B5
:1023A0008091E80085FD14C08091680190916901D9
:1023B000A0916A01B0916B01892B8A2B8B2B81F73D
:1023C000289ADF91CF91FF90EF90DF90CF90089502
:1023D0008091E80082FFE8CF8091680190916901C7
:1023E000A0916A01B0916B0181349105A105B105FD
:1023F00008F0DCC0C0906801D0906901E0906A01EB
:10240000F0906B01DC2DCC2009F4F4C0DD24EE2427
:10241000FF24C0E02898809176018EBD0DB407FEA0
:10242000FDCF21113BC08091F1008EBD0DB407FEA0
:10243000FDCF8091F1008EBD0DB407FEFDCF289A2F
:102440000E947310CE5F20E0CD1720F380916801C9
:1024500090916901A0916A01B0916B018C199D095D
:10246000AE09BF098093680190936901A0936A0146
:10247000B0936B018091680190916901A0916A010C
:10248000B0916B01892B8A2B8B2B11F41092980140
:102490008091E8008B778093E80086CF80918E0151
:1024A0008430E1F080918E01833009F453C0809133
:1024B0008E01823009F481C080918E01813009F053
:1024C000B2CF8091840190918501A0918601B09155
:1024D00087018EBD0DB407FEFDCFA5CF809184018D
:1024E00090918501A0918601B09187018B2F99274A
:1024F000AA27BB278EBD0DB407FEFDCF80918401B6
:1025000090918501A0918601B0918701CD01AA2704
:10251000BB278EBD0DB407FEFDCF80918401909145
:102520008501A0918601B0918701892F9A2FAB2F49
:10253000BB278EBD0DB407FEFDCF80918401909125
:102540008501A0918601B09187018EBD0DB407FE73
:10255000FDCF69CF8091840190918501A091860182
:10256000B0918701CD01AA27BB278EBD0DB407FE10
:10257000FDCF8091840190918501A0918601B09159
:102580008701892F9A2FAB2FBB278EBD0DB407FE75
:10259000FDCF8091840190918501A0918601B09139
:1025A00087018EBD0DB407FEFDCF3DCFE0E4CE2EFA
:1025B000D12CE12CF12CD0E42CCF8091840190918E
:1025C0008501A0918601B0918701892F9A2FAB2FA9
:1025D000BB278EBD0DB407FEFDCF80918401909185
:1025E0008501A0918601B09187018EBD0DB407FED3
:1025F000FDCF19CFC12CD12C760128CF80931501A6
:102600006093A1011CBC87EF84B989E085B98091F2
:102610001501813009F008952F9A0895FC01615049
:1026200021E030E002C0220F331F6A95E2F7211546
:102630003105B9F041E00EC02A9A36952795299ABE
:10264000942F9A95F1F72998942F9A95F1F72115DF
:10265000310539F0BF0162237323672B69F72A988C
:10266000ECCF0895289A6091A1019091A1016D5F2E
:10267000925023E130E0A90102C0440F551F9A9502
:10268000E2F7CA010E940E13289808950E9432139F
:10269000289A6091A1019091A1016D5F925022E171
:1026A00030E0A90102C0440F551F9A95E2F7CA0114
:1026B0000E940E1328980895289A6091A101909184
:1026C000A1016D5F925020E130E0A90102C0440FEA
:1026D000551F9A95E2F7CA010E940E132898089593
:1026E000CF92DF92EF92FF926B017C01289A63E018
:1026F00086E090E00E940E136091A101C6010E9445
:102700000E1398E080E031E0880F299A232F2A9554
:10271000F1F72998232F2A95F1F71B9981609150A1
:1027200099F72898FF90EF90DF90CF900895CF927F
:10273000DF92EF92FF926B017C01289A63E086E0C2
:1027400090E00E940E136091A101C6010E940E1339
:1027500020E180E090E041E0880F991F299A342F12
:102760003A95F1F72998342F3A95F1F71B99816042
:10277000215091F7289825E32A95F1F70000FF9062
:10278000EF90DF90CF900895CF92DF92EF92FF927B
:102790000F931F93CF93DF9381E08093E9008091A3
:1027A0001501813029F481C08091E80080FD17C0B7
:1027B0008091680190916901A0916A01B0916B01CB
:1027C000892B8A2B8B2B81F710929801DF91CF9167
:1027D0001F910F91FF90EF90DF90CF90089580911F
:1027E000680190916901A0916A01B0916B018134F7
:1027F0009105A105B10508F04DC0C0906801D090C9
:102800006901E0906A01F0906B01DC2D8091150167
:10281000882309F484C0DD24EE24FF24DD2301F1A4
:10282000C0E0609184017091850180918601909152
:1028300087018B019C010F5F1F4F2F4F3F4F00936C
:1028400084011093850120938601309387010E94B3
:1028500097139093F1008093F100CE5FCD1708F3AA
:102860008091680190916901A0916A01B0916B011A
:102870008C199D09AE09BF09809368019093690185
:10288000A0936A01B0936B018091E8008E778093EA
:10289000E8008ECF809115018823E1F0D0E480E438
:1028A000C82ED12CE12CF12CBBCF809184019091CA
:1028B0008501A0918601B0918701B695A79597955E
:1028C00087958093840190938501A0938601B093AE
:1028D00087016ECF90E4C92ED12CE12CF12CD0E4ED
:1028E000C0E0609184017091850180918601909192
:1028F00087018B019C010F5F1F4F2F4F3F4F0093AC
:1029000084011093850120938601309387010E94F2
:1029100070138093F100CF5FCD1718F3A1CFCC20B7
:1029200021F0DD24EE24FF24DBCFC12CD12C760155
:1029300097CFCF92DF92EF92FF92CF936B017C0102
:10294000C42F289A63E085E090E00E940E13609106
:10295000A101C6010E940E1368E08C2F90E00E9436
:102960000E132898289A8AE18A95F1F700C095E01D
:102970009A95F1F7000083B1887020E030E00CC038
:1029800085E08A95F1F7000083B188702F5F3F4F93
:102990002F3097E2390711F0882391F32898CF91CF
:1029A000FF90EF90DF90CF900895CF92DF92EF925B
:1029B000FF92CF93DF936B017C01EA01289A63E0D9
:1029C00085E090E00E940E136091A101C6010E9473
:1029D0000E1360E1CE010E940E132898289A8AE116
:1029E0008A95F1F700C095E09A95F1F7000083B160
:1029F000887020E030E00CC085E08A95F1F7000097
:102A000083B188702F5F3F4F2F3097E2390711F065
:102A1000882391F32898DF91CF91FF90EF90DF907A
:102A2000CF900895CF92DF92EF92FF92CF93DF93F2
:102A30000E94321382E08093E90080911501813079
:102A400029F4B4C08091E80082FD17C0809168012C
:102A500090916901A0916A01B0916B01892B8A2B39
:102A60008B2B81F70E945C1310929801DF91CF911C
:102A7000FF90EF90DF90CF90089580916801909142
:102A80006901A0916A01B0916B0181349105A105A2
:102A9000B10508F04DC04091680150916901609105
:102AA0006A0170916B01D42F809168019091690146
:102AB000A0916A01B0916B01841B9109A109B10930
:102AC0008093680190936901A0936A01B0936B01B0
:102AD00080911501882309F47EC0442319F1C0E0D8
:102AE0002091F1004091F100609184017091850185
:102AF00080918601909187016B017C013FEFC31AA1
:102B0000D30AE30AF30AC0928401D0928501E092CD
:102B10008601F092870150E0522B0E94D514CE5FBF
:102B2000CD17F0F28091E8008B778093E8008ECF8C
:102B30008091680190916901A0916A01B0916B0147
:102B400080549109A109B1098093680190936901AA
:102B5000A0936A01B0936B0180911501D0E48111BB
:102B6000BECFC0E04091F100609184017091850179
:102B700080918601909187016B017C012FEFC21A31
:102B8000D20AE20AF20AC0928401D0928501E09250
:102B90008601F09287010E949914CF5FCD1710F340
:102BA0008091E8008B778093E80050CF809184017A
:102BB00090918501A0918601B0918701B695A79566
:102BC000979587958093840190938501A0938601C2
:102BD000B09387013BCF4111C4CFA4CF98E080E0F0
:102BE00031E0880F1B998160299A232F2A95F1F7EC
:102BF00029989150B1F7089594E080E031E0880F72
:102C0000880F1B9982601A998160299A232F2A952F
:102C1000F1F72998915099F708951E9B1DC080E8FF
:102C20001F991DC01B9980621A998061299A91E0B1
:102C3000292F2A95F1F729989A95F1F71E9988601E
:102C40001F990FC01B9982601A998160299A91E09F
:102C50009A95F1F72998089580E01F9BE3CF80644F
:102C6000E1CF8460EFCF98E031E009C02A98880F67
:102C7000299A232F2A95F1F72998915021F087FF5F
:102C8000F5CF2A9AF4CF089594E031E087FD10C083
:102C90002B9886FF0BC02A9A299A232F2A95F1F7A1
:102CA0002998880F880F915089F708952A98F4CFB2
:102CB0002B9AEFCF92E031E087FD1CC02E9886FF63
:102CC00011C02F9A85FF11C02B9A84FF11C02A9A38
:102CD000299A232F2A95F1F729988295807F915080
:102CE00059F708952F9885FDEFCF2B9884FDEFCFEE
:102CF0002A98EECF2E9AE3CF2398229A279A269AE3
:102D00002F9A2E9A0895229A239A0895229A239A06
:102D1000279A269A0895229823980895229823980E
:102D20002798269808951CBC0E947C16209A219A08
:102D3000299A29980895299A81E08A95F1F7299886
:102D4000089580919B018130D9F080919B01823060
:102D500081F183E396E190937A01809379018EEE7D
:102D600095E19093700180936F018CE796E19093C9
:102D70007301809372019093960180939501089559
:102D80008AE596E190937A01809379018DE096E14E
:102D90009093700180936F0186E896E190937301A0
:102DA000809372018EE896E190939601809395014D
:102DB000089584E496E190937A01809379018CEFF1
:102DC00095E19093700180936F0183E896E1909371
:102DD0007301809372018BE896E190939601809342
:102DE000950108958430C9F0823081F183E396E142
:102DF00090937A01809379018EEE95E19093700122
:102E000080936F018CE796E1909373018093720138
:102E1000909396018093950108958AE596E19093A9
:102E20007A01809379018DE096E19093700180930F
:102E30006F0186E896E190937301809372018EE8AA
:102E400096E19093960180939501089584E496E12C
:102E500090937A01809379018CEF95E190937001C2
:102E600080936F0183E896E19093730180937201E0
:102E70008BE896E190939601809395010895CF9306
:102E800080919B018823C9F080919B01813071F072
:102E900080919B018230C1F080919B01833031F0A1
:102EA00080919B01843081F0C0E001C0C4E08C2F90
:102EB0000E94F2168C2FCF910895C1E08C2F0E94B2
:102EC000F2168C2FCF910895C2E08C2F0E94F2163B
:102ED0008C2FCF910895E0917201F09173010995C3
:102EE0000E94A60E8091A001E0917901F0917A01F3
:102EF00009950C94A80E80918E01843041F1609167
:102F00008401709185018091860190918701E09103
:102F10007901F0917A010995809184019091850160
:102F2000A0918601B0918701E0917901F0917A0139
:102F3000892F09958091840190918501A091860146
:102F4000B0918701E0917901F0917A010994809123
:102F5000840190918501A0918601B0918701E09153
:102F60007901F0917A018B2F0995C9CFE091720117
:102F7000F0917301099580917601E0917901F091CA
:102F80007A0109950C947B17CF93DF931F92CDB7ED
:102F9000DEB70E94A1160E94A60EE0917201F09188
:102FA0007301099580918A0181111BC080918B0169
:102FB000E0917901F0917A010995E0919501F09104
:102FC00096010995E0916F01F0917001099589834F
:102FD000898180FDF7CF0E94A80E0F90DF91CF91DD
:102FE000089580918A01E0917901F0917A01099523
:102FF000E0919501F09196010995E0916F01F091B2
:103000007001099589838981881F8827881F898392
:103010008981882391F30E94A80E0E94A60EE09158
:103020007201F09173010995C1CFCF93DF93E091C5
:103030007201F0917301099582E08093E90004C068
:103040008091E80082FD11C0809168019091690132
:10305000A0916A01B0916B01892B8A2B8B2B81F790
:1030600010929801DF91CF9108958091680190911D
:103070006901A0916A01B0916B0181349105A105AC
:10308000B10580F5409168015091690160916A0134
:1030900070916B01D42F8091680190916901A0918A
:1030A0006A01B0916B01841B9109A109B109809358
:1030B000680190936901A0936A01B0936B01442366
:1030C00059F0C0E08091F100E0917901F0917A012E
:1030D0000995CF5FCD17B0F38091E8008B7780938F
:1030E000E800B2CF8091680190916901A0916A01D6
:1030F000B0916B0180549109A109B10980936801D5
:1031000090936901A0936A01B0936B01D0E4D9CF89
:103110001F93CF93DF931F92CDB7DEB7E091950158
:10312000F0919601099581E08093E90004C08091B7
:10313000E80080FD18C08091680190916901A0911C
:103140006A01B0916B01892B8A2B8B2B81F78091BF
:103150006E0181110E94A80E109298010F90DF91CC
:10316000CF911F9108958091680190916901A0917C
:103170006A01B0916B0181349105A105B10560F13F
:1031800080E4898329818091680190916901A091EF
:103190006A01B0916B01821B9109A109B109809369
:1031A000680190936901A0936A01B0936B018981D2
:1031B000882361F010E0E0916F01F09170010995B2
:1031C0008093F1001F5F89811817A8F38091E800B0
:1031D0008E778093E800AFCF80916801909169016C
:1031E000A0916A01B0916B01CCCFCF93DF9300D057
:1031F00000D0CDB7DEB78091680190916901A091B0
:103200006A01B0916B0189839A83AB83BC83898106
:103210009A81AB81BC81892B8A2B8B2B09F049C009
:1032200067C080917E0190917F01A0E0B0E0809323
:10323000680190936901A0936A01B0936B01898141
:103240009A81AB81BC814091680150916901609184
:103250006A0170916B01841B950BA60BB70B8983D8
:103260009A83AB83BC8320917E0130917F01809152
:10327000840190918501A0918601B0918701820F10
:10328000931FA11DB11D8093840190938501A0938C
:103290008601B09387010E9415180E94A80E0E9413
:1032A000C41789819A81AB81BC81892B8A2B8B2B96
:1032B000F9F00E94A1160E946B170E94A60E0E94B0
:1032C000B6170E943F1780917E0190917F0149813E
:1032D0005A816B817C81A0E0B0E084179507A60736
:1032E000B70708F49ECF89819A81AB81BC819FCFBB
:1032F000109298010F900F900F900F90DF91CF9147
:103300000895482F50E097E068E00AC08AE28A9565
:10331000F1F700C0279880E28A95F1F79150A0F06C
:103320009A01092E02C0359527950A94E2F7279A4B
:1033300020FFECCF862F8A95F1F727988AE48A95AB
:10334000F1F700C0915060F7279A88E08A95F1F76D
:1033500027988AE08A95F1F783B190E49A95F1F77E
:103360008095881F8827881F0895582F98E080E04F
:1033700048E03AE0279A242F2A95F1F72798232F3F
:103380002A95F1F723B160E46A95F1F7880F27FDDC
:103390008F5F915079F7279A511109C06AE26A95B7
:1033A000F1F700C0279890E29A95F1F7089598E018
:1033B0009A95F1F727989AE49A95F1F700C0089545
:1033C000CF93DF93EC011CBC2F982798F894279A91
:1033D0008FE193E00197F1F700C00000279890E398
:1033E0009A95F1F7279A88E0982F9A95F1F7279800
:1033F000279A8A95F1F727988AE08A95F1F783B1A1
:1034000090E49A95F1F78095881F8827881F80930C
:103410001601188219821A82279887E592E001978F
:10342000F1F700C0000080911201880F816C0E94AA
:10343000811980E00E94B519888380E00E94B51947
:10344000898381E00E94B5198A837894DF91CF91B6
:103450000895EF92FF920F931F93CF93DF937C0118
:10346000F894279887E592E00197F1F700C00000F3
:1034700080911201880F806B0E948119811107C011
:10348000DF91CF911F910F91FF90EF90089580E011
:103490000E9481192798E7E5F2E03197F1F700C023
:1034A000000080911201880F816B0E94811988238E
:1034B00039F3E7018701015E1F4F04C080E00E94DD
:1034C000B5198993C017D107C9F781E00E94B519D2
:1034D000F701878F279887E592E00197F1F700C001
:1034E000000080E20E94811980E60E9481192798DD
:1034F000E7E5F2E03197F1F700C00000882351F0D2
:10350000F70110A27894DF91CF911F910F91FF9056
:10351000EF90089581E0F70180A3F4CFDF92EF925E
:10352000FF920F931F93CF93DF938C01F894D09069
:1035300012018D2D880F806BD82E80E190E0A0E0E5
:10354000B0E08093840190938501A0938601B093AD
:10355000870180E1E82EC0E080917E0190917F019B
:103560002E2D30E08217930708F058C080917E011D
:1035700090917F01F82E279887E592E00197F1F767
:1035800000C000008D2D0E948119882309F43EC0DF
:103590008091840190918501A0918601B09187016D
:1035A0000E948119882391F1FF2059F0DF2DDC0F53
:1035B000F801EC0FF11D80810E948119CF5FDC13AF
:1035C000F7CF279887E592E00197F1F700C0000058
:1035D0008FE19EE40197F1F700C00000EF188091A1
:1035E000840190918501A0918601B09187018F0D92
:1035F000911DA11DB11D8093840190938501A0931D
:103600008601B0938701E110A7CF7894DF91CF9125
:103610001F910F91FF90EF90DF900895FE2CABCF9C
:10362000F894279887E592E00197F1F700C0000031
:1036300080E20E94811980E60E94811980E00E9448
:103640008119279887E592E00197F1F700C0000003
:1036500078940895FC018081809376018181809324
:10366000A001828180938B01838180938A01848170
:1036700080938E018581968198278927982790933A
:103680007F0180937E0167817085818592850E948C
:10369000E02060938401709385018093860190936C
:1036A00087012385848590E0A0E0B0E0BA2FA92FA0
:1036B000982F8827A22B2585822B809368019093D1
:1036C0006901A0936A01B0936B01868580939B0189
:1036D00008950F931F93CF93DF93CDB7DEB7609715
:1036E0000FB6F894DEBF0FBECDBF6091660170913A
:1036F000670108EE10E0F8018081877F8083CE01AA
:1037000001960E947907CE0101960E942A1B0E9411
:103710009D0E0E94A60E0E94330D83E080939801B7
:10372000F80180818E77808360960FB6F894DEBFB3
:103730000FBECDBFDF91CF911F910F910895FC0176
:10374000808180937101818180938E016281738178
:10375000848195810E94E0206093840170938501AB
:1037600080938601909387012681878190E0A0E075
:10377000B0E0BA2FA92F982F8827A22B2085822B63
:103780008093680190936901A0936A01B0936B01E3
:10379000818590E09093920180939101828580933E
:1037A0009B010895CF938091E800877F8093E80084
:1037B000609166017091670187E191E00E9479074D
:1037C00087E191E00E949F1B0E94A60E0E94A11615
:1037D000E0917201F0917301099580917101E0917E
:1037E0007901F0917A0109950E947B170E943F1799
:1037F000E0919501F0919601099580919101909148
:103800009201892B69F0C0E00E949B16CF5F8091E6
:103810009101909192012C2F30E028173907A0F3E5
:1038200088E08093980181E080936E018091E800A8
:103830008E778093E800CF9108958091E800877F8C
:103840008093E800609166017091670187E191E0E3
:103850000E94790787E191E00E949F1B0E94A60EBB
:10386000809171018EBD0DB407FEFDCF0E94F70D52
:103870008091910190919201892B81F080E090E0FC
:103880004FEF4EBD0DB407FEFDCF2EB5089620912B
:103890009101309192018217930798F381E0809310
:1038A000980180936E018091E8008E778093E80004
:1038B0000895FC0180819181A281B381809384016C
:1038C00090938501A0938601B093870184819581AF
:1038D000A681B7818093680190936901A0936A01E2
:1038E000B0936B018085918590937F0180937E01D9
:1038F000828580938E01089581E08093E00080E2CC
:103900008093D800E9ECF0E010828FE19EE401970B
:10391000F1F700C000001DBA109268001CBC10BE78
:103920001FBA10926E0010926F00108214B817B870
:103930001AB815B818B81BB80C9400370895E09160
:1039400061018E2F90E0FC017097E73EF10508F5CC
:10395000EC5BFF4F0C94DA20409162014170609162
:1039600064017091650187E191E00E94D106809128
:10397000E800877F8093E80060916601709167019D
:1039800087E191E00E941A078091E8008B7780938D
:10399000E80008950E94A80E8091E800877F809338
:1039A000E8000C9452080E94A60E8091E800877FE0
:1039B0008093E8000C9452088091E800877F809300
:1039C000E8000E9452080C9446138091E800877F1B
:1039D0008093E8000E94520810927D0180E00C94D0
:1039E000140C8091E800877F8093E8000E945208C1
:1039F00010927D0181E00C94140C8091E800877F87
:103A00008093E80080916201909163019093170187
:103A10008093180180916401909165019093190140
:103A200080931A0164E070E0ABCF8091E800877F5B
:103A30008093E80064E070E080E091E00E941A0763
:103A40008091E8008B778093E80008958091E800EA
:103A5000877F8093E80080915A018093170161E08D
:103A600070E08ECF8091E800877F8093E8006091BE
:103A700066017091670187E191E00E94790760918A
:103A80001701709118018091190190911A010E94FB
:103A9000E020609384017093850180938601909368
:103AA000870120911B0180911C0190E0A0E0B0E013
:103AB000BA2FA92F982F8827A22B20911D01822B86
:103AC0008093680190936901A0936A01B0936B01A0
:103AD0008091E8008E778093E8008FE080939801D2
:103AE00008958091E800877F8093E80060916601E7
:103AF0007091670187E191E00E9479076091170159
:103B0000709118018091190190911A010E94E02092
:103B1000609384017093850180938601909387015F
:103B200020911B0180911C0190E0A0E0B0E0BA2F31
:103B3000A92F982F8827A22B20911D01822B8093DB
:103B4000680190936901A0936A01B0936B01809121
:103B5000E8008E778093E8008EE0809398010895C6
:103B60008091620180935901809164019091650177
:103B700090935701809358010E9463028091E8005E
:103B8000877F8093E8000C9452088091E800877F3B
:103B90008093E800609166017091670187E191E090
:103BA0000E94790787E191E00E942A1B8091E8003A
:103BB0008E778093E80089E08093980108950C94B3
:103BC000D21B2091620130916301C9019927A0E0C5
:103BD000B0E0DC019927882740916401509165018C
:103BE00060E070E0842B952BA62BB72B80936801A7
:103BF00090936901A0936A01B0936B01832F0E9497
:103C0000F2168091E800877F8093E8000E945208B6
:103C100087E08093980108952091620130916301BB
:103C2000C9019927A0E0B0E0DC01992788274091DD
:103C300064015091650160E070E0842B952BA62B08
:103C4000B72B8093680190936901A0936A01B093A8
:103C50006B01832F0E94F2168091E800877F80938A
:103C6000E8000E94520810926E0188E0809398014B
:103C700008958091E800877F8093E8008091980103
:103C80008093170161E070E07BCE8091E800877F30
:103C90008093E8000E94520881E080937D0108959E
:103CA0008091E800877F8093E80087E191E00E949F
:103CB000291A61E270E064CE809164018093120160
:103CC00087E191E00E94E0198091E800877F80936E
:103CD000E80063E070E054CE87E191E00E94C40503
:103CE0008091E800877F8093E80060E470E048CE30
:103CF0000C947C1C0E94101B8091E800877F8093AD
:103D0000E8000C9452088091E800877F8093E800D7
:103D1000609166017091670187E191E00E947907E7
:103D200087E191E00E948E1A8091E8008E7780935F
:103D3000E80008958091E800877F8093E800609113
:103D400066017091670187E191E00E94790787E140
:103D500091E00E94591C8091E8008E778093E800E2
:103D600083E18093980108954091620141706091D0
:103D700064017091650187E191E00E94880680915D
:103D8000E800877F8093E800609166017091670189
:103D9000F7CD4091620141706091640170916501BD
:103DA00087E191E00E9474058091E800877F80930D
:103DB000E8006091660170916701E2CD8091640135
:103DC0000E94C3048091E800877F8093E8000C94F0
:103DD00052082091620130916301C901A0E0B0E076
:103DE000DC0199278827409164015091650160E0CA
:103DF00070E0842B952BA62BB72BB77080936801AE
:103E000090936901A0936A01B0936B01832F881F7F
:103E10008827881F809397018091E800877F80938F
:103E2000E8000E94520885E18093980108958091EE
:103E300064010C947B048091E800877F8093E80004
:103E4000609166017091670187E191E00E947907B6
:103E500087E191E00E948F048091E8008E77809343
:103E6000E80008958091E800877F8093E8000E9431
:103E700052080C94A0040C941D1C8091E800877FCC
:103E80008093E8000E945208809162019091630142
:103E9000A0E0B0E0DC0199278827209164013091EF
:103EA0006501820F931FA11DB11D8093680190933E
:103EB0006901A0936A01B0936B0182E0809398013D
:103EC00008958091E800877F8093E8000E9452085F
:103ED0008091620190916301A0E0B0E0DC0199273C
:103EE00088272091640130916501820F931FA11DE5
:103EF000B11D8093680190936901A0936A01B0930A
:103F00006B0181E08093980110926E010895809179
:103F1000E800877F8093E8008091640190916501BB
:103F2000019709F421C12C988091E8008E77809345
:103F3000E80008958091E800877F8093E800609111
:103F400066017091670187E191E00E9479074091D5
:103F5000660150916701609164017091650187E18C
:103F600091E00E94F720E0CF4091620150916301FF
:103F7000609164017091650187E191E00E94E72002
:103F8000AFCE8091E800877F8093E8006091640164
:103F90007091650180916201909163010E94260CED
:103FA0008091E8008E778093E80008958091E80082
:103FB000877F8093E8000E9493168091E8008E77B7
:103FC0008093E80008958091E800877F8093E8005F
:103FD000609166017091670187E191E00E94790725
:103FE00060911701709118018091190190911A0147
:103FF0000E94E020609368017093690180936A01D8
:1040000090936B0160911B0170911C0180911D01C7
:1040100090911E010E94E0206093840170938501BD
:1040200080938601909387018091E8008E7780933A
:10403000E80080E18093980108958091E800877FEF
:104040008093E8000E9452086091650180916401AC
:104050000C94FE128091E800877F8093E8006091C5
:1040600066017091670187E191E00E94790787E11D
:1040700091E00E942A1B8091E8008E778093E800EF
:104080008091640190916501029709F46FC084E00A
:104090008093980108950C94691B8091E800877FB4
:1040A0008093E800609166017091670187E191E07B
:1040B0000E94790760911701709118018091190190
:1040C00090911A010E94E020609368017093690149
:1040D00080936A0190936B0160911B0170911C01A8
:1040E00080911D0190911E010E94E0206093840147
:1040F0007093850180938601909387018091E800F9
:104100008E778093E80081E18093980108958091F3
:10411000E800877F8093E8006091660170916701F5
:1041200087E191E00E94790787E191E00E94591CA4
:104130008091E8008E778093E80084E18093980175
:1041400008958091E800877F8093E8006091660180
:104150007091670187E191E00E9479078091E80002
:104160008E778093E80008952C9ADECE85E08093C8
:1041700098010895292F30E02130310599F022303F
:10418000310541F080E090E020E030E0FA01318339
:104190002083089580E290E026E534E0FA0131833F
:1041A0002083089582E190E026E734E0FA0131832C
:1041B00020830895EE0FFF1F0590F491E02D0994E0
:1041C0006927962769277827872778270895DC01AC
:1041D000CB01FC01F999FECF06C0F2BDE1BDF89A12
:1041E000319600B40D9241505040B8F70895DC016B
:1041F000CB0103C02D910E94022141505040D0F7C5
:104200000895262FF999FECF1FBA92BD81BD20BD1A
:104210000FB6F894FA9AF99A0FBE01960895F89499
:02422000FFCFCE
:0C42220043343535504342322E34000046
:00000001FF
