:100000000C9460020C947D020C947D020C947D0291
:100010000C947D020C947D020C947D020C947D0264
:100020000C947D020C947D020C94CE090C947D02FC
:100030000C947D020C947D020C947D020C947D0244
:100040000C947D020C947D020C947D020C947D0234
:100050000C947D020C947D020C947D020C947D0224
:100060000C947D020C947D020C947D020C947D0214
:100070000C947D020C947D020C947D020C947D0204
:100080000C947D020C947D020C947D020C947D02F4
:100090000C947D020C947D020C947D020C947D02E4
:1000A0000C947D020C947D020C947D02970B5F0BE7
:1000B000C20A5F0BC20A3D0B160BC20A020BE00A12
:1000C000D81F9E208720341E341E341E341E341E3A
:1000D000341E341E8320341E341E341E341E341E3F
:1000E000341E341E55204A20341E341E341E352042
:1000F000341E341E341E341E341E341E341E341E70
:10010000341E341E2020171E341E341E341E341E8E
:10011000341E341E341E341E341E341E341E341E4F
:100120002D213E1E351EF320CD20A920A720B7216A
:10013000962189214F21B921471E341E341E341EB9
:1001400042213E1E351E781F4D1F4B1F311F341E8E
:10015000341E341E341E341E341E341E341E341E0F
:100160001B1FDC1E9D1E911E341E341E341E341EA9
:10017000341E341E341E341E341E341E341E341EEF
:10018000341E341E341E341E341E341E341E341EDF
:10019000341E341E341E341E341E341E341E341ECF
:1001A000801E681E5C1E501EB11F341E341E341E7D
:1001B000341E341E341E341E341E341E341EA51F3D
:1001C0000D22221E341E341E341E341E341E341ED4
:1001D000341E341E341E341E341E341E341E341E8F
:1001E000341E341E341E341E341E341E341E341E7F
:1001F000341E341E341E341E341E341E341E341E6F
:10020000C81F0620F321BC1FEF1FE61F341E341E3B
:10021000341E341E341E341E341E341E341E341E4E
:10022000341E341E341E341E341E341E341E341E3E
:10023000341E341E341E341E341E341E341E341E2E
:10024000341E341E341E341E341E341E341E341E1E
:10025000341E341E341E341E341E341E341E341E0E
:10026000341E341E341E341E341E341E341E341EFE
:10027000341E341E341E341E341E341E341E341EEE
:10028000341E341E341E341EE41F062120210000BB
:100290000202020A0A2A1A0606061616563607002F
:1002A0000101010505150D0303030B0B2B1B0303B4
:1002B00000000002020A060101010505150D1F03D9
:1002C000070000010105030F0F0F2F2FAF6F1F0352
:1002D000070700010105030F0F0F2F2FAF6F0F014D
:1002E00003030200000201070707171757371F0310
:1002F000070701050001030F0F0F2F2FAF6F0F012D
:10030000030300020200010707071717573707000A
:10031000010101050515000303030B0B2B1B010154
:100320000505051515553500000002020A061F03D4
:10033000070707171757370F0000010105031F03B1
:10034000070707171757370F0F00010105030F01A4
:100350000303030B0B2B1B070702000002011F0303
:10036000070707171757370F0F01050001030F0184
:100370000303030B0B2B1B070700020200010700FE
:100380000101010505150D0303030B0B2B000001F3
:100390000203040405060503040505060706030019
:1003A0000102030304050402030404050605020315
:1003B0000001020203040301020303040504050310
:1003C00003000101020302040506060708070503EE
:1003D00003040001020302040506060708070402DD
:1003E00002030300010201030405050607060503D5
:1003F00003040203000102040506060708070402BD
:1004000002030102030001030405050607060301B8
:1004100001020303040500020304040506050102AA
:100420000304050506070600010202030403050391
:100430000304050506070604000101020302050383
:100440000304050506070604050001020302040271
:100450000203040405060503040300010201050369
:100460000304050506070604050203000102040251
:10047000020304040506050304010203000103014D
:100480000102030304050402030404050600090233
:100490002000010100806409040000020000000047
:1004A000070502024000000705810240000012011A
:1004B000000200000020C016DE050100000000015F
:1004C00011241FBEC0E0D2E0DEBFCDBF11E0A0E02E
:1004D000B1E0EAEFF4E402C005900D92AE30B1074E
:1004E000D9F721E0AEE0B1E001C01D92A83AB20711
:1004F000E1F70E94400D0C947B220C94000094EADA
:100500009093BC009091BC0097FFFCCF9091B900F4
:10051000987F983021F0903111F080E00895809319
:10052000BB0084E88093BC008091BC0087FFFCCFB7
:100530008091B900887F883111F0803471F781E0B3
:10054000089521E030E044EA54E864E94093BC00B7
:1005500005C02F5F3F4F2233310581F09091BC00E1
:1005600097FFF7CF9091B900987F983049F090317C
:1005700039F0F9012F5F3F4FF29741F780E008957E
:100580008093BB005093BC0005C02F5F3F4F2233C8
:100590003105A1F39091BC0097FFF7CF9091B9007E
:1005A000987F903221F0983511F081E008956093A2
:1005B000BC009091BC0094FDFCCFF9012F5F3F4F30
:1005C000F29721F6DBCFCF93C0911D0180914A01B4
:1005D00090914B01A0914C01B0914D0120912001CF
:1005E000220F220F220F04C0B695A79597958795E5
:1005F0002A95D2F780FDC26081FDC46082FDC8608B
:100600008C2F0E94A1028823E9F080912001823082
:10061000F9F080914A0190914B01A0914C01B09169
:100620004D018093BB0084E88093BC009091BC0096
:1006300097FFFCCF8091B90080E580931F018C2F3C
:10064000CF91089581E580931F0180E0CF910895B7
:1006500080914A0190914B01A0914C01B0914D01C4
:10066000892F9A2FAB2FBB278093BB0084E8809300
:10067000BC008091BC0087FFFCCF8091B900C9CF3E
:10068000EF92FF920F931F93CF93DF9318161906E3
:100690000CF061C08C01C0E0D0E084E8F82E94E951
:1006A000E92E80911C01882309F45DC0E0910001CE
:1006B000F0910101EC0FFD1F80818093BB00F0924F
:1006C000BC009091BC0097FFFCCF8091B900887F5F
:1006D000883209F05DC080911C01815080931C011B
:1006E00080911C01811132C0E092BC009091BC004D
:1006F00094FDFCCF20911A0130911B0180914A0199
:1007000090914B01A0914C01B0914D01820F931F2C
:10071000A11DB11D80934A0190934B01A0934C0100
:10072000B0934D0180911E01882381F040E050E09C
:100730008FE99FE00197F1F700C000004F5F5F4F26
:1007400020911E0130E04217530794F321960C17B5
:100750001D0709F0A6CF81E0DF91CF911F910F9186
:10076000FF90EF90089580911A0190911B01809362
:100770001C010E94E30280911F01813509F096CF90
:1007800080E0DF91CF911F910F91FF90EF9008953E
:1007900081E580931F01F4CF0F931F9382E0809334
:1007A000E90080E580931F0110921C0180912E01C9
:1007B00090912F01A0913001B0913101892B8A2BAA
:1007C0008B2B09F463C08091E80082FFFCCF8091FD
:1007D0002E0190912F01A0913001B091310181340F
:1007E0009105A105B105E0F500912E0110912F01B1
:1007F0002091300130913101802F40912E01509194
:100800002F016091300170913101401B5109610944
:10081000710940932E0150932F0160933001709322
:100820003101002379F020E030E09091F100E09177
:100830000001F0910101E20FF31F90832F5F3F4F02
:10084000281798F39091E8009B779093E800909197
:100850001F01903509F0AACF90E00E944003A6CF77
:1008600080912E0190912F01A0913001B091310122
:1008700080549109A109B10980932E0190932F0111
:10088000A0933001B093310180E4CDCF10925E018E
:100890001F910F9108950F931F93CF93DF93EC0156
:1008A0000E94E30290911F01913509F453C08F5FBC
:1008B0000E947F02882309F445C01C161D06F4F42B
:1008C00020E030E064EC74E82F5F3F4FA901415015
:1008D0005109E0910001F0910101E40FF51FC217E9
:1008E000D307F1F16093BC009091BC0097FFFCCF5F
:1008F0009091BB009083C217D30731F794E990938E
:10090000BC009091BC0094FDFCCF00914A01109175
:100910004B0120914C0130914D01AE01DD0F660B72
:10092000770B400F511F621F731F40934A01509372
:100930004B0160934C0170934D01DF91CF911F915A
:100940000F91089591E590931F01DF91CF911F9131
:100950000F91089580E0DF91CF911F910F9108953D
:100960007093BC00C1CF589859981092B9008091EB
:1009700019018130F1F0809119018CE08093B80069
:1009800084E08093BC0010924A0110924B011092B7
:100990004C0110924D0188E090E00E944B048111BF
:1009A00004C083E580931F01089582E580931F01B1
:1009B000089588E48093B800E3CFCF92DF92EF925E
:1009C000FF92CF9381E08093E90080E580931F013F
:1009D00080912E0190912F01A0913001B0913101B1
:1009E000892B8A2B8B2B09F463C020E58091E800CA
:1009F00080FFFCCF80912E0190912F01A0913001BA
:100A0000B091310181349105A105B10508F047C0CD
:100A1000C0902E01D0902F01E0903001F090310174
:100A2000CC2D203509F44CC0DD24EE24FF24CC234A
:100A300071F080E090E0E0910001F0910101E80F99
:100A4000F91F20812093F10001968C17A0F380916B
:100A50002E0190912F01A0913001B09131018C199C
:100A60009D09AE09BF0980932E0190932F01A09399
:100A70003001B09331018091E8008E778093E800D7
:100A800080912E0190912F01A0913001B091310100
:100A9000892B8A2B8B2B61F020911F01A7CF80E43B
:100AA000C82ED12CE12CF12C203591F0C0E4C1CF1F
:100AB00010925E01CF91FF90EF90DF90CF9008955C
:100AC0008C2D90E0DD24EE24FF240E944B04AFCF58
:100AD00080E490E0C0E4F9CF1CBC1092C90080E82B
:100AE00080BFE4E6F0E080818C628083E5E6F0E0A0
:100AF0008081816080831092BC008DEF84B980E199
:100B000085B90895FC0180818093130181818093D0
:100B1000120182818093110183818093100184816D
:100B200080930F01089584E185B925E09FE152E0AB
:100B30009695892F880F880F847080612B9A42E0E8
:100B4000352F3A95F1F785B9215091F780E185B9B4
:100B50002B9A942F9A95F1F794E195B92B9A942FAB
:100B60009A95F1F785B940930E01089520910E01F1
:100B700090E1299F90011124282B30E0F901E257E0
:100B8000FC4F4491F901E257FD4F2491922F990FA8
:100B9000990F9470906195B93FEF340F442371F031
:100BA00052E02695922F990F990F947090612B9A8D
:100BB000452F4A95F1F795B9315098F780930E017A
:100BC000089580910E018B3009F18430D9F0813085
:100BD00029F18230F9F0893049F1833099F085307C
:100BE00009F1863031F18730E9F08830B9F08A3088
:100BF00069F08C3011F18D3021F18E30F1F08F30B1
:100C000069F0089585E080930E0108958CE080934B
:100C10000E01089589E080930E01089582E080938B
:100C20000E01089588E080930E01089510920E0140
:100C3000089587E080930E0108958FE080930E0160
:100C400008958EE080930E010895CF92DF92EF9287
:100C5000FF926B017C0181E185B9442311F181E0B0
:100C6000C81AD108E108F10811F180E090E0DC0138
:100C700069E152E031E165B9252F2A95F1F735B9DF
:100C80000196A11DB11D8C159D05AE05BF0598F3FC
:100C900041110DC080E185B9FF90EF90DF90CF90BA
:100CA0000895C114D104E104F104F9F6F3CF85E10C
:100CB00085B98DE185B982E08A95F1F781E185B941
:100CC0000E94E10580E185B9FF90EF90DF90CF9021
:100CD0000895EF92FF920F931F93CF93DF93EC0150
:100CE000DB01109761F120E030E060E070E080E02F
:100CF00001E010E02F5F3F4FFE01E80FF11D9081F2
:100D00009170A217B30789F1906195B92B9A508120
:100D100056955083199B07C07801072E01C0EE0C31
:100D20000A94EAF76E2995B97F5F783089F0A217A7
:100D3000B30701F7772319F0C80FD11D688341115C
:100D40000CC0DF91CF911F910F91FF90EF9008950C
:100D500060838F5F60E070E0EACFDF91CF911F91F9
:100D60000F91FF90EF900C94E105442369F2946198
:100D7000CCCFBF92CF92DF92EF92FF920F931F934F
:100D8000CF93DF9300D000D0CDB7DEB78C0180E4E5
:100D9000F80111928A95E9F70E9493058BE00E9471
:100DA000B60520E290E24FEF5FEFBA0183B1842FE6
:100DB0008170806185B92B9A76956795579547958F
:100DC00085B9915099F7215069F784E00E94B605E2
:100DD00030E290E180E223B195B92B9A95B9815028
:100DE000D1F73150B9F79AE081E041E050E060E09E
:100DF00070E0C12CD12C7601199B04C0C42AD52ADD
:100E0000E62AF72A806185B92B9A440F551F661F81
:100E1000771F85B9915080E079F7C114D104E104BE
:100E2000F10409F459C0BB24B394F694E794D79421
:100E3000C794C0FC04C0B394FAE0BF12F6CF80E0C0
:100E40000E94B6058BE00E94B60537E090E180E293
:100E500023B195B92B9A95B98150D1F73150B9F793
:100E60008FE19EE40197F1F700C0000083B181E1BA
:100E700085B92B9A85B9FF24F39480E193B185B9A4
:100E80002B9A85B991FD05C0F3949FEFF912F6CF27
:100E9000F12C82E00E94B605F801B082F18280E078
:100EA0000E94B60584E00E94B605F12C40E060E2A5
:100EB00070E0CE0101960E9469068C81F801828360
:100EC0008B8183838A81848389818583F3940C5FFA
:100ED0001F4FFB1458F303C080E00E94B6050F902B
:100EE0000F900F900F90DF91CF911F910F91FF9076
:100EF000EF90DF90CF90BF900895FF920F931F93D4
:100F0000CF93DF93EC018B01F42E8BE00E94B605AA
:100F1000409112014423D1F050E060E070E081E1A3
:100F200085B980E090E0DC01F9E1E2E031E1F5B97A
:100F30002E2F2A95F1F735B90196A11DB11D841701
:100F40009507A607B70798F380E185B9809111014D
:100F500081110AC04F2DB801CE01DF91CF911F91B1
:100F60000F91FF900C94690640E0B801CE010E94F9
:100F700069066091110170E080E090E04F2DDF91F3
:100F8000CF911F910F91FF900C942506FF920F9324
:100F90001F93CF93DF93EC018B01F42E84E00E942A
:100FA000B605409110014423D1F050E060E070E0BC
:100FB00081E185B980E090E0DC01F9E1E2E031E136
:100FC000F5B92E2F2A95F1F735B90196A11DB11D5E
:100FD00084179507A607B70798F380E185B9809134
:100FE0000F0181110AC04F2DB801CE01DF91CF91C1
:100FF0001F910F91FF900C94690640E0B801CE015B
:101000000E94690660910F0170E080E090E04F2D32
:10101000DF91CF911F910F91FF900C9425062091A5
:101020002C0130912D012617370750F061157105FD
:1010300079F52091E8002E772093E80020E030E059
:10104000FC0140E00EC0853029F18091E80083FD6D
:1010500023C08091E80082FD15C08091E80080FDEA
:101060001DC02115310511F4442361F08091250143
:101070008111E9CF82E00895809125018823D1F381
:10108000853041F08091E80082FFF6CF80E008953E
:101090009B01D6CF83E0089581E008954091F3004D
:1010A0008091F20090E0942B2115310519F08032E7
:1010B000910568F041E0809709F040E08091E800F8
:1010C0008E778093E800CDCF8032910599F34191DE
:1010D0004093F10021503109019621153105A1F706
:1010E000E9CF6115710591F48091E8008B778093C9
:1010F000E80006C0809125018823C1F0853079F190
:101100008091E80080FFF6CF80E00895FC010AC0DE
:10111000853029F18091E80083FD23C08091E800AB
:1011200082FD06C0809125018111F2CF82E00895F1
:101130002091F3008091F20090E0922B892B31F006
:101140008091F10081936150710991F78091E800DD
:101150008B778093E8006115710521F7D1CF83E08B
:10116000089581E0089520912C0130912D012617DA
:10117000370750F06115710579F52091E8002E7759
:101180002093E80020E030E0FC0140E00EC0853014
:1011900029F18091E80083FD23C08091E80082FD61
:1011A00015C08091E80080FD1DC02115310511F4A6
:1011B000442361F0809125018111E9CF82E00895F7
:1011C000809125018823D1F3853041F08091E8009A
:1011D00082FFF6CF80E008959B01D6CF83E008958B
:1011E00081E008954091F3008091F20090E0942B0B
:1011F0002115310519F08032910568F041E08097A2
:1012000009F040E08091E8008E778093E800CDCF30
:101210008032910599F344914093F1003196215029
:10122000310901962115310599F7E8CF873078F516
:101230008093E900982F242F762F50E00AC09093D6
:10124000E900891751F17091EC002091ED00509167
:10125000F00021FF19C03091EB003E7F3093EB008E
:101260003091ED003D7F3093ED003091EB00316027
:101270003093EB007093EC002093ED005093F0005E
:101280002091EE0027FF07C09F5F9730C1F6809343
:10129000E90081E0089580E00895242F762F50E042
:1012A000D8CF8091260187FF05C012C0809125010B
:1012B000882349F08091E80080FFF8CF8091E80012
:1012C0008E778093E8000895809125018823D9F3D3
:1012D0008091E80082FFF8CF8091E8008B778093BF
:1012E000E80008950F931F93CF93DF930E94C109E5
:1012F0000E94C909C8EDD0E088818F7788838881F2
:101300008068888388818F7D888319BC109225012D
:1013100010922101109223011092220100EE10E0A0
:10132000F80180818B7F808388818160888342E29D
:1013300060E080E00E941609E1EEF0E080818E7F9F
:101340008083E2EEF0E0808181608083808188602C
:101350008083F80180818E7F80838881806188838B
:10136000DF91CF911F910F910895E7EDF0E080811B
:10137000816080838AE482BF81E0809324010C94A1
:101380007209E8EDF0E080818E7F80831092E200A8
:1013900008951092DA001092E10008951F920F92C2
:1013A0000FB60F9211242F933F934F935F936F9338
:1013B0007F938F939F93AF93BF93EF93FF9380910E
:1013C000E10082FF04C08091E20082FD8CC0809128
:1013D000DA0080FF04C08091D80080FD6EC080914B
:1013E000E10080FF04C08091E20080FD84C0809114
:1013F000E10084FF29C08091E20084FF25C080E1E4
:1014000089BD82E189BD09B400FEFDCF8091D8007D
:101410008F7D8093D8008091E1008F7E8093E100E2
:101420008091E2008F7E8093E2008091E2008160F3
:101430008093E20080912101882309F472C084E046
:10144000809325010E940C0C8091E10083FF24C051
:101450008091E20083FF20C08091E100877F80932C
:10146000E10082E080932501109221018091E1004A
:101470008E7F8093E1008091E2008E7F8093E20076
:101480008091E20080618093E20042E260E080E0CF
:101490000E9416090E940C0CFF91EF91BF91AF9131
:1014A0009F918F917F916F915F914F913F912F917C
:1014B0000F900FBE0F901F9018958091DA008E7FCD
:1014C0008093DA008091D90080FF31C080E189BD2E
:1014D00082E189BD09B400FEFDCF81E08093250142
:1014E0000E940C0C7CCF8091E1008B7F8093E10007
:1014F0000E94A80C6CCF8091E2008E7F8093E20066
:101500008091E20080618093E2008091D800806247
:101510008093D80019BC85E0809325010E940C0CB3
:1015200066CF8091E30087FD8ACF81E089CF19BC27
:10153000109225010E940C0C52CF0F931F93CF9352
:10154000DF93CDB7DEB7AA970FB6F894DEBF0FBE14
:10155000CDBFE6E2F1E02EE231E08091F10081932F
:101560002E173F07D1F70E940A1E8091E80083FFE3
:1015700009C02091260130912701832F90E08A3005
:101580009105C8F08091E80083FF0AC08091EB00CC
:1015900080628093EB008091E800877F8093E80071
:1015A000AA960FB6F894DEBF0FBECDBFDF91CF91E4
:1015B0001F910F910895FC01EA5AFF4F0C944622A7
:1015C0002111E0CF8091280190912901992702975C
:1015D000CCF68091E800877F8093E8008091280115
:1015E000809321010E9451098091210181110CC138
:1015F0008091E30087FD08C181E0809325010E946E
:10160000900CC0CF203809F0BDCF8091E800877FD3
:101610008093E800809121018093F1008091E8009F
:101620008E778093E8000E945109ACCF2058223079
:1016300008F0A8CF80912801909129018C3D53E0BA
:10164000950709F4ACC0AE014F5F5F4F60912A016E
:101650000E942622BC01892B09F494CF9091E800C6
:10166000977F9093E80089819A810E94B3088091C6
:10167000E8008B778093E80085CF211183CF10910C
:1016800028011F770FB7F8948091E800877F809337
:10169000E8000E9451098091E80080FFFCCF809112
:1016A000E3008078812B8093E30080688093E300DF
:1016B000111173C082E0809325010FBF63CF2223F5
:1016C00009F457C0223009F05DCF809128018111C3
:1016D00024C080912A01877009F454CF8093E900D7
:1016E0009091EB0090FF19C0333009F48FC09091B6
:1016F000EB0090619093EB0021E030E0A90102C083
:10170000440F551F8A95E2F74093EA001092EA00D1
:101710008091EB0088608093EB001092E90080914B
:10172000E800877F8093E8000E9451092BCF203882
:1017300061F1223809F026CF80912A0187708093C9
:10174000E9008091EB0085FB882780F91092E90081
:101750009091E800977F9093E8008093F1001092B9
:10176000F1008091E8008E778093E8000E94510993
:1017700009CF80912801813009F004CF81E0333016
:1017800009F080E080932301C8CF809122019091DD
:1017900023019923E9F28260DBCF83E08CCF83E0E1
:1017A0008A838AE289835FB7F894DE01139620E08A
:1017B0003EE041E207C090E0C7968D939D932F5F76
:1017C000243181F0E32FF0E040935700849120FF13
:1017D00003C082958F703F5F8F708A3060F790E012
:1017E000C096EBCF5FBF8091E800877F8093E800D1
:1017F0006AE270E0CE0101960E940F088091E80035
:101800008B778093E800BECE84E0F7CE8091EB002A
:1018100080628093EB0081CF0895CF938091250162
:10182000882359F0C091E900C7701092E9008091B7
:10183000E80083FD04C0C093E900CF9108950E94A1
:101840009D0AF9CFCF93DF93CDB7DEB72C970FB6B4
:10185000F894DEBF0FBECDBF84B7877F84BF0FB6BD
:10186000F894A89580916000886180936000109240
:1018700060000FBE90E080E80FB6F894809361009E
:10188000909361000FBE52985A9A8AB188618AB9C2
:101890008BB188618BB968E070E080E090E00E94D5
:1018A0005A0D2FEF80E792E0215080409040E1F701
:1018B00000C0000086E0E6E0F1E0DE01179601904E
:1018C0000D928A95E1F746E050E060E070E0CE01CD
:1018D00001960E94532210921601FE013796DE01F6
:1018E00011969E01235F3F4F91918D91981306C0F1
:1018F000E217F307C9F781E0809316018091160182
:1019000081110CC05C980E94B5092C960FB6F89412
:10191000DEBF0FBECDBFDF91CF9108955B98F3CFAF
:1019200042E360E882E00E94160942E361E881E058
:101930000E941609E2EEF0E08081846080831092BC
:101940002E0110922F011092300110923101089552
:1019500080914301882391F08091150191E0980FC7
:1019600090931501883C50F010921501809116015A
:101970009BB1811104C088E089278BB9089580E16B
:1019800089278BB9089540915D0160912E01709176
:101990002F0180913001909131010E942506109213
:1019A0002E0110922F0110923001109231011092ED
:1019B0005E01089580912501843009F00895809199
:1019C0005E01813009F43FC080915E018230E9F10F
:1019D00080915E018330D9F180915E018430C9F13C
:1019E00080915E018530B9F180915E018B30A9F163
:1019F00080915E018C3011F180915E018E3091F109
:101A000080915E018F3081F180915E01803171F1B2
:101A100080915E01813161F180915E01883051F1E8
:101A200080915E01873041F180915E01893031F112
:101A300080915E01853111F60C94C30CE0913D015B
:101A4000F0913E0109940C94050E0C949C0D0C949D
:101A500045100C94D3110C940613E0915201F091AF
:101A6000530109940C94DD040C94CC030C940915D7
:101A70000C9457160C94CA190C9457190C94371AD5
:101A80000E94220C78940E94DA0C0E940D0CFBCF6D
:101A9000882331F080911601882341F05C980895E5
:101AA00080911601811104C05B9A08955B98089596
:101AB0005C9A08959C0187EF84B98BEF85B99AB140
:101AC00093609AB99BB193609BB91092BC002115A9
:101AD000310549F02130310539F12230310551F11C
:101AE0002330310529F180E06830710549F0643018
:101AF000710539F06230710569F061307105B1F03E
:101B000080689DB587FD0AC09E7F9DBD8F778065EB
:101B10008CBD089581689DB587FFF6CF91609DBD0E
:101B20008F7780658CBD089584E0DECF8160E9CF3A
:101B30008CE0DACF88E0D8CF82E08093E90004C05F
:101B40008091E80082FD0FC080912E0190912F01BD
:101B5000A0913001B0913101892B8A2B8B2B81F719
:101B600010925E01089580912E0190912F01A09115
:101B70003001B091310181349105A105B10578F5AD
:101B800040912E0150912F016091300170913101EF
:101B9000242F80912E0190912F01A0913001B091BE
:101BA0003101841B9109A109B10980932E01909301
:101BB0002F01A0933001B0933101442351F080E014
:101BC0009091F1009EBD0DB407FEFDCF8F5F82178F
:101BD000B8F38091E8008B778093E800B5CF8091CF
:101BE0002E0190912F01A0913001B09131018054CC
:101BF0009109A109B10980932E0190932F01A0931F
:101C00003001B093310120E4DACFCF93DF931F92FC
:101C1000CDB7DEB781E08093E90004C08091E80091
:101C200080FD16C080912E0190912F01A09130016E
:101C3000B0913101892B8A2B8B2B81F78091340154
:101C40008111289A10925E010F90DF91CF91089533
:101C50001EBC80912E0190912F01A0913001B09176
:101C6000310181349105A105B10598F180E48983A2
:101C7000298180912E0190912F01A0913001B09186
:101C80003101821B9109A109B10980932E01909322
:101C90002F01A0933001B09331018981823068F027
:101CA0008981815089830DB407FEFDCF8EB58EBD2D
:101CB0008093F1008981823098F70DB407FEFDCF43
:101CC0008EB58093F1008091E8008E778093E800D4
:101CD000A9CF80912E0190912F01A0913001B09158
:101CE0003101C5CF80913C018EBD0DB407FEFDCF03
:101CF00080915401843041F180915401833009F482
:101D00005FC080915401823009F486C080915401F3
:101D1000813009F49EC020914401309145018091A9
:101D20004A0190914B01A0914C01B0914D01820F5D
:101D3000931FA11DB11D80934A0190934B01A09365
:101D40004C01B0934D01089580914A0190914B014F
:101D5000A0914C01B0914D018B2F9927AA27BB2749
:101D60008EBD0DB407FEFDCF80914A0190914B01CD
:101D7000A0914C01B0914D01CD01AA27BB278EBD8A
:101D80000DB407FEFDCF80914A0190914B01A091C7
:101D90004C01B0914D01892F9A2FAB2FBB278EBDDF
:101DA0000DB407FEFDCF80914A0190914B01A091A7
:101DB0004C01B0914D018EBD0DB407FEFDCFABCFF0
:101DC00080914A0190914B01A0914C01B0914D013D
:101DD000CD01AA27BB278EBD0DB407FEFDCF809194
:101DE0004A0190914B01A0914C01B0914D01892F76
:101DF0009A2FAB2FBB278EBD0DB407FEFDCF809170
:101E00004A0190914B01A0914C01B0914D018EBDC2
:101E10000DB407FEFDCF7FCF80914A0190914B0119
:101E2000A0914C01B0914D01892F9A2FAB2FBB2768
:101E30008EBD0DB407FEFDCF80914A0190914B01FC
:101E4000A0914C01B0914D018EBD0DB407FEFDCFA8
:101E500062CF80914A0190914B01A0914C01B091C9
:101E60004D018EBD0DB407FEFDCF55CF80915401BD
:101E7000843081F080915401833009F447C080910F
:101E80005401823009F46EC080915401813009F40C
:101E900086C0089580914A0190914B01A0914C0118
:101EA000B0914D018B2F9927AA27BB278EBD0DB46A
:101EB00007FEFDCF80914A0190914B01A0914C010A
:101EC000B0914D01CD01AA27BB278EBD0DB407FEF1
:101ED000FDCF80914A0190914B01A0914C01B091AE
:101EE0004D01892F9A2FAB2FBB278EBD0DB407FE56
:101EF000FDCF80914A0190914B01A0914C01B0918E
:101F00004D018EBD0DB407FEFDCF089580914A01AD
:101F100090914B01A0914C01B0914D01CD01AA27A8
:101F2000BB278EBD0DB407FEFDCF80914A01909175
:101F30004B01A0914C01B0914D01892F9A2FAB2FED
:101F4000BB278EBD0DB407FEFDCF80914A01909155
:101F50004B01A0914C01B0914D018EBD0DB407FE17
:101F6000FDCF089580914A0190914B01A0914C01C1
:101F7000B0914D01892F9A2FAB2FBB278EBD0DB489
:101F800007FEFDCF80914A0190914B01A0914C0139
:101F9000B0914D018EBD0DB407FEFDCF0895809127
:101FA0004A0190914B01A0914C01B0914D018EBD21
:101FB0000DB407FEFDCF08952898809166018EBD6F
:101FC0000DB407FEFDCF289A089528980895289A01
:101FD0000895CF93DF9300D000D01F92CDB7DEB726
:101FE00019821A821B821C82809150018823D9F0A9
:101FF0002898809150018EBD0DB407FEFDCF3AE1C7
:102000003A95F1F700C09FEF9EBD0DB407FEFDCFDE
:102010008EB58D838D81881F8827881F8D838D8144
:10202000882391F3289A2898809151018EBD0DB490
:1020300007FEFDCF2FEF85E08A95F1F7000089813B
:102040009A81AB81BC810196A11DB11D89839A83C0
:10205000AB83BC8389819A81AB81BC8180319742FB
:10206000A105B10549F02EBD0DB407FEFDCF8EB51B
:102070008D838D8180FDDFCF289A0F900F900F9078
:102080000F900F90DF91CF910895CF92DF92EF9252
:10209000FF920F931F9382E08093E90000E010E02D
:1020A000980104C08091E80082FD17C080912E0144
:1020B00090912F01A0913001B0913101892B8A2B91
:1020C0008B2B81F710925E01289A1F910F91FF9040
:1020D000EF90DF90CF900C94E90F8091F300809106
:1020E000F200882309F467C09091F1000DB407FE57
:1020F000FDCF9EBD482F50E060E070E0C0902E0103
:10210000D0902F01E0903001F0903101C416D50637
:10211000E606F70660F440912E0150912F01609180
:10212000300170913101842F552766277727C090A1
:102130002E01D0902F01E0903001F0903101C41AAF
:10214000D50AE60AF70AC0922E01D0922F01E0923A
:102150003001F0923101040F151F261F371F813007
:1021600049F09091F10081500DB407FEFDCF9EBD66
:102170008130B9F78091E8008B778093E8008091F7
:10218000440190914501A0E0B0E0081719072A0723
:102190003B0709F08BCF80912E0190912F01A091E8
:1021A0003001B0913101892B8A2B8B2B51F400E047
:1021B00010E098017BCF8091E8008B778093E80056
:1021C00075CF289A0E94E90F2898809166018EBDEC
:1021D0000DB407FEFDCF289A289880913C018EBD52
:1021E0000DB407FEFDCF80915401843059F18091E8
:1021F0005401833009F48CC080915401823009F479
:102200006AC080915401813009F458C02091440182
:102210003091450180914A0190914B01A0914C0170
:10222000B0914D01820F931FA11DB11D80934A01F2
:1022300090934B01A0934C01B0934D0100E010E04E
:10224000980134CF80914A0190914B01A0914C01AB
:10225000B0914D018B2F9927AA27BB278EBD0DB4B6
:1022600007FEFDCF80914A0190914B01A0914C0156
:10227000B0914D01CD01AA27BB278EBD0DB407FE3D
:10228000FDCF80914A0190914B01A0914C01B091FA
:102290004D01892F9A2FAB2FBB278EBD0DB407FEA2
:1022A000FDCF80914A0190914B01A0914C01B091DA
:1022B0004D018EBD0DB407FEFDCFA8CF80914A0120
:1022C00090914B01A0914C01B0914D018EBD0DB488
:1022D00007FEFDCF9BCF80914A0190914B01A091C9
:1022E0004C01B0914D01892F9A2FAB2FBB278EBD8A
:1022F0000DB407FEFDCF80914A0190914B01A09152
:102300004C01B0914D018EBD0DB407FEFDCF7ECFC7
:1023100080914A0190914B01A0914C01B0914D01E7
:10232000CD01AA27BB278EBD0DB407FEFDCF80913E
:102330004A0190914B01A0914C01B0914D01892F20
:102340009A2FAB2FBB278EBD0DB407FEFDCF80911A
:102350004A0190914B01A0914C01B0914D018EBD6D
:102360000DB407FEFDCF52CFCF93DF931F92CDB7B1
:10237000DEB72898809151018EBD0DB407FEFDCFC8
:1023800022E09FEF822F8A95F1F79EBD0DB407FEE4
:10239000FDCF8EB58983898180FDF4CF289A0F9077
:1023A000DF91CF910895CF92DF92EF92FF92CF937A
:1023B000DF9382E08093E90021E004C08091E8008F
:1023C00085FD14C080912E0190912F01A0913001C4
:1023D000B0913101892B8A2B8B2B81F7289ADF91C1
:1023E000CF91FF90EF90DF90CF9008958091E8001B
:1023F00082FFE8CF80912E0190912F01A0913001B2
:10240000B091310181349105A105B10508F0D6C024
:10241000C0902E01D0902F01E0903001F09031015A
:10242000DC2DCC2009F4EEC0DD24EE24FF24C0E036
:10243000289880913C018EBD0DB407FEFDCF21117F
:1024400035C08091F1008EBD0DB407FEFDCF289AF6
:102450000E94B411CF5F20E0CD1750F380912E0180
:1024600090912F01A0913001B09131018C199D09FB
:10247000AE09BF0980932E0190932F01A0933001E4
:10248000B093310180912E0190912F01A0913001E4
:10249000B0913101892B8A2B8B2B11F410925E01A4
:1024A0008091E8008B778093E8008CCF8091540175
:1024B0008430E1F080915401833009F453C080915D
:1024C0005401823009F481C080915401813009F0B7
:1024D000B8CF80914A0190914B01A0914C01B091ED
:1024E0004D018EBD0DB407FEFDCFABCF80914A01EB
:1024F00090914B01A0914C01B0914D018B2F9927E8
:10250000AA27BB278EBD0DB407FEFDCF80914A01DF
:1025100090914B01A0914C01B0914D01CD01AA27A2
:10252000BB278EBD0DB407FEFDCF80914A0190916F
:102530004B01A0914C01B0914D01892F9A2FAB2FE7
:10254000BB278EBD0DB407FEFDCF80914A0190914F
:102550004B01A0914C01B0914D018EBD0DB407FE11
:10256000FDCF6FCF80914A0190914B01A0914C011A
:10257000B0914D01CD01AA27BB278EBD0DB407FE3A
:10258000FDCF80914A0190914B01A0914C01B091F7
:102590004D01892F9A2FAB2FBB278EBD0DB407FE9F
:1025A000FDCF80914A0190914B01A0914C01B091D7
:1025B0004D018EBD0DB407FEFDCF43CFE0E4CE2E1E
:1025C000D12CE12CF12CD0E432CF80914A019091B2
:1025D0004B01A0914C01B0914D01892F9A2FAB2F47
:1025E000BB278EBD0DB407FEFDCF80914A019091AF
:1025F0004B01A0914C01B0914D018EBD0DB407FE71
:10260000FDCF1FCFC12CD12C760128CFCF92DF92E6
:10261000EF92FF92CF93DF9382E08093E90021E075
:1026200004C08091E80085FD14C080912E01909136
:102630002F01A0913001B0913101892B8A2B8B2B76
:1026400081F7289ADF91CF91FF90EF90DF90CF90A4
:1026500008958091E80082FFE8CF80912E0190914B
:102660002F01A0913001B091310181349105A10574
:10267000B10508F0DCC0C0902E01D0902F01E09091
:102680003001F0903101DC2DCC2009F4F4C0DD24C0
:10269000EE24FF24C0E0289880913C018EBD0DB44B
:1026A00007FEFDCF21113BC08091F1008EBD0DB41E
:1026B00007FEFDCF8091F1008EBD0DB407FEFDCF6A
:1026C000289A0E94B411CE5F20E0CD1720F38091AC
:1026D0002E0190912F01A0913001B09131018C1900
:1026E0009D09AE09BF0980932E0190932F01A093FD
:1026F0003001B093310180912E0190912F01A09172
:102700003001B0913101892B8A2B8B2B11F410925F
:102710005E018091E8008B778093E80086CF8091FE
:1027200054018430E1F080915401833009F453C0A6
:1027300080915401823009F481C08091540181302C
:1027400009F0B2CF80914A0190914B01A0914C01C8
:10275000B0914D018EBD0DB407FEFDCFA5CF809188
:102760004A0190914B01A0914C01B0914D018B2FEA
:102770009927AA27BB278EBD0DB407FEFDCF8091F8
:102780004A0190914B01A0914C01B0914D01CD01B6
:10279000AA27BB278EBD0DB407FEFDCF80914A014D
:1027A00090914B01A0914C01B0914D01892F9A2F2E
:1027B000AB2FBB278EBD0DB407FEFDCF80914A0124
:1027C00090914B01A0914C01B0914D018EBD0DB483
:1027D00007FEFDCF69CF80914A0190914B01A091F6
:1027E0004C01B0914D01CD01AA27BB278EBD0DB480
:1027F00007FEFDCF80914A0190914B01A0914C01C1
:10280000B0914D01892F9A2FAB2FBB278EBD0DB4F0
:1028100007FEFDCF80914A0190914B01A0914C01A0
:10282000B0914D018EBD0DB407FEFDCF3DCFE0E46C
:10283000CE2ED12CE12CF12CD0E42CCF80914A016A
:1028400090914B01A0914C01B0914D01892F9A2F8D
:10285000AB2FBB278EBD0DB407FEFDCF80914A0183
:1028600090914B01A0914C01B0914D018EBD0DB4E2
:1028700007FEFDCF19CFC12CD12C760128CF809334
:102880001701609367011CBC87EF84B989E085B9A3
:102890001092BC00519A80911701813011F0599823
:1028A0000895599A0895FC01615021E030E002C07A
:1028B000220F331F6A95E2F721153105B9F041E087
:1028C0000EC02A9A36952795299A942F9A95F1F752
:1028D0002998942F9A95F1F72115310539F0BF0108
:1028E00062237323672B69F72A98ECCF0895289AFF
:1028F00060916701909167016D5F925023E130E034
:10290000A90102C0440F551F9A95E2F7CA010E941F
:102910005314289808950E947714289A60916701AB
:10292000909167016D5F925022E130E0A90102C0F1
:10293000440F551F9A95E2F7CA010E945314289834
:102940000895289A60916701909167016D5F925098
:1029500020E130E0A90102C0440F551F9A95E2F72B
:10296000CA010E94531428980895CF92DF92EF92E3
:10297000FF926B017C01289A63E086E090E00E9460
:10298000531460916701C6010E94531498E080E0DF
:1029900031E0880F299A232F2A95F1F72998232FC0
:1029A0002A95F1F71B998160915099F72898FF902B
:1029B000EF90DF90CF900895CF92DF92EF92FF9249
:1029C0006B017C01289A63E086E090E00E9453143A
:1029D00060916701C6010E94531420E180E090E0FD
:1029E00041E0880F991F299A342F3A95F1F72998D9
:1029F000342F3A95F1F71B998160215091F728986F
:102A000025E32A95F1F70000FF90EF90DF90CF903B
:102A10000895CF92DF92EF92FF920F931F93CF937F
:102A2000DF9381E08093E90080911701813029F4E0
:102A300081C08091E80080FD17C080912E019091A7
:102A40002F01A0913001B0913101892B8A2B8B2B62
:102A500081F710925E01DF91CF911F910F91FF904E
:102A6000EF90DF90CF90089580912E0190912F01EB
:102A7000A0913001B091310181349105A105B105DA
:102A800008F04DC0C0902E01D0902F01E090300191
:102A9000F0903101DC2D80911701882309F484C066
:102AA000DD24EE24FF24DD2301F1C0E060914A0122
:102AB00070914B0180914C0190914D018B019C01D3
:102AC0000F5F1F4F2F4F3F4F00934A0110934B0151
:102AD00020934C0130934D010E94DC149093F1003F
:102AE0008093F100CE5FCD1708F380912E01909175
:102AF0002F01A0913001B09131018C199D09AE09CF
:102B0000BF0980932E0190932F01A0933001B093C1
:102B100031018091E8008E778093E8008ECF80911C
:102B200017018823E1F0D0E480E4C82ED12CE12CF9
:102B3000F12CBBCF80914A0190914B01A0914C01A7
:102B4000B0914D01B695A7959795879580934A01C9
:102B500090934B01A0934C01B0934D016ECF90E444
:102B6000C92ED12CE12CF12CD0E4C0E060914A01B7
:102B700070914B0180914C0190914D018B019C0112
:102B80000F5F1F4F2F4F3F4F00934A0110934B0190
:102B900020934C0130934D010E94B5148093F100B5
:102BA000CF5FCD1718F3A1CFCC2021F0DD24EE2488
:102BB000FF24DBCFC12CD12C760197CFCF92DF92AF
:102BC000EF92FF92CF936B017C01C42F289A63E0B0
:102BD00085E090E00E94531460916701C6010E9455
:102BE000531468E08C2F90E00E9453142898289A80
:102BF0008AE18A95F1F700C095E09A95F1F7000017
:102C000083B1887020E030E00CC085E08A95F1F750
:102C1000000083B188702F5F3F4F2F3097E2390754
:102C200011F0882391F32898CF91FF90EF90DF90D7
:102C3000CF900895CF92DF92EF92FF92CF93DF93E0
:102C40006B017C01EA01289A63E085E090E00E9434
:102C5000531460916701C6010E94531460E1CE01D4
:102C60000E9453142898289A8AE18A95F1F700C0A7
:102C700095E09A95F1F7000083B1887020E030E08C
:102C80000CC085E08A95F1F7000083B188702F5F52
:102C90003F4F2F3097E2390711F0882391F328989E
:102CA000DF91CF91FF90EF90DF90CF900895CF927A
:102CB000DF92EF92FF92CF93DF930E94771482E02E
:102CC0008093E90080911701813029F4B4C080918C
:102CD000E80082FD17C080912E0190912F01A091F4
:102CE0003001B0913101892B8A2B8B2B81F70E9407
:102CF000A11410925E01DF91CF91FF90EF90DF90D1
:102D0000CF90089580912E0190912F01A0913001D4
:102D1000B091310181349105A105B10508F04DC094
:102D200040912E0150912F0160913001709131013D
:102D3000D42F80912E0190912F01A0913001B0915C
:102D40003101841B9109A109B10980932E0190934F
:102D50002F01A0933001B093310180911701882396
:102D600009F47EC0442319F1C0E02091F1004091A4
:102D7000F10060914A0170914B0180914C0190915A
:102D80004D016B017C013FEFC31AD30AE30AF30A3A
:102D9000C0924A01D0924B01E0924C01F0924D0159
:102DA00050E0522B0E941A16CE5FCD17F0F28091A0
:102DB000E8008B778093E8008ECF80912E01909170
:102DC0002F01A0913001B091310180549109A109E6
:102DD000B10980932E0190932F01A0933001B093FD
:102DE000310180911701D0E48111BECFC0E0409144
:102DF000F10060914A0170914B0180914C019091DA
:102E00004D016B017C012FEFC21AD20AE20AF20ACD
:102E1000C0924A01D0924B01E0924C01F0924D01D8
:102E20000E94DE15CF5FCD1710F38091E8008B77FD
:102E30008093E80050CF80914A0190914B01A0917E
:102E40004C01B0914D01B695A795979587958093C4
:102E50004A0190934B01A0934C01B0934D013BCF9D
:102E60004111C4CFA4CF98E080E031E0880F1B99D6
:102E70008160299A232F2A95F1F729989150B1F76B
:102E8000089594E080E031E0880F880F1B998260FC
:102E90001A998160299A232F2A95F1F72998915040
:102EA00099F70895489B1DC080E8499980641B9953
:102EB00080621A998061299A91E0292F2A95F1F769
:102EC00029989A95F1F748998860499984601B99E7
:102ED00082601A998160299A91E09A95F1F7299870
:102EE000089580E0E2CF98E031E009C02A98880F89
:102EF000299A232F2A95F1F72998915021F087FFDD
:102F0000F5CF2A9AF4CF089594E031E087FD10C000
:102F10002B9886FF0BC02A9A299A232F2A95F1F71E
:102F20002998880F880F915089F708952A98F4CF2F
:102F30002B9AEFCF92E031E087FD1CC0589886FFB6
:102F400011C0599A85FF11C02B9A84FF11C02A9A8B
:102F5000299A232F2A95F1F729988295807F9150FD
:102F600059F70895599885FDEFCF2B9884FDEFCF41
:102F70002A98EECF589AE3CF2398229A519A509AE2
:102F8000599A589A0895229A239A0895229A239A30
:102F9000519A509A08952298239808952298239838
:102FA0005198509808951CBC1092BC000E94BC1708
:102FB000209A219A299A29980895299A81E08A9538
:102FC000F1F729980895809161018130D9F08091BD
:102FD0006101823081F183E797E190934001809312
:102FE0003F0183E397E190933601809335018CEBA9
:102FF00097E1909339018093380190935C0180931D
:103000005B0108958AE997E19093400180933F0125
:1030100082E597E1909336018093350186EC97E144
:1030200090933901809338018EEC97E190935C0185
:1030300080935B01089584E897E190934001809329
:103040003F0181E497E1909336018093350183EC51
:1030500097E190933901809338018BEC97E190933D
:103060005C0180935B0108958430C9F0823081F166
:1030700083E797E19093400180933F0183E397E1D9
:1030800090933601809335018CEB97E19093390151
:103090008093380190935C0180935B0108958AE9E5
:1030A00097E19093400180933F0182E597E19093EF
:1030B00036018093350186EC97E190933901809336
:1030C00038018EEC97E190935C0180935B01089549
:1030D00084E897E19093400180933F0181E497E178
:1030E000909336018093350183EC97E190933901F9
:1030F000809338018BEC97E190935C0180935B01A6
:103100000895CF93809161018823C9F08091610176
:10311000813071F0809161018230C1F08091610154
:10312000833031F080916101843081F0C0E001C0D2
:10313000C4E08C2F0E9434188C2FCF910895C1E0E9
:103140008C2F0E9434188C2FCF910895C2E08C2FC1
:103150000E9434188C2FCF910895E0913801F0919E
:10316000390109950E94E50F80916601E0913F01C8
:10317000F091400109950C94E70F8091540184303F
:1031800041F160914A0170914B0180914C01909105
:103190004D01E0913F01F0914001099580914A0174
:1031A00090914B01A0914C01B0914D01E0913F01F4
:1031B000F0914001892F099580914A0190914B012E
:1031C000A0914C01B0914D01E0913F01F09140017F
:1031D000099480914A0190914B01A0914C01B091CA
:1031E0004D01E0913F01F09140018B2F0995C9CF2E
:1031F000E0913801F0913901099580913C01E0910D
:103200003F01F091400109950C94BD18CF93DF93D5
:103210001F92CDB7DEB70E94E3170E94E50FE09141
:103220003801F091390109958091500181111BC03D
:1032300080915101E0913F01F09140010995E091A9
:103240005B01F0915C010995E0913501F091360147
:1032500009958983898180FDF7CF0E94E70F0F9040
:10326000DF91CF91089580915001E0913F01F0915D
:1032700040010995E0915B01F0915C010995E091B5
:103280003501F0913601099589838981881F882746
:10329000881F89838981882391F30E94E70F0E9408
:1032A000E50FE0913801F09139010995C1CFCF9335
:1032B000DF93E0913801F0913901099582E0809324
:1032C000E90004C08091E80082FD11C080912E01C8
:1032D00090912F01A0913001B0913101892B8A2B5F
:1032E0008B2B81F710925E01DF91CF910895809131
:1032F0002E0190912F01A0913001B09131018134C4
:103300009105A105B10580F540912E0150912F0145
:103310006091300170913101D42F80912E019091F4
:103320002F01A0913001B0913101841B9109A109B5
:10333000B10980932E0190932F01A0933001B09397
:103340003101442359F0C0E08091F100E0913F0148
:10335000F09140010995CF5FCD17B0F38091E8005F
:103360008B778093E800B2CF80912E0190912F014E
:10337000A0913001B091310180549109A109B109A6
:1033800080932E0190932F01A0933001B0933101CF
:10339000D0E4D9CF1F93CF93DF931F92CDB7DEB781
:1033A000E0915B01F0915C01099581E08093E90077
:1033B00004C08091E80080FD18C080912E0190919A
:1033C0002F01A0913001B0913101892B8A2B8B2BD9
:1033D00081F78091340181110E94E70F10925E0104
:1033E0000F90DF91CF911F91089580912E019091C0
:1033F0002F01A0913001B091310181349105A105D7
:10340000B10560F180E48983298180912E0190913A
:103410002F01A0913001B0913101821B9109A109C6
:10342000B10980932E0190932F01A0933001B093A6
:1034300031018981882361F010E0E0913501F0913C
:10344000360109958093F1001F5F89811817A8F351
:103450008091E8008E778093E800AFCF80912E01B5
:1034600090912F01A0913001B0913101CCCFCF9339
:10347000DF9300D000D0CDB7DEB780912E019091C0
:103480002F01A0913001B091310189839A83AB83E0
:10349000BC8389819A81AB81BC81892B8A2B8B2B40
:1034A00009F049C067C08091440190914501A0E0B6
:1034B000B0E080932E0190932F01A0933001B09340
:1034C000310189819A81AB81BC8140912E0150915B
:1034D0002F016091300170913101841B950BA60B77
:1034E000B70B89839A83AB83BC83209144013091CD
:1034F000450180914A0190914B01A0914C01B091FE
:103500004D01820F931FA11DB11D80934A0190931D
:103510004B01A0934C01B0934D010E9457190E949A
:10352000E70F0E94061989819A81AB81BC81892BA2
:103530008A2B8B2BF9F00E94E3170E94AD180E9492
:10354000E50F0E94F8180E94811880914401909123
:10355000450149815A816B817C81A0E0B0E08417EC
:103560009507A607B70708F49ECF89819A81AB819A
:10357000BC819FCF10925E010F900F900F900F9023
:10358000DF91CF910895482F50E097E068E00AC09E
:103590008AE28A95F1F700C0519880E28A95F1F7A6
:1035A0009150A0F09A01092E02C0359527950A94F2
:1035B000E2F7519A20FFECCF862F8A95F1F75198C8
:1035C0008AE48A95F1F700C0915060F7519A88E03B
:1035D0008A95F1F751988AE08A95F1F789B190E4DC
:1035E0009A95F1F78695817091E089270895582F73
:1035F00098E080E048E03AE0519A242F2A95F1F7CC
:103600005198232F2A95F1F729B160E46A95F1F7D3
:10361000880F21FD8F5F915079F7519A511109C0A0
:103620006AE26A95F1F700C0519890E29A95F1F735
:10363000089598E09A95F1F751989AE49A95F1F7E0
:1036400000C00895CF93DF93EC011CBC519A599AA6
:103650001092BC005198F894519A8FE193E0019731
:10366000F1F700C00000519890E39A95F1F7519A54
:1036700088E0982F9A95F1F75198519A8A95F1F729
:1036800051988AE08A95F1F789B190E49A95F1F71B
:103690008695817091E0892780931801188219829C
:1036A0001A82519887E592E00197F1F700C0000077
:1036B00080911401880F816C0E94C31A80E00E94DF
:1036C000F71A888380E00E94F71A898381E00E94BC
:1036D000F71A8A837894DF91CF910895EF92FF9241
:1036E0000F931F93CF93DF937C01F894519887E554
:1036F00092E00197F1F700C0000080911401880F5B
:10370000806B0E94C31A811107C0DF91CF911F9176
:103710000F91FF90EF90089580E00E94C31A519896
:10372000E7E5F2E03197F1F700C000008091140165
:10373000880F816B0E94C31A882339F3E701870140
:10374000015E1F4F04C080E00E94F71A8993C017E2
:10375000D107C9F781E00E94F71AF701878F5198C6
:1037600087E592E00197F1F700C0000080E20E9437
:10377000C31A80E60E94C31A5198E7E5F2E0319738
:10378000F1F700C00000882351F0F70110A27894EF
:10379000DF91CF911F910F91FF90EF90089581E0FD
:1037A000F70180A3F4CFDF92EF92FF920F931F9364
:1037B000CF93DF938C01F894D09014018D2D880F56
:1037C000806BD82E80E190E0A0E0B0E080934A01C9
:1037D00090934B01A0934C01B0934D0180E1E82EF2
:1037E000C0E080914401909145012E2D30E0821778
:1037F000930708F058C08091440190914501F82E3C
:10380000519887E592E00197F1F700C000008D2DF7
:103810000E94C31A882309F43EC080914A01909106
:103820004B01A0914C01B0914D010E94C31A882315
:1038300091F1FF2059F0DF2DDC0FF801EC0FF11DA5
:1038400080810E94C31ACF5FDC13F7CF519887E5C0
:1038500092E00197F1F700C000008FE19EE401972C
:10386000F1F700C00000EF1880914A0190914B01E0
:10387000A0914C01B0914D018F0D911DA11DB11D65
:1038800080934A0190934B01A0934C01B0934D015A
:10389000E110A7CF7894DF91CF911F910F91FF9006
:1038A000EF90DF900895FE2CABCFF894519887E508
:1038B00092E00197F1F700C0000080E20E94C31A75
:1038C00080E60E94C31A80E00E94C31A519887E5DF
:1038D00092E00197F1F700C0000078940895FC0190
:1038E000808180931D01818180932001828180935A
:1038F0001901838180931E018481958198278927EE
:10390000982790931B0180931A010C94B304FC0137
:10391000808180933C0181818093660182818093C4
:10392000510183818093500184818093540185816A
:103930009681982789279827909345018093440181
:1039400067817085818592850E944C2260934A012F
:1039500070934B0180934C0190934D012385848596
:1039600090E0A0E0B0E0BA2FA92F982F8827A22BD3
:103970002585822B80932E0190932F01A0933001F7
:10398000B093310186858093610108950F931F9351
:10399000CF93DF93CDB7DEB760970FB6F894DEBF55
:1039A0000FBECDBF60912C0170912D0108EE10E08B
:1039B000F8018081877F8083CE0101960E94710883
:1039C000CE0101960E94871C0E94DC0F0E94E50F29
:1039D0000E94720E83E080935E01F80180818E77F1
:1039E000808360960FB6F894DEBF0FBECDBFDF9127
:1039F000CF911F910F910895FC0180818093370131
:103A000081818093540162817381848195810E94B8
:103A10004C2260934A0170934B0180934C01909328
:103A20004D012681878190E0A0E0B0E0BA2FA92F58
:103A3000982F8827A22B2085822B80932E0190938C
:103A40002F01A0933001B0933101818590E09093D4
:103A50005801809357018285809361010895CF9327
:103A60008091E800877F8093E80060912C0170913D
:103A70002D0188E691E00E94710888E691E00E949D
:103A8000FC1C0E94E50F0E94E317E0913801F091C1
:103A90003901099580913701E0913F01F091400192
:103AA00009950E94BD180E948118E0915B01F09178
:103AB0005C0109958091570190915801892B69F01B
:103AC000C0E00E94DD17CF5F8091570190915801AF
:103AD0002C2F30E028173907A0F388E080935E018F
:103AE00081E0809334018091E8008E778093E80034
:103AF000CF9108958091E800877F8093E8006091DE
:103B00002C0170912D0188E691E00E94710888E6F1
:103B100091E00E94FC1C0E94E50F809137018EBD50
:103B20000DB407FEFDCF0E94360F80915701909192
:103B30005801892B81F080E090E04FEF4EBD0DB42D
:103B400007FEFDCF2EB50896209157013091580100
:103B50008217930798F381E080935E01809334018C
:103B60008091E8008E778093E8000895FC018081C1
:103B70009181A281B38180934A0190934B01A093DC
:103B80004C01B0934D0184819581A681B7818093CA
:103B90002E0190932F01A0933001B09331018085C5
:103BA00091859093450180934401828580935401CF
:103BB000089581E08093E00080E28093D800E9ECF2
:103BC000F0E010828FE19EE40197F1F700C0000061
:103BD0001DBA109268001CBC10BE1FBA10927A0069
:103BE00010926E0010926F0010927100109272008D
:103BF0001082ECEBF0E0108214B817B81AB81DB8B8
:103C000010BA108215B818B81BB81EB811BA0C94A7
:103C100000370895E09127018E2F90E0FC01709706
:103C2000E73EF10508F5E05AFF4F0C94462240911B
:103C30002801417060912A0170912B0188E691E082
:103C40000E94C6078091E800877F8093E80060911A
:103C50002C0170912D0188E691E00E940F0880915F
:103C6000E8008B778093E80008950E94E70F809129
:103C7000E800877F8093E8000C9451090E94E50FCB
:103C80008091E800877F8093E8000C94510980912F
:103C9000E800877F8093E8000E9451090C948B1400
:103CA0008091E800877F8093E8000E94510910927C
:103CB000430180E00C94480D8091E800877F809359
:103CC000E8000E9451091092430181E00C94480DD4
:103CD0008091E800877F8093E8008091280190918F
:103CE0002901909368018093690180912A01909144
:103CF0002B0190936A0180936B0164E070E0ABCF7D
:103D00008091E800877F8093E80064E070E082E0C3
:103D100091E00E940F088091E8008B778093E80083
:103D200008958091E800877F8093E80080911F01CB
:103D30008093680161E070E08ECF8091E800877F1A
:103D40008093E80060912C0170912D0188E691E04C
:103D50000E947108609168017091690180916A0107
:103D600090916B010E944C2260934A0170934B0129
:103D700080934C0190934D0120916C0180916D01D5
:103D800090E0A0E0B0E0BA2FA92F982F8827A22BAF
:103D900020916E01822B80932E0190932F01A0938E
:103DA0003001B09331018091E8008E778093E80074
:103DB0008FE080935E0108958091E800877F809373
:103DC000E80060912C0170912D0188E691E00E943D
:103DD0007108609168017091690180916A01909108
:103DE0006B010E944C2260934A0170934B018093B7
:103DF0004C0190934D0120916C0180916D0190E0F8
:103E0000A0E0B0E0BA2FA92F982F8827A22B2091ED
:103E10006E01822B80932E0190932F01A09330018D
:103E2000B09331018091E8008E778093E8008EE0B6
:103E300080935E0108958091E800877F8093E80079
:103E400060912C0170912D0188E691E00E9471082B
:103E50008091E8008E778093E80088E691E00C94EA
:103E60006F1C8091E800877F8093E80060912C01AF
:103E700070912D0188E691E00E94710888E691E03A
:103E80000E94871C8091E8008E778093E80089E08B
:103E900080935E0108950C942F1D2091280130918C
:103EA0002901C9019927A0E0B0E0DC019927882702
:103EB00040912A0150912B0160E070E0842B952BFA
:103EC000A62BB72B80932E0190932F01A093300146
:103ED000B0933101832F0E9434188091E800877FCE
:103EE0008093E8000E94510987E080935E01089565
:103EF0002091280130912901C9019927A0E0B0E063
:103F0000DC019927882740912A0150912B0160E01C
:103F100070E0842B952BA62BB72B80932E019093CA
:103F20002F01A0933001B0933101832F0E943418E8
:103F30008091E800877F8093E8000E9451091092E9
:103F4000340188E080935E0108958091E800877FC6
:103F50008093E80080915E018093680161E070E0E9
:103F60007ACE8091E800877F8093E8000E94510913
:103F700081E08093430108958091E800877F8093DA
:103F8000E80088E691E00E946E1B61E270E063CE7B
:103F900080912A018093140188E691E00E94221BFF
:103FA0008091E800877F8093E80063E070E053CE63
:103FB00088E691E00E94B9068091E800877F8093AF
:103FC000E80060E470E047CE0C94D91D0E94551CB7
:103FD0008091E800877F8093E8000C9451098091DC
:103FE000E800877F8093E80060912C0170912D019B
:103FF00088E691E00E94710888E691E00E94D31B58
:104000008091E8008E778093E80008958091E80021
:10401000877F8093E80060912C0170912D0188E6E4
:1040200091E00E94710888E691E00E94B61D80919F
:10403000E8008E778093E80083E180935E01089525
:1040400040912801417060912A0170912B0188E60E
:1040500091E00E947D078091E800877F8093E800CF
:1040600060912C0170912D01F6CD40912801417095
:1040700060912A0170912B0188E691E00E94690607
:104080008091E800877F8093E80060912C01709117
:104090002D01E1CD80912A010E94B6058091E800B2
:1040A000877F8093E8000C9451092091280130917A
:1040B0002901C901A0E0B0E0DC01992788274091DF
:1040C0002A0150912B0160E070E0842B952BA62BE8
:1040D000B72BB77080932E0190932F01A0933001DE
:1040E000B0933101832F881F8827881F80935D013B
:1040F0008091E800877F8093E8000E94510985E164
:1041000080935E01089580912A010C946C05809142
:10411000E800877F8093E80060912C0170912D0169
:1041200088E691E00E94710888E691E00E9482058D
:104130008091E8008E778093E80008958091E800F0
:10414000877F8093E8000E9451090C9493050C949A
:104150007A1D8091E800877F8093E8000E945109D2
:104160008091280190912901A0E0B0E0DC0199271D
:10417000882720912A0130912B01820F931FA11DC6
:10418000B11D80932E0190932F01A0933001B09325
:10419000310182E080935E0108958091E800877F7D
:1041A0008093E8000E945109809128019091290193
:1041B000A0E0B0E0DC019927882720912A01309106
:1041C0002B01820F931FA11DB11D80932E0190938F
:1041D0002F01A0933001B093310181E080935E0103
:1041E0001092340108958091E800877F8093E80061
:1041F00080912A0190912B01019709F421C12C98FB
:104200008091E8008E778093E80008958091E8001F
:10421000877F8093E80060912C0170912D0188E6E2
:1042200091E00E94710840912C0150912D01609104
:104230002A0170912B0188E691E00E946322E0CF71
:10424000409128015091290160912A0170912B0120
:1042500088E691E00E945322AFCE8091E800877FEC
:104260008093E80060912A0170912B0180912801D0
:10427000909129010E945A0D8091E8008E778093D9
:10428000E80008958091E800877F8093E8000E940D
:10429000D3178091E8008E778093E800089580918D
:1042A000E800877F8093E80060912C0170912D01D8
:1042B00088E691E00E94710860916801709169013F
:1042C00080916A0190916B010E944C2260932E01B3
:1042D00070932F01809330019093310160916C01B4
:1042E00070916D0180916E0190916F010E944C223E
:1042F00060934A0170934B0180934C0190934D0160
:104300008091E8008E778093E80080E180935E01E1
:1043100008958091E800877F8093E8000E9451090A
:1043200060912B0180912A010C943F148091E80048
:10433000877F8093E80060912C0170912D0188E6C1
:1043400091E00E94710888E691E00E94871C8091AC
:10435000E8008E778093E80080912A0190912B01EC
:10436000029709F46FC084E080935E0108950C9475
:10437000C61C8091E800877F8093E80060912C0143
:1043800070912D0188E691E00E94710860916801AA
:104390007091690180916A0190916B010E944C2299
:1043A00060932E0170932F0180933001909331011F
:1043B00060916C0170916D0180916E0190916F011F
:1043C0000E944C2260934A0170934B0180934C01F0
:1043D00090934D018091E8008E778093E80081E111
:1043E00080935E0108958091E800877F8093E800C4
:1043F00060912C0170912D0188E691E00E94710876
:1044000088E691E00E94B61D8091E8008E77809347
:10441000E80084E180935E0108958091E800877F41
:104420008093E80060912C0170912D0188E691E065
:104430000E9471088091E8008E778093E8000895CB
:104440002C9ADECE85E080935E010895292F30E01E
:104450002130310599F02230310541F080E090E0C3
:1044600020E030E0FA0131832083089580E290E07B
:104470002EE834E0FA0131832083089582E190E050
:104480002EEA34E0FA01318320830895EE0FFF1FF6
:104490000590F491E02D09946927962769277827DC
:1044A000872778270895DC01CB01FC01F999FECF1D
:1044B00006C0F2BDE1BDF89A319600B40D924150AC
:1044C0005040B8F70895DC01CB0103C02D910E9444
:1044D0006E2241505040D0F70895262FF999FECF13
:1044E0001FBA92BD81BD20BD0FB6F894FA9AF99A11
:0A44F0000FBE01960895F894FFCF67
:0E44FA00000A43343536504342322E3400005F
:00000001FF
