:100000000C9444020C9461020C9461020C94610201
:100010000C9461020C9461020C9461020C946102D4
:100020000C9461020C9461020C9461020C946A09B4
:100030000C9461020C9461020C9461020C946102B4
:100040000C9461020C9461020C9461020C946102A4
:100050000C9461020C9461020C9461020C94610294
:100060000C9461020C9461020C9461020C94610284
:100070000C9461020E0BD60A390AD60A390AB40A60
:100080008D0A390A790A570A301FF61FDF1F8C1DA7
:100090008C1D8C1D8C1D8C1D8C1D8C1DDB1F8C1DC7
:1000A0008C1D8C1D8C1D8C1D8C1D8C1DAD1FA21FCD
:1000B0008C1D8C1D8C1D8D1F8C1D8C1D8C1D8C1DF5
:1000C0008C1D8C1D8C1D8C1D8C1D8C1D781F6F1D17
:1000D0008C1D8C1D8C1D8C1D8C1D8C1D8C1D8C1DD8
:1000E0008C1D8C1D8C1D8C1D8520961D8D1D4B20FF
:1000F00025200120FF1F0F21EE20E120A720112144
:100100009F1D8C1D8C1D8C1D9A20961D8D1DD01E33
:10011000A51EA31E891E8C1D8C1D8C1D8C1D8C1D67
:100120008C1D8C1D8C1D8C1D731E341EF51DE91D30
:100130008C1D8C1D8C1D8C1D8C1D8C1D8C1D8C1D77
:100140008C1D8C1D8C1D8C1D8C1D8C1D8C1D8C1D67
:100150008C1D8C1D8C1D8C1D8C1D8C1D8C1D8C1D57
:100160008C1D8C1D8C1D8C1DD81DC01DB41DA81D83
:10017000091F8C1D8C1D8C1D8C1D8C1D8C1D8C1DB8
:100180008C1D8C1D8C1DFD1E65217A1D8C1D8C1DEA
:100190008C1D8C1D8C1D8C1D8C1D8C1D8C1D8C1D17
:1001A0008C1D8C1D8C1D8C1D8C1D8C1D8C1D8C1D07
:1001B0008C1D8C1D8C1D8C1D8C1D8C1D8C1D8C1DF7
:1001C0008C1D8C1D8C1D8C1D201F5E1F4B21141F30
:1001D000471F3E1F8C1D8C1D8C1D8C1D8C1D8C1D66
:1001E0008C1D8C1D8C1D8C1D8C1D8C1D8C1D8C1DC7
:1001F0008C1D8C1D8C1D8C1D8C1D8C1D8C1D8C1DB7
:100200008C1D8C1D8C1D8C1D8C1D8C1D8C1D8C1DA6
:100210008C1D8C1D8C1D8C1D8C1D8C1D8C1D8C1D96
:100220008C1D8C1D8C1D8C1D8C1D8C1D8C1D8C1D86
:100230008C1D8C1D8C1D8C1D8C1D8C1D8C1D8C1D76
:100240008C1D8C1D8C1D8C1D8C1D8C1D8C1D8C1D66
:100250003C1F5E20782000000202020A0A2A1A06C9
:1002600006061616563607000101010505150D0391
:1002700003030B0B2B1B030300000002020A060101
:1002800001010505150D1F03070000010105030FFE
:100290000F0F2F2FAF6F1F03070700010105030F7B
:1002A0000F0F2F2FAF6F0F01030302000002010792
:1002B0000707171757371F03070701050001030F2B
:1002C0000F0F2F2FAF6F0F01030300020200010772
:1002D0000707171757370700010101050515000328
:1002E00003030B0B2B1B01010505051515553500E7
:1002F000000002020A061F03070707171757370FE8
:100300000000010105031F03070707171757370FE1
:100310000F00010105030F010303030B0B2B1B0748
:100320000702000002011F03070707171757370FBF
:100330000F01050001030F010303030B0B2B1B0728
:1003400007000202000107000101010505150D0368
:1003500003030B0B2B000001020304040506050335
:100360000405050607060300010203030405040251
:10037000030404050605020300010202030403014D
:100380000203030405040503030001010203020440
:10039000050606070807050303040001020302041B
:1003A0000506060708070402020303000102010311
:1003B0000405050607060503030402030001020401
:1003C00005060607080704020203010203000103F1
:1003D00004050506070603010102030304050002E4
:1003E00003040405060501020304050506070600CB
:1003F00001020203040305030304050506070604BE
:1004000000010102030205030304050506070604B3
:1004100005000102030204020203040405060503A9
:100420000403000102010503030405050607060491
:100430000502030001020402020304040506050389
:100440000401020300010301010203030405040285
:10045000030404050600090220000101008064096C
:10046000040000020000000007050202400000072F
:100470000581024000001201000200000020C016A9
:10048000DE0501000000000111241FBEC0E0D2E023
:10049000DEBFCDBF11E0A0E0B1E0EAEAF3E402C0C4
:1004A00005900D92AE30B107D9F721E0AEE0B1E092
:1004B00001C01D92A83AB207E1F70E94B70C0C9454
:1004C000D3210C94000098E007C02F98880F0000FB
:1004D0002E9A0000915029F02E9887FFF6CF2F9A80
:1004E000F5CF2E982F9A00002E9A84E606C095E04C
:1004F0009A95F1F70000815041F01E9BF8CF83B12F
:100500008095881F8827881F089580E008952E9879
:1005100000002F9A00002E9A00002F9800000C94E3
:1005200063020F931F93CF93DF93082F2F98000040
:100530000E946302182FC1E3D0E006C0802F0E9402
:100540006302219719F0182F1123C1F3812FDF9136
:10055000CF911F910F910895CF93C0911D0180916C
:100560004A0190914B01A0914C01B0914D01209115
:100570002001220F220F220F04C0B695A795979550
:1005800087952A95D2F780FDC26081FDC46082FD07
:10059000C8608C2F0E9491028823A1F080912001D5
:1005A0008230B1F080914A0190914B01A0914C01B1
:1005B000B0914D010E94630280E580931F018C2F52
:1005C000CF91089581E580931F0180E0CF91089538
:1005D00080914A0190914B01A0914C01B0914D0145
:1005E000892F0E946302DECF0F931F93CF93DF9377
:1005F000181619060CF061C08C01C0E0D0E08091A3
:100600001C0181110DC080911A0190911B018093F2
:100610001C010E94AC0280911F01813509F45BC06E
:10062000E0910001F0910101EC0FFD1F80810E941B
:100630006302882309F447C080911C018150809394
:100640001C0180911C01811133C02E982F9800004D
:100650002E9A00002F9A000020911A0130911B0160
:1006600080914A0190914B01A0914C01B0914D01B4
:10067000820F931FA11DB11D80934A0190934B01DE
:10068000A0934C01B0934D0180911E01882381F00D
:1006900040E050E08FE99FE00197F1F700C00000D3
:1006A0004F5F5F4F20911E0130E04217530794F3D4
:1006B00021960C171D0709F0A2CF81E0DF91CF91A1
:1006C0001F910F91089591E590931F01DF91CF91B4
:1006D0001F910F91089580E0DF91CF911F910F91AD
:1006E00008950F931F9382E08093E90080E5809343
:1006F0001F0110921C0180912E0190912F01A09159
:100700003001B0913101892B8A2B8B2B09F463C006
:100710008091E80082FFFCCF80912E0190912F0103
:10072000A0913001B091310181349105A105B1054D
:10073000E0F500912E0110912F01209130013091B0
:100740003101802F40912E0150912F016091300195
:1007500070913101401B51096109710940932E01CB
:1007600050932F016093300170933101002379F091
:1007700020E030E09091F100E0910001F091010162
:10078000E20FF31F90832F5F3F4F281798F390914C
:10079000E8009B779093E80090911F01903509F055
:1007A000AACF90E00E94F402A6CF80912E019091F2
:1007B0002F01A0913001B091310180549109A1091C
:1007C000B10980932E0190932F01A0933001B09333
:1007D000310180E4CDCF10925E011F910F910895F9
:1007E00038E090E020E02E982F9A00002E9A00002A
:1007F00007C045E04A95F1F700009F5F9436D1F0BD
:100800001E9BF7CF220F1F992F5F315061F72E9853
:10081000811112C02F9800002E9A07C085E08A959A
:10082000F1F700009F5F943629F01E9BF7CF000080
:10083000822F089580E008952F9AEDCFDF92EF92F6
:10084000FF920F931F93CF93DF937C010E94AC0222
:1008500090911F01913509F44DC08F5F0E9487026E
:10086000D82E882309F442C01E141F04BCF4C0E033
:10087000D0E02196CE010197009100011091010175
:10088000080F191F81E0EC16FD0609F080E00E94B8
:10089000F003F8018083EC16FD0659F72E982F9887
:1008A00000002E9A00002F9A000080914A0190913A
:1008B0004B01A0914C01B0914D01A701FF0C660BBB
:1008C000770B840F951FA61FB71F80934A01909343
:1008D0004B01A0934C01B0934D018D2DDF91CF9131
:1008E0001F910F91FF90EF90DF90089581E5809325
:1008F0001F01F3CFD12CF1CF84B1806C84B92F9A32
:100900002E9A10924A0110924B0110924C011092B3
:100910004D0188E090E00E941E04811104C083E52F
:1009200080931F01089582E580931F010895CF925F
:10093000DF92EF92FF92CF9381E08093E90080E510
:1009400080931F0180912E0190912F01A091300181
:10095000B0913101892B8A2B8B2B09F463C020E5E0
:100960008091E80080FFFCCF80912E0190912F01B3
:10097000A0913001B091310181349105A105B105FB
:1009800008F047C0C0902E01D0902F01E0903001B8
:10099000F0903101CC2D203509F44CC0DD24EE243B
:1009A000FF24CC2371F080E090E0E0910001F09111
:1009B0000101E80FF91F20812093F10001968C17A7
:1009C000A0F380912E0190912F01A0913001B09160
:1009D00031018C199D09AE09BF0980932E019093B6
:1009E0002F01A0933001B09331018091E8008E7700
:1009F0008093E80080912E0190912F01A091300109
:100A0000B0913101892B8A2B8B2B61F020911F0132
:100A1000A7CF80E4C82ED12CE12CF12C203591F009
:100A2000C0E4C1CF10925E01CF91FF90EF90DF90B4
:100A3000CF9008958C2D90E0DD24EE24FF240E94B9
:100A40001E04AFCF80E490E0C0E4F9CF1CBC10924C
:100A5000C90080E880BFE4E6F0E080818C6280839A
:100A6000E5E6F0E08081816080838DEF84B980E1EC
:100A700085B90895FC018081809313018181809361
:100A800012018281809311018381809310018481FE
:100A900080930F01089584E185B925E09FE152E03C
:100AA0009695892F880F880F847080612B9A42E079
:100AB000352F3A95F1F785B9215091F780E185B945
:100AC0002B9A942F9A95F1F794E195B92B9A942F3C
:100AD0009A95F1F785B940930E01089520910E0182
:100AE0002295207F282B30E0F901EA5AFC4F4491EF
:100AF000F901EA5AFD4F2491922F990F990F9470A2
:100B0000906195B93FEF340F442371F052E0269580
:100B1000922F990F990F947090612B9A452F4A95B7
:100B2000F1F795B9315098F780930E0108958091AF
:100B30000E018B3009F18430D9F0813029F18230F7
:100B4000F9F0893049F1833099F0853009F1863028
:100B500031F18730E9F08830B9F08A3069F08C30B3
:100B600011F18D3021F18E30F1F08F3069F0089560
:100B700085E080930E0108958CE080930E01089526
:100B800089E080930E01089582E080930E0108951C
:100B900088E080930E01089510920E01089587E079
:100BA00080930E0108958FE080930E0108958EE0EA
:100BB00080930E010895CF92DF92EF92FF926B0126
:100BC0007C0181E185B9442311F181E0C81AD10883
:100BD000E108F10811F180E090E0DC0169E152E008
:100BE00031E165B9252F2A95F1F735B90196A11D97
:100BF000B11D8C159D05AE05BF0598F341110DC0C3
:100C000080E185B9FF90EF90DF90CF900895C114F7
:100C1000D104E104F104F9F6F3CF85E185B98DE162
:100C200085B982E08A95F1F781E185B90E9497053F
:100C300080E185B9FF90EF90DF90CF900895EF921B
:100C4000FF920F931F93CF93DF93EC01DB0110977B
:100C500061F120E030E060E070E080E001E010E071
:100C60002F5F3F4FFE01E80FF11D90819170A21799
:100C7000B30789F1906195B92B9A508156955083AD
:100C8000199B07C07801072E01C0EE0C0A94EAF701
:100C90006E2995B97F5F783089F0A217B30701F705
:100CA000772319F0C80FD11D688341110CC0DF9163
:100CB000CF911F910F91FF90EF90089560838F5F08
:100CC00060E070E0EACFDF91CF911F910F91FF902C
:100CD000EF900C949705442369F29461CCCFBF92B6
:100CE000CF92DF92EF92FF920F931F93CF93DF93F8
:100CF00000D000D0CDB7DEB78C0180E4F8011192AE
:100D00008A95E9F70E944B058BE00E946E0520E270
:100D100090E24FEF5FEFBA0183B1842F8170806161
:100D200085B92B9A769567955795479585B99150D2
:100D300099F7215069F784E00E946E0530E290E156
:100D400080E223B195B92B9A95B98150D1F73150F2
:100D5000B9F79AE081E041E050E060E070E0C12C3A
:100D6000D12C7601199B04C0C42AD52AE62AF72A79
:100D7000806185B92B9A440F551F661F771F85B96F
:100D8000915080E079F7C114D104E104F10409F431
:100D900059C0BB24B394F694E794D794C794C0FC8D
:100DA00004C0B394FAE0BF12F6CF80E00E946E0553
:100DB0008BE00E946E0537E090E180E223B195B9A7
:100DC0002B9A95B98150D1F73150B9F78FE19EE454
:100DD0000197F1F700C0000083B181E185B92B9A3A
:100DE00085B9FF24F39480E193B185B92B9A85B935
:100DF00091FD05C0F3949FEFF912F6CFF12C82E03C
:100E00000E946E05F801B082F18280E00E946E05BA
:100E100084E00E946E05F12C40E060E270E0CE01BB
:100E200001960E941F068C81F80182838B81838347
:100E30008A81848389818583F3940C5F1F4FFB141F
:100E400058F303C080E00E946E050F900F900F9042
:100E50000F90DF91CF911F910F91FF90EF90DF9056
:100E6000CF90BF900895FF920F931F93CF93DF937E
:100E7000EC018B01F42E8BE00E946E054091120173
:100E80004423D1F050E060E070E081E185B980E07A
:100E900090E0DC01F9E1E2E031E1F5B92E2F2A958D
:100EA000F1F735B90196A11DB11D84179507A60765
:100EB000B70798F380E185B98091110181110AC0CB
:100EC0004F2DB801CE01DF91CF911F910F91FF906F
:100ED0000C941F0640E0B801CE010E941F066091ED
:100EE000110170E080E090E04F2DDF91CF911F91D4
:100EF0000F91FF900C94DB05FF920F931F93CF93FC
:100F0000DF93EC018B01F42E84E00E946E0540918A
:100F100010014423D1F050E060E070E081E185B938
:100F200080E090E0DC01F9E1E2E031E1F5B92E2F5B
:100F30002A95F1F735B90196A11DB11D84179507C2
:100F4000A607B70798F380E185B980910F01811159
:100F50000AC04F2DB801CE01DF91CF911F910F91A3
:100F6000FF900C941F0640E0B801CE010E941F06BE
:100F700060910F0170E080E090E04F2DDF91CF9104
:100F80001F910F91FF900C94DB0520912C01309163
:100F90002D012617370750F06115710579F520915D
:100FA000E8002E772093E80020E030E0FC0140E0EC
:100FB0000EC0853029F18091E80083FD23C0809127
:100FC000E80082FD15C08091E80080FD1DC021155C
:100FD000310511F4442361F0809125018111E9CF9D
:100FE00082E00895809125018823D1F3853041F076
:100FF0008091E80082FFF6CF80E008959B01D6CF74
:1010000083E0089581E008958091F20090E0211539
:10101000310519F08032910568F041E0809709F0C0
:1010200040E08091E8008E778093E800D0CF803256
:10103000910599F341914093F100215031090196B6
:1010400021153105A1F7E9CF6115710591F4809162
:10105000E8008B778093E80006C080912501882303
:10106000C1F0853059F18091E80080FFF6CF80E033
:101070000895FC010AC0853009F18091E80083FDE4
:101080001FC08091E80082FD06C08091250181117A
:10109000F2CF82E008958091F200882331F08091B0
:1010A000F100819361507109B1F78091E8008B776D
:1010B0008093E8006115710541F7D5CF83E008956D
:1010C00081E0089520912C0130912D0126173707DA
:1010D00050F06115710579F52091E8002E77209385
:1010E000E80020E030E0FC0140E00EC0853029F14E
:1010F0008091E80083FD23C08091E80082FD15C047
:101100008091E80080FD1DC02115310511F44423B4
:1011100061F0809125018111E9CF82E008958091ED
:1011200025018823D1F3853041F08091E80082FFCA
:10113000F6CF80E008959B01D6CF83E0089581E04B
:1011400008958091F20090E02115310519F0803268
:10115000910568F041E0809709F040E08091E80057
:101160008E778093E800D0CF8032910599F3449137
:101170004093F10031962150310901962115310536
:1011800099F7E8CF853078F58093E900982F242FE0
:10119000762F50E00AC09093E900891751F17091C1
:1011A000EC002091ED005091F00021FF19C030912A
:1011B000EB003E7F3093EB003091ED003D7F3093AC
:1011C000ED003091EB0031603093EB007093EC0058
:1011D0002093ED005093F0002091EE0027FF07C010
:1011E0009F5F9530C1F68093E90081E0089580E02B
:1011F0000895242F762F50E0D8CF8091260187FFC5
:1012000005C012C080912501882349F08091E80033
:1012100080FFF8CF8091E8008E778093E8000895F2
:10122000809125018823D9F38091E80082FFF8CFCF
:101230008091E8008B778093E80008950E9464090C
:101240000E9467098091D8008F778093D8008091A1
:10125000D80080688093D8008091D8008F7D8093DB
:10126000D80084E089BD86E089BD09B400FEFDCFC9
:101270001092250110922101109223011092220157
:1012800042E260E080E00E94C2088091E1008E7F2F
:101290008093E1008091E20081608093E200809180
:1012A000E20088608093E2008091E0008E7F80936E
:1012B000E0000895E3E6F0E080818E7F808381E0A6
:1012C000809324010C941E091092E200089510925C
:1012D000E10008951F920F920FB60F9211242F93E1
:1012E0003F934F935F936F937F938F939F93AF93AE
:1012F000BF93EF93FF938091E10082FF04C0809140
:10130000E20082FD83C08091E10080FF04C08091F3
:10131000E20080FD66C08091E10084FF29C08091D9
:10132000E20084FF25C084E089BD86E089BD09B460
:1013300000FEFDCF8091D8008F7D8093D8008091F2
:10134000E1008F7E8093E1008091E2008F7E8093A8
:10135000E2008091E20081608093E20080912101AF
:10136000882309F45BC084E0809325010E94830BED
:101370008091E10083FF24C08091E20083FF20C0C0
:101380008091E100877F8093E10082E080932501D6
:10139000109221018091E1008E7F8093E100809185
:1013A000E2008E7F8093E2008091E2008061809372
:1013B000E20042E260E080E00E94C2080E94830BEB
:1013C000FF91EF91BF91AF919F918F917F916F911D
:1013D0005F914F913F912F910F900FBE0F901F90F3
:1013E00018958091E2008E7F8093E2008091E20068
:1013F00080618093E2008091D80080628093D80061
:1014000019BC109225010E94830B85CF8091E100C9
:101410008B7F8093E1000E941F0C75CF8091E300C9
:1014200087FDA1CF81E0A0CF0F931F93CF93DF93D0
:10143000CDB7DEB7AA970FB6F894DEBF0FBECDBF0B
:10144000E6E2F1E02EE231E08091F10081932E1787
:101450003F07D1F70E94621D8091E80083FF09C019
:101460002091260130912701832F90E08A30910549
:10147000C8F08091E80083FF0AC08091EB00806291
:101480008093EB008091E800877F8093E800AA9624
:101490000FB6F894DEBF0FBECDBFDF91CF911F9185
:1014A0000F910895FC01E65CFF4F0C949E212111E1
:1014B000E0CF809128019091290199270297CCF6DD
:1014C0008091E800877F8093E800809128018093D5
:1014D00021010E94FD088091210181110CC18091A0
:1014E000E30087FD08C181E0809325010E94070C7D
:1014F000C0CF203809F0BDCF8091E800877F80936E
:10150000E800809121018093F1008091E8008E77BE
:101510008093E8000E94FD08ACCF2058223008F0EC
:10152000A8CF80912801909129018C3D53E0950727
:1015300009F4ACC0AE014F5F5F4F60912A010E9479
:101540007E21BC01892B09F494CF9091E800977F0C
:101550009093E80089819A810E9462088091E80056
:101560008B778093E80085CF211183CF10912801DC
:101570001F770FB7F8948091E800877F8093E80089
:101580000E94FD088091E80080FFFCCF8091E3007D
:101590008078812B8093E30080688093E3001111B1
:1015A00073C082E0809325010FBF63CF222309F42B
:1015B00057C0223009F05DCF80912801811124C0ED
:1015C00080912A01877009F454CF8093E9009091AB
:1015D000EB0090FF19C0333009F48FC09091EB00FD
:1015E00090619093EB0021E030E0A90102C0440F2C
:1015F000551F8A95E2F74093EA001092EA00809125
:10160000EB0088608093EB001092E9008091E80085
:10161000877F8093E8000E94FD082BCF203861F17E
:10162000223809F026CF80912A0187708093E90043
:101630008091EB0085FB882780F91092E90090915A
:10164000E800977F9093E8008093F1001092F100FA
:101650008091E8008E778093E8000E94FD0809CF12
:1016600080912801813009F004CF81E0333009F006
:1016700080E080932301C8CF8091220190912301C3
:101680009923E9F28260DBCF83E08CCF83E08A8309
:101690008AE289835FB7F894DE01139620E03EE08A
:1016A00041E207C090E0C7968D939D932F5F243150
:1016B00081F0E32FF0E040935700849120FF03C0B6
:1016C00082958F703F5F8F708A3060F790E0C09690
:1016D000EBCF5FBF8091E800877F8093E8006AE2EC
:1016E00070E0CE0101960E94C5078091E8008B77DB
:1016F0008093E800BECE84E0F7CE8091EB0080625C
:101700008093EB0081CF0895CF93809125018823AA
:1017100059F0C091E900C7701092E9008091E8008B
:1017200083FD04C0C093E900CF9108950E94140A7C
:10173000F9CFCF93DF93CDB7DEB72C970FB6F894E0
:10174000DEBF0FBECDBF84B7877F84BF0FB6F894CE
:10175000A89580916000886180936000109260007D
:101760000FBE90E080E80FB6F894809361009093EC
:1017700061000FBE52985A9A8AB188618AB98BB1BA
:1017800088618BB968E070E080E090E00E94D10C45
:101790002FEF80E792E0215080409040E1F700C0B9
:1017A000000086E0E6E0F1E0DE01179601900D9280
:1017B0008A95E1F746E050E060E070E0CE010196E6
:1017C0000E94AB2110921601FE013796DE011196A0
:1017D0009E01235F3F4F91918D91981306C0E217B0
:1017E000F307C9F781E080931601809116018111FA
:1017F0000CC05C980E945A092C960FB6F894DEBF74
:101800000FBECDBFDF91CF9108955B98F3CF42E338
:1018100060E882E00E94C20842E361E881E00E9441
:10182000C208E2EEF0E080818460808310922E0195
:1018300010922F0110923001109231010895809181
:101840004301882391F08091150191E0980F9093C6
:101850001501883C50F010921501809116019BB142
:10186000811104C088E089278BB9089580E1892718
:101870008BB9089540915D0160912E0170912F0107
:1018800080913001909131010E94DB0510922E0170
:1018900010922F01109230011092310110925E01CE
:1018A000089580912501843009F0089580915E01AA
:1018B000813009F43FC080915E018230E9F180916E
:1018C0005E018330D9F180915E018430C9F180914D
:1018D0005E018530B9F180915E018B30A9F1809174
:1018E0005E018C3011F180915E018E3091F180911A
:1018F0005E018F3081F180915E01803171F18091C4
:101900005E01813161F180915E01883051F18091F9
:101910005E01873041F180915E01893031F1809123
:101920005E01853111F60C943A0CE0913D01F09185
:101930003E0109940C94710D0C94080D0C94B10F98
:101940000C943D110C947012E0915201F0915301EE
:1019500009940C9497040C9471030C946F140C94D8
:10196000BD150C9433190C94C0180C94A0190E9446
:10197000990B78940E94510C0E94840BFBCF882312
:1019800031F080911601882341F05C980895809190
:101990001601811104C05B9A08955B9808955C9AC2
:1019A000089527EF24B92BEF25B9009741F0813036
:1019B000910531F18230910549F1039729F180E0D9
:1019C0006830710549F06430710539F06230710595
:1019D00069F061307105B1F080689DB587FD0AC07E
:1019E0009E7F9DBD8F7780658CBD089581689DB574
:1019F00087FFF6CF91609DBD8F7780658CBD089580
:101A000084E0DECF8160E9CF8CE0DACF88E0D8CF08
:101A100082E08093E90004C08091E80082FD0FC05D
:101A200080912E0190912F01A0913001B091310150
:101A3000892B8A2B8B2B81F710925E010895809160
:101A40002E0190912F01A0913001B091310181348C
:101A50009105A105B10578F540912E0150912F0116
:101A60006091300170913101242F80912E0190916D
:101A70002F01A0913001B0913101841B9109A1097E
:101A8000B10980932E0190932F01A0933001B09360
:101A90003101442351F080E09091F1009EBD0DB4DE
:101AA00007FEFDCF8F5F8217B8F38091E8008B7738
:101AB0008093E800B5CF80912E0190912F01A091E5
:101AC0003001B091310180549109A109B10980938D
:101AD0002E0190932F01A0933001B093310120E4A7
:101AE000DACFCF93DF931F92CDB7DEB781E080933B
:101AF000E90004C08091E80080FD16C080912E01AD
:101B000090912F01A0913001B0913101892B8A2B46
:101B10008B2B81F7809134018111289A10925E01FC
:101B20000F90DF91CF9108951EBC80912E0190916E
:101B30002F01A0913001B091310181349105A105AF
:101B4000B10598F180E48983298180912E019091DB
:101B50002F01A0913001B0913101821B9109A1099F
:101B6000B10980932E0190932F01A0933001B0937F
:101B700031018981823068F08981815089830DB477
:101B800007FEFDCF8EB58EBD8093F1008981823036
:101B900098F70DB407FEFDCF8EB58093F1008091CC
:101BA000E8008E778093E800A9CF80912E01909174
:101BB0002F01A0913001B0913101C5CF80913C013E
:101BC0008EBD0DB407FEFDCF80915401843041F1EC
:101BD00080915401833009F45FC0809154018230B8
:101BE00009F486C080915401813009F49EC020918F
:101BF00044013091450180914A0190914B01A0919F
:101C00004C01B0914D01820F931FA11DB11D809316
:101C10004A0190934B01A0934C01B0934D0108955C
:101C200080914A0190914B01A0914C01B0914D01DE
:101C30008B2F9927AA27BB278EBD0DB407FEFDCF9A
:101C400080914A0190914B01A0914C01B0914D01BE
:101C5000CD01AA27BB278EBD0DB407FEFDCF809115
:101C60004A0190914B01A0914C01B0914D01892FF7
:101C70009A2FAB2FBB278EBD0DB407FEFDCF8091F1
:101C80004A0190914B01A0914C01B0914D018EBD44
:101C90000DB407FEFDCFABCF80914A0190914B016F
:101CA000A0914C01B0914D01CD01AA27BB278EBD5B
:101CB0000DB407FEFDCF80914A0190914B01A09198
:101CC0004C01B0914D01892F9A2FAB2FBB278EBDB0
:101CD0000DB407FEFDCF80914A0190914B01A09178
:101CE0004C01B0914D018EBD0DB407FEFDCF7FCFED
:101CF00080914A0190914B01A0914C01B0914D010E
:101D0000892F9A2FAB2FBB278EBD0DB407FEFDCFB9
:101D100080914A0190914B01A0914C01B0914D01ED
:101D20008EBD0DB407FEFDCF62CF80914A01909128
:101D30004B01A0914C01B0914D018EBD0DB407FE39
:101D4000FDCF55CF80915401843081F080915401B2
:101D5000833009F447C080915401823009F46EC089
:101D600080915401813009F486C0089580914A0120
:101D700090914B01A0914C01B0914D018B2F99276F
:101D8000AA27BB278EBD0DB407FEFDCF80914A0167
:101D900090914B01A0914C01B0914D01CD01AA272A
:101DA000BB278EBD0DB407FEFDCF80914A019091F7
:101DB0004B01A0914C01B0914D01892F9A2FAB2F6F
:101DC000BB278EBD0DB407FEFDCF80914A019091D7
:101DD0004B01A0914C01B0914D018EBD0DB407FE99
:101DE000FDCF089580914A0190914B01A0914C0143
:101DF000B0914D01CD01AA27BB278EBD0DB407FEC2
:101E0000FDCF80914A0190914B01A0914C01B0917E
:101E10004D01892F9A2FAB2FBB278EBD0DB407FE26
:101E2000FDCF80914A0190914B01A0914C01B0915E
:101E30004D018EBD0DB407FEFDCF089580914A017E
:101E400090914B01A0914C01B0914D01892F9A2F97
:101E5000AB2FBB278EBD0DB407FEFDCF80914A018D
:101E600090914B01A0914C01B0914D018EBD0DB4EC
:101E700007FEFDCF089580914A0190914B01A091FA
:101E80004C01B0914D018EBD0DB407FEFDCF0895FC
:101E90002898809166018EBD0DB407FEFDCF289A6B
:101EA000089528980895289A0895CF93DF9300D035
:101EB00000D01F92CDB7DEB719821A821B821C8216
:101EC000809150018823D9F02898809150018EBDCF
:101ED0000DB407FEFDCF3AE13A95F1F700C09FEF50
:101EE0009EBD0DB407FEFDCF8EB58D838D81881FFD
:101EF0008827881F8D838D81882391F3289A2898BD
:101F0000809151018EBD0DB407FEFDCF2FEF85E00E
:101F10008A95F1F7000089819A81AB81BC81019695
:101F2000A11DB11D89839A83AB83BC8389819A816A
:101F3000AB81BC8180319742A105B10549F02EBD2E
:101F40000DB407FEFDCF8EB58D838D8180FDDFCF73
:101F5000289A0F900F900F900F900F90DF91CF91D4
:101F60000895CF92DF92EF92FF920F931F9382E03A
:101F70008093E90000E010E0980104C08091E8003F
:101F800082FD17C080912E0190912F01A091300108
:101F9000B0913101892B8A2B8B2B81F710925E0136
:101FA000289A1F910F91FF90EF90DF90CF900C94A3
:101FB000550F8091F200882309F467C09091F100D9
:101FC0000DB407FEFDCF9EBD482F50E060E070E0ED
:101FD000C0902E01D0902F01E0903001F09031019F
:101FE000C416D506E606F70660F440912E0150911E
:101FF0002F016091300170913101842F55276627A0
:102000007727C0902E01D0902F01E0903001F09002
:102010003101C41AD50AE60AF70AC0922E01D092FD
:102020002F01E0923001F0923101040F151F261F9D
:10203000371F813049F09091F10081500DB407FEB7
:10204000FDCF9EBD8130B9F78091E8008B778093FA
:10205000E8008091440190914501A0E0B0E00817AC
:1020600019072A073B0709F08DCF80912E01909127
:102070002F01A0913001B0913101892B8A2B8B2B3C
:1020800051F400E010E098017DCF8091E8008B775B
:102090008093E80077CF289A0E94550F2898809166
:1020A00066018EBD0DB407FEFDCF289A2898809159
:1020B0003C018EBD0DB407FEFDCF809154018430EC
:1020C00059F180915401833009F48CC080915401FE
:1020D000823009F46AC080915401813009F458C0FB
:1020E000209144013091450180914A0190914B012A
:1020F000A0914C01B0914D01820F931FA11DB11D04
:1021000080934A0190934B01A0934C01B0934D01F1
:1021100000E010E0980136CF80914A0190914B0188
:10212000A0914C01B0914D018B2F9927AA27BB2775
:102130008EBD0DB407FEFDCF80914A0190914B01F9
:10214000A0914C01B0914D01CD01AA27BB278EBDB6
:102150000DB407FEFDCF80914A0190914B01A091F3
:102160004C01B0914D01892F9A2FAB2FBB278EBD0B
:102170000DB407FEFDCF80914A0190914B01A091D3
:102180004C01B0914D018EBD0DB407FEFDCFA8CF1F
:1021900080914A0190914B01A0914C01B0914D0169
:1021A0008EBD0DB407FEFDCF9BCF80914A0190916B
:1021B0004B01A0914C01B0914D01892F9A2FAB2F6B
:1021C000BB278EBD0DB407FEFDCF80914A019091D3
:1021D0004B01A0914C01B0914D018EBD0DB407FE95
:1021E000FDCF7ECF80914A0190914B01A0914C018F
:1021F000B0914D01CD01AA27BB278EBD0DB407FEBE
:10220000FDCF80914A0190914B01A0914C01B0917A
:102210004D01892F9A2FAB2FBB278EBD0DB407FE22
:10222000FDCF80914A0190914B01A0914C01B0915A
:102230004D018EBD0DB407FEFDCF52CFCF93DF937E
:102240001F92CDB7DEB72898809151018EBD0DB495
:1022500007FEFDCF22E09FEF822F8A95F1F79EBD0A
:102260000DB407FEFDCF8EB58983898180FDF4CF43
:10227000289A0F90DF91CF910895CF92DF92EF923D
:10228000FF92CF93DF9382E08093E90021E004C0C6
:102290008091E80085FD14C080912E0190912F015E
:1022A000A0913001B0913101892B8A2B8B2B81F7C2
:1022B000289ADF91CF91FF90EF90DF90CF90089513
:1022C0008091E80082FFE8CF80912E0190912F014C
:1022D000A0913001B091310181349105A105B10582
:1022E00008F0D6C0C0902E01D0902F01E0903001B0
:1022F000F0903101DC2DCC2009F4EEC0DD24EE2479
:10230000FF24C0E0289880913C018EBD0DB407FEEB
:10231000FDCF211135C08091F1008EBD0DB407FEB7
:10232000FDCF289A0E941E11CF5F20E0CD1750F3F9
:1023300080912E0190912F01A0913001B091310137
:102340008C199D09AE09BF0980932E0190932F012E
:10235000A0933001B093310180912E0190912F0113
:10236000A0913001B0913101892B8A2B8B2B11F474
:1023700010925E018091E8008B778093E8008CCF0B
:10238000809154018430E1F080915401833009F44C
:1023900053C080915401823009F481C0809154016E
:1023A000813009F0B8CF80914A0190914B01A09102
:1023B0004C01B0914D018EBD0DB407FEFDCFABCFEA
:1023C00080914A0190914B01A0914C01B0914D0137
:1023D0008B2F9927AA27BB278EBD0DB407FEFDCFF3
:1023E00080914A0190914B01A0914C01B0914D0117
:1023F000CD01AA27BB278EBD0DB407FEFDCF80916E
:102400004A0190914B01A0914C01B0914D01892F4F
:102410009A2FAB2FBB278EBD0DB407FEFDCF809149
:102420004A0190914B01A0914C01B0914D018EBD9C
:102430000DB407FEFDCF6FCF80914A0190914B0103
:10244000A0914C01B0914D01CD01AA27BB278EBDB3
:102450000DB407FEFDCF80914A0190914B01A091F0
:102460004C01B0914D01892F9A2FAB2FBB278EBD08
:102470000DB407FEFDCF80914A0190914B01A091D0
:102480004C01B0914D018EBD0DB407FEFDCF43CF81
:10249000E0E4CE2ED12CE12CF12CD0E432CF80918F
:1024A0004A0190914B01A0914C01B0914D01892FAF
:1024B0009A2FAB2FBB278EBD0DB407FEFDCF8091A9
:1024C0004A0190914B01A0914C01B0914D018EBDFC
:1024D0000DB407FEFDCF1FCFC12CD12C760128CF24
:1024E000CF92DF92EF92FF92CF93DF9382E08093BF
:1024F000E90021E004C08091E80085FD14C08091CE
:102500002E0190912F01A0913001B0913101892BC2
:102510008A2B8B2B81F7289ADF91CF91FF90EF9038
:10252000DF90CF9008958091E80082FFE8CF8091FE
:102530002E0190912F01A0913001B0913101813491
:102540009105A105B10508F0DCC0C0902E01D09026
:102550002F01E0903001F0903101DC2DCC2009F406
:10256000F4C0DD24EE24FF24C0E0289880913C01D3
:102570008EBD0DB407FEFDCF21113BC08091F1004F
:102580008EBD0DB407FEFDCF8091F1008EBD0DB460
:1025900007FEFDCF289A0E941E11CE5F20E0CD17C6
:1025A00020F380912E0190912F01A0913001B091E4
:1025B00031018C199D09AE09BF0980932E019093BA
:1025C0002F01A0933001B093310180912E019091A1
:1025D0002F01A0913001B0913101892B8A2B8B2BD7
:1025E00011F410925E018091E8008B778093E800EF
:1025F00086CF809154018430E1F080915401833082
:1026000009F453C080915401823009F481C0809153
:102610005401813009F0B2CF80914A0190914B0171
:10262000A0914C01B0914D018EBD0DB407FEFDCFC0
:10263000A5CF80914A0190914B01A0914C01B0919E
:102640004D018B2F9927AA27BB278EBD0DB407FEFE
:10265000FDCF80914A0190914B01A0914C01B09126
:102660004D01CD01AA27BB278EBD0DB407FEFDCFBE
:1026700080914A0190914B01A0914C01B0914D0184
:10268000892F9A2FAB2FBB278EBD0DB407FEFDCF30
:1026900080914A0190914B01A0914C01B0914D0164
:1026A0008EBD0DB407FEFDCF69CF80914A01909198
:1026B0004B01A0914C01B0914D01CD01AA27BB2740
:1026C0008EBD0DB407FEFDCF80914A0190914B0164
:1026D000A0914C01B0914D01892F9A2FAB2FBB27B0
:1026E0008EBD0DB407FEFDCF80914A0190914B0144
:1026F000A0914C01B0914D018EBD0DB407FEFDCFF0
:102700003DCFE0E4CE2ED12CE12CF12CD0E42CCF27
:1027100080914A0190914B01A0914C01B0914D01E3
:10272000892F9A2FAB2FBB278EBD0DB407FEFDCF8F
:1027300080914A0190914B01A0914C01B0914D01C3
:102740008EBD0DB407FEFDCF19CFC12CD12C760163
:1027500028CF80931701609367011CBC87EF84B971
:1027600089E085B980911701813009F008952F9A89
:102770000895FC01615021E030E002C0220F331FB8
:102780006A95E2F721153105B9F041E00EC02A9AA9
:1027900036952795299A942F9A95F1F72998942F91
:1027A0009A95F1F72115310539F0BF0162237323A2
:1027B000672B69F72A98ECCF0895289A60916701F2
:1027C000909167016D5F925023E130E0A90102C052
:1027D000440F551F9A95E2F7CA010E94B913289831
:1027E00008950E94DD13289A609167019091670116
:1027F0006D5F925022E130E0A90102C0440F551FE5
:102800009A95E2F7CA010E94B91328980895289A68
:1028100060916701909167016D5F925020E130E017
:10282000A90102C0440F551F9A95E2F7CA010E9400
:10283000B91328980895CF92DF92EF92FF926B011F
:102840007C01289A63E086E090E00E94B9136091D1
:102850006701C6010E94B91398E080E031E0880F5B
:10286000299A232F2A95F1F72998232F2A95F1F7F2
:102870001B998160915099F72898FF90EF90DF9015
:10288000CF900895CF92DF92EF92FF926B017C017F
:10289000289A63E086E090E00E94B9136091670196
:1028A000C6010E94B91320E180E090E041E0880F6A
:1028B000991F299A342F3A95F1F72998342F3A9590
:1028C000F1F71B998160215091F7289825E32A950B
:1028D000F1F70000FF90EF90DF90CF900895CF9236
:1028E000DF92EF92FF920F931F93CF93DF9381E0DC
:1028F0008093E90080911701813029F481C0809193
:10290000E80080FD17C080912E0190912F01A091C9
:102910003001B0913101892B8A2B8B2B81F71092DA
:102920005E01DF91CF911F910F91FF90EF90DF90AB
:10293000CF90089580912E0190912F01A0913001A8
:10294000B091310181349105A105B10508F04DC068
:10295000C0902E01D0902F01E0903001F090310115
:10296000DC2D80911701882309F484C0DD24EE2436
:10297000FF24DD2301F1C0E060914A0170914B0119
:1029800080914C0190914D018B019C010F5F1F4F75
:102990002F4F3F4F00934A0110934B0120934C015E
:1029A00030934D010E9442149093F1008093F10006
:1029B000CE5FCD1708F380912E0190912F01A09149
:1029C0003001B09131018C199D09AE09BF09809386
:1029D0002E0190932F01A0933001B093310180918B
:1029E000E8008E778093E8008ECF809117018823CE
:1029F000E1F0D0E480E4C82ED12CE12CF12CBBCF47
:102A000080914A0190914B01A0914C01B0914D01F0
:102A1000B695A7959795879580934A0190934B011A
:102A2000A0934C01B0934D016ECF90E4C92ED12CF0
:102A3000E12CF12CD0E4C0E060914A0170914B018F
:102A400080914C0190914D018B019C010F5F1F4FB4
:102A50002F4F3F4F00934A0110934B0120934C019D
:102A600030934D010E941B148093F100CF5FCD176E
:102A700018F3A1CFCC2021F0DD24EE24FF24DBCFFE
:102A8000C12CD12C760197CFCF92DF92EF92FF929B
:102A9000CF936B017C01C42F289A63E085E090E01E
:102AA0000E94B91360916701C6010E94B91368E0E2
:102AB0008C2F90E00E94B9132898289A8AE18A9571
:102AC000F1F700C095E09A95F1F7000083B18870A6
:102AD00020E030E00CC085E08A95F1F7000083B17A
:102AE00088702F5F3F4F2F3097E2390711F088230E
:102AF00091F32898CF91FF90EF90DF90CF900895B9
:102B0000CF92DF92EF92FF92CF93DF936B017C0124
:102B1000EA01289A63E085E090E00E94B913609191
:102B20006701C6010E94B91360E1CE010E94B9138A
:102B30002898289A8AE18A95F1F700C095E09A953D
:102B4000F1F7000083B1887020E030E00CC085E030
:102B50008A95F1F7000083B188702F5F3F4F2F30C7
:102B600097E2390711F0882391F32898DF91CF91EC
:102B7000FF90EF90DF90CF900895CF92DF92EF9289
:102B8000FF92CF93DF930E94DD1382E08093E900F0
:102B900080911701813029F4B4C08091E80082FD52
:102BA00017C080912E0190912F01A0913001B0911A
:102BB0003101892B8A2B8B2B81F70E9407141092ED
:102BC0005E01DF91CF91FF90EF90DF90CF9008955D
:102BD00080912E0190912F01A0913001B09131018F
:102BE00081349105A105B10508F04DC040912E0139
:102BF00050912F016091300170913101D42F80915B
:102C00002E0190912F01A0913001B0913101841BD0
:102C10009109A109B10980932E0190932F01A093EE
:102C20003001B093310180911701882309F47EC0EF
:102C3000442319F1C0E02091F1004091F10060912E
:102C40004A0170914B0180914C0190914D016B01B3
:102C50007C013FEFC31AD30AE30AF30AC0924A0188
:102C6000D0924B01E0924C01F0924D0150E0522B7A
:102C70000E948015CE5FCD17F0F28091E8008B772F
:102C80008093E8008ECF80912E0190912F01A0912A
:102C90003001B091310180549109A109B1098093AB
:102CA0002E0190932F01A0933001B09331018091B8
:102CB0001701D0E48111BECFC0E04091F1006091D6
:102CC0004A0170914B0180914C0190914D016B0133
:102CD0007C012FEFC21AD20AE20AF20AC0924A011C
:102CE000D0924B01E0924C01F0924D010E944415AC
:102CF000CF5FCD1710F38091E8008B778093E800C9
:102D000050CF80914A0190914B01A0914C01B0911C
:102D10004D01B695A7959795879580934A01909315
:102D20004B01A0934C01B0934D013BCF4111C4CF57
:102D3000A4CF98E080E031E0880F1B998160299A48
:102D4000232F2A95F1F729989150B1F7089594E02F
:102D500080E031E0880F880F1B9982601A998160AA
:102D6000299A232F2A95F1F72998915099F70895D8
:102D70001E9B1DC080E81F991DC01B9980621A9977
:102D80008061299A91E0292F2A95F1F729989A953F
:102D9000F1F71E9988601F990FC01B9982601A99DC
:102DA0008160299A91E09A95F1F72998089580E039
:102DB0001F9BE3CF8064E1CF8460EFCF98E031E0E8
:102DC00009C02A98880F299A232F2A95F1F7299864
:102DD000915021F087FFF5CF2A9AF4CF089594E01F
:102DE00031E087FD10C02B9886FF0BC02A9A299AE4
:102DF000232F2A95F1F72998880F880F915089F78A
:102E000008952A98F4CF2B9AEFCF92E031E087FD16
:102E10001CC02E9886FF11C02F9A85FF11C02B9AD7
:102E200084FF11C02A9A299A232F2A95F1F729980D
:102E30008295807F915059F708952F9885FDEFCFA7
:102E40002B9884FDEFCF2A98EECF2E9AE3CF2398CC
:102E5000229A279A269A2F9A2E9A0895229A239A8E
:102E60000895229A239A279A269A089522982398B9
:102E70000895229823982798269808951CBC0E94AC
:102E80002717209A219A299A29980895299A81E04A
:102E90008A95F1F729980895809161018130D9F0E0
:102EA00080916101823081F18EED96E19093400135
:102EB00080933F0189E996E1909336018093350133
:102EC00087E297E1909339018093380190935C01F8
:102ED00080935B01089585E097E190934001809392
:102EE0003F0188EB96E1909336018093350181E3B1
:102EF00097E1909339018093380189E397E19093AA
:102F00005C0180935B0108958FEE96E19093400100
:102F100080933F0187EA96E19093360180933501D3
:102F20008EE297E1909339018093380186E397E12F
:102F300090935C0180935B0108958430C9F08230E6
:102F400081F18EED96E19093400180933F0189E9F4
:102F500096E1909336018093350187E297E1909353
:102F600039018093380190935C0180935B0108954F
:102F700085E097E19093400180933F0188EB96E1D3
:102F8000909336018093350181E397E19093390165
:102F90008093380189E397E190935C0180935B0112
:102FA00008958FEE96E19093400180933F0187EA68
:102FB00096E190933601809335018EE297E19093EC
:102FC00039018093380186E397E190935C01809307
:102FD0005B010895CF93809161018823C9F08091AE
:102FE0006101813071F0809161018230C1F0809186
:102FF0006101833031F080916101843081F0C0E063
:1030000001C0C4E08C2F0E949D178C2FCF91089592
:10301000C1E08C2F0E949D178C2FCF910895C2E0A4
:103020008C2F0E949D178C2FCF910895E09138012D
:10303000F091390109950E94510F80916601E0914C
:103040003F01F091400109950C94530F8091540178
:10305000843041F160914A0170914B0180914C01A3
:1030600090914D01E0913F01F091400109958091CF
:103070004A0190914B01A0914C01B0914D01E0911A
:103080003F01F0914001892F099580914A0190916B
:103090004B01A0914C01B0914D01E0913F01F091A5
:1030A0004001099480914A0190914B01A0914C01FB
:1030B000B0914D01E0913F01F09140018B2F0995B6
:1030C000C9CFE0913801F0913901099580913C0117
:1030D000E0913F01F091400109950C942618CF939F
:1030E000DF931F92CDB7DEB70E944C170E94510F9D
:1030F000E0913801F09139010995809150018111D9
:103100001BC080915101E0913F01F0914001099570
:10311000E0915B01F0915C010995E0913501F0913E
:10312000360109958983898180FDF7CF0E94530F6D
:103130000F90DF91CF91089580915001E0913F0170
:10314000F09140010995E0915B01F0915C010995D6
:10315000E0913501F0913601099589838981881FB5
:103160008827881F89838981882391F30E94530FC0
:103170000E94510FE0913801F09139010995C1CFBA
:10318000CF93DF93E0913801F0913901099582E006
:103190008093E90004C08091E80082FD11C0809115
:1031A0002E0190912F01A0913001B0913101892B16
:1031B0008A2B8B2B81F710925E01DF91CF910895BE
:1031C00080912E0190912F01A0913001B091310199
:1031D00081349105A105B10580F540912E015091F2
:1031E0002F016091300170913101D42F80912E0117
:1031F00090912F01A0913001B0913101841B910970
:10320000A109B10980932E0190932F01A093300161
:10321000B0933101442359F0C0E08091F100E09176
:103220003F01F09140010995CF5FCD17B0F3809138
:10323000E8008B778093E800B2CF80912E019091C7
:103240002F01A0913001B091310180549109A10961
:10325000B10980932E0190932F01A0933001B09378
:103260003101D0E4D9CF1F93CF93DF931F92CDB715
:10327000DEB7E0915B01F0915C01099581E08093FC
:10328000E90004C08091E80080FD18C080912E0103
:1032900090912F01A0913001B0913101892B8A2B9F
:1032A0008B2B81F78091340181110E94530F109272
:1032B0005E010F90DF91CF911F91089580912E01B3
:1032C00090912F01A0913001B0913101813491058D
:1032D000A105B10560F180E48983298180912E01E7
:1032E00090912F01A0913001B0913101821B910981
:1032F000A109B10980932E0190932F01A093300171
:10330000B09331018981882361F010E0E0913501AB
:10331000F091360109958093F1001F5F898118179C
:10332000A8F38091E8008E778093E800AFCF80917A
:103330002E0190912F01A0913001B0913101CCCF9D
:10334000CF93DF9300D000D0CDB7DEB780912E01B0
:1033500090912F01A0913001B091310189839A831E
:10336000AB83BC8389819A81AB81BC81892B8A2BF9
:103370008B2B09F049C067C08091440190914501B1
:10338000A0E0B0E080932E0190932F01A093300134
:10339000B093310189819A81AB81BC8140912E012A
:1033A00050912F016091300170913101841B950B78
:1033B000A60BB70B89839A83AB83BC83209144010E
:1033C0003091450180914A0190914B01A0914C01AF
:1033D000B0914D01820F931FA11DB11D80934A0131
:1033E00090934B01A0934C01B0934D010E94C018E3
:1033F0000E94530F0E946F1889819A81AB81BC8112
:10340000892B8A2B8B2BF9F00E944C170E941618DF
:103410000E94510F0E9461180E94EA178091440196
:103420009091450149815A816B817C81A0E0B0E097
:1034300084179507A607B70708F49ECF89819A815C
:10344000AB81BC819FCF10925E010F900F900F90C7
:103450000F90DF91CF910895482F50E097E068E0FA
:103460000AC08AE28A95F1F700C0279880E28A951F
:10347000F1F79150A0F09A01092E02C035952795D9
:103480000A94E2F7279A20FFECCF862F8A95F1F76E
:1034900027988AE48A95F1F700C0915060F7279A3F
:1034A00088E08A95F1F727988AE08A95F1F783B149
:1034B00090E49A95F1F78095881F8827881F0895D2
:1034C000582F98E080E048E03AE0279A242F2A9588
:1034D000F1F72798232F2A95F1F723B160E46A9535
:1034E000F1F7880F27FD8F5F915079F7279A5111D7
:1034F00009C06AE26A95F1F700C0279890E29A95B0
:10350000F1F7089598E09A95F1F727989AE49A953B
:10351000F1F700C00895CF93DF93EC011CBC2F9806
:103520002798F894279A8FE193E00197F1F700C06C
:103530000000279890E39A95F1F7279A88E0982F52
:103540009A95F1F72798279A8A95F1F727988AE0B4
:103550008A95F1F783B190E49A95F1F78095881FE9
:103560008827881F80931801188219821A82279849
:1035700087E592E00197F1F700C000008091140107
:10358000880F816C0E942C1A80E00E94601A888348
:1035900080E00E94601A898381E00E94601A8A8319
:1035A0007894DF91CF910895EF92FF920F931F933C
:1035B000CF93DF937C01F894279887E592E00197F9
:1035C000F1F700C0000080911401880F806B0E9409
:1035D0002C1A811107C0DF91CF911F910F91FF909D
:1035E000EF90089580E00E942C1A2798E7E5F2E01A
:1035F0003197F1F700C0000080911401880F816BB2
:103600000E942C1A882339F3E7018701015E1F4FBE
:1036100004C080E00E94601A8993C017D107C9F7DF
:1036200081E00E94601AF701878F279887E592E072
:103630000197F1F700C0000080E20E942C1A80E69A
:103640000E942C1A2798E7E5F2E03197F1F700C0C5
:103650000000882351F0F70110A27894DF91CF91F8
:103660001F910F91FF90EF90089581E0F70180A3E3
:10367000F4CFDF92EF92FF920F931F93CF93DF93DC
:103680008C01F894D09014018D2D880F806BD82E6A
:1036900080E190E0A0E0B0E080934A0190934B017C
:1036A000A0934C01B0934D0180E1E82EC0E08091E1
:1036B0004401909145012E2D30E08217930708F0C8
:1036C00058C08091440190914501F82E279887E5D4
:1036D00092E00197F1F700C000008D2D0E942C1A96
:1036E000882309F43EC080914A0190914B01A0913A
:1036F0004C01B0914D010E942C1A882391F1FF20BA
:1037000059F0DF2DDC0FF801EC0FF11D80810E94D4
:103710002C1ACF5FDC13F7CF279887E592E001974B
:10372000F1F700C000008FE19EE40197F1F700C0BF
:103730000000EF1880914A0190914B01A0914C013B
:10374000B0914D018F0D911DA11DB11D80934A01B6
:1037500090934B01A0934C01B0934D01E110A7CF82
:103760007894DF91CF911F910F91FF90EF90DF90B0
:103770000895FE2CABCFF894279887E592E0019747
:10378000F1F700C0000080E20E942C1A80E60E943F
:103790002C1A80E00E942C1A279887E592E0019766
:1037A000F1F700C0000078940895FC0180818093B7
:1037B0001D01818180932001828180931901838181
:1037C00080931E018481958198278927982790935B
:1037D0001B0180931A010C947C04FC01808180936E
:1037E0003C018181809366018281809351018381B4
:1037F000809350018481809354018581968198271C
:1038000089279827909345018093440167817085AB
:10381000818592850E94A42160934A0170934B0197
:1038200080934C0190934D012385848590E0A0E026
:10383000B0E0BA2FA92F982F8827A22B2585822B9D
:1038400080932E0190932F01A0933001B09331010A
:1038500086858093610108950F931F93CF93DF9323
:10386000CDB7DEB760970FB6F894DEBF0FBECDBF01
:1038700060912C0170912D0108EE10E0F80180811B
:10388000877F8083CE0101960E942408CE01019695
:103890000E94ED1B0E94480F0E94510F0E94DE0DF6
:1038A00083E080935E01F80180818E77808360964B
:1038B0000FB6F894DEBF0FBECDBFDF91CF911F9141
:1038C0000F910895FC01808180933701818180935D
:1038D000540162817381848195810E94A421609347
:1038E0004A0170934B0180934C0190934D012681C6
:1038F000878190E0A0E0B0E0BA2FA92F982F882709
:10390000A22B2085822B80932E0190932F01A093D0
:103910003001B0933101818590E0909358018093FC
:1039200057018285809361010895CF938091E800CB
:10393000877F8093E80060912C0170912D0188E6CB
:1039400091E00E94240888E691E00E94621C0E9497
:10395000510F0E944C17E0913801F09139010995FF
:1039600080913701E0913F01F091400109950E945B
:1039700026180E94EA17E0915B01F0915C0109951D
:103980008091570190915801892B69F0C0E00E9405
:103990004617CF5F80915701909158012C2F30E04E
:1039A00028173907A0F388E080935E0181E08093B7
:1039B00034018091E8008E778093E800CF910895DC
:1039C0008091E800877F8093E80060912C017091DE
:1039D0002D0188E691E00E94240888E691E00E948B
:1039E000621C0E94510F809137018EBD0DB407FEFD
:1039F000FDCF0E94A20E8091570190915801892B12
:103A000081F080E090E04FEF4EBD0DB407FEFDCF9A
:103A10002EB50896209157013091580182179307CF
:103A200098F381E080935E01809334018091E800F7
:103A30008E778093E8000895FC0180819181A281B6
:103A4000B38180934A0190934B01A0934C01B093B2
:103A50004D0184819581A681B78180932E01909339
:103A60002F01A0933001B09331018085918590930F
:103A7000450180934401828580935401089581E03B
:103A80008093E00080E28093D800E9ECF0E01082BF
:103A90008FE19EE40197F1F700C000001DBA10927B
:103AA00068001CBC10BE1FBA10926E0010926F000E
:103AB000108214B817B81AB815B818B81BB80C94F7
:103AC00000370895E09127018E2F90E0FC01709758
:103AD000E73EF10508F5EC5BFF4F0C949E21409109
:103AE0002801417060912A0170912B0188E691E0D4
:103AF0000E947C078091E800877F8093E8006091B6
:103B00002C0170912D0188E691E00E94C5078091FB
:103B1000E8008B778093E80008950E94530F80910E
:103B2000E800877F8093E8000C94FD080E94510F05
:103B30008091E800877F8093E8000C94FD088091D5
:103B4000E800877F8093E8000E94FD080C94F11341
:103B50008091E800877F8093E8000E94FD08109222
:103B6000430180E00C94BF0C8091E800877F809334
:103B7000E8000E94FD081092430181E00C94BF0C04
:103B80008091E800877F8093E800809128019091E0
:103B90002901909368018093690180912A01909195
:103BA0002B0190936A0180936B0164E070E0ABCFCE
:103BB0008091E800877F8093E80064E070E082E015
:103BC00091E00E94C5078091E8008B778093E80020
:103BD00008958091E800877F8093E80080911F011D
:103BE0008093680161E070E08ECF8091E800877F6C
:103BF0008093E80060912C0170912D0188E691E09E
:103C00000E942408609168017091690180916A01A5
:103C100090916B010E94A42160934A0170934B0123
:103C200080934C0190934D0120916C0180916D0126
:103C300090E0A0E0B0E0BA2FA92F982F8827A22B00
:103C400020916E01822B80932E0190932F01A093DF
:103C50003001B09331018091E8008E778093E800C5
:103C60008FE080935E0108958091E800877F8093C4
:103C7000E80060912C0170912D0188E691E00E948E
:103C80002408609168017091690180916A019091A6
:103C90006B010E94A42160934A0170934B018093B1
:103CA0004C0190934D0120916C0180916D0190E049
:103CB000A0E0B0E0BA2FA92F982F8827A22B20913F
:103CC0006E01822B80932E0190932F01A0933001DF
:103CD000B09331018091E8008E778093E8008EE008
:103CE00080935E0108958091E800877F8093E800CB
:103CF00060912C0170912D0188E691E00E942408CA
:103D00008091E8008E778093E80088E691E00C943B
:103D1000D51B8091E800877F8093E80060912C019B
:103D200070912D0188E691E00E94240888E691E0D8
:103D30000E94ED1B8091E8008E778093E80089E077
:103D400080935E0108950C94951C20912801309178
:103D50002901C9019927A0E0B0E0DC019927882753
:103D600040912A0150912B0160E070E0842B952B4B
:103D7000A62BB72B80932E0190932F01A093300197
:103D8000B0933101832F0E949D178091E800877FB7
:103D90008093E8000E94FD0887E080935E0108950B
:103DA0002091280130912901C9019927A0E0B0E0B4
:103DB000DC019927882740912A0150912B0160E06E
:103DC00070E0842B952BA62BB72B80932E0190931C
:103DD0002F01A0933001B0933101832F0E949D17D2
:103DE0008091E800877F8093E8000E94FD08109290
:103DF000340188E080935E0108958091E800877F18
:103E00008093E80080915E018093680161E070E03A
:103E10007ACE8091E800877F8093E8000E94FD08B9
:103E200081E08093430108958091E800877F80932B
:103E3000E80088E691E00E94D41A61E270E063CE67
:103E400080912A018093140188E691E00E948B1AE8
:103E50008091E800877F8093E80063E070E053CEB4
:103E600088E691E00E946F068091E800877F80934A
:103E7000E80060E470E047CE0C943F1D0E94BB1B3D
:103E80008091E800877F8093E8000C94FD08809182
:103E9000E800877F8093E80060912C0170912D01EC
:103EA00088E691E00E94240888E691E00E94391B90
:103EB0008091E8008E778093E80008958091E80073
:103EC000877F8093E80060912C0170912D0188E636
:103ED00091E00E94240888E691E00E941C1D8091D8
:103EE000E8008E778093E80083E180935E01089577
:103EF00040912801417060912A0170912B0188E660
:103F000091E00E9433078091E800877F8093E8006A
:103F100060912C0170912D01F6CD409128014170E6
:103F200060912A0170912B0188E691E00E941F06A2
:103F30008091E800877F8093E80060912C01709168
:103F40002D01E1CD80912A010E946E058091E8004B
:103F5000877F8093E8000C94FD0820912801309120
:103F60002901C901A0E0B0E0DC0199278827409130
:103F70002A0150912B0160E070E0842B952BA62B39
:103F8000B72BB77080932E0190932F01A09330012F
:103F9000B0933101832F881F8827881F80935D018C
:103FA0008091E800877F8093E8000E94FD0885E10A
:103FB00080935E01089580912A010C9426058091DA
:103FC000E800877F8093E80060912C0170912D01BB
:103FD00088E691E00E94240888E691E00E943A0574
:103FE0008091E8008E778093E80008958091E80042
:103FF000877F8093E8000E94FD080C944B050C9489
:10400000E01C8091E800877F8093E8000E94FD0813
:104010008091280190912901A0E0B0E0DC0199276E
:10402000882720912A0130912B01820F931FA11D17
:10403000B11D80932E0190932F01A0933001B09376
:10404000310182E080935E0108958091E800877FCE
:104050008093E8000E94FD08809128019091290139
:10406000A0E0B0E0DC019927882720912A01309157
:104070002B01820F931FA11DB11D80932E019093E0
:104080002F01A0933001B093310181E080935E0154
:104090001092340108958091E800877F8093E800B2
:1040A00080912A0190912B01019709F421C12C984C
:1040B0008091E8008E778093E80008958091E80071
:1040C000877F8093E80060912C0170912D0188E634
:1040D00091E00E94240840912C0150912D016091A3
:1040E0002A0170912B0188E691E00E94BB21E0CF6C
:1040F000409128015091290160912A0170912B0172
:1041000088E691E00E94AB21AFCE8091E800877FE6
:104110008093E80060912A0170912B018091280121
:10412000909129010E94D10C8091E8008E778093B4
:10413000E80008958091E800877F8093E8000E945E
:104140003E178091E8008E778093E8000895809173
:10415000E800877F8093E80060912C0170912D0129
:1041600088E691E00E9424086091680170916901DD
:1041700080916A0190916B010E94A42160932E01AD
:1041800070932F01809330019093310160916C0105
:1041900070916D0180916E0190916F010E94A42138
:1041A00060934A0170934B0180934C0190934D01B1
:1041B0008091E8008E778093E80080E180935E0133
:1041C00008958091E800877F8093E8000E94FD08B1
:1041D00060912B0180912A010C94A9138091E80031
:1041E000877F8093E80060912C0170912D0188E613
:1041F00091E00E94240888E691E00E94ED1B8091E6
:10420000E8008E778093E80080912A0190912B013D
:10421000029709F46FC084E080935E0108950C94C6
:104220002C1C8091E800877F8093E80060912C012E
:1042300070912D0188E691E00E9424086091680148
:104240007091690180916A0190916B010E94A42193
:1042500060932E0170932F01809330019093310170
:1042600060916C0170916D0180916E0190916F0170
:104270000E94A42160934A0170934B0180934C01EA
:1042800090934D018091E8008E778093E80081E162
:1042900080935E0108958091E800877F8093E80015
:1042A00060912C0170912D0188E691E00E94240814
:1042B00088E691E00E941C1D8091E8008E77809333
:1042C000E80084E180935E0108958091E800877F93
:1042D0008093E80060912C0170912D0188E691E0B7
:1042E0000E9424088091E8008E778093E80008956A
:1042F0002C9ADECE85E080935E010895292F30E070
:104300002130310599F02230310541F080E090E014
:1043100020E030E0FA0131832083089580E290E0CC
:1043200026E534E0FA0131832083089582E190E0AC
:1043300026E734E0FA01318320830895EE0FFF1F52
:104340000590F491E02D099469279627692778272D
:10435000872778270895DC01CB01FC01F999FECF6E
:1043600006C0F2BDE1BDF89A319600B40D924150FD
:104370005040B8F70895DC01CB0103C02D910E9495
:10438000C62141505040D0F70895262FF999FECF0D
:104390001FBA92BD81BD20BD0FB6F894FA9AF99A62
:0A43A0000FBE01960895F894FFCFB8
:0E43AA00000443343536504342322E340000B6
:00000001FF
