:100000000C9442020C945F020C945F020C945F0209
:100010000C945F020C945F020C945F020C945F02DC
:100020000C945F020C945F020C945F020C94AF0876
:100030000C945F020C945F020C945F020C945F02BC
:100040000C945F020C945F020C945F020C945F02AC
:100050000C945F020C945F020C945F020C945F029C
:100060000C945F020C945F020C945F020C945F028C
:100070000C945F02530A1B0A7E091B0A7E09F909C8
:10008000D2097E09BE099C09321E291E1E1E451C6E
:10009000451C451C451C451C451C451CF41E451CA7
:1000A000451C451C451C451C451C451CC61EBB1E4D
:1000B000451C451C451CA61E451C451C451C451CD5
:1000C000451C451C451C451C451C451C911E581CC7
:1000D000451C451C451C451C451C451C451C451C18
:1000E000451C451C451C451CFA1E4F1C461C5B1F2D
:1000F000351F111F0F1FFF1FDF1FD21F761C8D1F03
:10010000841F451C451C451C771F4F1C461CB21DF7
:10011000871D851D6B1D451C451C451C451C451C2C
:10012000451C451C451C451C561D171DD81CCC1CC8
:10013000451C451C451C451C451C451C451C451CB7
:10014000451C451C451C451C451C451C451C451CA7
:10015000451C451C451C451C451C451C451C451C97
:10016000451C451C451C451C0D1EF51DEA1DDF1DCB
:10017000C71F451C451C451C451C451C451C451CF2
:10018000451C451C451CB01C3E1E631C451C451CE3
:10019000451C451C451C451C451C451C451C451C57
:1001A000451C451C451C451C451C451C451C451C47
:1001B000451C451C451C451C451C451C451C451C37
:1001C000451C451C451C451CBC1C771E5D1E511E54
:1001D00001206E1F451C451C451C451C451C451C2B
:1001E000451C451C451C451C451C451C451C451C07
:1001F000451C451C451C451C451C451C451C451CF7
:10020000451C451C451C451C451C451C451C451CE6
:10021000451C451C451C451C451C451C451C451CD6
:10022000451C451C451C451C451C451C451C451CC6
:10023000451C451C451C451C451C451C451C451CB6
:10024000451C451C451C451C451C451C451C451CA6
:10025000F81E00000202020A0A2A1A0606061616EC
:10026000563607000101010505150D0303030B0BAD
:100270002B1B030300000002020A06010101050511
:10028000150D1F03070000010105030F0F0F2F2F8E
:10029000AF6F1F03070700010105030F0F0F2F2F7B
:1002A000AF6F0F01030302000002010707071717D2
:1002B00057371F03070701050001030F0F0F2F2FEB
:1002C000AF6F0F01030300020200010707071717B2
:1002D00057370700010101050515000303030B0B48
:1002E0002B1B0101050505151555350000000202FF
:1002F0000A061F03070707171757370F00000101EA
:1003000005031F03070707171757370F0F000101D2
:1003100005030F010303030B0B2B1B070702000050
:1003200002011F03070707171757370F0F010500B3
:1003300001030F010303030B0B2B1B070700020232
:10034000000107000101010505150D0303030B0B57
:100350002B0000010203040405060503040505063D
:100360000706030001020303040504020304040555
:100370000605020300010202030403010203030451
:100380000504050303000101020302040506060734
:10039000080705030304000102030204050606071B
:1003A0000807040202030300010201030405050615
:1003B00007060503030402030001020405060607FD
:1003C00008070402020301020300010304050506F5
:1003D00007060301010203030405000203040405E8
:1003E00006050102030405050607060001020203D3
:1003F00004030503030405050607060400010102C2
:1004000003020503030405050607060405000102AF
:1004100003020402020304040506050304030001A9
:10042000020105030304050506070604050203008F
:100430000102040202030404050605030401020389
:10044000000103010102030304050402030404057F
:100450000600090220000101008064090400000276
:10046000000000000705020240000007058102406D
:1004700000001201000200000020C016DE0501008D
:100480000000000111241FBEC0E0D2E0DEBFCDBFDE
:1004900011E0A0E0B1E0E0E9F0E402C005900D92C7
:1004A000A430B107D9F721E0A4E0B1E001C01D926A
:1004B000A939B207E1F70E94B70B0C9446200C94BF
:1004C000000084B1806C84B92F9A2E9A80E58093C5
:1004D0005101089598E007C02F98880F00002E9AC8
:1004E0000000915029F02E9887FFF6CF2F9AF5CF74
:1004F0002E982F9A00002E9A84E606C095E09A95D1
:10050000F1F70000815041F01E9BF8CF83B1809538
:10051000881F8827881F089580E008952E9800007E
:100520002F9A00002E9A00002F9800000C946A0267
:100530000F931F93CF93DF93082F2F9800000E94F3
:100540006A02182FC1E3D0E006C0802F0E946A0221
:10055000219719F0182F1123C1F3812FDF91CF912B
:100560001F910F910895CF93C091500180917B010D
:1005700090917C01A0917D01B0917E0120914E016E
:10058000220F220F220F04C0B695A7959795879545
:100590002A95D2F780FDC26081FDC46082FDC860EB
:1005A0008C2F0E9498028823A1F080914E01823006
:1005B000B1F080917B0190917C01A0917D01B0917F
:1005C0007E010E946A0280E5809351018C2FCF91B9
:1005D000089581E58093510180E0CF910895809145
:1005E0007B0190917C01A0917D01B0917E01892FCA
:1005F0000E946A02DECF1F93CF93DF9310928F0188
:1006000082E08093E900C0E004C08091E80082FDB0
:1006100015C080915F0190916001A0916101B0913E
:100620006201892B8A2B8B2B81F7C111A2C080E537
:1006300080935101DF91CF911F91089580915F01C7
:1006400090916001A0916101B091620181349105A6
:10065000A105B10508F06EC040915F0150916001A5
:100660006091610170916201142F80915F019091FE
:100670006001A0916101B0916201841B9109A109FF
:10068000B10980935F0190936001A0936101B093E1
:100690006201442309F448C0D0E004C0DF5FD117F1
:1006A00008F042C0C11129C020914F0180917B0107
:1006B00090917C01A0917D01B0917E01C0914F018C
:1006C00021508223C81B0E94B30280917B0190912C
:1006D0007C01A0917D01B0917E018C0F911DA11D27
:1006E000B11D80937B0190937C01A0937D01B09319
:1006F0007E0180915101813599F18091F1000E9434
:100700006A02C15059F62E982F9800002E9A0000C8
:100710002F9A00008FE19EE40197F1F700C00000DE
:10072000DF5FD11708F4BECF8091E8008B7780930C
:10073000E8006FCF80915F0190916001A09161010D
:10074000B091620180549109A109B10980935F01C0
:1007500090936001A0936101B093620110E49CCF7B
:100760008091E8008B778093E800DF91CF911F9113
:1007700008952E982F9800002E9A00002F9A0000BE
:100780008FE19EE40197F1F700C0000050CF38E000
:1007900090E020E02E982F9A00002E9A000007C0CB
:1007A00045E04A95F1F700009F5F9436D1F01E9B1B
:1007B000F7CF220F1F992F5F315061F72E988111CB
:1007C00012C02F9800002E9A07C085E08A95F1F795
:1007D00000009F5F943629F01E9BF7CF0000822F08
:1007E000089580E008952F9AEDCFCF93DF93109274
:1007F0008F0181E08093E9000E94B3029091510142
:10080000913509F46EC08F5F0E948E0204C0809102
:10081000E80080FD19C080915F0190916001A09176
:100820006101B0916201892B8A2B8B2B81F72E9865
:100830002F9800002E9A00002F9A000080E58093E8
:100840005101DF91CF91089580915F0190916001F6
:10085000A0916101B091620181349105A105B105BA
:10086000C0F580915F0190916001A0916101B0910C
:100870006201D82F882379F1C0E01BC080E00E947C
:10088000C7038093F10080915F0190916001A09176
:100890006101B09162010197A109B10980935F01E3
:1008A00090936001A0936101B0936201CF5FCD1777
:1008B00090F480915F0190916001A0916101B091ED
:1008C00062010197A105B105C9F681E00E94C70345
:1008D000D8CFD0E4D1CF8091E8008E778093E80024
:1008E0009ACF8091E8008E778093E800DF91CF91D6
:1008F00008951CBC1092C90080E880BFE4E6F0E0D7
:1009000080818C628083E5E6F0E080818160808375
:100910008DEF84B980E185B90895FC0180818093D1
:10092000090181818093080182818093070183817D
:1009300080930601848180930501089584E185B93F
:1009400025E09FE19695892F880F880F847080613C
:100950002B9A85B92150B1F780E185B92B9A94E1A2
:1009600095B92B9A85B982E080930401089520916E
:1009700004012295207F282B30E0F901EE5AFC4F2C
:100980004491F901EE5AFD4F2491922F990F990F3E
:100990009470906195B93FEF340F442351F0269540
:1009A000922F990F990F947090612B9A95B93150AD
:1009B000B0F7809304010895809104018B3009F110
:1009C0008430D9F0813029F18230F9F0893049F151
:1009D000833099F0853009F1863031F18730E9F0C4
:1009E0008830B9F08A3069F08C3011F18D3021F106
:1009F0008E30F1F08F3069F0089585E08093040126
:100A000008958CE080930401089589E080930401A7
:100A1000089582E080930401089588E080930401A2
:100A2000089510920401089587E0809304010895C9
:100A30008FE08093040108958EE08093040108956F
:100A4000CF92DF92EF92FF926B017C0181E185B939
:100A5000442311F181E0C81AD108E108F10811F12D
:100A600080E090E0DC0169E151E031E165B9252FDA
:100A70002A95F1F735B90196A11DB11D8C159D057B
:100A8000AE05BF0598F341110DC080E185B9FF9017
:100A9000EF90DF90CF900895C114D104E104F104E8
:100AA000F9F6F3CF85E185B98DE185B981E08A95C5
:100AB000F1F781E185B90E94DC0480E185B9FF90FE
:100AC000EF90DF90CF900895EF92FF920F931F93D6
:100AD000CF93DF93EC01DB01109761F120E030E070
:100AE00060E070E080E001E010E02F5F3F4FFE012A
:100AF000E80FF11D90819170A217B30789F1906101
:100B000095B92B9A50815695508395B9199B07C07A
:100B10007801072E01C0EE0C0A94EAF76E297F5F78
:100B2000783089F0A217B30701F7772319F0C80FBF
:100B3000D11D688341110CC0DF91CF911F910F919E
:100B4000FF90EF90089560838F5F60E070E0EACFE0
:100B5000DF91CF911F910F91FF90EF900C94DC04E7
:100B6000442369F29461CCCFBF92CF92DF92EF928F
:100B7000FF920F931F93CF93DF9300D000D0CDB798
:100B8000DEB78C0180E4F80111928A95E9F70E94A2
:100B90009E048BE00E94B70420E290E24FEF5FEFEB
:100BA000BA0183B1842F8170806185B92B9A85B990
:100BB0007695679557954795915099F7215069F724
:100BC00084E00E94B70430E290E180E223B195B95D
:100BD0002B9A95B98150D1F73150B9F79AE081E05D
:100BE00041E050E060E070E0C12CD12C7601199B0F
:100BF00004C0C42AD52AE62AF72A806185B92B9A2F
:100C000085B9440F551F661F771F915080E079F713
:100C1000C114D104E104F10409F459C0BB24B39414
:100C2000F694E794D794C794C0FC04C0B394FAE058
:100C3000BF12F6CF80E00E94B7048BE00E94B70499
:100C400037E090E180E223B195B92B9A95B98150B4
:100C5000D1F73150B9F78FE19EE40197F1F700C069
:100C6000000083B181E185B92B9A85B9FF24F39403
:100C700080E193B185B92B9A85B991FD05C0F394B4
:100C80009FEFF912F6CFF12C82E00E94B704F80131
:100C9000B082F18280E00E94B70484E00E94B70431
:100CA000F12C40E060E270E0CE0101960E94640504
:100CB0008C81F80182838B8183838A8184838981FB
:100CC0008583F3940C5F1F4FFB1458F303C080E03F
:100CD0000E94B7040F900F900F900F90DF91CF916B
:100CE0001F910F91FF90EF90DF90CF90BF900895EC
:100CF000FF920F931F93CF93DF93EC018B01F42EA0
:100D00008BE00E94B704409108014423D1F050E0E9
:100D100060E070E081E185B980E090E0DC01F9E11C
:100D2000E1E031E1F5B92E2F2A95F1F735B90196B9
:100D3000A11DB11D84179507A607B70798F380E199
:100D400085B98091070181110AC04F2DB801CE01EC
:100D5000DF91CF911F910F91FF900C94640540E0BB
:100D6000B801CE010E9464056091070170E080E047
:100D700090E04F2DDF91CF911F910F91FF900C9438
:100D80002005FF920F931F93CF93DF93EC018B010C
:100D9000F42E84E00E94B704409106014423D1F070
:100DA00050E060E070E081E185B980E090E0DC0136
:100DB000F9E1E1E031E1F5B92E2F2A95F1F735B9E6
:100DC0000196A11DB11D84179507A607B70798F3D3
:100DD00080E185B98091050181110AC04F2DB801CC
:100DE000CE01DF91CF911F910F91FF900C9464057C
:100DF00040E0B801CE010E9464056091050170E0F9
:100E000080E090E04F2DDF91CF911F910F91FF90E7
:100E10000C94200520915D0130915E012617370763
:100E200050F06115710579F52091E8002E77209337
:100E3000E80020E030E0FC0140E00EC0853029F100
:100E40008091E80083FD23C08091E80082FD15C0F9
:100E50008091E80080FD1DC02115310511F4442367
:100E600061F0809156018111E9CF82E0089580916F
:100E700056018823D1F3853041F08091E80082FF4C
:100E8000F6CF80E008959B01D6CF83E0089581E0FE
:100E900008958091F20090E02115310519F080321B
:100EA000910568F041E0809709F040E08091E8000A
:100EB0008E778093E800D0CF8032910599F34191ED
:100EC0004093F10021503109019621153105A1F718
:100ED000E9CF6115710591F48091E8008B778093DB
:100EE000E80006C0809156018823C1F0853059F191
:100EF0008091E80080FFF6CF80E00895FC010AC0F1
:100F0000853009F18091E80083FD1FC08091E800E1
:100F100082FD06C0809156018111F2CF82E00895D2
:100F20008091F200882331F08091F100819361502B
:100F30007109B1F78091E8008B778093E800611523
:100F4000710541F7D5CF83E0089581E008952091A0
:100F50005D0130915E012617370750F0611571056C
:100F600079F52091E8002E772093E80020E030E02A
:100F7000FC0140E00EC0853029F18091E80083FD3E
:100F800023C08091E80082FD15C08091E80080FDBB
:100F90001DC02115310511F4442361F080915601E3
:100FA0008111E9CF82E00895809156018823D1F321
:100FB000853041F08091E80082FFF6CF80E008950F
:100FC0009B01D6CF83E0089581E008958091F200DF
:100FD00090E02115310519F08032910568F041E06B
:100FE000809709F040E08091E8008E778093E800D8
:100FF000D0CF8032910599F344914093F10031961E
:101000002150310901962115310599F7E8CF853036
:1010100078F58093E900982F242F762F50E00AC0AE
:101020009093E900891751F17091EC002091ED0047
:101030005091F00021FF19C03091EB003E7F3093BA
:10104000EB003091ED003D7F3093ED003091EB00EF
:1010500031603093EB007093EC002093ED005093DF
:10106000F0002091EE0027FF07C09F5F9530C1F68A
:101070008093E90081E0089580E00895242F762F81
:1010800050E0D8CF8091570187FF05C012C08091F2
:101090005601882349F08091E80080FFF8CF8091C5
:1010A000E8008E778093E8000895809156018823A8
:1010B000D9F38091E80082FFF8CF8091E8008B7728
:1010C0008093E80008950E94A9080E94AC088091CE
:1010D000D8008F778093D8008091D8008068809363
:1010E000D8008091D8008F7D8093D80084E089BD9E
:1010F00086E089BD09B400FEFDCF10925601109222
:101100005201109254011092530142E260E080E0DB
:101110000E9407088091E1008E7F8093E10080911A
:10112000E20081608093E2008091E2008860809319
:10113000E2008091E0008E7F8093E0000895E3E676
:10114000F0E080818E7F808381E0809355010C9454
:1011500063081092E20008951092E10008951F9232
:101160000F920FB60F9211242F933F934F935F93DB
:101170006F937F938F939F93AF93BF93EF93FF935F
:101180008091E10082FF04C08091E20082FD83C073
:101190008091E10080FF04C08091E20080FD66C084
:1011A0008091E10084FF29C08091E20084FF25C086
:1011B00084E089BD86E089BD09B400FEFDCF809141
:1011C000D8008F7D8093D8008091E1008F7E80933E
:1011D000E1008091E2008F7E8093E2008091E20046
:1011E00081608093E20080915201882309F45BC002
:1011F00084E0809356010E94C80A8091E10083FF39
:1012000024C08091E20083FF20C08091E100877FAD
:101210008093E10082E08093560110925201809108
:10122000E1008E7F8093E1008091E2008E7F8093C9
:10123000E2008091E20080618093E20042E260E09F
:1012400080E00E9407080E94C80AFF91EF91BF91B9
:10125000AF919F918F917F916F915F914F913F914E
:101260002F910F900FBE0F901F9018958091E20064
:101270008E7F8093E2008091E20080618093E200A3
:101280008091D80080628093D80019BC10925601DA
:101290000E94C80A85CF8091E1008B7F8093E10096
:1012A0000E94270B75CF8091E30087FDA1CF81E0DD
:1012B000A0CF0F931F93CF93DF93CDB7DEB7AA973D
:1012C0000FB6F894DEBF0FBECDBFE7E5F1E02FE526
:1012D00031E08091F10081932E173F07D1F70E94F2
:1012E000381C8091E80083FF09C02091570130919C
:1012F0005801832F90E08A309105C8F08091E80072
:1013000083FF0AC08091EB0080628093EB008091A4
:10131000E800877F8093E800AA960FB6F894DEBFB6
:101320000FBECDBFDF91CF911F910F910895FC01AA
:10133000E65CFF4F0C9439202111E0CF80915901D8
:1013400090915A0199270297CCF68091E800877F07
:101350008093E80080915901809352010E944208D5
:101360008091520181110CC18091E30087FD08C179
:1013700081E0809356010E940F0BC0CF203809F006
:10138000BDCF8091E800877F8093E8008091520173
:101390008093F1008091E8008E778093E8000E94AE
:1013A0004208ACCF2058223008F0A8CF80915901D4
:1013B00090915A018C3D53E0950709F4ACC0AE0101
:1013C0004F5F5F4F60915B010E941920BC01892B28
:1013D00009F494CF9091E800977F9093E800898179
:1013E0009A810E94A7078091E8008B778093E8009C
:1013F00085CF211183CF109159011F770FB7F89432
:101400008091E800877F8093E8000E9442088091E5
:10141000E80080FFFCCF8091E3008078812B8093EF
:10142000E30080688093E300111173C082E0809331
:1014300056010FBF63CF222309F457C0223009F0B1
:101440005DCF80915901811124C080915B0187702B
:1014500009F454CF8093E9009091EB0090FF19C0FC
:10146000333009F48FC09091EB0090619093EB00C2
:1014700021E030E0A90102C0440F551F8A95E2F730
:101480004093EA001092EA008091EB00886080931C
:10149000EB001092E9008091E800877F8093E800DC
:1014A0000E9442082BCF203861F1223809F026CF64
:1014B00080915B0187708093E9008091EB0085FB50
:1014C000882780F91092E9009091E800977F909327
:1014D000E8008093F1001092F1008091E8008E778F
:1014E0008093E8000E94420809CF80915901813021
:1014F00009F004CF81E0333009F080E0809354019B
:10150000C8CF80915301909154019923E9F28260F0
:10151000DBCF83E08CCF83E08A838AE289835FB765
:10152000F894DE01139620E03EE041E207C090E02F
:10153000C7968D939D932F5F243181F0E32FF0E0C8
:1015400040935700849120FF03C082958F703F5FC6
:101550008F708A3060F790E0C096EBCF5FBF8091CC
:10156000E800877F8093E8006AE270E0CE01019690
:101570000E940A078091E8008B778093E800BECE36
:1015800084E0F7CE8091EB0080628093EB0081CF06
:101590000895CF9380915601882359F0C091E900B6
:1015A000C7701092E9008091E80083FD04C0C093E9
:1015B000E900CF9108950E945909F9CF84B7877F38
:1015C00084BF0FB6F894A8958091600088618093DD
:1015D0006000109260000FBE90E080E80FB6F894B3
:1015E00080936100909361000FBE52985A9A8AB11D
:1015F00088618AB98BB188618BB968E070E080E05E
:1016000090E00E94BF0B2FEF80E792E021508040D6
:101610009040E1F700C000005C980C949F0842E302
:1016200060E882E00E94070842E361E881E00E94EE
:101630000708E2EEF0E080818460808310925F0111
:1016400010926001109261011092620108958091E0
:101650007401882371F080910B0191E0980F9093B1
:101660000B01883C30F010920B019BB188E0892778
:101670008BB9089540918E0160915F017091600176
:1016800080916101909162010E94200510925F019A
:1016900010926001109261011092620110928F010C
:1016A000089580915601843009F0089580918F014A
:1016B000813009F43FC080918F018230E9F180913F
:1016C0008F018330D9F180918F018430C9F18091ED
:1016D0008F018530B9F180918F018B30A9F1809114
:1016E0008F018C3011F180918F018E3091F18091BA
:1016F0008F018F3081F180918F01803171F1809164
:101700008F01813161F180918F01883051F1809199
:101710008F01873041F180918F01893031F18091C3
:101720008F01853111F60C943A0BE0916E01F09126
:101730006F0109940C945F0C0C94F60B0C949F0EA3
:101740000C942B100C945E11E0918301F0918401B4
:1017500009940C94F5030C94FB020C945D130C9407
:10176000AB140C9421180C94AE170C948E180E9494
:10177000DE0A78940E94510B0E94C90AFBCF27EF22
:1017800024B92BEF25B9009741F08130910531F153
:101790008230910549F1039729F180E068307105A5
:1017A00049F06430710539F06230710569F06130DB
:1017B0007105B1F080689DB587FD0AC09E7F9DBD13
:1017C0008F7780658CBD089581689DB587FFF6CFC2
:1017D00091609DBD8F7780658CBD089584E0DECFDC
:1017E0008160E9CF8CE0DACF88E0D8CF82E08093C7
:1017F000E90004C08091E80082FD0FC080915F0184
:1018000090916001A0916101B0916201892B8A2BB6
:101810008B2B81F710928F01089580915F01909139
:101820006001A0916101B091620181349105A1052F
:10183000B10578F540915F015091600160916101BF
:1018400070916201242F80915F0190916001A091BD
:101850006101B0916201841B9109A109B1098093D2
:101860005F0190936001A0936101B09362014423F2
:1018700051F080E09091F1009EBD0DB407FEFDCFC8
:101880008F5F8217B8F38091E8008B778093E80030
:10189000B5CF80915F0190916001A0916101B091FD
:1018A000620180549109A109B10980935F0190936D
:1018B0006001A0936101B093620120E4DACFCF937D
:1018C000DF931F92CDB7DEB781E08093E90004C0BB
:1018D0008091E80080FD16C080915F0190916001C9
:1018E000A0916101B0916201892B8A2B8B2B81F72A
:1018F000809165018111289A10928F010F90DF91DC
:10190000CF9108951EBC80915F0190916001A091DC
:101910006101B091620181349105A105B10598F191
:1019200080E48983298180915F0190916001A09179
:101930006101B0916201821B9109A109B1098093F3
:101940005F0190936001A0936101B093620189816E
:10195000823068F08981815089830DB407FEFDCF04
:101960008EB58EBD8093F1008981823098F70DB4D9
:1019700007FEFDCF8EB58093F1008091E8008E7751
:101980008093E800A9CF80915F0190916001A091C0
:101990006101B0916201C5CF80916D018EBD0DB422
:1019A00007FEFDCF80918501843041F18091850152
:1019B000833009F45FC080918501823009F486C0CC
:1019C00080918501813009F49EC02091750130918C
:1019D000760180917B0190917C01A0917D01B09175
:1019E0007E01820F931FA11DB11D80937B019093F7
:1019F0007C01A0937D01B0937E01089580917B01CD
:101A000090917C01A0917D01B0917E018B2F99274F
:101A1000AA27BB278EBD0DB407FEFDCF80917B01A9
:101A200090917C01A0917D01B0917E01CD01AA270A
:101A3000BB278EBD0DB407FEFDCF80917B01909139
:101A40007C01A0917D01B0917E01892F9A2FAB2F4F
:101A5000BB278EBD0DB407FEFDCF80917B01909119
:101A60007C01A0917D01B0917E018EBD0DB407FE79
:101A7000FDCFABCF80917B0190917C01A0917D0146
:101A8000B0917E01CD01AA27BB278EBD0DB407FE04
:101A9000FDCF80917B0190917C01A0917D01B0915F
:101AA0007E01892F9A2FAB2FBB278EBD0DB407FE69
:101AB000FDCF80917B0190917C01A0917D01B0913F
:101AC0007E018EBD0DB407FEFDCF7FCF80917B01DF
:101AD00090917C01A0917D01B0917E01892F9A2F78
:101AE000AB2FBB278EBD0DB407FEFDCF80917B01D0
:101AF00090917C01A0917D01B0917E018EBD0DB4CD
:101B000007FEFDCF62CF80917B0190917C01A09177
:101B10007D01B0917E018EBD0DB407FEFDCF55CF86
:101B200080918501843081F080918501833009F4B2
:101B300047C080918501823009F46EC08091850193
:101B4000813009F486C0089580917B0190917C01D9
:101B5000A0917D01B0917E018B2F9927AA27BB27E9
:101B60008EBD0DB407FEFDCF80917B0190917C016D
:101B7000A0917D01B0917E01CD01AA27BB278EBD2A
:101B80000DB407FEFDCF80917B0190917C01A09167
:101B90007D01B0917E01892F9A2FAB2FBB278EBD7F
:101BA0000DB407FEFDCF80917B0190917C01A09147
:101BB0007D01B0917E018EBD0DB407FEFDCF08956D
:101BC00080917B0190917C01A0917D01B0917E017B
:101BD000CD01AA27BB278EBD0DB407FEFDCF809196
:101BE0007B0190917C01A0917D01B0917E01892FB4
:101BF0009A2FAB2FBB278EBD0DB407FEFDCF809172
:101C00007B0190917C01A0917D01B0917E018EBD00
:101C10000DB407FEFDCF089580917B0190917C016A
:101C2000A0917D01B0917E01892F9A2FAB2FBB2708
:101C30008EBD0DB407FEFDCF80917B0190917C019C
:101C4000A0917D01B0917E018EBD0DB407FEFDCF48
:101C5000089580917B0190917C01A0917D01B091CC
:101C60007E018EBD0DB407FEFDCF089528988091AA
:101C700097018EBD0DB407FEFDCF289A08952898D0
:101C80000895289A0895CF93DF9300D000D01F9233
:101C9000CDB7DEB719821A821B821C828091810126
:101CA0008823D9F02898809181018EBD0DB407FE5C
:101CB000FDCF3AE13A95F1F700C09FEF9EBD0DB41C
:101CC00007FEFDCF8EB58D838D81881F8827881FE5
:101CD0008D838D81882391F3289A289880918201A1
:101CE0008EBD0DB407FEFDCF2FEF85E08A95F1F78D
:101CF000000089819A81AB81BC810196A11DB11D33
:101D000089839A83AB83BC8389819A81AB81BC81AF
:101D100080319742A105B10549F02EBD0DB407FEF3
:101D2000FDCF8EB58D838D8180FDDFCF289A0F90FA
:101D30000F900F900F900F90DF91CF910895CF9259
:101D4000DF92EF92FF920F931F9382E08093E9005E
:101D500000E010E0980104C08091E80082FD17C007
:101D600080915F0190916001A0916101B091620149
:101D7000892B8A2B8B2B81F710928F01289A1F9128
:101D80000F91FF90EF90DF90CF900C94430E8091D5
:101D9000F200882309F467C09091F1000DB407FEAA
:101DA000FDCF9EBD482F50E060E070E0C0905F0125
:101DB000D0906001E0906101F0906201C416D506F8
:101DC000E606F70660F440915F0150916001609172
:101DD000610170916201842F552766277727C09093
:101DE0005F01D0906001E0906101F0906201C41A3F
:101DF000D50AE60AF70AC0925F01D0926001E0922C
:101E00006101F0926201040F151F261F371F8130F8
:101E100049F09091F10081500DB407FEFDCF9EBDB9
:101E20008130B9F78091E8008B778093E80080914A
:101E3000750190917601A0E0B0E0081719072A0714
:101E40003B0709F08DCF80915F0190916001A091D7
:101E50006101B0916201892B8A2B8B2B51F400E038
:101E600010E098017DCF8091E8008B778093E800A7
:101E700077CF289A0E94430E2898809197018EBDB3
:101E80000DB407FEFDCF289A289880916D018EBD74
:101E90000DB407FEFDCF80918501843059F180910A
:101EA0008501833009F48CC080918501823009F46A
:101EB0006AC080918501813009F458C02091750174
:101EC0003091760180917B0190917C01A0917D0100
:101ED000B0917E01820F931FA11DB11D80937B01E4
:101EE00090937C01A0937D01B0937E0100E010E00F
:101EF000980136CF80917B0190917C01A0917D016A
:101F0000B0917E018B2F9927AA27BB278EBD0DB4D8
:101F100007FEFDCF80917B0190917C01A0917D0116
:101F2000B0917E01CD01AA27BB278EBD0DB407FE5F
:101F3000FDCF80917B0190917C01A0917D01B091BA
:101F40007E01892F9A2FAB2FBB278EBD0DB407FEC4
:101F5000FDCF80917B0190917C01A0917D01B0919A
:101F60007E018EBD0DB407FEFDCFA8CF80917B0111
:101F700090917C01A0917D01B0917E018EBD0DB448
:101F800007FEFDCF9BCF80917B0190917C01A091BA
:101F90007D01B0917E01892F9A2FAB2FBB278EBD7B
:101FA0000DB407FEFDCF80917B0190917C01A09143
:101FB0007D01B0917E018EBD0DB407FEFDCF7ECFB9
:101FC00080917B0190917C01A0917D01B0917E0177
:101FD000CD01AA27BB278EBD0DB407FEFDCF809192
:101FE0007B0190917C01A0917D01B0917E01892FB0
:101FF0009A2FAB2FBB278EBD0DB407FEFDCF80916E
:102000007B0190917C01A0917D01B0917E018EBDFC
:102010000DB407FEFDCF52CFCF93DF931F92CDB704
:10202000DEB72898809182018EBD0DB407FEFDCFEA
:1020300022E09FEF822F8A95F1F79EBD0DB407FE37
:10204000FDCF8EB58983898180FDF4CF289A0F90CA
:10205000DF91CF910895CF92DF92EF92FF92CF93CD
:10206000DF9382E08093E90021E004C08091E800E2
:1020700085FD14C080915F0190916001A091610184
:10208000B0916201892B8A2B8B2B81F7289ADF91E3
:10209000CF91FF90EF90DF90CF9008958091E8006E
:1020A00082FFE8CF80915F0190916001A091610172
:1020B000B091620181349105A105B10508F0D6C047
:1020C000C0905F01D0906001E0906101F0906201EA
:1020D000DC2DCC2009F4EEC0DD24EE24FF24C0E08A
:1020E000289880916D018EBD0DB407FEFDCF2111A2
:1020F00035C08091F1008EBD0DB407FEFDCF289A4A
:102100000E940C10CF5F20E0CD1750F380915F014B
:1021100090916001A0916101B09162018C199D09BB
:10212000AE09BF0980935F0190936001A0936101A4
:10213000B093620180915F0190916001A091610173
:10214000B0916201892B8A2B8B2B11F410928F0195
:102150008091E8008B778093E8008CCF8091850197
:102160008430E1F080918501833009F453C080917F
:102170008501823009F481C080918501813009F0A8
:10218000B8CF80917B0190917C01A0917D01B091AD
:102190007E018EBD0DB407FEFDCFABCF80917B01DC
:1021A00090917C01A0917D01B0917E018B2F9927A8
:1021B000AA27BB278EBD0DB407FEFDCF80917B0102
:1021C00090917C01A0917D01B0917E01CD01AA2763
:1021D000BB278EBD0DB407FEFDCF80917B01909192
:1021E0007C01A0917D01B0917E01892F9A2FAB2FA8
:1021F000BB278EBD0DB407FEFDCF80917B01909172
:102200007C01A0917D01B0917E018EBD0DB407FED1
:10221000FDCF6FCF80917B0190917C01A0917D01DA
:10222000B0917E01CD01AA27BB278EBD0DB407FE5C
:10223000FDCF80917B0190917C01A0917D01B091B7
:102240007E01892F9A2FAB2FBB278EBD0DB407FEC1
:10225000FDCF80917B0190917C01A0917D01B09197
:102260007E018EBD0DB407FEFDCF43CFE0E4CE2E40
:10227000D12CE12CF12CD0E432CF80917B019091D4
:102280007C01A0917D01B0917E01892F9A2FAB2F07
:10229000BB278EBD0DB407FEFDCF80917B019091D1
:1022A0007C01A0917D01B0917E018EBD0DB407FE31
:1022B000FDCF1FCFC12CD12C760128CFCF92DF923A
:1022C000EF92FF92CF93DF9382E08093E90021E0C9
:1022D00004C08091E80085FD14C080915F01909159
:1022E0006001A0916101B0916201892B8A2B8B2B37
:1022F00081F7289ADF91CF91FF90EF90DF90CF90F8
:1023000008958091E80082FFE8CF80915F0190916D
:102310006001A0916101B091620181349105A10534
:10232000B10508F0DCC0C0905F01D0906001E09082
:102330006101F0906201DC2DCC2009F4F4C0DD24B1
:10234000EE24FF24C0E0289880916D018EBD0DB46D
:1023500007FEFDCF21113BC08091F1008EBD0DB471
:1023600007FEFDCF8091F1008EBD0DB407FEFDCFBD
:10237000289A0E940C10CE5F20E0CD1720F38091A8
:102380005F0190916001A0916101B09162018C198F
:102390009D09AE09BF0980935F0190936001A093EE
:1023A0006101B093620180915F0190916001A09101
:1023B0006101B0916201892B8A2B8B2B11F4109251
:1023C0008F018091E8008B778093E80086CF809121
:1023D00085018430E1F080918501833009F453C098
:1023E00080918501823009F481C08091850181301E
:1023F00009F0B2CF80917B0190917C01A0917D0189
:10240000B0917E018EBD0DB407FEFDCFA5CF8091AA
:102410007B0190917C01A0917D01B0917E018B2F79
:102420009927AA27BB278EBD0DB407FEFDCF80914B
:102430007B0190917C01A0917D01B0917E01CD0145
:10244000AA27BB278EBD0DB407FEFDCF80917B016F
:1024500090917C01A0917D01B0917E01892F9A2FEE
:10246000AB2FBB278EBD0DB407FEFDCF80917B0146
:1024700090917C01A0917D01B0917E018EBD0DB443
:1024800007FEFDCF69CF80917B0190917C01A091E7
:102490007D01B0917E01CD01AA27BB278EBD0DB471
:1024A00007FEFDCF80917B0190917C01A0917D0181
:1024B000B0917E01892F9A2FAB2FBB278EBD0DB413
:1024C00007FEFDCF80917B0190917C01A0917D0161
:1024D000B0917E018EBD0DB407FEFDCF3DCFE0E48F
:1024E000CE2ED12CE12CF12CD0E42CCF80917B018D
:1024F00090917C01A0917D01B0917E01892F9A2F4E
:10250000AB2FBB278EBD0DB407FEFDCF80917B01A5
:1025100090917C01A0917D01B0917E018EBD0DB4A2
:1025200007FEFDCF19CFC12CD12C760128CF809387
:102530000C01609398011CBC87EF84B989E085B9D0
:1025400080910C01813009F008952F9A0895FC01C3
:10255000615021E030E002C0220F331F6A95E2F79C
:1025600021153105B9F041E00EC02A9A369527951C
:10257000299A942F9A95F1F72998942F9A95F1F723
:102580002115310539F0BF0162237323672B69F7E9
:102590002A98ECCF0895289A60919801909198011B
:1025A0006D5F925023E130E0A90102C0440F551F36
:1025B0009A95E2F7CA010E94A712289808950E94EE
:1025C000CB12289A60919801909198016D5F92507A
:1025D00022E130E0A90102C0440F551F9A95E2F7AD
:1025E000CA010E94A71228980895289A609198011C
:1025F000909198016D5F925020E130E0A90102C0F6
:10260000440F551F9A95E2F7CA010E94A712289815
:102610000895CF92DF92EF92FF926B017C01289A8E
:1026200063E086E090E00E94A71260919801C601E5
:102630000E94A71298E080E031E0880F299A232FAA
:102640002A95F1F72998232F2A95F1F71B99816094
:10265000915099F72898FF90EF90DF90CF900895D0
:10266000CF92DF92EF92FF926B017C01289A63E098
:1026700086E090E00E94A71260919801C6010E9436
:10268000A71220E180E090E041E0880F991F299A8D
:10269000342F3A95F1F72998342F3A95F1F71B9991
:1026A0008160215091F7289825E32A95F1F70000E1
:1026B000FF90EF90DF90CF900895CF92DF92EF924E
:1026C000FF920F931F93CF93DF9381E08093E900F4
:1026D00080910C01813029F481C08091E80080FD57
:1026E00017C080915F0190916001A0916101B0914C
:1026F0006201892B8A2B8B2B81F710928F01DF913E
:10270000CF911F910F91FF90EF90DF90CF900895A0
:1027100080915F0190916001A0916101B09162018F
:1027200081349105A105B10508F04DC0C0905F014D
:10273000D0906001E0906101F0906201DC2D809109
:102740000C01882309F484C0DD24EE24FF24DD235A
:1027500001F1C0E060917B0170917C0180917D016D
:1027600090917E018B019C010F5F1F4F2F4F3F4FB8
:1027700000937B0110937C0120937D0130937E01B7
:102780000E9430139093F1008093F100CE5FCD173B
:1027900008F380915F0190916001A0916101B09177
:1027A00062018C199D09AE09BF0980935F01909366
:1027B0006001A0936101B09362018091E8008E777F
:1027C0008093E8008ECF80910C018823E1F0D0E463
:1027D00080E4C82ED12CE12CF12CBBCF80917B0161
:1027E00090917C01A0917D01B0917E01B695A79555
:1027F0009795879580937B0190937C01A0937D01B1
:10280000B0937E016ECF90E4C92ED12CE12CF12C37
:10281000D0E4C0E060917B0170917C0180917D01EA
:1028200090917E018B019C010F5F1F4F2F4F3F4FF7
:1028300000937B0110937C0120937D0130937E01F6
:102840000E9409138093F100CF5FCD1718F3A1CF39
:10285000CC2021F0DD24EE24FF24DBCFC12CD12CB1
:10286000760197CFCF92DF92EF92FF92CF936B01D9
:102870007C01C42F289A63E085E090E00E94A712B3
:1028800060919801C6010E94A71268E08C2F90E029
:102890000E94A7122898289A8AE18A95F1F700C029
:1028A00095E09A95F1F7000083B1887020E030E060
:1028B0000CC085E08A95F1F7000083B188702F5F26
:1028C0003F4F2F3097E2390711F0882391F3289872
:1028D000CF91FF90EF90DF90CF900895CF92DF924D
:1028E000EF92FF92CF93DF936B017C01EA01289A6C
:1028F00063E085E090E00E94A71260919801C60114
:102900000E94A71260E1CE010E94A7122898289A7F
:102910008AE18A95F1F700C095E09A95F1F70000F9
:1029200083B1887020E030E00CC085E08A95F1F733
:10293000000083B188702F5F3F4F2F3097E2390737
:1029400011F0882391F32898DF91CF91FF90EF90B9
:10295000DF90CF900895CF92DF92EF92FF92CF93C6
:10296000DF930E94CB1282E08093E90080910C01FA
:10297000813029F4B4C08091E80082FD17C08091B5
:102980005F0190916001A0916101B0916201892B7A
:102990008A2B8B2B81F70E94F51210928F01DF9109
:1029A000CF91FF90EF90DF90CF90089580915F01DD
:1029B00090916001A0916101B09162018134910513
:1029C000A105B10508F04DC040915F015091600133
:1029D0006091610170916201D42F80915F019091AB
:1029E0006001A0916101B0916201841B9109A1096C
:1029F000B10980935F0190936001A0936101B0934E
:102A0000620180910C01882309F47EC0442319F1EE
:102A1000C0E02091F1004091F10060917B01709144
:102A20007C0180917D0190917E016B017C013FEFE3
:102A3000C31AD30AE30AF30AC0927B01D0927C0145
:102A4000E0927D01F0927E0150E0522B0E946E14C4
:102A5000CE5FCD17F0F28091E8008B778093E8008D
:102A60008ECF80915F0190916001A0916101B09142
:102A7000620180549109A109B10980935F0190938B
:102A80006001A0936101B093620180910C01D0E4D8
:102A90008111BECFC0E04091F10060917B01709147
:102AA0007C0180917D0190917E016B017C012FEF73
:102AB000C21AD20AE20AF20AC0927B01D0927C01C9
:102AC000E0927D01F0927E010E943214CF5FCD171B
:102AD00010F38091E8008B778093E80050CF8091CD
:102AE0007B0190917C01A0917D01B0917E01B69512
:102AF000A7959795879580937B0190937C01A093F0
:102B00007D01B0937E013BCF4111C4CFA4CF98E0AB
:102B100080E031E0880F1B998160299A232F2A9544
:102B2000F1F729989150B1F7089594E080E031E0F1
:102B3000880F880F1B9982601A998160299A232F28
:102B40002A95F1F72998915099F708951E9B1DC079
:102B500080E81F991DC01B9980621A998061299A8B
:102B600091E0292F2A95F1F729989A95F1F71E9966
:102B700088601F990FC01B9982601A998160299AF9
:102B800091E09A95F1F72998089580E01F9BE3CF93
:102B90008064E1CF8460EFCF98E031E009C02A98EB
:102BA000880F299A232F2A95F1F72998915021F01F
:102BB00087FFF5CF2A9AF4CF089594E031E087FD9E
:102BC00010C02B9886FF0BC02A9A299A232F2A958A
:102BD000F1F72998880F880F915089F708952A985E
:102BE000F4CF2B9AEFCF92E031E087FD1CC02E98F6
:102BF00086FF11C02F9A85FF11C02B9A84FF11C048
:102C00002A9A299A232F2A95F1F729988295807F6D
:102C1000915059F708952F9885FDEFCF2B9884FD9B
:102C2000EFCF2A98EECF2E9AE3CF2398229A279AB5
:102C3000269A2F9A2E9A0895229A239A0895229AD4
:102C4000239A279A269A08952298239808952298DD
:102C500023982798269808951CBC0E941516209A40
:102C6000219A299A29980895299A81E08A95F1F75D
:102C700029980895809192018130D9F08091920134
:102C8000823081F18CEC95E1909371018093700119
:102C900087E895E1909367018093660185E196E16D
:102CA00090936A018093690190938D0180938C01C8
:102CB000089583EF95E1909371018093700186EA06
:102CC00095E190936701809366018FE196E190937F
:102CD0006A018093690187E296E190938D01809368
:102CE0008C0108958DED95E19093710180937001B1
:102CF00085E995E190936701809366018CE196E107
:102D000090936A018093690184E296E190938D012A
:102D100080938C0108958430C9F0823081F18CEC6D
:102D200095E1909371018093700187E895E190930C
:102D300067018093660185E196E190936A01809333
:102D4000690190938D0180938C01089583EF95E143
:102D5000909371018093700186EA95E190936701E9
:102D6000809366018FE196E190936A0180936901F7
:102D700087E296E190938D0180938C0108958DED0B
:102D800095E1909371018093700185E995E19093AD
:102D90006701809366018CE196E190936A018093CC
:102DA000690184E296E190938D0180938C010895EE
:102DB000CF93809192018823C9F080919201813054
:102DC00071F0809192018230C1F080919201833044
:102DD00031F080919201843081F0C0E001C0C4E004
:102DE0008C2F0E948B168C2FCF910895C1E08C2FD1
:102DF0000E948B168C2FCF910895C2E08C2F0E94D9
:102E00008B168C2FCF910895E0916901F0916A01A2
:102E100009950E943F0E80919701E0917001F09119
:102E2000710109950C94410E80918501843041F126
:102E300060917B0170917C0180917D0190917E0178
:102E4000E0917001F0917101099580917B01909161
:102E50007C01A0917D01B0917E01E0917001F09123
:102E60007101892F099580917B0190917C01A0913E
:102E70007D01B0917E01E0917001F09171010994A2
:102E800080917B0190917C01A0917D01B0917E01A8
:102E9000E0917001F09171018B2F0995C9CFE091FC
:102EA0006901F0916A01099580916D01E0917001CD
:102EB000F091710109950C941417CF93DF931F9231
:102EC000CDB7DEB70E943A160E943F0EE09169012D
:102ED000F0916A0109958091810181111BC0809157
:102EE0008201E0917001F09171010995E0918C01EE
:102EF000F0918D010995E0916601F09167010995C6
:102F00008983898180FDF7CF0E94410E0F90DF9168
:102F1000CF91089580918101E0917001F09171014C
:102F20000995E0918C01F0918D010995E091660180
:102F3000F0916701099589838981881F8827881FF7
:102F400089838981882391F30E94410E0E943F0E5C
:102F5000E0916901F0916A010995C1CFCF93DF93A8
:102F6000E0916901F0916A01099582E08093E9009E
:102F700004C08091E80082FD11C080915F019091B2
:102F80006001A0916101B0916201892B8A2B8B2B8A
:102F900081F710928F01DF91CF91089580915F01A9
:102FA00090916001A0916101B0916201813491051D
:102FB000A105B10580F540915F01509160016091DC
:102FC000610170916201D42F80915F019091600145
:102FD000A0916101B0916201841B9109A109B1091D
:102FE00080935F0190936001A0936101B0936201AF
:102FF000442359F0C0E08091F100E0917001F0911C
:1030000071010995CF5FCD17B0F38091E8008B7700
:103010008093E800B2CF80915F0190916001A09110
:103020006101B091620180549109A109B1098093B5
:103030005F0190936001A0936101B0936201D0E4BD
:10304000D9CF1F93CF93DF931F92CDB7DEB7E09117
:103050008C01F0918D01099581E08093E90004C015
:103060008091E80080FD18C080915F01909160011F
:10307000A0916101B0916201892B8A2B8B2B81F782
:103080008091650181110E94410E10928F010F9075
:10309000DF91CF911F91089580915F019091600120
:1030A000A0916101B091620181349105A105B10542
:1030B00060F180E48983298180915F0190916001B2
:1030C000A0916101B0916201821B9109A109B1092E
:1030D00080935F0190936001A0936101B0936201BE
:1030E0008981882361F010E0E0916601F091670129
:1030F00009958093F1001F5F89811817A8F38091CB
:10310000E8008E778093E800AFCF80915F019091C7
:103110006001A0916101B0916201CCCFCF93DF93A8
:1031200000D000D0CDB7DEB780915F0190916001F3
:10313000A0916101B091620189839A83AB83BC83C2
:1031400089819A81AB81BC81892B8A2B8B2B09F0D9
:1031500049C067C08091750190917601A0E0B0E010
:1031600080935F0190936001A0936101B09362012D
:1031700089819A81AB81BC8140915F01509160014E
:103180006091610170916201841B950BA60BB70BD6
:1031900089839A83AB83BC8320917501309176013A
:1031A00080917B0190917C01A0917D01B0917E0185
:1031B000820F931FA11DB11D80937B0190937C0111
:1031C000A0937D01B0937E010E94AE170E94410E34
:1031D0000E945D1789819A81AB81BC81892B8A2BE2
:1031E0008B2BF9F00E943A160E9404170E943F0EA2
:1031F0000E944F170E94D816809175019091760118
:1032000049815A816B817C81A0E0B0E084179507E9
:10321000A607B70708F49ECF89819A81AB81BC814C
:103220009FCF10928F010F900F900F900F90DF9112
:10323000CF910895482F50E097E068E00AC08AE2F5
:103240008A95F1F700C0279880E28A95F1F79150AE
:10325000A0F09A01092E02C0359527950A94E2F74D
:10326000279A20FFECCF862F8A95F1F727988AE4DA
:103270008A95F1F700C0915060F7279A88E08A9507
:10328000F1F727988AE08A95F1F783B190E49A954F
:10329000F1F78095881F8827881F0895582F98E098
:1032A00080E048E03AE0279A242F2A95F1F7279802
:1032B000232F2A95F1F723B160E46A95F1F7880F7F
:1032C00027FD8F5F915079F7279A511109C06AE263
:1032D0006A95F1F700C0279890E29A95F1F7089562
:1032E00098E09A95F1F727989AE49A95F1F700C03B
:1032F0000895CF93DF93EC011CBC2F982798F89486
:10330000279A8FE193E00197F1F700C0000027981A
:1033100090E39A95F1F7279A88E0982F9A95F1F71C
:103320002798279A8A95F1F727988AE08A95F1F7E6
:1033300083B190E49A95F1F78095881F8827881FBC
:1033400080930D01188219821A82279887E592E0EE
:103350000197F1F700C0000080910A01880F816C8D
:103360000E941A1980E00E944E19888380E00E9412
:103370004E19898381E00E944E198A837894DF91E7
:10338000CF910895EF92FF920F931F93CF93DF9306
:103390007C01F894279887E592E00197F1F700C047
:1033A000000080910A01880F806B0E941A19811118
:1033B00007C0DF91CF911F910F91FF90EF9008957B
:1033C00080E00E941A192798E7E5F2E03197F1F7BB
:1033D00000C0000080910A01880F816B0E941A19B9
:1033E000882339F3E7018701015E1F4F04C080E0A5
:1033F0000E944E198993C017D107C9F781E00E9436
:103400004E19F701878F279887E592E00197F1F72A
:1034100000C0000080E20E941A1980E60E941A197A
:103420002798E7E5F2E03197F1F700C00000882324
:1034300051F0F70110A27894DF91CF911F910F9175
:10344000FF90EF90089581E0F70180A3F4CFDF9221
:10345000EF92FF920F931F93CF93DF938C01F89419
:10346000D0900A018D2D880F806BD82E80E190E0DE
:10347000A0E0B0E080937B0190937C01A0937D015C
:10348000B0937E0180E1E82EC0E0809175019091BB
:1034900076012E2D30E08217930708F058C08091F6
:1034A000750190917601F82E279887E592E00197B3
:1034B000F1F700C000008D2D0E941A19882309F42D
:1034C0003EC080917B0190917C01A0917D01B091E3
:1034D0007E010E941A19882391F1FF2059F0DF2DF7
:1034E000DC0FF801EC0FF11D80810E941A19CF5FEB
:1034F000DC13F7CF279887E592E00197F1F700C03A
:1035000000008FE19EE40197F1F700C00000EF1882
:1035100080917B0190917C01A0917D01B0917E0111
:103520008F0D911DA11DB11D80937B0190937C0196
:10353000A0937D01B0937E01E110A7CF7894DF9135
:10354000CF911F910F91FF90EF90DF900895FE2C87
:10355000ABCFF894279887E592E00197F1F700C088
:10356000000080E20E941A1980E60E941A1980E089
:103570000E941A19279887E592E00197F1F700C099
:10358000000078940895FC01808180936D01818111
:10359000809397018281809382018381809381014E
:1035A0008481809385018581968198278927982732
:1035B00090937601809375016781708581859285EE
:1035C0000E943F2060937B0170937C0180937D017A
:1035D00090937E012385848590E0A0E0B0E0BA2F2F
:1035E000A92F982F8827A22B2585822B80935F01F6
:1035F00090936001A0936101B093620186858093EE
:10360000920108950F931F93CF93DF93CDB7DEB749
:1036100060970FB6F894DEBF0FBECDBF60915D011D
:1036200070915E0108EE10E0F8018081877F808351
:10363000CE0101960E946907CE0101960E94C31A2D
:103640000E94360E0E943F0E0E94CC0C83E08093B5
:103650008F01F80180818E77808360960FB6F89491
:10366000DEBF0FBECDBFDF91CF911F910F910895A7
:10367000FC01808180936801818180938501628152
:103680007381848195810E943F2060937B017093B8
:103690007C0180937D0190937E012681878190E05B
:1036A000A0E0B0E0BA2FA92F982F8827A22B208561
:1036B000822B80935F0190936001A0936101B0938E
:1036C0006201818590E090938901809388018285D1
:1036D000809392010895CF938091E800877F809333
:1036E000E80060915D0170915E018EE091E00E94C2
:1036F00069078EE091E00E94381B0E943F0E0E94F5
:103700003A16E0916901F0916A010995809168018A
:10371000E0917001F091710109950E9414170E94C7
:10372000D816E0918C01F0918D0109958091880166
:1037300090918901892B69F0C0E00E943416CF5F17
:1037400080918801909189012C2F30E0281739074A
:10375000A0F388E080938F0181E0809365018091E0
:10376000E8008E778093E800CF9108958091E8007B
:10377000877F8093E80060915D0170915E018EE02B
:1037800091E00E9469078EE091E00E94381B0E9440
:103790003F0E809168018EBD0DB407FEFDCF0E94E3
:1037A000900D8091880190918901892B81F080E0B2
:1037B00090E04FEF4EBD0DB407FEFDCF2EB508963D
:1037C00020918801309189018217930798F381E055
:1037D00080938F01809365018091E8008E778093BC
:1037E000E8000895FC0180819181A281B3818093DA
:1037F0007B0190937C01A0937D01B0937E01848135
:103800009581A681B78180935F0190936001A09319
:103810006101B093620180859185909376018093D8
:103820007501828580938501089581E08093E00091
:1038300080E28093D800E9ECF0E010828FE19EE412
:103840000197F1F700C000001DBA109268001CBC7F
:1038500010BE1FBA10926E0010926F00108214B842
:1038600017B81AB815B818B81BB80C9400370895D3
:10387000E09158018E2F90E0FC017097E53EF10534
:1038800020F4EC5BFF4F0C94392008950E94410E08
:103890008091E800877F8093E8000C9442080E94A2
:1038A0003F0E8091E800877F8093E8000C944208E7
:1038B00040915901417060915B0170915C018EE013
:1038C00091E00E94C1068091E800877F8093E80024
:1038D00060915D0170915E018EE091E00E940A07A7
:1038E0008091E8008B778093E80008958091E8004C
:1038F000877F8093E80060915D0170915E018EE0AA
:1039000091E00E94690760910E0170910F01809112
:103910001001909111010E943F2060935F0170930C
:103920006001809361019093620160911201709136
:10393000130180911401909115010E943F20609322
:103940007B0170937C0180937D0190937E01809137
:10395000E8008E778093E80080E180938F010895DE
:103960008091E800877F8093E80080918F018093A9
:103970000E0161E070E0B0CF80915B0180930A019D
:103980008EE091E00E9479198091E800877F809312
:10399000E80063E070E0A0CF8091E800877F80932B
:1039A000E8008091510180930E0161E070E094CFB6
:1039B0008091E800877F8093E80060915D017091BD
:1039C0005E018EE091E00E94690760910E017091A6
:1039D0000F0180911001909111010E943F2060938E
:1039E0007B0170937C0180937D0190937E012091F7
:1039F00012018091130190E0A0E0B0E0BA2FA92F4E
:103A0000982F8827A22B20911401822B80935F018D
:103A100090936001A0936101B09362018091E800EE
:103A20008E778093E8008FE080938F0108958091D6
:103A3000E800877F8093E80060915D0170915E01EE
:103A40008EE091E00E94690760910E0170910F0174
:103A500080911001909111010E943F2060937B01A1
:103A600070937C0180937D0190937E0120911201DF
:103A70008091130190E0A0E0B0E0BA2FA92F982F19
:103A80008827A22B20911401822B80935F019093B1
:103A90006001A0936101B09362018091E8008E778C
:103AA0008093E8008EE080938F0108958091590102
:103AB0008093500180915B0190915C0190934E0145
:103AC00080934F010E9461028091E800877F80937C
:103AD000E8000C9442088091E800877F8093E8001A
:103AE00060915D0170915E018EE091E00E94690736
:103AF0008EE091E00E94C31A8091E8008E77809357
:103B0000E80089E080938F0108950C946B1B20914D
:103B1000590130915A01C9019927A0E0B0E0DC01B8
:103B20009927882740915B0150915C0160E070E02B
:103B3000842B952BA62BB72B80935F01909360016C
:103B4000A0936101B0936201832F0E948B16809134
:103B5000E800877F8093E8000E94420887E0809316
:103B60008F0108952091590130915A01C901992777
:103B7000A0E0B0E0DC019927882740915B015091DB
:103B80005C0160E070E0842B952BA62BB72B809313
:103B90005F0190936001A0936101B0936201832F54
:103BA0000E948B168091E800877F8093E8000E9436
:103BB00042081092650188E080938F0108958091FA
:103BC000E800877F8093E8000E9442081092740109
:103BD0005B9A08958091E800877F8093E8000E94B7
:103BE0004208109274015B9808958091E800877FE5
:103BF0008093E8008091590190915A0190930E01B1
:103C000080930F0180915B0190915C019093100172
:103C10008093110164E070E05FCE8091E800877FBF
:103C20008093E80064E070E080E091E00E940A0781
:103C30008091E8008B778093E80008958EE091E012
:103C40000E948D048091E800877F8093E8000C94A7
:103C500042088091E800877F8093E8000E94420834
:103C60000C949E048EE091E00E94B4058091E800DF
:103C7000877F8093E80060E470E02ECE8091E800BA
:103C8000877F8093E80060915D0170915E018EE016
:103C900091E00E9469078091E8008E778093E800A8
:103CA00008958091E800877F8093E8008EE091E09E
:103CB0000E94C21961E270E00FCE8091E800877F18
:103CC0008093E80060915D0170915E018EE091E06B
:103CD0000E9469078EE091E00E94F21B8091E8004B
:103CE0008E778093E80084E180938F01089580911E
:103CF000E800877F8093E80060915D0170915E012C
:103D00008EE091E00E9469078EE091E00E94F21B34
:103D10008091E8008E778093E80083E180938F01A3
:103D2000089540915901417060915B0170915C016F
:103D30008EE091E00E9478068091E800877F809372
:103D4000E80060915D0170915E01C6CD409159011E
:103D5000417060915B0170915C018EE091E00E9486
:103D600064058091E800877F8093E80060915D01A1
:103D700070915E01B1CD80915B010E94B70480918A
:103D8000E800877F8093E8000C9442082091590155
:103D900030915A01C901A0E0B0E0DC0199278827E1
:103DA00040915B0150915C0160E070E0842B952BA9
:103DB000A62BB72BB77080935F0190936001A093FF
:103DC0006101B0936201832F881F8827881F809329
:103DD0008E018091E800877F8093E8000E9442086E
:103DE00085E180938F01089580915B010C947904A3
:103DF0000C94151C8091E800877F8093E800609107
:103E00005B0170915C018091590190915A010E946F
:103E1000BF0B8091E8008E778093E80008950C94A2
:103E2000B61B8091E800877F8093E8000E944208DB
:103E30008091590190915A01A0E0B0E0DC019927EE
:103E4000882720915B0130915C01820F931FA11D97
:103E5000B11D80935F0190936001A0936101B093C5
:103E6000620182E080938F0108958091E800877F4E
:103E70008093E8000E9442088091590190915A0174
:103E8000A0E0B0E0DC019927882720915B01309108
:103E90005C01820F931FA11DB11D80935F01909360
:103EA0006001A0936101B093620181E080938F0172
:103EB0001092650108958091E800877F8093E80063
:103EC00080915B0190915C01019709F4ACC02C9842
:103ED0008091E8008E778093E80008950E94A91AE7
:103EE0008091E800877F8093E8000C9442088091DD
:103EF000E800877F8093E8000E942C168091E800FC
:103F00008E778093E80008958091E800877F809302
:103F1000E8000E9442080C94DF128091E800877F3D
:103F20008093E80060915D0170915E018EE091E008
:103F30000E94690760910E0170910F01809110013C
:103F4000909111010E943F2060935F017093600186
:103F5000809361019093620160911201709113014D
:103F600080911401909115010E943F2060937B0184
:103F700070937C0180937D0190937E018091E80095
:103F80008E778093E80081E180938F01089580917E
:103F9000E800877F8093E8000E94420881E08093D8
:103FA000740108958091E800877F8093E8000E9463
:103FB000420860915C0180915B010C9497128091A2
:103FC000E800877F8093E80060915D0170915E0159
:103FD0008EE091E00E9469078EE091E00E94C31A92
:103FE0008091E8008E778093E80080915B0190914A
:103FF0005C010297D1F084E080938F0108950C94C6
:10400000021B8091E800877F8093E80060915D014A
:1040100070915E018EE091E00E9469078EE091E070
:104020000E94271A55CF2C9A53CF85E080938F0199
:104030000895292F30E02130310599F022303105E3
:1040400041F080E090E020E030E0FA01318320830D
:10405000089580E290E022E534E0FA013183208384
:10406000089582E190E022E734E0FA013183208371
:104070000895EE0FFF1F0590F491E02D0994692734
:10408000962769277827872778270895F894FFCF00
:04409000433435334D
:00000001FF
