:1000000055C2000070C200006EC200006CC2000049
:100010006AC2000068C2000066C2000064C200003C
:1000200062C2000060C200000C94551A5CC200005D
:100030005AC2000058C2000056C2000054C200005C
:1000400052C2000050C200004EC200004CC200006C
:100050004AC2000048C2000046C2000044C200007C
:1000600042C2000040C200003EC200003CC200008C
:100070003AC2000038C2000036C2000034C200009C
:1000800032C2000030C200002EC200002CC20000AC
:100090002AC2000028C20000111CDA1B421BDA1B16
:1000A000421BB91B931B421B801B601B1E36143660
:1000B000FD357C357C357C357C357C357C357C3537
:1000C000F8357C357C357C357C357C357C357C352C
:1000D000CA359B377C357C357C3586377C357C351D
:1000E0007C357C357C357C357C357C357C357C3588
:1000F000B53594357C357C357C357C357C357C3527
:100100007C357C357C357C357C357C3571378A3562
:100110008035CF36A936853680367C39453733373A
:10012000FB368C394C367C357C357C3540368A350F
:100130008035C037C639C439A7377C357C357C3526
:100140007C357C357C357C357C357C35753837386D
:10015000F937ED376A3949392139F938E338D33875
:100160009A387C357C357C357C358B387C357C35D4
:100170007C357C35F83AE73AD93A7C35C63A7C3555
:100180007C35913A623A303A7C357C351F3A073AF1
:10019000FC39F13975367C357C357C357C357C35E0
:1001A0007C357C357C357C357C35693656369F35DB
:1001B0007C357C357C357C357C357C357C357C35B7
:1001C0007C357C357C357C357C357C357C357C35A7
:1001D0007C357C357C357C357C357C357C357C3597
:1001E0007C357C357C357C357C357C357C357C3587
:1001F0007C357C357C357C357C357C357C357C3577
:100200007C357C357C357C357C357C357C357C3566
:100210007C357C357C357C357C357C357C357C3556
:100220007C357C357C357C357C357C357E392C368F
:1002300060357C357C357C357C357C357C357C3552
:100240007C357C357C357C357C357C357C357C3526
:100250007C357C357C357C357C357C357C357C3516
:100260007C357C357C357C357C357C357C357C3506
:100270007C357C352A36E236653700000202020AF8
:100280000A2A1A0606061616563607000101010547
:1002900005150D0303030B0B2B1B030300000002CA
:1002A000020A060101010505150D1F0307000001E3
:1002B0000105030F0F0F2F2FAF6F1F03070700015B
:1002C0000105030F0F0F2F2FAF6F0F010303020064
:1002D000000201070707171757371F030707010514
:1002E0000001030F0F0F2F2FAF6F0F010303000249
:1002F000020001070707171757370700010101051B
:100300000515000303030B0B2B1B01010505051548
:1003100015553500000002020A061F0307070717DC
:100320001757370F0000010105031F0307070717C1
:100330001757370F0F00010105030F010303030BCC
:100340000B2B1B070702000002011F0307070717FB
:100350001757370F0F01050001030F010303030BAC
:100360000B2B1B070700020200010700010101051A
:1003700005150D0303030B0B2B00000102030404FE
:10038000050605030405050607060300010203032D
:100390000405040203040405060502030001020229
:1003A0000304030102030304050405030300010120
:1003B00002030204050606070807050303040001FB
:1003C00002030204050606070807040202030300ED
:1003D00001020103040505060706050303040203E1
:1003E00000010204050606070807040202030102D1
:1003F00003000103040505060706030101020303C8
:1004000004050002030404050605010203040505B2
:1004100006070600010202030403050303040505A1
:100420000607060400010102030205030304050593
:100430000607060405000102030204020203040485
:100440000506050304030001020105030304050575
:100450000607060405020300010204020203040465
:100460000506050304010203000103010102030361
:10047000040504020304040506000902200001012A
:100480000080640904000002000000000705020269
:100490004000000705810240000012010002000038
:1004A0000040C016DE0501000000000111241FBE3F
:1004B000C0E0D2E0DEBFCDBF11E0A0E0B1E0E6E4F5
:1004C000F7E702C005900D92A031B107D9F721E0FE
:1004D000A0E1B1E001C01D92A53CB207E1F70E9486
:1004E000991C0C94A13B8CCD8F929F92AF92BF929E
:1004F000CF92DF92EF92FF920F931F9320912F01E3
:10050000222389F0C12CD12C7601C39446015701D6
:1005100004C0880C991CAA1CBB1C2A95D2F7682918
:1005200079298A299B298C01222733270EBD0DB4F6
:1005300007FEFDCF072F182F292F33270EBD0DB42F
:1005400007FEFDCF6EBD0DB407FEFDCF2C9A892F9F
:100550009927AA27BB2781BB2C9882E08A95F1F7BF
:100560001F910F91FF90EF90DF90CF90BF90AF90D1
:100570009F908F9008958F929F92AF92BF92CF924B
:10058000DF92EF92FF920F931F9320912F0122236E
:1005900089F0C12CD12C7601C3944601570104C0C7
:1005A000880C991CAA1CBB1C2A95D2F768297929AA
:1005B0008A299B2960FF30C020E828B9DC01CB01E3
:1005C000B695A795979587958D01222733270EBD60
:1005D0000DB407FEFDCF092F1A2F2B2F33270EBD89
:1005E0000DB407FEFDCF8EBD0DB407FEFDCF2C9AD6
:1005F0008B2F9927AA27BB2781BB2C9882E08A954D
:10060000F1F71F910F91FF90EF90DF90CF90BF9087
:10061000AF909F908F90089518B8D0CF0F931F93ED
:10062000CF93DF938FEF82B911B85D9A5C985E9893
:1006300085E38A95F1F7000081E08093E90004C02A
:100640008091E80080FD14C080915001909151018B
:10065000A0915201B0915301892B8A2B8B2B81F7EA
:100660005E9A10926C01DF91CF911F910F910895C6
:100670008091500190915101A0915201B09153018C
:1006800081349105A105B10508F04BC0409150019E
:10069000509151016091520170915301D42F80917A
:1006A000500190915101A0915201B0915301841BCE
:1006B0009109A109B1098093500190935101A09330
:1006C0005201B0935301442331F1C0E0E0912B017A
:1006D000F0912C0160916001709161018091620143
:1006E000909163018B019C010F5F1F4F2F4F3F4F74
:1006F00000936001109361012093620130936301C4
:1007000009958AE08A95F1F700C080B18093F100E5
:10071000CF5FCD17D8F28091E8008E778093E80004
:1007200093CF8091500190915101A0915201B091CD
:10073000530180549109A109B1098093500190930C
:100740005101A0935201B0935301D0E4BECF0F9357
:100750001F93CF93DF938FEF81B98AE08A95F1F7EA
:1007600082E08093E90004C08091E80082FD13C01C
:100770008091500190915101A0915201B09153018B
:10078000892B8A2B8B2B81F710926C01DF91CF91F3
:100790001F910F9108958091500190915101A09166
:1007A0005201B091530181349105A105B10508F0C2
:1007B00057C0409150015091510160915201709188
:1007C0005301D42F8091500190915101A091520179
:1007D000B0915301841B9109A109B1098093500183
:1007E00090935101A0935201B0935301442391F18E
:1007F000C0E0E0912B01F0912C01609160017091BB
:10080000610180916201909163018B019C010F5FF6
:100810001F4F2F4F3F4F00936001109361012093B2
:1008200062013093630109958091F10082B98AE6F3
:100830008A95F1F700C05D988FEE90E00197F1F78F
:1008400000C000005D9A9AE09A95F1F700C0CF5F72
:10085000CD1778F28091E8008B778093E80088CFFD
:100860008091500190915101A0915201B09153019A
:1008700080549109A109B1098093500190935101CD
:10088000A0935201B0935301D0E4B2CFCF92DF9244
:10089000EF92FF92CF93DF93C0906001D0906101FF
:1008A000E0906201F0906301F694E794D794C794C6
:1008B0008FEF81B987B98AE08A95F1F782E080935A
:1008C000E90004C08091E80082FD15C080915001CC
:1008D00090915101A0915201B0915301892B8A2B23
:1008E0008B2B81F710926C01DF91CF91FF90EF90ED
:1008F000DF90CF9008958091500190915101A09187
:100900005201B091530181349105A105B10508F45C
:1009100043C08091500190915101A0915201B0913A
:10092000530180549109A109B1098093500190931A
:100930005101A0935201B0935301D0E4B601C70115
:10094000C0E02FEFC21AD20AE20AF20AE0912B01AC
:10095000F0912C0109958091F10082B98091F1000C
:1009600088B98AE68A95F1F700C05D988FEE90E02D
:100970000197F1F700C000005D9A9AE09A95F1F7AF
:1009800000C0CE5FB601C701CD17D8F28091E80054
:100990008B778093E8009ACF40915001509151019C
:1009A0006091520170915301D42F80915001909128
:1009B0005101A0915201B0915301841B9109A109E9
:1009C000B1098093500190935101A0935201B093CB
:1009D00053014111B3CFDACFFF920F931F93CF93FF
:1009E000DF938FEF81B95C9A8AE08A95F1F782E014
:1009F0008093E90004C08091E80082FD18C08091D6
:100A0000500190915101A0915201B0915301892B55
:100A10008A2B8B2B81F78FEF82B911B85C981092DB
:100A20006C01DF91CF911F910F91FF9008958091FC
:100A3000500190915101A0915201B0915301813424
:100A40009105A105B10508F051C0409150015091A8
:100A500051016091520170915301F42E8091500127
:100A600090915101A0915201B0915301841B9109C1
:100A7000A109B1098093500190935101A0935201B3
:100A8000B0935301442331F1C0E0D091F100609163
:100A900060017091610180916201909163018B010D
:100AA0009C010F5F1F4F2F4F3F4F0093600110932A
:100AB0006101209362013093630116DDD2B95E9823
:100AC0005D989AE09A95F1F700C05D9A5E9ACF5FC3
:100AD000CF15D8F28091E8008B778093E8008FE300
:100AE0009CE90197F1F700C0000089CF8091500187
:100AF00090915101A0915201B091530180549109FC
:100B0000A109B1098093500190935101A093520122
:100B1000B093530180E4F82EB7CF809100019091FB
:100B20000101892B71F080E090E025E02A95F1F732
:100B30000000019620910001309101018217930776
:100B4000A0F30895109210018FEF81B987B95C9AD4
:100B500082E08A95F1F7089581E0809310018091F9
:100B60003801833061F0823051F08FEF82B911B8D3
:100B700088B917B85C9882E08A95F1F708958FEFED
:100B800082B911B85C9882E08A95F1F708950F93C5
:100B90001F93CF93DF93809138018A3009F48FC07F
:100BA00080911001882309F492C085E38A95F1F7BA
:100BB000000081E08093E90004C08091E80080FD9E
:100BC00013C08091500190915101A0915201B091B8
:100BD0005301892B8A2B8B2B81F710926C01DF91AB
:100BE000CF911F910F9108958091500190915101E3
:100BF000A0915201B091530181349105A105B10535
:100C000008F047C04091500150915101609152014C
:100C100070915301D42F8091500190915101A09176
:100C20005201B0915301841B9109A109B10980932C
:100C3000500190935101A0935201B093530144236A
:100C400011F1C0E0E0912B01F0912C016091600165
:100C50007091610180916201909163018B019C010F
:100C60000F5F1F4F2F4F3F4F0093600110936101A3
:100C70002093620130936301099580B18093F10064
:100C8000CF5FCD17F8F28091E8008E778093E8006F
:100C900098CF8091500190915101A0915201B09153
:100CA000530180549109A109B10980935001909397
:100CB0005101A0935201B0935301D0E4C2CF8FEF02
:100CC00082B911B85C9884E08A95F1F772CF44DF5D
:100CD0006CCFCF93DF93809138018B3009F49BC0A8
:100CE00080911001882309F49FC085E38A95F1F76C
:100CF000000081E08093E90004C08091E80080FD5D
:100D000011C08091500190915101A0915201B09178
:100D10005301892B8A2B8B2B81F710926C01DF9169
:100D2000CF9108958091500190915101A09152016D
:100D3000B091530181349105A105B10508F055C06A
:100D400040915001509151016091520170915301B5
:100D5000D42F8091500190915101A0915201B091F6
:100D60005301841B9109A109B1098093500190930B
:100D70005101A0935201B0935301442381F1C0E08B
:100D80008091600190916101A0916201B091630135
:100D9000BC01CD019695879577956795E0912B01DC
:100DA000F0912C0109958091600190916101A091D1
:100DB0006201B09163010296A11DB11D8093600193
:100DC00090936101A0936201B093630180B180931D
:100DD000F10086B18093F100CE5FCD1788F280914B
:100DE000E8008E778093E8008CCF8091500190913D
:100DF0005101A0915201B091530180549109A10970
:100E0000B1098093500190935101A0935201B09386
:100E10005301D0E4B4CF8FEF82B911B888B917B8B5
:100E200084E08A95F1F765CF97DE5FCFCF93DF93AC
:100E300080911001882309F490C085E38A95F1F729
:100E4000000081E08093E90004C08091E80080FD0B
:100E500011C08091500190915101A0915201B09127
:100E60005301892B8A2B8B2B81F710926C01DF9118
:100E7000CF9108958091500190915101A09152011C
:100E8000B091530181349105A105B10508F04FC01F
:100E90004091500150915101609152017091530164
:100EA000D42F8091500190915101A0915201B091A5
:100EB0005301841B9109A109B109809350019093BA
:100EC0005101A0935201B0935301442351F1C0E06A
:100ED0006091600170916101809162019091630164
:100EE000E0912B01F0912C01099580B18093F100E4
:100EF00086B18093F1008091600190916101A09191
:100F00006201B09163010296A11DB11D8093600141
:100F100090936101A0936201B0936301CE5FCD17FE
:100F2000B8F28091E8008E778093E80092CF8091AC
:100F3000500190915101A0915201B0915301805400
:100F40009109A109B1098093500190935101A09397
:100F50005201B0935301D0E4BACFFEDD6ECF0F93B0
:100F60001F93CF93DF93D82F162F042FCFEFC1B944
:100F7000C7B98FE780BB11BA0E9412288DB5816076
:100F80008DBD80E58CBDD093380181E08093100148
:100F900010927001109220011092270110922801E6
:100FA0001092290110922A0110922F012C988DE89D
:100FB00095E090933701809336015B985D9A5E9837
:100FC0005C98C8B917B8C2B911B884E792E0909399
:100FD0002C0180932B01809138018130F1F1823016
:100FE00029F1833019F1843009F44FC0853009F4B8
:100FF0005CC08A3009F469C08B3009F477C0863050
:1010000009F485C0873009F488C0D83009F48BC052
:10101000DC3029F18FE39CE90197F1F700C0000073
:1010200087E1DF91CF911F910F9108958BEB92E0B3
:1010300090932C0180932B012F98C7B987EC95E0F2
:1010400090932E0180932D01E0912B01F0912C01C2
:1010500060E070E0CB010995DDCF2F98EFCF5E9A6D
:101060008EE093E090932E0180932D018CEE94E01E
:101070009093240180932301E0912B01F0912C01A6
:1010800060E070E0CB010995C5CF2F9A89E696E024
:1010900090932E0180932D01E0912B01F0912C0172
:1010A00060E070E0CB010995B5CF2F9A86E197E01B
:1010B00090932E0180932D01E0912B01F0912C0152
:1010C00060E070E0CB010995A5CF87EC95E09093A7
:1010D0002E0180932D0187EA93E090932401809361
:1010E000230160E070E0CB01FFD994CF89E696E060
:1010F00090932E0180932D0186E494E09093240137
:101100008093230160E070E0CB01EED983CF402FC4
:10111000612F81E00E9494237DCF402F612F82E0D8
:101120000E94942377CF2BD675CFCF93DF93EC011A
:1011300080911001811113C080913801C2B98330B0
:1011400019F0823009F0D8B982E0982F9A95F1F71A
:101150005D988A95F1F75D9ADF91CF910895F2DC61
:10116000EBCF08958091000190910101892B81F0CE
:1011700080E090E0EFE9FFE03197F1F700C0000078
:10118000019620910001309101018217930790F39D
:1011900008958AE18A95F1F700C080E693EEA6E112
:1011A000B0E038E0232F2A95F1F70197A109B109A2
:1011B00011F01E99F7CF0895CF93DF93EC01809142
:1011C0001001811126C08091600190916101A09170
:1011D0006201B09163018093270190932801A0934D
:1011E0002901B0932A0180913801843009F468C044
:1011F0009FEF980F933078F08530B1F182E0982F0F
:101200009A95F1F75D988A95F1F75D9ADF91CF9104
:10121000089598DCD8CF6091600170916101809150
:10122000620190916301E0912B01F0912C010995ED
:101230008091F1008093200182B9809160019091AA
:101240006101A0916201B09163010196A11DB11DE0
:101250008093600190936101A0936201B093630158
:1012600088818F5F8883CACF60916001709161012E
:101270008091620190916301E0912B01F0912C012A
:1012800009958091F1008093200182B98091F1004D
:1012900088B98091600190916101A0916201B09143
:1012A00063010296A11DB11D8093600190936101BD
:1012B000A0936201B093630188818E5F88839ECF83
:1012C0008091600190916101A0916201B0916301F0
:1012D000BC01CD019695879577956795CDCFCF9336
:1012E000DF93EA0120913801233079F0223021F494
:1012F0009695879577956795E0912B01F0912C0154
:101300000995CE01DF91CF9110CF660F771F881F0F
:10131000991FF2CF1F93CF93DF931F92CDB7DEB704
:1013200082E08093E90004C08091E80082FD13C050
:101330008091500190915101A0915201B0915301BF
:10134000892B8A2B8B2B81F710926C010F90DF91E8
:10135000CF911F9108958091500190915101A091DA
:101360005201B091530181349105A105B10508F4F2
:101370003CC08091500190915101A0915201B091D7
:10138000530180549109A109B109809350019093B0
:101390005101A0935201B0935301198210E44AEA1B
:1013A00050E065E575E580E090E099DF45E550E0C7
:1013B0006AEA7AE280E090E092DF40EA50E065E598
:1013C00075E580E090E08BDFCE010196F5DEE091DF
:1013D0003601F091370109958981811700F38091D9
:1013E000E8008B778093E800A3CF409150015091A3
:1013F00051016091520170915301142F809150015D
:1014000090915101A0915201B0915301841B910917
:10141000A109B1098093500190935101A093520109
:10142000B093530119824111BACFD9CFAF92BF9275
:10143000DF92EF92FF920F931F93CF93DF931F9250
:10144000CDB7DEB782E08093E900E0905E01F090D6
:101450005F0100E010E004C08091E80082FD19C047
:101460008091500190915101A0915201B09153018E
:10147000892B8A2B8B2B81F710926C010F90DF91B7
:10148000CF911F910F91FF90EF90DF90BF90AF90A1
:1014900008958091500190915101A0915201B09115
:1014A000530181349105A105B105B8F18091500136
:1014B00090915101A0915201B09153018054910932
:1014C000A109B1098093500190935101A093520159
:1014D000B09353010115110509F445C0198280E448
:1014E000A82EB12C90E4D92ECE01019665DE89811B
:1014F0008D15D0F38091E8008B778093E8000A0D7A
:101500001B1DE016F10609F0ABCFE0913601F0911A
:101510003701099500E010E0A3CF80915001909130
:101520005101A0915201B0915301D82E4091500128
:10153000509151016091520170915301481B510922
:101540006109710940935001509351016093520118
:1015500070935301A82EB12C0115110549F0198281
:10156000D110C2CFC7CF20E4A22EB12C30E4D32EAD
:101570004AEA50E065E575E580E090E0B0DE45E5DB
:1015800050E06AEA7AE280E090E0A9DE40EA50E0CA
:1015900065E575E580E090E0A2DEE1CFAF92BF9215
:1015A000CF92DF92EF92FF920F931F93CF93DF932F
:1015B0001F92CDB7DEB782E08093E90004C080912E
:1015C000E80082FD1AC08091500190915101A091D4
:1015D0005201B0915301892B8A2B8B2B81F71092EA
:1015E0006C010F90DF91CF911F910F91FF90EF90C1
:1015F000DF90CF90BF90AF90089580915E01909161
:101600005F014091500150915101609152017091E0
:101610005301A0E0B0E084179507A607B70708F0CC
:101620005CC000915E0110915F018091500190912A
:101630005101A0915201B0915301801B910BA1095E
:10164000B1098093500190935101A0935201B0933E
:101650005301C0906001D0906101E0906201F09070
:10166000630180913801843009F442C0813009F46B
:101670003DC05801B694A79448EE50E0C701B601AA
:101680002EDE85E38A95F1F70000A501415051094E
:10169000C701B60124DE19820115110541F0CE0102
:1016A00001968ADD898190E080179107C0F340EDB3
:1016B00050E0C701B60113DE8091F2009091F30073
:1016C000811105C08091E8008B778093E800E0915C
:1016D0003601F0913701099576CF009150011091B4
:1016E000510120915201309153019FCF5801C4CF35
:1016F000F694E794D794C794BCCF8F929F92AF9201
:10170000BF92CF92DF92EF92FF920F931F93CF93EE
:10171000DF931F92CDB7DEB782E08093E900812C82
:10172000912C5401E12CF12C8091500190915101A8
:10173000A0915201B0915301892B8A2B8B2B09F474
:10174000F4C08091500190915101A0915201B0914B
:10175000530181349105A105B10508F0E4C0009161
:101760005001109151012091520130915301E11427
:10177000F10409F04AC02091380180915E019091F6
:101780005F0140915001509151016091520170915F
:101790005301A0E0B0E0213009F4A6C084179507FA
:1017A000A607B70708F093C0C0905E01D0905F0114
:1017B000D694C794E0905E01F0905F018090600144
:1017C00090906101A0906201B0906301243021F4F7
:1017D000B694A794979487944AEA50E065E575E03B
:1017E00080E090E07CDD45E550E06AEA72E080E070
:1017F00090E075DD45E250E0C501B40170DDA60161
:1018000041505109C501B4016ADD802F90E0E8160E
:10181000F90608F4C701182F081B40915001509198
:1018200051016091520170915301481B590B61099C
:10183000710940935001509351016093520170938C
:101840005301E81AF90A19828091E80082FFFCCF5F
:10185000112331F0CE010196AFDC89818117D0F3DD
:10186000011120C08091E8008B778093E80080917F
:10187000500190915101A0915201B0915301892BD7
:101880008A2B8B2BF9F449E250E0C501B40127DD26
:10189000E0913601F09137010995E12CF12C01110D
:1018A00066CF42CF8091500190915101A091520199
:1018B000B0915301892B8A2B8B2B29F3E114F1046E
:1018C00011F355CFE114F10409F02ECFDCCFC09015
:1018D0005001D0905101E0905201F0905301F694E4
:1018E000E794D794C79466CF84179507A607B707E0
:1018F000A8F0C0905001D0905101E0905201F090BA
:101900005301E0905E01F0905F0180906001909043
:101910006101A0906201B09063015ECFC0905E0152
:10192000D0905F01EECF00E422CF10926C010F90B7
:10193000DF91CF911F910F91FF90EF90DF90CF90AB
:10194000BF90AF909F908F90089540E750E065E57D
:1019500075E080E090E0C3DC809110018823A9F05D
:1019600080B196B187FFF1CF40EF50E060E070E0CA
:10197000CB01B5DC4FEF50E060E070E0CB01AFDCB5
:1019800085E08A95F1F700000895E6D8E9CF8FE960
:101990009FE00197F1F700C000004AEA50E065E5DA
:1019A00075E580E090E09BDC45E550E06AEA7AE28C
:1019B00080E090E094DC40E750E065E575E580E08C
:1019C00090E08DDC04C080B196B187FD09C08091A4
:1019D00010018111F8CFC0D880B196B187FFF7CF41
:1019E0000895CF93DF93EA0120913801243021F448
:1019F0009695879577956795E0912B01F0912C014D
:101A00000995CE01DF91CF9190CBCF92DF92EF92EB
:101A1000FF921F93CF93DF931F92CDB7DEB7C09095
:101A20006001D0906101E0906201F090630182E07A
:101A30008093E90004C08091E80082FD21C080917C
:101A4000500190915101A0915201B0915301892B05
:101A50008A2B8B2B81F74FEF50E0C701B601C1DF16
:101A600040EF50E0C701B601BCDF10926C010F904F
:101A7000DF91CF911F91FF90EF90DF90CF9008956D
:101A80008091500190915101A0915201B091530168
:101A900081349105A105B105B0F18091500190917B
:101AA0005101A0915201B091530180549109A109B3
:101AB000B1098093500190935101A0935201B093CA
:101AC0005301198210E40EC040E450E008DCCE015E
:101AD000019672DBE0913601F09137010995898119
:101AE000811788F5609160017091610180916201B8
:101AF0009091630120913801243031F796958795B4
:101B000077956795E1CF40915001509151016091D7
:101B1000520170915301142F809150019091510105
:101B2000A0915201B0915301841B9109A109B109FF
:101B30008093500190935101A0935201B0935301AF
:101B400019824111CFCF8091E8008B778093E80014
:101B500076CFCF92DF92EF92FF921F93CF93DF93D6
:101B60001F92CDB7DEB7C0906001D0906101E090C8
:101B70006201F090630182E08093E9004AEA50E05C
:101B800065E575E080E090E0AADB45E550E06AEAB3
:101B900072E080E090E0A3DB40E250E065E575E0B4
:101BA00080E090E09CDB04C08091E80082FD21C0D1
:101BB0008091500190915101A0915201B091530137
:101BC000892B8A2B8B2B81F740E950E0C701B601A6
:101BD00008DF40E050E0C701B60103DF10926C015E
:101BE0000F90DF91CF911F91FF90EF90DF90CF90FA
:101BF00008958091500190915101A0915201B091AE
:101C0000530181349105A105B10568F1809150011E
:101C100090915101A0915201B091530180549109CA
:101C2000A109B1098093500190935101A0935201F1
:101C3000B0935301198210E440EA50E060E070E094
:101C4000CB014DDBCE010196B7DAE0913601F09180
:101C5000370109958981811778F38091E8008B77A6
:101C60008093E800A5CF40915001509151016091BF
:101C7000520170915301142F8091500190915101A4
:101C8000A0915201B0915301841B9109A109B1099E
:101C90008093500190935101A0935201B09353014E
:101CA00019824111C9CFD9CF6091270170912801C4
:101CB0008091290190912A0140E750E092DE8091C5
:101CC00010018823A1F080B196B187FFEDCF60911C
:101CD0002701709128018091290190912A014FEFED
:101CE00050E07FDE85E08A95F1F7000008950E94BC
:101CF000AC05E9CF20913801243099F0E0912B0117
:101D0000F0912C01099580911001811102C00E946F
:101D1000AC0520B186B190E0982F8827820F911DE5
:101D200008959695879577956795E8CFCF93DF933C
:101D300060912701709128018091290190912A01D9
:101D4000D9DF95E09A95F1F70000C8E8D3E10FC01C
:101D500060912701709128018091290190912A01B9
:101D6000C9DF95E09A95F1F70000219729F090914D
:101D70002001892787FDECCFDF91CF9108958FEF68
:101D800081B99FE092B923E027B988B920E830E112
:101D900030932E0120932D0121E331E130933A015C
:101DA0002093390129E532E1309324012093230166
:101DB00022EE31E130933501209334012FE232E1FC
:101DC000309322012093210181B992B9409A5E9803
:101DD0005D9A08958FEF81B940985E9A81E0982FBF
:101DE0009A95F1F7409A8A95F1F75E988FE082B95B
:101DF0005E9A82E0982F9A95F1F75E985E9A982FF6
:101E00009A95F1F75E985E9A982F9A95F1F75E98F9
:101E10005E9A982F9A95F1F75E985E9A982F9A9508
:101E2000F1F75E9840985E9A982F9A95F1F75E9830
:101E30005E9A8A95F1F75E98089591E232E041E06A
:101E400080B18F705E9A232F2A95F1F75E9891509A
:101E500049F0242F2A95F1F78111F2CF1092120147
:101E600081E00895B7DF81E08093120180E008955A
:101E7000982F9F7092B95E9A92E0292F2A95F1F7D8
:101E80005E9882958F7082B95E9A892F8A95F1F754
:101E90005E98089520B15E9A92E0892F8A95F1F7B5
:101EA0005E9880B15E9A9A95F1F75E98982F929518
:101EB000907F822F8F70892B0895CF92DF92EF92BF
:101EC000FF920F931F9330911101313009F47DC0BF
:101ED000323039F01F910F91FF90EF90DF90CF904B
:101EE000089541118064AB01BC01606B7F6F409825
:101EF00012B85E9A82E0982F9A95F1F75E98409A10
:101F00002F7022B95E9A982F9A95F1F75E9891E01A
:101F10009A95F1F79FE092B95E9A282F2A95F1F7EA
:101F20005E9892B95E9A982F9A95F1F75E988A0119
:101F30009B0194E136952795179507959A95D1F7CA
:101F40000F7002B95E9A982F9A95F1F75E98962FC6
:101F50009F7092B95E9A982F9A95F1F75E988A01D0
:101F60009B01ECE03695279517950795EA95D1F7F3
:101F70000F7002B95E9A982F9A95F1F75E98952F97
:101F80009F7092B95E9A982F9A95F1F75E988A01A0
:101F90009B01F4E03695279517950795FA95D1F7AB
:101FA0000F7002B95E9A982F9A95F1F75E98642F98
:101FB0006F7062B95E9A8A95F1F75E981F910F91E2
:101FC000FF90EF90DF90CF9008954111806440988A
:101FD0002F70286022B95E9A22E0322F3A95F1F7ED
:101FE0005E98409A12B85E9A322F3A95F1F75E9851
:101FF000392F3F7032B95E9A322F3A95F1F75E98D9
:102000006B017C01A4E1F694E794D794C794AA9558
:10201000D1F73C2D3F7032B95E9A322F3A95F1F7E5
:102020005E98382F3F7032B95E9A322F3A95F1F7A9
:102030005E986B017C01BCE0F694E794D794C7945A
:10204000BA95D1F73C2D3F7032B95E9A322F3A954E
:10205000F1F75E98372F3F7032B95E9A322F3A957A
:10206000F1F75E986B017C0114E0F694E794D79445
:10207000C7941A95D1F73C2D3F7032B95E9A322F32
:102080003A95F1F75E986F7062B95E9A822F8A95E1
:10209000F1F75E9812B85E9A2A95F1F75E981F9153
:1020A0000F91FF90EF90DF90CF900895CF93DF9343
:1020B000DFEFD1B925E001DF8FE082B95E9AC2E09F
:1020C0008C2F8A95F1F75E9880EF81B95E9A8C2FFC
:1020D0008A95F1F75E98B1DE811104C080E0DF914E
:1020E000CF910895D7DE5E9A9C2F9A95F1F75E986E
:1020F000D1B95E9ACA95F1F75E98DF91CF910895B4
:10210000CF93DF9381E08093E90004C08091E800E1
:1021100080FD11C08091500190915101A091520118
:10212000B0915301892B8A2B8B2B81F710926C0174
:10213000DF91CF9108958091500190915101A0912C
:102140005201B091530181349105A105B10508F008
:1021500049C04091500150915101609152017091DC
:102160005301D42F8091500190915101A0915201BF
:10217000B0915301841B9109A109B10980935001C9
:1021800090935101A0935201B0935301442321F144
:10219000C0E0609160017091610180916201909155
:1021A000630141E083DF40916001509161016091E2
:1021B0006201709163014F5F5F4F6F4F7F4F40939C
:1021C0006001509361016093620170936301809399
:1021D000F100CF5FCD17E8F28091E8008E77809311
:1021E000E80098CF8091500190915101A091520147
:1021F000B091530180549109A109B1098093500114
:1022000090935101A0935201B0935301D0E4C0CFF9
:10221000CF93DF93C42F422FDFEFD1B926E04DDEFD
:102220008C2F26DE8FE082B95E9AC2E08C2F8A95D1
:10223000F1F75E9880EF81B95E9A8C2F8A95F1F75D
:102240005E98FBDD882351F05E9A9C2F9A95F1F7FA
:102250005E98D1B95E9ACA95F1F75E98DF91CF91F9
:1022600008950F931F93CF93DF938C0181E08093A8
:10227000110140E060E070E08CEB9FEF17DFC82FAA
:1022800040E061E070E08CEB9FEF10DFD82FCC23B3
:1022900011F081111AC082E08093110140E060E0EA
:1022A00070E08CEB9FEF02DFC82F40E061E070E050
:1022B0008CEB9FEFFBDED82FC11105C0DF91CF91D2
:1022C0001F910F9108958823C9F320E040E062E058
:1022D00070E080EB9FEF9CDF20E040E062E070E088
:1022E00081EB9FEF95DF20E040E062E070E082EB61
:1022F0009FEF8EDF20E040E062E070E083EB9FEF35
:1023000087DF20E040E062E070E084EB9FEF80DF59
:1023100020E040E062E070E085EB9FEF79DF20E0B5
:1023200040E062E070E086EB9FEF72DF20E040E08B
:1023300062E070E087EB9FEF6BDF20E040E062E05F
:1023400070E088EB9FEF64DF20E040E062E070E047
:1023500089EB9FEF5DDF20E040E062E070E08AEB18
:102360009FEF56DF20E040E062E070E08BEB9FEFF4
:102370004FDF20E040E062E070E08CEB9FEF48DF51
:1023800020E040E062E070E08DEB9FEF41DF20E075
:1023900040E062E070E08EEB9FEF3ADF20E040E04B
:1023A00062E070E08FEB9FEF33DFF801C083D283F0
:1023B00021E040EF60E070E0CB01DF91CF911F9111
:1023C0000F9126CF8F929F92AF92BF92CF92DF92C2
:1023D000EF92FF92C0906001D0906101E0906201A5
:1023E000F09063018090600190906101A090620183
:1023F000B090630121E04AEA65E575E580E090E090
:1024000007DF21E045E56AEA7AE280E090E000DF5C
:1024100021E040E865E575E580E090E0F9DE21E047
:102420004AEA65E575E580E090E0F2DE21E045E509
:102430006AEA7AE280E090E0EBDE8B2C9924AA2411
:10244000BB24C701B601992721E0482DFF90EF90EA
:10245000DF90CF90BF90AF909F908F90D9CE21E02A
:102460004AEA65E575E580E090E0D2DE21E045E5E9
:102470006AEA7AE280E090E0CBDE21E040E865E5C0
:1024800075E580E090E0C4DE21E04AEA65E575E5A7
:1024900080E090E0BDDE21E045E56AEA7AE280E096
:1024A00090E0B6DE21E040E165E575E580E090E092
:1024B000AFCEEF92FF920F931F93CF93DF931F92B4
:1024C000CDB7DEB782E08093E90004C08091E800D8
:1024D00082FD16C08091500190915101A09152014E
:1024E000B0915301892B8A2B8B2B81F710926C01B1
:1024F0000F90DF91CF911F910F91FF90EF90089572
:102500008091500190915101A0915201B0915301DD
:1025100081349105A105B10508F07CC040915001BE
:10252000509151016091520170915301E42E8091BC
:10253000500190915101A0915201B0915301841B1F
:102540009109A109B1098093500190935101A09381
:102550005201B0935301442309F456C0F12C009169
:10256000F10021E04AEA65E575E580E090E050DEA3
:1025700021E045E56AEA7AE280E090E049DE21E088
:1025800040EA65E575E580E090E042DE609160013B
:1025900070916101809162019091630121E0402F6F
:1025A00037DE6091600170916101809162019091CC
:1025B000630141E07BDD898314E18981081769F0BB
:1025C000609160017091610180916201909163015D
:1025D00041E06CDD8983115081F780916001909119
:1025E0006101A0916201B09163010196A11DB11D2D
:1025F0008093600190936101A0936201B0936301A5
:10260000F394FE1408F4ABCF8091E8008B778093AD
:10261000E80060CF8091500190915101A09152014A
:10262000B091530180549109A109B10980935001DF
:1026300090935101A0935201B093530180E4E82E8E
:102640008DCF94EA9093BC009091BC0097FFFCCF93
:102650009091B900987F983021F0903111F080E08E
:1026600008958093BB0084E88093BC008091BC00F7
:1026700087FFFCCF8091B900887F883111F08034CA
:1026800071F781E0089521E030E044EA54E864E91C
:102690004093BC0005C02F5F3F4F2233310581F0CE
:1026A0009091BC0097FFF7CF9091B900987F983038
:1026B00049F0903139F0F9012F5F3F4FF29741F720
:1026C00080E008958093BB005093BC0005C02F5F4D
:1026D0003F4F22333105A1F39091BC0097FFF7CF14
:1026E0009091B900987F903221F0983511F081E0F7
:1026F00008956093BC009091BC0094FDFCCFF9015B
:102700002F5F3F4FF29721F6DBCFCF93C0913F0170
:102710008091600190916101A0916201B09163018B
:1027200020914201220F220F220F04C0B695A795D7
:10273000979587952A95D2F780FDC26081FDC46088
:1027400082FDC8608C2F9FDF8823E9F080914201D1
:102750008230F9F08091600190916101A091620155
:10276000B09163018093BB0084E88093BC0090919A
:10277000BC0097FFFCCF8091B90080E580934101B8
:102780008C2FCF91089581E58093410180E0CF9116
:1027900008958091600190916101A0916201B091D2
:1027A0006301892F9A2FAB2FBB278093BB0084E84E
:1027B0008093BC008091BC0087FFFCCF8091B90062
:1027C000C9CFEF92FF920F931F93CF93DF93181609
:1027D00019060CF061C08C01C0E0D0E084E8F82E4E
:1027E00094E9E92E80913E01882309F45DC0E091CF
:1027F0000201F0910301EC0FFD1F80818093BB006B
:10280000F092BC009091BC0097FFFCCF8091B90082
:10281000887F883209F05CC080913E0181508093AE
:102820003E0180913E01811132C0E092BC00909146
:10283000BC0094FDFCCF20913C0130913D01809182
:10284000600190916101A0916201B0916301820FDA
:10285000931FA11DB11D8093600190936101A0930E
:102860006201B093630180914001882381F040E0D0
:1028700050E08FE99FE00197F1F700C000004F5F43
:102880005F4F2091400130E04217530794F32196A7
:102890000C171D0709F0A6CF81E0DF91CF911F91A2
:1028A0000F91FF90EF90089580913C0190913D0130
:1028B00080933E012ADF80914101813509F097CF55
:1028C00080E0DF91CF911F910F91FF90EF900895DD
:1028D00081E580934101F4CF0F931F9382E08093B1
:1028E000E90080E58093410110923E018091500102
:1028F00090915101A0915201B0915301892B8A2BE3
:102900008B2B09F462C08091E80082FFFCCF80919C
:10291000500190915101A0915201B0915301813425
:102920009105A105B105D8F5009150011091510113
:102930002091520130915301802F409150015091CC
:1029400051016091520170915301401B510961097D
:10295000710940935001509351016093520170935B
:102960005301002379F020E030E09091F100E091F4
:102970000201F0910301E20FF31F90832F5F3F4F9D
:10298000281798F39091E8009B779093E800909136
:102990004101903509F0AACF90E013DFA7CF8091D5
:1029A000500190915101A0915201B0915301805476
:1029B0009109A109B1098093500190935101A0930D
:1029C0005201B093530180E4CECF10926C011F915D
:1029D0000F9108950F931F93CF93DF93EC0195DE32
:1029E00090914101913509F452C08F5F2ADE88230E
:1029F00009F445C01C161D06F4F420E030E064EC38
:102A000074E82F5F3F4FA90141505109E091020145
:102A1000F0910301E40FF51FC217D307F1F16093A2
:102A2000BC009091BC0097FFFCCF9091BB009083BD
:102A3000C217D30731F794E99093BC009091BC0082
:102A400094FDFCCF00916001109161012091620121
:102A500030916301AE01DD0F660B770B400F511F04
:102A6000621F731F40936001509361016093620184
:102A700070936301DF91CF911F910F91089591E5BC
:102A800090934101DF91CF911F910F91089580E0C4
:102A9000DF91CF911F910F9108957093BC00C1CF2A
:102AA000589859981092B90080913B01813001F1FA
:102AB00080913B018CE08093B8008FEF8093BB0046
:102AC00084E08093BC00109260011092610110922A
:102AD00062011092630188E090E07CDF811104C004
:102AE00083E580934101089582E580934101089533
:102AF00088E48093B800E1CFCF92DF92EF92FF920B
:102B0000CF9381E08093E90080E58093410180913B
:102B1000500190915101A0915201B0915301892B24
:102B20008A2B8B2B09F463C020E58091E80080FF9D
:102B3000FCCF8091500190915101A0915201B09130
:102B4000530181349105A105B10508F047C0C0903B
:102B50005001D0905101E0905201F0905301CC2DE2
:102B6000203509F44CC0DD24EE24FF24CC2371F081
:102B700080E090E0E0910201F0910301E80FF91F7D
:102B800020812093F10001968C17A0F380915001D1
:102B900090915101A0915201B09153018C199D095E
:102BA000AE09BF098093500190935101A093520147
:102BB000B09353018091E8008E778093E800809174
:102BC000500190915101A0915201B0915301892B74
:102BD0008A2B8B2B61F020914101A7CF80E4C82E76
:102BE000D12CE12CF12C203589F0C0E4C1CF10921A
:102BF0006C01CF91FF90EF90DF90CF9008958C2DD6
:102C000090E0DD24EE24FF24E5DEB0CF80E490E008
:102C1000C0E4FACF1CBC1092C90080E880BFE4E693
:102C2000F0E080818C628083E5E6F0E08081816065
:102C300080831092BC008DEF84B980E185B908953E
:102C4000FC0180818093180181818093170182812A
:102C500080931601838180931501848180931401F0
:102C6000089584E185B925E09FE152E09695892F8A
:102C7000880F880F847080612B9A42E0352F3A9537
:102C8000F1F785B9215091F780E185B92B9A942FFE
:102C90009A95F1F794E195B92B9A942F9A95F1F7BB
:102CA00085B94093130108952091130190E1299F64
:102CB00090011124282B30E0F901E658FC4F449193
:102CC000F901E658FD4F2491922F990F990F9470B6
:102CD000906195B93FEF340F442371F052E026958F
:102CE000922F990F990F947090612B9A452F4A95C6
:102CF000F1F795B9315098F78093130108958091B9
:102D000013018B3009F18430D9F0813029F1823000
:102D1000F9F0893049F1833099F0853009F1863036
:102D200031F18730E9F08830B9F08A3069F08C30C1
:102D300011F18D3021F18E30F1F08F3069F008956E
:102D400085E08093130108958CE08093130108952A
:102D500089E080931301089582E080931301089520
:102D600088E080931301089510921301089587E07D
:102D70008093130108958FE08093130108958EE0EE
:102D8000809313010895CF92DF92EF92FF926B012F
:102D90007C0181E185B9442311F181E0C81AD10891
:102DA000E108F10811F180E090E0DC0169E152E016
:102DB00031E165B9252F2A95F1F735B90196A11DA5
:102DC000B11D8C159D05AE05BF0598F341110DC0D1
:102DD00080E185B9FF90EF90DF90CF900895C11406
:102DE000D104E104F104F9F6F3CF85E185B98DE171
:102DF00085B982E08A95F1F781E185B980DF80E1CC
:102E000085B9FF90EF90DF90CF900895EF92FF92F9
:102E10000F931F93CF93DF93EC01DB01109761F1C8
:102E200020E030E060E070E080E001E010E02F5F43
:102E30003F4FFE01E80FF11D90819170A217B3077B
:102E400081F1906195B92B9A508156955083199BC9
:102E500007C07801072E01C0EE0C0A94EAF76E292C
:102E600095B97F5F783089F0A217B30701F7772310
:102E700019F0C80FD11D688341110CC0DF91CF91AB
:102E80001F910F91FF90EF90089560838F5F60E036
:102E900070E0EACFDF91CF911F910F91FF90EF90FB
:102EA0002ECF442371F29461CDCFBF92CF92DF92A7
:102EB000EF92FF920F931F93CF93DF9300D000D038
:102EC000CDB7DEB78C0180E4F80111928A95E9F75D
:102ED000C8DE8BE0E9DE20E290E24FEF5FEFBA015F
:102EE00083B1842F8170806185B92B9A769567951F
:102EF0005795479585B9915099F7215069F784E026
:102F0000D3DE30E290E180E223B195B92B9A95B9F6
:102F10008150D1F73150B9F79AE081E041E050E0BB
:102F200060E070E0C12CD12C7601199B04C0C42A4A
:102F3000D52AE62AF72A806185B92B9A440F551FB6
:102F4000661F771F85B9915080E079F7C114D104CD
:102F5000E104F10409F453C0BB24B394F694E7945C
:102F6000D794C794C0FC04C0B394FAE0BF12F6CF64
:102F700080E09ADE8BE098DE37E090E180E223B1DA
:102F800095B92B9A95B98150D1F73150B9F78FE1A6
:102F90009EE40197F1F700C0000083B181E185B99B
:102FA0002B9A85B9FF24F39480E193B185B92B9ACC
:102FB00085B991FD05C0F3949FEFF912F6CFF12C7E
:102FC00082E072DEF801B082F18280E06DDE84E0A2
:102FD0006BDEF12C40E060E270E0CE01019616DF7E
:102FE0008C81F80182838B8183838A8184838981A8
:102FF0008583F3940C5F1F4FFB1460F302C080E0E5
:1030000053DE0F900F900F900F90DF91CF911F9193
:103010000F91FF90EF90DF90CF90BF900895FF92B7
:103020000F931F93CF93DF93EC018B01F42E8BE072
:103030003BDE409117014423D1F050E060E070E0A6
:1030400081E185B980E090E0DC01F9E1E2E031E185
:10305000F5B92E2F2A95F1F735B90196A11DB11DAD
:1030600084179507A607B70798F380E185B9809183
:103070001601811109C04F2DB801CE01DF91CF910A
:103080001F910F91FF90C2CE40E0B801CE01BEDE8D
:103090006091160170E080E090E04F2DDF91CF91BC
:1030A0001F910F91FF906FCEFF920F931F93CF93BD
:1030B000DF93EC018B01F42E84E0F6DD40911501E5
:1030C0004423D1F050E060E070E081E185B980E018
:1030D00090E0DC01F9E1E2E031E1F5B92E2F2A952B
:1030E000F1F735B90196A11DB11D84179507A60703
:1030F000B70798F380E185B980911401811109C067
:103100004F2DB801CE01DF91CF911F910F91FF900C
:103110007DCE40E0B801CE0179DE6091140170E00F
:1031200080E090E04F2DDF91CF911F910F91FF90A4
:103130002ACE20914E0130914F012617370750F0CB
:103140006115710579F52091E8002E772093E8004C
:1031500020E030E0FC0190E00EC0853029F1809144
:10316000E80083FD23C08091E80082FD15C08091B6
:10317000E80080FD1DC02115310511F4992361F08F
:10318000809147018111E9CF82E008958091470144
:103190008823D1F3853041F08091E80082FFF6CF9B
:1031A00080E008959B01D6CF83E0089581E00895E3
:1031B0004091F2005091F3002115310519F040348F
:1031C000510570F091E04034510509F090E0809194
:1031D000E8008E778093E800CECF4034510591F31C
:1031E00081918093F100215031094F5F5F4F21158C
:1031F000310599F7E7CF6115710591F48091E800E9
:103200008B778093E80006C0809147018823C1F046
:10321000853069F18091E80080FFF6CF80E0089565
:10322000FC010AC0853019F18091E80083FD21C0BE
:103230008091E80082FD06C0809147018111F2CFA4
:1032400082E008958091F2009091F300892B31F093
:103250008091F100819361507109A1F78091E8009C
:103260008B778093E8006115710531F7D3CF83E048
:10327000089581E0089520914E0130914F01261765
:10328000370750F06115710579F52091E8002E7728
:103290002093E80020E030E0FC0190E00EC0853093
:1032A00029F18091E80083FD23C08091E80082FD30
:1032B00015C08091E80080FD1DC02115310511F475
:1032C000992361F0809147018111E9CF82E008954F
:1032D000809147018823D1F3853041F08091E80047
:1032E00082FFF6CF80E008959B01D6CF83E008955A
:1032F00081E008954091F2005091F30021153105CD
:1033000019F04034510570F091E04034510509F056
:1033100090E08091E8008E778093E800CECF403433
:10332000510591F384918093F10031962150310938
:103330004F5F5F4F2115310591F7E6CF873078F564
:103340008093E900982F242F762F50E00AC09093A5
:10335000E900891751F17091EC002091ED00509136
:10336000F00021FF19C03091EB003E7F3093EB005D
:103370003091ED003D7F3093ED003091EB003160F6
:103380003093EB007093EC002093ED005093F0002D
:103390002091EE0027FF07C09F5F9730C1F6809312
:1033A000E90081E0089580E00895242F762F50E011
:1033B000D8CF8091480187FF05C012C08091470196
:1033C000882349F08091E80080FFF8CF8091E800E1
:1033D0008E778093E8000895809147018823D9F380
:1033E0008091E80082FFF8CF8091E8008B7780938E
:1033F000E80008950F931F93CF93DF9349D050D0E7
:10340000C8EDD0E088818F77888388818068888341
:1034100088818F7D8883E7EDF0E0808180688083FC
:1034200019BC10924701109243011092450110926D
:10343000440100EE10E0F80180818B7F8083888159
:103440008160888342E360E080E078DFE1EEF0E0D5
:1034500080818E7F8083E2EEF0E0808181608083D6
:10346000808188608083F80180818E7F808388815D
:1034700080618883DF91CF911F910F910895E7EDCF
:10348000F0E080818160808381E080934601B2CF4B
:10349000E8EDF0E080818C7F80831092E200089557
:1034A0001092DA001092E10008951F920F920FB669
:1034B0000F9211242F933F934F935F936F937F93BA
:1034C0008F939F93AF93BF93EF93FF938091E1000E
:1034D00082FF04C08091E20082FD88C08091DA0002
:1034E00080FF04C08091D80080FD6BC08091E10016
:1034F00080FF04C08091E20080FD7FC08091E100E8
:1035000084FF28C08091E20084FF24C088E189BD47
:103510008AE189BD09B400FEFDCF8091D8008F7D7E
:103520008093D8008091E1008F7E8093E1008091AC
:10353000E2008F7E8093E2008091E20081608093C0
:10354000E20080914301882309F46CC084E08093F9
:103550004701DAD18091E10083FF22C08091E2002F
:1035600083FF1EC08091E100877F8093E10082E0AD
:1035700080934701109243018091E1008E7F8093F8
:10358000E1008091E2008E7F8093E2008091E20072
:1035900080618093E20042E360E080E0CFDEB4D15E
:1035A000FF91EF91BF91AF919F918F917F916F911B
:1035B0005F914F913F912F910F900FBE0F901F90F1
:1035C00018958091DA008E7F8093DA008091D9007F
:1035D00080FF2EC088E189BD8AE189BD09B400FE63
:1035E000FDCF81E0809347018FD180CF8091E100B2
:1035F0008B7F8093E1001BD271CF8091E2008E7FA0
:103600008093E2008091E20080618093E2008091EB
:10361000D80080628093D80019BC85E08093470170
:1036200073D16CCF8091E30087FD90CF81E08FCF85
:1036300019BC1092470168D159CF0F931F93CF93B4
:10364000DF93CDB7DEB7AA970FB6F894DEBF0FBEF3
:10365000CDBFE8E4F1E020E531E08091F100819315
:103660002E173F07D1F70E944F358091E80083FF66
:1036700009C02091480130914901832F90E08A30A0
:103680009105C8F08091E80083FF0AC08091EB00AB
:1036900080628093EB008091E800877F8093E80050
:1036A000AA960FB6F894DEBF0FBECDBFDF91CF91C3
:1036B0001F910F910895FC01E45BFF4F0C946D3B4B
:1036C0002111E0CF80914A0190914B0199270297F7
:1036D000CCF68091E800877F8093E80080914A01D2
:1036E0008093430166DE80914301811105C1809181
:1036F000E30087FD01C181E08093470182D1C2CF01
:10370000203809F0BFCF8091E800877F8093E800E0
:10371000809143018093F1008091E8008E7780933F
:10372000E80047DEAFCF2058223008F0ABCF8091C1
:103730004A0190914B018C3D53E0950709F4A8C0D4
:10374000AE014F5F5F4F60914C010E94393BBC015D
:10375000892B09F497CF9091E800977F9093E80028
:1037600089819A8188DD8091E8008B778093E800D9
:1037700089CF211187CF10914A011F770FB7F89495
:103780008091E800877F8093E80013DE8091E80055
:1037900080FFFCCF8091E3008078812B8093E30051
:1037A00080688093E300111171C082E0809347012B
:1037B0000FBF68CF222309F455C0223009F062CF31
:1037C00080914A01811124C080914C01877009F4D5
:1037D00059CF8093E9009091EB0090FF19C03330EE
:1037E00009F48CC09091EB0090619093EB0021E084
:1037F00030E0A90102C0440F551F8A95E2F74093BB
:10380000EA001092EA008091EB0088608093EB0060
:103810001092E9008091E800877F8093E800C9DD7D
:1038200031CF203859F1223809F02CCF80914C014A
:1038300087708093E9008091EB0085FB882780F9F1
:103840001092E9009091E800977F9093E8008093B0
:10385000F1001092F1008091E8008E778093E800EB
:10386000A8DD10CF80914A01813009F00BCF81E0B3
:10387000333009F080E080934501CACF8091440144
:10388000909145019923F1F28260DCCF83E08ECFE5
:1038900083E08A838AE289835FB7F894DE01139616
:1038A00020E03EE041E207C090E0C7968D939D93F3
:1038B0002F5F243181F0E32FF0E040935700849193
:1038C00020FF03C082958F703F5F8F708A3060F752
:1038D00090E0C096EBCF5FBF8091E800877F809338
:1038E000E8006AE270E0CE01019623DC8091E800F6
:1038F0008B778093E800C6CE84E0FECE8091EB000B
:1039000080628093EB0084CF0895CF93809147012C
:10391000882359F0C091E900C7701092E9008091A6
:10392000E80083FD04C0C093E900CF91089585DECF
:10393000FACF04D078948ED0E8DFFDCFCF93DF9319
:10394000CDB7DEB72C970FB6F894DEBF0FBECDBF54
:1039500084B7877F84BF0FB6F894A89580916000E4
:10396000886180936000109260000FBE90E080E854
:103970000FB6F89480936100909361000FBE529847
:103980005A9A8DB18B6C8DB98EB183608EB9709857
:10399000779873982FEF80E792E021508040904015
:1039A000E1F700C0000086E0E8E0F1E0DE011796F4
:1039B00001900D928A95E1F746E050E060E070E0FA
:1039C000CE0101960E947A3B10921A01FE013796B1
:1039D000DE0111969E01235F3F4F91918D919813C7
:1039E00006C0E217F307C9F781E080931A0147DDAB
:1039F0002C960FB6F894DEBF0FBECDBFDF91CF91EE
:103A0000089542E360E882E099DC42E361E881E006
:103A100095DCE2EEF0E080818460808310925001BA
:103A20001092510110925201109253010895809109
:103A30005D01882371F080911B0191E0980F9093B4
:103A40001B01883C30F010921B019EB182E0892757
:103A50008EB9089580914701843009F008958091CE
:103A60006C01813009F445C080916C01823009F409
:103A700042C080916C01833009F43FC080916C0199
:103A80008430E9F180916C018530D9F180916C012D
:103A90008B30C9F180916C018C3031F180916C01D7
:103AA0008E30B1F180916C018F30A1F180916C0169
:103AB000803191F180916C01813179F180916C01BB
:103AC000883061F180916C01873051F180916C01F7
:103AD000893041F180916C01843131F180916C0128
:103AE000853109F0BBCF21C0E0912301F091240181
:103AF00009940C9484280C941B280C94C42A0C94CC
:103B0000502C0C94822DE0912D01F0912E010994FE
:103B10000C947C150C946C1499C03FC10C944531E5
:103B20000C94D2300C94B131D2C640916B016091AB
:103B3000500170915101809152019091530123D90C
:103B400010925001109251011092520110925301A3
:103B500010926C0108951CBC87EF84B989E085B987
:103B600080911C01813009F008952F9A0895FC017D
:103B7000615021E030E002C0220F331F6A95E2F766
:103B800021153105B9F041E00EC02A9A36952795E6
:103B9000299A942F9A95F1F72998942F9A95F1F7ED
:103BA0002115310539F0BF0162237323672B69F7B3
:103BB0002A98ECCF0895289A60916F0190916F0137
:103BC0006D5F925023E130E0A90102C0440F551F00
:103BD0009A95E2F7CA01CBDF28980895ECDF289A7E
:103BE00060916F0190916F016D5F925022E130E022
:103BF000A90102C0440F551F9A95E2F7CA01B7DF29
:103C000028980895289A60916F0190916F016D5FD7
:103C1000925020E130E0A90102C0440F551F9A954F
:103C2000E2F7CA01A4DF2898089598E080E031E027
:103C3000880F299A232F2A95F1F72998232F2A955F
:103C4000F1F71B998160915099F708951F93CF93D5
:103C5000DF93289A63E086E090E089DF60916F014E
:103C60008091600190916101A0916201B091630126
:103C70007EDF81E08093E900D4E004C08091E80019
:103C800080FD13C08091500190915101A09152018B
:103C9000B0915301892B8A2B8B2B81F72898109296
:103CA0006C01DF91CF911F91089580915001909107
:103CB0005101A0915201B091530181349105A105A8
:103CC000B10570F58091500190915101A091520180
:103CD000B0915301182F8823E9F0C0E0A6DF9D2F93
:103CE0009A95F1F78093F1008091500190915101E4
:103CF000A0915201B09153010197A109B10980939C
:103D0000500190935101A0935201B0935301CF5FA2
:103D1000C11720F38091E8008E778093E800B2CF3E
:103D200010E4DBCFCF93C82F289A63E085E090E0C2
:103D30001EDF60916F018091600190916101A091FF
:103D40006201B091630113DF68E08C2F90E00FDF18
:103D50002898289A1B9BFECF2898CF910895CF933F
:103D6000DF93EC01289A63E085E090E000DF60914A
:103D70006F018091600190916101A0916201B09109
:103D80006301F5DE60E1CE01F2DE2898289A1B9BE4
:103D9000FECF2898DF91CF910895CF93DF93809144
:103DA0001C01813009F4ACC006DF82E08093E90099
:103DB00004C08091E80082FD12C080915001909172
:103DC0005101A0915201B0915301892B8A2B8B2B69
:103DD00081F718DF10926C01DF91CF9108958091E7
:103DE000500190915101A0915201B0915301813441
:103DF0009105A105B10508F04AC0409150015091CC
:103E000051016091520170915301C42F8091500172
:103E100090915101A0915201B0915301841B9109DD
:103E2000A109B1098093500190935101A0935201CF
:103E3000B093530180911C01882309F476C0442378
:103E400001F1D0E08091F10090E0982F8827209137
:103E5000F100822B84DF8091600190916101A0913B
:103E60006201B09163010196A11DB11D80936001B3
:103E700090936101A0936201B0936301DE5FDC1750
:103E800008F38091E8008B778093E80096CF8091CB
:103E9000500190915101A0915201B0915301805471
:103EA0009109A109B1098093500190935101A09308
:103EB0005201B093530180911C01C0E48111C1CF24
:103EC000D0E08091F1002EDF80916001909161013E
:103ED000A0916201B09163010196A11DB11D809373
:103EE000600190936101A0936201B0936301DF5F71
:103EF000DC1738F38091E8008B778093E8005DCF82
:103F00008091600190916101A0916201B091630183
:103F1000B695A795979587958093600190936101D9
:103F2000A0936201B09363013FCF4111C9CFA9CFE4
:103F300083B186FB882780F908958FB183FB88279A
:103F400080F908958FB182FB882780F908958FB199
:103F50008695817008954F925F926F927F928F92B3
:103F60009F92AF92BF92CF92DF92EF92FF920F9308
:103F70001F93CF93DF9381E08093E900A0907E01AF
:103F8000B0907F0180917A0190917B01A80EB91EBB
:103F9000C0908201D090830180917C0190917D013D
:103FA000C80ED91E8091500190915101A0915201EB
:103FB000B0915301892B8A2B8B2B09F4D9C18091A5
:103FC00070018111B9C0809180019091810160914F
:103FD0008201709183010E94593B6C9D70016D9D1F
:103FE000F00C7C9DF00C1124809180019091810156
:103FF00060918201709183010E94593B8C010E0DEA
:104000001F1DA016B10609F473C0EC0CFD1C09C0FD
:10401000C7018C0D9D1D8701EA14FB0409F468C0DB
:104020007C01C0918201D0918301809180019091A7
:10403000810160918201709183010E94593BC81BEC
:10404000D90BCE01A0E0B0E0409150015091510158
:104050006091520170915301481759076A077B0715
:1040600058F48091500190915101A0915201B0916A
:104070005301EC01AA27BB274091500150915101F7
:1040800060915201709153013A014B01681A790A0B
:104090008A0A9B0A609250017092510180925201EB
:1040A000909253014091760150917701609178018F
:1040B00070917901E0912501F09126019E01C801DE
:1040C00009958091800190918101C80FD91FD093EB
:1040D0008101C09380018091500190915101A09184
:1040E0005201B0915301892B8A2B8B2B09F090CF71
:1040F000209180013091810180917E0190917F011A
:104100002817390709F04ECF1092810110928001D3
:104110008091760190917701A0917801B091790119
:104120000196A11DB11D8093760190937701A09314
:104130007801B093790136CF80917001813009F414
:104140005BC080917001823009F02CCF809180019A
:1041500090918101E501C81BD90BCE01A0E0B0E030
:104160004091500150915101609152017091530161
:10417000481759076A077B0708F00DC140905001A6
:104180005090510160905201709053018091500104
:1041900090915101A0915201B0915301B301A2013C
:1041A00066277727841B950BA60BB70B80935001CE
:1041B00090935101A0935201B09353014091760125
:1041C000509177016091780170917901809180011F
:1041D00090918101E0912501F091260192010995CC
:1041E000C419D50909F4FFC0C5018C1B9D0B909320
:1041F000810180938001D6CE8091800190918101D0
:1042000060917C0170917D010E94593B6F5F7F4FEF
:104210006C9D70016D9DF00C7C9DF00C1124209123
:104220007C0130917D0180918001909181016091AC
:104230007C0170917D010E94593B8C01021B130B84
:104240000E0D1F1D80918201909183014801881AF3
:10425000990AA814B90409F47EC0EC0CFD1C14C022
:1042600080917C0190917D018701081B190B809141
:10427000820190918301EC0CFD1C4801881A990A77
:10428000A814B90409F467C0C0917C01D0917D01E4
:10429000809180019091810160917C0170917D01FC
:1042A0000E94593BC81BD90BCE01A0E0B0E0409161
:1042B0005001509151016091520170915301481782
:1042C00059076A077B0758F480915001909151017A
:1042D000A0915201B0915301EC01AA27BB27409154
:1042E00050015091510160915201709153013A0176
:1042F0004B01681A790A8A0A9B0A609250017092EF
:104300005101809252019092530140917601509157
:1043100077016091780170917901E0912501F09128
:1043200026019E01C801099580918001909181012B
:10433000C80FD91FD0938101C09380018091500193
:1043400090915101A0915201B0915301892B8A2B78
:104350008B2B09F085CF20918001309181018091D4
:104360007A0190917B012817390709F01BCECCCE3A
:1043700010926C01DF91CF911F910F91FF90EF9000
:10438000DF90CF90BF90AF909F908F907F906F9075
:104390005F904F900895409150015091510160916C
:1043A0005201709153018A019B01081B190B2A0BC2
:1043B0003B0B009350011093510120935201309315
:1043C000530140917601509177016091780170918D
:1043D00079018091800190918101E0912501F09116
:1043E00026019E0109958091760190917701A09117
:1043F0007801B09179010196A11DB11D80937601DC
:1044000090937701A0937801B09379011092810184
:1044100010928001C7CDCF92DF92EF92FF92CF939F
:10442000DF9382E08093E9008091500190915101E7
:10443000A0915201B0915301892B8A2B8B2B09F447
:1044400091C0C0E0D0E066C0C0917E01D0917F01F4
:104450002091800130918101C21BD30B6E01E12CB0
:10446000F12C409150015091510160915201709195
:1044700053014C155D056E057F0558F4C090500141
:10448000D0905101E0905201F0905301E601EE24EA
:10449000FF244091760150917701609178017091ED
:1044A0007901E0913001F09131019E0109958091EF
:1044B000760190917701A0917801B09179010196F0
:1044C000A11DB11D8093760190937701A09378018F
:1044D000B09379018091500190915101A0915201C6
:1044E000B09153018C199D09AE09BF098093500109
:1044F00090935101A0935201B093530180915001C8
:1045000090915101A0915201B0915301892B8A2BB6
:104510008B2B41F18091800190918101209170015C
:10452000222309F491CF20917001213081F0209154
:104530007001223009F08CCFC0917E01D0917F01B3
:1045400020917A0130917B01C20FD31F81CFC0919E
:104550007A01D0917B0120917E0130917F01820F01
:10456000931F76CF10926C01DF91CF91FF90EF9067
:10457000DF90CF900895CF92DF92EF92FF92CF938A
:104580008AE18A95F1F700C080EBC82E81E7D82E2A
:104590008BE0E82EF12CC8E009C08C2F8A95F1F74A
:1045A00081E0C81AD108E108F10859F0E0911E0134
:1045B000F0911F010995882381F385E08A95F1F731
:1045C0000000CF91FF90EF90DF90CF900895882367
:1045D000E1F1813009F452C0823009F47AC08330AD
:1045E00051F55E9A8091710190917201A0917301D1
:1045F000B091740187608093710190937201A093D0
:104600007301B09374018091710190917201A09136
:104610007301B09174018B7FBB27809371019093DC
:104620007201A0937301B093740187EA9FE19093A4
:104630001F0180931E016091710170917201809140
:104640007301909174010C947402809171019091A6
:104650007201A0917301B091740187608093710120
:1046600090937201A0937301B09374015E9888E9EE
:104670009FE190931F0180931E01DDCF5E9A809190
:10468000710190917201A0917301B09174018760E2
:104690008093710190937201A0937301B0937401A0
:1046A0008091710190917201A0917301B091740198
:1046B0008E7FBB278093710190937201A093730149
:1046C000B09374018DE99FE190931F0180931E01C7
:1046D000B2CF5E9A8091710190917201A0917301A5
:1046E000B091740187608093710190937201A093DF
:1046F0007301B09374018091710190917201A09146
:104700007301B09174018D7FBB27809371019093E9
:104710007201A0937301B093740182EA9FE19093B8
:104720001F0180931E0187CF8093750140931D0167
:104730008FEF82B911B887B92F9A8BEA9FE19093D6
:104740002E0180932D018BE092E2909324018093BF
:10475000230182E394E290933A01809339015A98BD
:104760005B9826988398829881982E9A8B9A8A9A39
:10477000899A80E490E0A0E0B0E08093710190938A
:104780007201A0937301B09374018BEB92E290934A
:104790003701809336018FE39FE10197F1F700C065
:1047A000000080911D0113CF90911001992321F0F9
:1047B000109210019FEF91B982B95B9A82E0982F15
:1047C0009A95F1F75D9894E09A95F1F75D9A8A953C
:1047D000F1F75B9808955A9A8823F9F0FB0181500C
:1047E000282F30E02F5F3F4F260F371F6FEF54E029
:1047F00042E0819190911001992319F010921001DB
:1048000061B982B95D98852F8A95F1F75D9A842FF9
:104810008A95F1F7E217F30761F75A988AE18A95CA
:10482000F1F700C0089520911001211106C021E088
:10483000209310012FEF22B911B8009791F0FB01DE
:10484000AB01480F591F22E02F98922F9A95F1F74C
:1048500090B191932F9A922F9A95F1F7E417F5075B
:1048600099F708950F931F93CF93DF9300D000D053
:1048700000D0CDB7DEB78C011E828FEF95DF8FE9B8
:104880009FE00197F1F700C0000080E98DDFBE01D5
:104890006A5F7F4F81E09FDFBE016F5F7F4F85E0E2
:1048A00090E0C1DF85E0FE013196D80101900D92C4
:1048B0008A95E1F78FEF78DF26960FB6F894DEBF82
:1048C0000FBECDBFDF91CF911F910F910895CF9271
:1048D000DF92EF92FF92CF93DF931F92CDB7DEB7B7
:1048E00019828CEE61DFBE016F5F7F4F81E073DF65
:1048F0008FE99FE00197F1F700C00000609102018D
:104900007091030180E091E08EDF80E091E0A0E013
:10491000B0E08093500190935101A0935201B09365
:10492000530181E08093E90030E004C08091E80009
:1049300080FD16C08091500190915101A0915201CB
:10494000B0915301892B8A2B8B2B81F710926C012C
:104950000F90DF91CF91FF90EF90DF90CF9008956F
:104960008091500190915101A0915201B091530159
:1049700081349105A105B105B8F5C0905001D090E2
:104980005101E0905201F09053014C2D8091500163
:1049900090915101A0915201B09153018C1991094C
:1049A000A109B1098093500190935101A093520144
:1049B000B0935301CC2071F1832F91E0980FE091D7
:1049C0000201F0910301E80FF11D80818093F10055
:1049D000892F292F231B241780F38091E8008E77DD
:1049E0008093E800392FA6CF80915001909151011A
:1049F000A0915201B091530180549109A109B109CC
:104A00008093500190935101A0935201B0935301B0
:104A100040E4D2CF932FE1CFCF92DF92EF92FF927B
:104A2000CF93DF931F92CDB7DEB78AE18A95F1F776
:104A300000C080E7B9DE8FEAC82E81E7D82E8BE070
:104A4000E82EF12C06C081E0C81AD108E108F1086F
:104A500099F0BE016F5F7F4F81E090E0E4DE8981D5
:104A600086FFF1CF80E0A0DE0F90DF91CF91FF9025
:104A7000EF90DF90CF9008958FEF96DE0F90DF914B
:104A8000CF91FF90EF90DF90CF900895CF93DF9379
:104A90001F92CDB7DEB780E787DEBE016F5F7F4F25
:104AA00081E090E0C0DE80E07FDE89810F90DF91C1
:104AB000CF910895CF93DF9300D000D01F92CDB750
:104AC000DEB789839A834B835C836D8380918401F5
:104AD000BE016F5F7F4F7FDE8AE18A95F1F700C0EC
:104AE0000F900F900F900F900F90DF91CF9108953E
:104AF000BF92CF92DF92EF92FF920F931F93CF93CB
:104B0000DF9300D000D01F92CDB7DEB77C01B42E6A
:104B1000C52ED62E8901E11482E0F80608F081C086
:104B2000F0FC76C080E040DEE982BA82CB82DC8293
:104B300080918401BE016F5F7F4F4DDE8AE18A95CF
:104B4000F1F700C081E0809310018FEF82B911B8B6
:104B5000E0913601F091370109950115110591F1A8
:104B600080E4C82E8091E80080FFFCCF8091F200A5
:104B70009091F300EC2CE81AF12C0E151F0508F4A7
:104B80007801DE2C6091020170910301C7014BDEB8
:104B9000EE2071F080E090E0E0910201F0910301DD
:104BA000E80FF91F20812093F10001968D15A0F3E5
:104BB0008091F2009091F3008034910561F10E191B
:104BC0001F0981F68091500190915101A0915201ED
:104BD000B0915301892B8A2B8B2B59F48091F200D1
:104BE0009091F300892B29F08091E8008E778093D3
:104BF000E8000F900F900F900F900F90DF91CF91E2
:104C00001F910F91FF90EF90DF90CF90BF9008958C
:104C100081E0CADD89CF8091E8008E778093E8003B
:104C2000CECF80E5C1DD80CFCF92DF92EF92FF92B1
:104C30000F931F93CF93DF93EC016A017B018901EE
:104C400080E0B2DDB701A601CE0134DF80E3ACDD48
:104C500081E0809310018FEF82B911B8E0913601A5
:104C6000F091370109950115110589F1D0E4809182
:104C7000E80080FFFCCF8091F2009091F300ED2ED0
:104C8000E81AF12C0E151F0508F47801CE2D60915D
:104C9000020170910301C701C6DDEE2071F080E0D2
:104CA00090E0E0910201F0910301E80FF91F2081EB
:104CB0002093F10001968C17A0F38091F20090915F
:104CC000F3008034910519F10E191F0981F68091C6
:104CD000500190915101A0915201B0915301892B43
:104CE0008A2B8B2B59F48091F2009091F300892B41
:104CF00029F08091E8008E778093E800DF91CF91D2
:104D00001F910F91FF90EF90DF90CF9008958091C9
:104D1000E8008E778093E800D7CFBF92CF92DF92E2
:104D2000EF92FF920F931F93CF93DF9300D000D0A9
:104D30001F92CDB7DEB78C01B42EC52ED62E7901C9
:104D4000011582E0180708F067C010FD48C080E038
:104D50002BDD85E38A95F1F7000080E825DD0983E6
:104D6000BA82CB82DC8280918401BE016F5F7F4F6B
:104D700032DD8AE18A95F1F700C091E0E114F10497
:104D800089F18091E80085FFFCCF8091E80082FFE7
:104D9000F5CF4091F2005091F3005527E416F50647
:104DA00008F4A701342F442361F080E02091F10042
:104DB00022B95D98292F2A95F1F75D9A8F5F3813F4
:104DC000F5CF2091F2003091F300232B29F480914C
:104DD000E8008B778093E800E41AF50ACFCF81E0F2
:104DE000E3DCB7CF80E1E0DC8AE18A95F1F700C02F
:104DF000E0913601F091370109950F900F900F90D7
:104E00000F900F90DF91CF911F910F91FF90EF9036
:104E1000DF90CF90BF90089580E5C6DC9ACFCF9207
:104E2000DF92EF92FF920F931F93CF93DF938C014A
:104E30006A017B01E90180E8B7DCB701A601C8017E
:104E400039DE91E0209771F18091E80085FFFCCF79
:104E50008091E80082FFF6CF4091F2005091F3007C
:104E60005527C417D50708F4AE01342F442361F049
:104E700080E02091F10022B95D98292F2A95F1F761
:104E80005D9A8F5F3813F5CF2091F2003091F300D7
:104E9000232B29F48091E8008B778093E800C41BD2
:104EA000D50BD0CF80E180DC8AE18A95F1F700C094
:104EB000E0913601F0913701DF91CF911F910F9171
:104EC000FF90EF90DF90CF900994CF93DF9300D0C5
:104ED0001F92CDB7DEB780E667DC85E08A95F1F7F3
:104EE0008091760190917701A0917801B09179013C
:104EF00089838091760190917701A0917801B0919A
:104F000079019A838091760190917701A09178013F
:104F1000B0917901AB8380918401BE016F5F7F4FB7
:104F2000815059DC80ED40DCE0913601F091370191
:104F300009950F900F900F90DF91CF910895CF9327
:104F4000DF9300D01F92CDB7DEB780E62DDC8091D5
:104F5000760190917701A0917801B0917901807CE0
:104F600089838091760190917701A0917801B09129
:104F700079019A838091760190917701A0917801CF
:104F8000B0917901AB8380918401BE016F5F7F4F47
:104F9000825021DC80ED08DCE0913601F091370190
:104FA00009950F900F900F90DF91CF91089527EB07
:104FB00024B92BEB25B92FEF2AB923E62BB900979B
:104FC00041F08130910531F18230910549F103972B
:104FD00029F180E06830710549F06430710539F0DD
:104FE0006230710569F061307105B1F080689DB57E
:104FF00087FD0AC09E7F9DBD8F7780658CBD08951B
:1050000081689DB587FFF6CF91609DBD8F778065E4
:105010008CBD089584E0DECF8160E9CF8CE0DACFEB
:1050200088E0D8CF87EB84B98BEB85B98FEF8AB94D
:1050300083E68BB9089582E08093E90004C08091F3
:10504000E80082FD0FC08091500190915101A09124
:105050005201B0915301892B8A2B8B2B81F710922F
:105060006C0108958091500190915101A0915201DD
:10507000B091530181349105A105B10578F54091B6
:105080005001509151016091520170915301242FB0
:105090008091500190915101A0915201B091530122
:1050A000841B9109A109B10980935001909351018A
:1050B000A0935201B0935301442351F080E09091AA
:1050C000F1009EBD0DB407FEFDCF8F5F8217B8F3D0
:1050D0008091E8008B778093E800B5CF80915001F4
:1050E00090915101A0915201B091530180549109C6
:1050F000A109B1098093500190935101A0935201ED
:10510000B093530120E4DACFCF93DF931F92CDB752
:10511000DEB781E08093E90004C08091E80080FD63
:1051200016C08091500190915101A0915201B0910F
:105130005301892B8A2B8B2B81F78091540181118C
:10514000289A10926C010F90DF91CF9108951EBCA8
:105150008091500190915101A0915201B091530161
:1051600081349105A105B10598F180E489832981F5
:105170008091500190915101A0915201B091530141
:10518000821B9109A109B1098093500190935101AB
:10519000A0935201B09353018981823068F08981D4
:1051A000815089830DB407FEFDCF8EB58EBD8093EF
:1051B000F1008981823098F70DB407FEFDCF8EB5DE
:1051C0008093F1008091E8008E778093E800A9CF6A
:1051D0008091500190915101A0915201B0915301E1
:1051E000C5CF80915A018EBD0DB407FEFDCF8091D1
:1051F0006601843041F180916601833009F45FC01B
:1052000080916601823009F486C080916601813008
:1052100009F49EC020915E0130915F018091600190
:1052200090916101A0916201B0916301820F931F7F
:10523000A11DB11D8093600190936101A093620153
:10524000B093630108958091600190916101A091F4
:105250006201B09163018B2F9927AA27BB278EBDCE
:105260000DB407FEFDCF8091600190916101A09186
:105270006201B0916301CD01AA27BB278EBD0DB499
:1052800007FEFDCF8091600190916101A0916201C4
:10529000B0916301892F9A2FAB2FBB278EBD0DB420
:1052A00007FEFDCF8091600190916101A0916201A4
:1052B000B09163018EBD0DB407FEFDCFABCF8091E1
:1052C000600190916101A0916201B0916301CD01F3
:1052D000AA27BB278EBD0DB407FEFDCF80916001CC
:1052E00090916101A0916201B0916301892F9A2F81
:1052F000AB2FBB278EBD0DB407FEFDCF80916001A3
:1053000090916101A0916201B09163018EBD0DB4D5
:1053100007FEFDCF7FCF8091600190916101A09148
:105320006201B0916301892F9A2FAB2FBB278EBDED
:105330000DB407FEFDCF8091600190916101A091B5
:105340006201B09163018EBD0DB407FEFDCF62CF47
:105350008091600190916101A0916201B09163011F
:105360008EBD0DB407FEFDCF55CF80916601843010
:1053700081F080916601833009F447C08091660115
:10538000823009F46EC080916601813009F486C0D4
:1053900008958091600190916101A0916201B091A6
:1053A00063018B2F9927AA27BB278EBD0DB407FE5B
:1053B000FDCF8091600190916101A0916201B09157
:1053C0006301CD01AA27BB278EBD0DB407FEFDCF1B
:1053D0008091600190916101A0916201B09163019F
:1053E000892F9A2FAB2FBB278EBD0DB407FEFDCFA3
:1053F0008091600190916101A0916201B09163017F
:105400008EBD0DB407FEFDCF08958091600190918F
:105410006101A0916201B0916301CD01AA27BB2770
:105420008EBD0DB407FEFDCF8091600190916101AA
:10543000A0916201B0916301892F9A2FAB2FBB27F6
:105440008EBD0DB407FEFDCF80916001909161018A
:10545000A0916201B09163018EBD0DB407FEFDCF36
:1054600008958091600190916101A0916201B091D5
:105470006301892F9A2FAB2FBB278EBD0DB407FE7A
:10548000FDCF8091600190916101A0916201B09186
:1054900063018EBD0DB407FEFDCF089580916001BC
:1054A00090916101A0916201B09163018EBD0DB434
:1054B00007FEFDCF0895289880916E018EBD0DB432
:1054C00007FEFDCF289A089528980895289A0895F0
:1054D000CF93DF9300D000D01F92CDB7DEB71982F3
:1054E0001A821B821C82809164018823D9F028983B
:1054F000809164018EBD0DB407FEFDCF3AE13A956F
:10550000F1F700C09FEF9EBD0DB407FEFDCF8EB535
:105510008D838D81881F8827881F8D838D818823A7
:1055200091F3289A2898809165018EBD0DB407FEED
:10553000FDCF2FEF85E08A95F1F7000089819A81F0
:10554000AB81BC810196A11DB11D89839A83AB8378
:10555000BC8389819A81AB81BC8180319742A1054E
:10556000B10549F02EBD0DB407FEFDCF8EB58D837C
:105570008D8180FDDFCF289A0F900F900F900F90B4
:105580000F90DF91CF910895CF92DF92EF92FF922B
:105590000F931F9382E08093E90000E010E09801F0
:1055A00004C08091E80082FD16C080915001909166
:1055B0005101A0915201B0915301892B8A2B8B2B61
:1055C00081F710926C01289A1F910F91FF90EF9034
:1055D000DF90CF907DCF8091F2009091F3008823EF
:1055E00009F467C09091F1000DB407FEFDCF9EBD98
:1055F000482F50E060E070E0C0905001D090510121
:10560000E0905201F0905301C416D506E606F70665
:1056100060F440915001509151016091520170919C
:105620005301842F552766277727C0905001D090CB
:105630005101E0905201F0905301C41AD50AE60AD4
:10564000F70AC0925001D0925101E0925201F092BB
:105650005301040F151F261F371F813049F0909109
:10566000F10081500DB407FEFDCF9EBD8130B9F72A
:105670008091E8008B778093E80080915E019091A3
:105680005F01A0E0B0E0081719072A073B0709F0FF
:105690008CCF8091500190915101A0915201B09115
:1056A0005301892B8A2B8B2B51F400E010E09801D9
:1056B0007CCF8091E8008B778093E80076CF289AA2
:1056C00007DF289880916E018EBD0DB407FEFDCFD7
:1056D000289A289880915A018EBD0DB407FEFDCFFF
:1056E00080916601843059F180916601833009F41C
:1056F0008CC080916601823009F46AC08091660195
:10570000813009F458C020915E0130915F01809191
:10571000600190916101A0916201B0916301820FDB
:10572000931FA11DB11D8093600190936101A0930F
:105730006201B093630100E010E0980136CF8091E0
:10574000600190916101A0916201B09163018B2F82
:105750009927AA27BB278EBD0DB407FEFDCF8091E8
:10576000600190916101A0916201B0916301CD014E
:10577000AA27BB278EBD0DB407FEFDCF8091600127
:1057800090916101A0916201B0916301892F9A2FDC
:10579000AB2FBB278EBD0DB407FEFDCF80916001FE
:1057A00090916101A0916201B09163018EBD0DB431
:1057B00007FEFDCFA8CF8091600190916101A0917B
:1057C0006201B09163018EBD0DB407FEFDCF9BCF8A
:1057D0008091600190916101A0916201B09163019B
:1057E000892F9A2FAB2FBB278EBD0DB407FEFDCF9F
:1057F0008091600190916101A0916201B09163017B
:105800008EBD0DB407FEFDCF7ECF809160019091DB
:105810006101A0916201B0916301CD01AA27BB276C
:105820008EBD0DB407FEFDCF8091600190916101A6
:10583000A0916201B0916301892F9A2FAB2FBB27F2
:105840008EBD0DB407FEFDCF809160019091610186
:10585000A0916201B09163018EBD0DB407FEFDCF32
:1058600052CFCF93DF931F92CDB7DEB728988091A8
:1058700065018EBD0DB407FEFDCF22E09FEF822FA4
:105880008A95F1F79EBD0DB407FEFDCF8EB58983D5
:10589000898180FDF4CF289A0F90DF91CF910895F0
:1058A000CF92DF92EF92FF92CF93DF9382E08093CB
:1058B000E90021E004C08091E80085FD14C08091DA
:1058C000500190915101A0915201B0915301892B47
:1058D0008A2B8B2B81F7289ADF91CF91FF90EF9045
:1058E000DF90CF9008958091E80082FFE8CF80910B
:1058F000500190915101A0915201B0915301813416
:105900009105A105B10508F0D5C0C0905001D09017
:105910005101E0905201F0905301DC2DCC2009F4AC
:10592000EDC0DD24EE24FF24C0E0289880915A01C8
:105930008EBD0DB407FEFDCF211134C08091F10062
:105940008EBD0DB407FEFDCF289A8BDFCF5F20E020
:10595000CD1758F38091500190915101A0915201BF
:10596000B09153018C199D09AE09BF098093500174
:1059700090935101A0935201B09353018091500133
:1059800090915101A0915201B0915301892B8A2B22
:105990008B2B11F410926C018091E8008B7780932F
:1059A000E8008DCF809166018430E1F0809166013E
:1059B000833009F453C080916601823009F481C0BC
:1059C00080916601813009F0B9CF8091600190919A
:1059D0006101A0916201B09163018EBD0DB407FE1B
:1059E000FDCFACCF8091600190916101A0916201E7
:1059F000B09163018B2F9927AA27BB278EBD0DB4C9
:105A000007FEFDCF8091600190916101A09162013C
:105A1000B0916301CD01AA27BB278EBD0DB407FE4F
:105A2000FDCF8091600190916101A0916201B091E0
:105A30006301892F9A2FAB2FBB278EBD0DB407FEB4
:105A4000FDCF8091600190916101A0916201B091C0
:105A500063018EBD0DB407FEFDCF70CF8091600154
:105A600090916101A0916201B0916301CD01AA27DB
:105A7000BB278EBD0DB407FEFDCF809160019091D4
:105A80006101A0916201B0916301892F9A2FAB2F20
:105A9000BB278EBD0DB407FEFDCF809160019091B4
:105AA0006101A0916201B09163018EBD0DB407FE4A
:105AB000FDCF44CFE0E4CE2ED12CE12CF12CD0E46C
:105AC00033CF8091600190916101A0916201B0910A
:105AD0006301892F9A2FAB2FBB278EBD0DB407FE14
