:1000000053C200006EC200006CC200006AC2000051
:1000100068C2000066C2000064C2000062C2000044
:1000200060C200005EC200000C9444195AC2000075
:1000300058C2000056C2000054C2000052C2000064
:1000400050C200004EC200004CC200004AC2000074
:1000500048C2000046C2000044C2000042C2000084
:1000600040C200003EC200003CC200003AC2000094
:1000700038C2000036C2000034C2000032C20000A4
:1000800030C200002EC200002CC200002AC20000B4
:1000900028C2000026C20000001BC91A311AC91A62
:1000A000311AA81A821A311A6F1A4F1AF034E6342C
:1000B000DA34623462346234623462346234623418
:1000C000D53462346234623462346234623462340D
:1000D000A7349B346234623462345B3662346234F7
:1000E0006234623462346234623462346234623460
:1000F00046367A3462346234623462346234623452
:10010000623462346234623462346234E7357034AB
:100110006634B93593356F356A351638F637343667
:10012000FC3595398B396234623462341E35703453
:10013000663435390A39893670366234623462344D
:100140006234623462346234623462341337D536D6
:1001500097368B36E437C3379B373B348537753753
:100160003C37623462346234623429376234623438
:1001700062346234FA38EA38DD386234CA386234BC
:100180009538603831381838623462347A396239D7
:100190005F355435493562346234623462346234D6
:1001A000623462346234623462343D352A358534D7
:1001B000623462346234623462346234623462348F
:1001C000623462346234623462346234623462347F
:1001D000623462346234623462346234623462346F
:1001E000623462346234623462346234623462345F
:1001F000623462346234623462346234623462344F
:10020000623462346234623462346234623462343E
:10021000623462346234623462346234623462342E
:100220006234623462346234623462341035FC34D5
:10023000C7356234623462346234623462346234A8
:1002400062346234623462346234623462346234FE
:1002500062346234623462346234623462346234EE
:1002600062346234623462346234623462346234DE
:1002700062346234E53500000202020A0A2A1A06D4
:1002800006061616563607000101010505150D0371
:1002900003030B0B2B1B030300000002020A0601E1
:1002A00001010505150D1F03070000010105030FDE
:1002B0000F0F2F2FAF6F1F03070700010105030F5B
:1002C0000F0F2F2FAF6F0F01030302000002010772
:1002D0000707171757371F03070701050001030F0B
:1002E0000F0F2F2FAF6F0F01030300020200010752
:1002F0000707171757370700010101050515000308
:1003000003030B0B2B1B01010505051515553500C6
:10031000000002020A061F03070707171757370FC7
:100320000000010105031F03070707171757370FC1
:100330000F00010105030F010303030B0B2B1B0728
:100340000702000002011F03070707171757370F9F
:100350000F01050001030F010303030B0B2B1B0708
:1003600007000202000107000101010505150D0348
:1003700003030B0B2B000001020304040506050315
:100380000405050607060300010203030405040231
:10039000030404050605020300010202030403012D
:1003A0000203030405040503030001010203020420
:1003B00005060607080705030304000102030204FB
:1003C00005060607080704020203030001020103F1
:1003D00004050506070605030304020300010204E1
:1003E00005060607080704020203010203000103D1
:1003F00004050506070603010102030304050002C4
:1004000003040405060501020304050506070600AA
:10041000010202030403050303040505060706049D
:100420000001010203020503030405050607060493
:100430000500010203020402020304040506050389
:100440000403000102010503030405050607060471
:100450000502030001020402020304040506050369
:100460000401020300010301010203030405040265
:10047000030404050600090220000101008064094C
:10048000040000020000000007050202400000070F
:100490000581024000001201000200000040C01669
:1004A000DE0501000000000111241FBEC0E0D2E003
:1004B000DEBFCDBF11E0A0E0B1E0EAE9F4E702C0A1
:1004C00005900D92A830B107D9F721E0A8E0B1E07E
:1004D00001C01D92A83BB207E1F70E94881B0C9453
:1004E0004B3A8ECD0F931F938C01222733270EBDDD
:1004F0000DB407FEFDCF072F182F292F33270EBD70
:100500000DB407FEFDCF6EBD0DB407FEFDCF2C9AD6
:10051000892F9927AA27BB2781BB2C9882E08A952F
:10052000F1F71F910F9108950F931F93CF93DF93CE
:100530008091530190915401A0915501B0915601C1
:100540008093080190930901A0930A01B0930B01D5
:100550008FEF81B98AE08A95F1F782E08093E90014
:1005600004C08091E80082FD13C080914301909106
:100570004401A0914501B0914601892B8A2B8B2B18
:1005800081F710925F01DF91CF911F910F91089534
:100590008091430190914401A0914501B0914601A1
:1005A00081349105A105B10508F057C04091430180
:1005B000509144016091450170914601D42F809182
:1005C000430190914401A0914501B0914601841BE3
:1005D0009109A109B1098093430190934401A0932B
:1005E0004501B0934601442391F1C0E0E09123011D
:1005F000F0912401609108017091090180910A0134
:1006000090910B018B019C010F5F1F4F2F4F3F4FAC
:10061000009308011093090120930A0130930B0104
:1006200009958091F10082B98AE68A95F1F700C0B8
:100630005D988FEE90E00197F1F700C000005D9AA1
:100640009AE09A95F1F700C0CF5FCD1778F28091CC
:10065000E8008B778093E80088CF809143019091E8
:100660004401A0914501B091460180549109A1092E
:10067000B1098093430190934401A0934501B09345
:100680004601D0E4B2CF0F931F93CF93DF938091B5
:10069000530190915401A0915501B0915601B69526
:1006A000A795979587958093080190930901A0934A
:1006B0000A01B0930B018FEF81B987B98AE08A955F
:1006C000F1F782E08093E90004C08091E80082FDA8
:1006D00013C08091430190914401A0914501B091D4
:1006E0004601892B8A2B8B2B81F710925F01DF91BA
:1006F000CF911F910F9108958091430190914401F2
:10070000A0914501B091460181349105A105B10543
:1007100008F05AC040914301509144016091450155
:1007200070914601D42F8091430190914401A09192
:100730004501B0914601841B9109A109B10980933B
:10074000430190934401A0934501B0934601442393
:10075000A9F1C0E0E0912301F0912401609108012A
:100760007091090180910A0190910B018B019C010C
:100770000F5F1F4F2F4F3F4F009308011093090148
:1007800020930A0130930B0109958091F10082B901
:100790008091F10088B98AE68A95F1F700C05D98EA
:1007A0008FEE90E00197F1F700C000005D9A9AE0AB
:1007B0009A95F1F700C0CE5FCD1760F28091E80006
:1007C0008B778093E80085CF80914301909144011D
:1007D000A0914501B091460180549109A109B10948
:1007E0008093430190934401A0934501B093460147
:1007F000D0E4AFCF8091000190910101892B71F07D
:1008000080E090E025E02A95F1F700000196209124
:1008100000013091010182179307A0F3089510920F
:100820000C018FEF81B987B95C9A82E08A95F1F764
:10083000089581E080930C018FEF82B911B888B9D7
:1008400017B85C9882E08A95F1F708950F931F938B
:10085000CF93DF938091530190915401A091550162
:10086000B09156018093080190930901A0930A0169
:10087000B0930B0180912F01883009F48FC08091D3
:100880000C01882309F491C085E38A95F1F70000F3
:1008900081E08093E90004C08091E80080FD13C0EE
:1008A0008091430190914401A0914501B09146018E
:1008B000892B8A2B8B2B81F710925F01DF91CF91CF
:1008C0001F910F9108958091430190914401A0914F
:1008D0004501B091460181349105A105B10508F0AB
:1008E00047C040914301509144016091450170918E
:1008F0004601D42F8091430190914401A09145017C
:10090000B0914601841B9109A109B109809343016B
:1009100090934401A0934501B0934601442311F103
:10092000C0E0E0912301F0912401609108017091F1
:10093000090180910A0190910B018B019C010F5FCD
:100940001F4F2F4F3F4F0093080110930901209331
:100950000A0130930B01099580B18093F100CF5FBC
:10096000CD17F8F28091E8008E778093E80098CF59
:100970008091430190914401A0914501B0914601BD
:1009800080549109A109B1098093430190934401D6
:10099000A0934501B0934601D0E4C2CF8FEF82B956
:1009A00011B884E08A95F1F773CF43DF6DCF0F93D1
:1009B0001F93CF93DF938091530190915401A091A5
:1009C0005501B0915601B695A79597958795809357
:1009D000080190930901A0930A01B0930B01809143
:1009E0002F01893009F492C080910C01882309F409
:1009F00096C085E38A95F1F7000081E08093E900D5
:100A000004C08091E80080FD13C080914301909163
:100A10004401A0914501B0914601892B8A2B8B2B73
:100A200081F710925F01DF91CF911F910F9108958F
:100A30008091430190914401A0914501B0914601FC
:100A400081349105A105B10508F04AC040914301E8
:100A5000509144016091450170914601D42F8091DD
:100A6000430190914401A0914501B0914601841B3E
:100A70009109A109B1098093430190934401A09386
:100A80004501B0934601442329F1C0E0E0912301E0
:100A9000F0912401609108017091090180910A018F
:100AA00090910B018B019C010F5F1F4F2F4F3F4F08
:100AB000009308011093090120930A0130930B0160
:100AC000099580B18093F10086B18093F100CE5FEB
:100AD000CD17E0F28091E8008E778093E80095CF03
:100AE0008091430190914401A0914501B09146014C
:100AF00080549109A109B109809343019093440165
:100B0000A0934501B0934601D0E4BFCF8FEF82B9E7
:100B100011B888B917B884E08A95F1F76ECF89DEED
:100B200068CFCF93DF938091530190915401A091AE
:100B30005501B09156018093080190930901A0934B
:100B40000A01B0930B0180910C01882309F490C035
:100B500085E38A95F1F7000081E08093E90004C005
:100B60008091E80080FD11C0809143019091440183
:100B7000A0914501B0914601892B8A2B8B2B81F7DF
:100B800010925F01DF91CF91089580914301909180
:100B90004401A0914501B091460181349105A10520
:100BA000B10508F04FC0409143015091440160915C
:100BB000450170914601D42F8091430190914401E9
:100BC000A0914501B0914601841B9109A109B10989
:100BD0008093430190934401A0934501B093460153
:100BE000442351F1C0E060910801709109018091A6
:100BF0000A0190910B01E0912301F09124010995E4
:100C000080B18093F10086B18093F100809108015A
:100C100090910901A0910A01B0910B010296A11DCA
:100C2000B11D8093080190930901A0930A01B0932C
:100C30000B01CE5FCD17B8F28091E8008E778093DC
:100C4000E80092CF8091430190914401A091450129
:100C5000B091460180549109A109B10980934301E3
:100C600090934401A0934501B0934601D0E4BACFDC
:100C7000E0DD6ECF0F931F93CF93DF93D82F162F06
:100C8000042FCFEFC1B9C7B98FE780BB11BA0E945B
:100C900040278DB581608DBD80E58CBDD0932F013F
:100CA00081E080930C011092630110925301109225
:100CB00054011092550110925601109208011092A1
:100CC000090110920A0110920B01109222012C9836
:100CD0008AEF93E090932E0180932D015E985C98AB
:100CE0005D9AC8B917B8C2B911B882E792E090937B
:100CF00024018093230180912F01813001F1823002
:100D000071F18330E1F1883009F449C0893009F488
:100D100057C0843009F465C0853009F468C0D63006
:100D200061F08FE39CE90197F1F700C0000087E1D3
:100D3000DF91CF911F910F910895F3D7F2CF2F98A4
:100D400086E294E09093260180932501E0912301AF
:100D5000F091240160E070E0CB010995E2CF2F9A79
:100D600087ED94E09093260180932501E091230183
:100D7000F091240160E070E0CB010995D2CF2F9A69
:100D800081E995E09093260180932501E09123016C
:100D9000F091240160E070E0CB010995C2CF86E2BA
:100DA00094E0909326018093250184E992E090934A
:100DB0001F0180931E0160E070E0CB0193DBB1CF97
:100DC00087ED94E0909326018093250183E493E0DE
:100DD00090931F0180931E0160E070E0CB0182DBE5
:100DE000A0CF402F612F81E00E949F229ACF402FF9
:100DF000612F82E00E949F2294CFCF93DF93D82F60
:100E0000C92F80910C0181110ADDD2B9C8B982E0E5
:100E1000982F9A95F1F75D988A95F1F75D9ADF9191
:100E2000CF9108950F931F9301E010E020E030E090
:100E30000090220104C0000F111F221F331F0A94CB
:100E4000D2F7DC01CB01802B912BA22BB32B8D0190
:100E5000222733270EBD0DB407FEFDCF092F1A2F11
:100E60002B2F33270EBD0DB407FEFDCF8EBD0DB465
:100E700007FEFDCF2C9A8B2F9927AA27BB2781BB72
:100E800081E08A95F1F72C981F910F9108950895AC
:100E90008091000190910101892B81F080E090E028
:100EA000EFE9FFE03197F1F700C0000001962091D3
:100EB0000001309101018217930790F30895E091AA
:100EC0002301F091240165E575E080E090E009954B
:100ED00080E790E092DF80910C018823F9F080B1E7
:100EE00096B187FFECCFE0912301F091240160E0FF
:100EF00070E0CB01099580EF90E07FDFE091230166
:100F0000F091240160E070E0CB0109958FEF90E053
:100F100074DF85E08A95F1F7000008958ADCDFCF61
:100F20008FE99FE00197F1F700C00000E0912301F5
:100F3000F091240165E575E580E090E009958AEA85
:100F400090E05BDFE0912301F09124016AEA7AE20C
:100F500080E090E0099585E590E04FDFE091230186
:100F6000F091240165E575E580E090E0099580E762
:100F700090E043DF04C080B196B187FD09C0809145
:100F80000C018111F8CF55DC80B196B187FFF7CF06
:100F900008958091080190910901A0910A01B091F2
:100FA0000B0120912F01233059F1BC01CD0161507B
:100FB000710981099109E0912301F09124010995BA
:100FC00080910C018823D1F08AE18A95F1F700C065
:100FD00090B185E08A95F1F7000027E833E108C079
:100FE00090B185E08A95F1F700002150310929F090
:100FF00080911B01892787FDF3CF08951ADCE4CF88
:101000008091080190910901A0910A01B0910B0112
:10101000BC01CD016250710981099109CCCF8AE1EF
:101020008A95F1F700C080E693EEA6E1B0E038E0E3
:10103000232F2A95F1F70197A109B10911F01E9903
:10104000F7CF08950F931F93CF93DF93EC01809117
:101050000C01811117C080912F01823009F440C02A
:10106000813009F459C0833079F082E0982F9A9545
:10107000F1F75D988A95F1F75D9ADF91CF911F9115
:101080000F910895CCDBE7CF6091080170910901C1
:1010900080910A0190910B01E0912301F0912401CC
:1010A00009958091080190910901A0910A01B091E0
:1010B0000B010296A11DB11D8093080190930901B7
:1010C000A0930A01B0930B018091F10080931B0162
:1010D00082B98091F10088B988818E5F8883C5CFFD
:1010E000E0912301F09124016091080170910901C0
:1010F00080910A0190910B018B019C010F5F1F4FA2
:101100002F4F3F4F009308011093090120930A01CC
:1011100030930B010995D8CFE0912301F091240180
:10112000609108017091090180910A0190910B0171
:101130008B019C010F5F1F4F2F4F3F4F0093080102
:101140001093090120930A0130930B0109958091B6
:10115000F10080931B0182B988818F5F888385CFDE
:101160001F93CF93DF931F92CDB7DEB780915301CA
:1011700090915401A0915501B091560180930801BE
:1011800090930901A0930A01B0930B0180912F0164
:10119000823009F495C082E08093E90004C0809118
:1011A000E80082FD13C08091430190914401A09119
:1011B0004501B0914601892B8A2B8B2B81F7109228
:1011C0005F010F90DF91CF911F91089580914301AE
:1011D00090914401A0914501B0914601813491055F
:1011E000A105B10508F44BC08091430190914401E1
:1011F000A0914501B091460180549109A109B1091E
:101200008093430190934401A0934501B09346011C
:10121000198210E4E0912301F091240165E575E560
:1012200080E090E009958AEA90E0E7DDE091230113
:10123000F09124016AEA7AE280E090E0099585E580
:1012400090E0DBDDE0912301F091240165E575E597
:1012500080E090E0099580EA90E0CFDDCE01019634
:10126000F1DEE0912D01F0912E0109958981811720
:1012700088F28091E8008B778093E80094CF4091CA
:101280004301509144016091450170914601142F32
:101290008091430190914401A0914501B091460194
:1012A000841B9109A109B1098093430190934401E2
:1012B000A0934501B093460119824111ABCFD9CF1C
:1012C0008091080190910901A0910A01B0910B0150
:1012D000B695A795979587958093080190930901F6
:1012E000A0930A01B0930B0156CF1F93CF93DF93C6
:1012F0001F92CDB7DEB78091530190915401A09118
:101300005501B09156018093080190930901A09373
:101310000A01B0930B0180912F01823009F496C02D
:1013200082E08093E90004C08091E80082FD29C03A
:101330008091430190914401A0914501B0914601F3
:10134000892B8A2B8B2B81F7E0912301F0912401CB
:1013500060E070E0CB0109958FEF90E04EDDE09109
:101360002301F091240160E070E0CB01099580EF4A
:1013700090E043DD10925F010F90DF91CF911F91BC
:1013800008958091430190914401A0914501B0914D
:10139000460181349105A105B105B8F18091430161
:1013A00090914401A0914501B0914601805491096A
:1013B000A109B1098093430190934401A093450191
:1013C000B0934601198210E46091080170910901FF
:1013D00080910A0190910B01E0912301F091240189
:1013E000099580E490E009DDCE0101962BDEE091C5
:1013F0002D01F0912E0109958981811728F38091A3
:10140000E8008B778093E80093CF4091430150919F
:1014100044016091450170914601142F8091430170
:1014200090914401A0914501B0914601841B91091E
:10143000A109B1098093430190934401A093450110
:10144000B093460119824111BFCFD9CF80910801D5
:1014500090910901A0910A01B0910B01B695A79551
:10146000979587958093080190930901A0930A01AD
:10147000B0930B0155CF1F93CF93DF931F92CDB73E
:10148000DEB78091530190915401A0915501B09124
:1014900056018093080190930901A0930A01B0932B
:1014A0000B0180912F01823009F4B5C082E0809356
:1014B000E900E0912301F091240165E575E080E009
:1014C00090E009958AEA90E098DCE0912301F091A0
:1014D00024016AEA72E080E090E0099585E590E0F9
:1014E0008CDCE0912301F091240165E575E080E05A
:1014F00090E0099580E290E080DC04C08091E800F3
:1015000082FD29C08091430190914401A091450141
:10151000B0914601892B8A2B8B2B81F7E091230117
:10152000F091240160E070E0CB01099580E990E042
:1015300064DCE0912301F091240160E070E0CB01D4
:10154000099580E090E059DC10925F010F90DF91E7
:10155000CF911F9108958091430190914401A091F2
:101560004501B091460181349105A105B10590F185
:101570008091430190914401A0914501B0914601B1
:1015800080549109A109B1098093430190934401CA
:10159000A0934501B0934601198210E4E091230124
:1015A000F091240160E070E0CB01099580EA90E0C1
:1015B00024DCCE01019646DDE0912D01F0912E0153
:1015C00009958981811750F38091E8008B7780938A
:1015D000E80098CF4091430150914401609145014A
:1015E00070914601142F8091430190914401A09184
:1015F0004501B0914601841B9109A109B10980936D
:10160000430190934401A0934501B0934601198290
:101610004111C4CFD9CF8091080190910901A091C7
:101620000A01B0910B01B695A79597958795809380
:10163000080190930901A0930A01B0930B0136CFE2
:10164000AF92BF92DF92EF92FF920F931F93CF93CF
:10165000DF931F92CDB7DEB7809153019091540173
:10166000A0915501B0915601809308019093090112
:10167000A0930A01B0930B0180912F01823009F4ED
:1016800082C082E08093E900E0905101F090520125
:1016900000E010E004C08091E80082FD19C0809154
:1016A000430190914401A0914501B0914601892BDD
:1016B0008A2B8B2B81F710925F010F90DF91CF91D6
:1016C0001F910F91FF90EF90DF90BF90AF90089522
:1016D0008091430190914401A0914501B091460150
:1016E00081349105A105B105E8F180E4A82EB12C63
:1016F00040E450E060E070E090E4D92E8091430136
:1017000090914401A0914501B0914601841B950B35
:10171000A60BB70B8093430190934401A09345011E
:10172000B09346010115110509F442C01982DD206C
:1017300031F0CE01019686DC89818D15D0F3809140
:10174000E8008B778093E8000A0D1B1DE016F10678
:1017500009F0A5CFE0912D01F0912E01099500E04F
:1017600010E09DCF8091430190914401A0914501EB
:10177000B0914601D82EAC01BD01552766277727C9
:10178000A82EB12CBBCF8091080190910901A091A6
:101790000A01B0910B01B695A7959795879580930F
:1017A000080190930901A0930A01B0930B0169CF3E
:1017B000E0912301F091240165E575E580E090E07A
:1017C00009958AEA90E019DBE0912301F091240168
:1017D0006AEA7AE280E090E0099585E590E00DDB29
:1017E000E0912301F091240165E575E580E090E04A
:1017F000099580EA90E001DB99CF8F929F92AF929A
:10180000BF92CF92DF92EF92FF920F931F93CF93ED
:10181000DF931F92CDB7DEB78091530190915401B1
:10182000A0915501B0915601809308019093090150
:10183000A0930A01B0930B0180912F01823009F42B
:101840002DC182E08093E900812C912C5401E12C80
:10185000F12C8091430190914401A0914501B091F8
:101860004601892B8A2B8B2B09F408C180914301F7
:1018700090914401A0914501B091460181349105B8
:10188000A105B10508F0F8C0009143011091440191
:101890002091450130914601E114F10409F057C04F
:1018A00080912F01813009F4C6C08091510190913F
:1018B0005201409143015091440160914501709162
:1018C0004601A0E0B0E084179507A607B70708F027
:1018D000A5C0C0905101D0905201D694C794E09019
:1018E0005101F09052018090080190900901A09060
:1018F0000A01B0900B01E0912301F091240165E50C
:1019000075E080E090E009958AEA90E076DAE0916F
:101910002301F09124016AEA72E080E090E00995E9
:1019200085E590E06ADAE0912301F0912401C50198
:10193000B401099585E290E060DAE0912301F0912D
:101940002401C501B4010995C601019756DA802F1B
:1019500090E0E816F90608F4C701182F081B40911B
:101960004301509144016091450170914601481B2B
:10197000590B6109710940934301509344016093ED
:10198000450170934601E81AF90A19828091E8002E
:1019900082FFFCCF112331F0CE01019653DB898108
:1019A0008117D0F3011125C08091E8008B778093D7
:1019B000E8008091430190914401A0914501B091CC
:1019C0004601892B8A2B8B2B21F5E0912301F09185
:1019D0002401C501B401099589E290E00EDAE09195
:1019E0002D01F0912E010995E12CF12C011154CF1C
:1019F00030CF8091430190914401A0914501B09175
:101A00004601892B8A2B8B2B01F3E114F104E9F2B7
:101A100043CFE114F10409F01CCFD7CFC0904301AC
:101A2000D0904401E0904501F0904601F694E7948F
:101A3000D794C79454CF8091510190915201409115
:101A40004301509144016091450170914601A0E02D
:101A5000B0E084179507A607B70748F0C090430188
:101A6000D0904401E0904501F090460138CFC090FD
:101A70005101D090520133CF00E40ECF10925F019C
:101A80000F90DF91CF911F910F91FF90EF90DF901A
:101A9000CF90BF90AF909F908F9008958091080154
:101AA00090910901A0910A01B0910B01B695A795FB
:101AB000979587958093080190930901A0930A0157
:101AC000B0930B01BECEAF92BF92CF92DF92EF9256
:101AD000FF920F931F93CF93DF931F92CDB7DEB783
:101AE0008091530190915401A0915501B0915601FC
:101AF0008093080190930901A0930A01B0930B0110
:101B000080912F01823009F4BBC082E08093E9000C
:101B100004C08091E80082FD1AC080914301909139
:101B20004401A0914501B0914601892B8A2B8B2B52
:101B300081F710925F010F90DF91CF911F910F916C
:101B4000FF90EF90DF90CF90BF90AF90089580917D
:101B50005101909152014091430150914401609193
:101B6000450170914601A0E0B0E084179507A607F3
:101B7000B70708F075C00091510110915201809192
:101B8000430190914401A0914501B0914601801B11
:101B9000910BA109B1098093430190934401A09353
:101BA0004501B0934601C0900801D0900901E09032
:101BB0000A01F0900B0180912F015801813011F042
:101BC000B694A794E0912301F0912401C701B601D6
:101BD000099588EE90E011D985E38A95F1F7000028
:101BE00081E0A81AB10880912F01823009F441C028
:101BF000C701B601E0912301F09124010995C501C7
:101C0000FCD819820115110541F0CE0101961ADAAE
:101C1000898190E080179107C0F380912F01823075
:101C200021F4F694E794D794C794E0912301F091BE
:101C30002401C701B601099580ED90E0DED88091BE
:101C4000F2009091F300811105C08091E8008B773C
:101C50008093E800E0912D01F0912E0109955DCF70
:101C600000914301109144012091450130914601BA
:101C700086CFC701B6019695879577956795BACFB8
:101C80008091080190910901A0910A01B0910B0186
:101C9000B695A7959795879580930801909309012C
:101CA000A0930A01B0930B0130CFCF93DF93EA01E9
:101CB000E0912301F09124010995CE01DF91CF91AC
:101CC0009CC8CF93DF93EA0120912F01223021F4A9
:101CD0009695879577956795E0912301F09124017A
:101CE0000995CE01DF91CF9188C820912F01223034
:101CF00099F0E0912301F0912401099580910C0164
:101D0000811102C00E94190420B186B190E0982F81
:101D10008827820F911D08959695879577956795E9
:101D2000E8CF8FEF81B99FE092B923E027B988B956
:101D300022E530E1309326012093250123E031E1B3
:101D400030933101209330012BE232E130931F01B7
:101D500020931E0124EB31E130932C0120932B01C1
:101D600021E032E130931D0120931C0181B992B929
:101D7000409A5E985D9A08958FEF81B940985E9A77
:101D800081E0982F9A95F1F7409A8A95F1F75E983D
:101D90008FE082B95E9A82E0982F9A95F1F75E986B
:101DA0005E9A982F9A95F1F75E985E9A982F9A9579
:101DB000F1F75E985E9A982F9A95F1F75E985E9A81
:101DC000982F9A95F1F75E9840985E9A982F9A9579
:101DD000F1F75E985E9A8A95F1F75E98089591E220
:101DE00032E041E080B18F705E9A232F2A95F1F79F
:101DF0005E98915049F0242F2A95F1F78111F2CF86
:101E000010920E0181E00895B7DF81E080930E010A
:101E100080E00895982F9F7092B95E9A92E0292FE2
:101E20002A95F1F75E9882958F7082B95E9A892F14
:101E30008A95F1F75E98089520B15E9A92E0892F15
:101E40008A95F1F75E9880B15E9A9A95F1F75E985F
:101E5000982F9295907F822F8F70892B0895CF9223
:101E6000DF92EF92FF920F931F9330910D0131306B
:101E700009F47DC0323039F01F910F91FF90EF903F
:101E8000DF90CF90089541118064AB01BC01606B7D
:101E90007F6F409812B85E9A82E0982F9A95F1F77A
:101EA0005E98409A2F7022B95E9A982F9A95F1F712
:101EB0005E9891E09A95F1F79FE092B95E9A282F8B
:101EC0002A95F1F75E9892B95E9A982F9A95F1F754
:101ED0005E988A019B0194E13695279517950795A1
:101EE0009A95D1F70F7002B95E9A982F9A95F1F7EB
:101EF0005E98962F9F7092B95E9A982F9A95F1F7F7
:101F00005E988A019B01ECE0369527951795079519
:101F1000EA95D1F70F7002B95E9A982F9A95F1F76A
:101F20005E98952F9F7092B95E9A982F9A95F1F7C7
:101F30005E988A019B01F4E03695279517950795E1
:101F4000FA95D1F70F7002B95E9A982F9A95F1F72A
:101F50005E98642F6F7062B95E9A8A95F1F75E9809
:101F60001F910F91FF90EF90DF90CF900895411156
:101F7000806440982F70286022B95E9A22E0322F48
:101F80003A95F1F75E98409A12B85E9A322F3A95D8
:101F9000F1F75E98392F3F7032B95E9A322F3A9539
:101FA000F1F75E986B017C01A4E1F694E794D79475
:101FB000C794AA95D1F73C2D3F7032B95E9A322F63
:101FC0003A95F1F75E98382F3F7032B95E9A322F0A
:101FD0003A95F1F75E986B017C01BCE0F694E794CA
:101FE000D794C794BA95D1F73C2D3F7032B95E9A19
:101FF000322F3A95F1F75E98372F3F7032B95E9ADB
:10200000322F3A95F1F75E986B017C0114E0F6945B
:10201000E794D794C7941A95D1F73C2D3F7032B905
:102020005E9A322F3A95F1F75E986F7062B95E9AB8
:10203000822F8A95F1F75E9812B85E9A2A95F1F789
:102040005E981F910F91FF90EF90DF90CF900895D1
:10205000CF93DF93DFEFD1B925E001DF8FE082B9C5
:102060005E9AC2E08C2F8A95F1F75E9880EF81B975
:102070005E9A8C2F8A95F1F75E98B1DE811104C0CB
:1020800080E0DF91CF910895D7DE5E9A9C2F9A95DC
:10209000F1F75E98D1B95E9ACA95F1F75E98DF9133
:1020A000CF910895CF93DF9381E08093E90004C03E
:1020B0008091E80080FD11C080914301909144011E
:1020C000A0914501B0914601892B8A2B8B2B81F77A
:1020D00010925F01DF91CF9108958091430190911B
:1020E0004401A0914501B091460181349105A105BB
:1020F000B10508F049C040914301509144016091FD
:10210000450170914601D42F809143019091440183
:10211000A0914501B0914601841B9109A109B10923
:102120008093430190934401A0934501B0934601ED
:10213000442321F1C0E060915301709154018091DA
:1021400055019091560141E083DF40915301509138
:10215000540160915501709156014F5F5F4F6F4F71
:102160007F4F4093530150935401609355017093F6
:1021700056018093F100CF5FCD17E8F28091E8001F
:102180008E778093E80098CF80914301909144012D
:10219000A0914501B091460180549109A109B1096E
:1021A0008093430190934401A0934501B09346016D
:1021B000D0E4C0CFCF93DF93C42F422FDFEFD1B94C
:1021C00026E04DDE8C2F26DE8FE082B95E9AC2E0DB
:1021D0008C2F8A95F1F75E9880EF81B95E9A8C2FEB
:1021E0008A95F1F75E98FBDD882351F05E9A9C2F6B
:1021F0009A95F1F75E98D1B95E9ACA95F1F75E9813
:10220000DF91CF9108950F931F93CF93DF938C01AC
:1022100081E080930D0140E060E070E08CEB9FEF87
:1022200017DFC82F40E061E070E08CEB9FEF10DF1C
:10223000D82FCC2311F081111AC082E080930D01B8
:1022400040E060E070E08CEB9FEF02DFC82F40E0E1
:1022500061E070E08CEB9FEFFBDED82FC11105C071
:10226000DF91CF911F910F9108958823C9F320E04A
:1022700040E062E070E080EB9FEF9CDF20E040E018
:1022800062E070E081EB9FEF95DF20E040E062E0EC
:1022900070E082EB9FEF8EDF20E040E062E070E0D4
:1022A00083EB9FEF87DF20E040E062E070E084EBAB
:1022B0009FEF80DF20E040E062E070E085EB9FEF81
:1022C00079DF20E040E062E070E086EB9FEF72DFB4
:1022D00020E040E062E070E087EB9FEF6BDF20E002
:1022E00040E062E070E088EB9FEF64DF20E040E0D8
:1022F00062E070E089EB9FEF5DDF20E040E062E0AC
:1023000070E08AEB9FEF56DF20E040E062E070E093
:102310008BEB9FEF4FDF20E040E062E070E08CEB62
:102320009FEF48DF20E040E062E070E08DEB9FEF40
:1023300041DF20E040E062E070E08EEB9FEF3ADFAB
:1023400020E040E062E070E08FEB9FEF33DFF801C8
:10235000C083D28321E040EF60E070E0CB01DF91E9
:10236000CF911F910F9126CF8F929F92AF92BF92E4
:10237000CF92DF92EF92FF92C0905301D090540120
:10238000E0905501F09056018090530190905401D7
:10239000A0905501B090560121E04AEA65E575E547
:1023A00080E090E007DF21E045E56AEA7AE280E03C
:1023B00090E000DF21E040E865E575E580E090E031
:1023C000F9DE21E04AEA65E575E580E090E0F2DEBD
:1023D00021E045E56AEA7AE280E090E0EBDE8B2CD2
:1023E0009924AA24BB24C701B601992721E0482DCE
:1023F000FF90EF90DF90CF90BF90AF909F908F9025
:10240000D9CE21E04AEA65E575E580E090E0D2DECC
:1024100021E045E56AEA7AE280E090E0CBDE21E067
:1024200040E865E575E580E090E0C4DE21E04AEA39
:1024300065E575E580E090E0BDDE21E045E56AEA0E
:102440007AE280E090E0B6DE21E040E165E575E506
:1024500080E090E0AFCEEF92FF920F931F93CF9367
:10246000DF931F92CDB7DEB782E08093E90004C00E
:102470008091E80082FD16C0809143019091440153
:10248000A0914501B0914601892B8A2B8B2B81F7B6
:1024900010925F010F90DF91CF911F910F91FF90EC
:1024A000EF9008958091430190914401A0914501DE
:1024B000B091460181349105A105B10508F07CC0B9
:1024C0004091430150914401609145017091460152
:1024D000E42E8091430190914401A0914501B09177
:1024E0004601841B9109A109B1098093430190938E
:1024F0004401A0934501B0934601442309F456C01A
:10250000F12C0091F10021E04AEA65E575E580E0F3
:1025100090E050DE21E045E56AEA7AE280E090E072
:1025200049DE21E040EA65E575E580E090E042DEC5
:102530006091530170915401809155019091560121
:1025400021E0402F37DE609153017091540180915A
:1025500055019091560141E07BDD898314E1898129
:10256000081769F0609153017091540180915501F1
:102570009091560141E06CDD8983115081F7809183
:10258000530190915401A0915501B09156010196CB
:10259000A11DB11D8093530190935401A093550147
:1025A000B0935601F394FE1408F4ABCF8091E80089
:1025B0008B778093E80060CF809143019091440134
:1025C000A0914501B091460180549109A109B1093A
:1025D0008093430190934401A0934501B093460139
:1025E00080E4E82E8DCF589859981092B9008CE06D
:1025F0008093B80084E08093BC0080E5809335012F
:10260000089594EA9093BC009091BC0097FFFCCF92
:102610009091B900987F983021F0903111F080E0CE
:1026200008958093BB0084E88093BC008091BC0037
:1026300087FFFCCF8091B900887F883111F080340A
:1026400071F781E0089522E330E044EA54E864E958
:102650004093BC009091BC0097FFFCCF9091B900D3
:10266000987F983039F0903129F02150310981F765
:1026700080E008958093BB005093BC009091BC0013
:1026800097FFFCCF9091B900987F903221F0983558
:1026900011F081E008956093BC009091BC0094FD1E
:1026A000FCCFE3CFCF93C09134018091530190913F
:1026B0005401A0915501B091560120913201220F91
:1026C000220F220F04C0B695A795979587952A9556
:1026D000D2F780FDC26081FDC46082FDC8608C2F8E
:1026E000B2DF8823E9F0809132018230F9F08091E5
:1026F000530190915401A0915501B09156018093DE
:10270000BB0084E88093BC009091BC0097FFFCCF95
:102710008091B90080E5809335018C2FCF91089589
:1027200081E58093350180E0CF9108958091530138
:1027300090915401A0915501B0915601892F9A2F83
:10274000AB2FBB278093BB0084E88093BC008091B3
:10275000BC0087FFFCCF8091B900C9CFFF920F93D7
:102760001F93CF93DF9310925F0182E08093E90083
:10277000C0E014E804E904C08091E80082FD24C0B0
:102780008091430190914401A0914501B09146018F
:10279000892B8A2B8B2B81F7CC2369F084E98093DA
:1027A000BC008091BC0084FDFCCF8FE19EE40197CA
:1027B000F1F700C0000080E580933501DF91CF91F3
:1027C0001F910F91FF9008958091430190914401D2
:1027D000A0914501B091460181349105A105B10553
:1027E00008F045C04091430150914401609145017A
:1027F00070914601F42E8091430190914401A09183
:102800004501B0914601841B9109A109B10980934A
:10281000430190934401A0934501B09346014423A2
:1028200001F1D0E0CC23D1F18091F1008093BB0085
:102830001093BC008091BC0087FFFCCF8091B90051
:10284000C15061F40093BC008091BC0084FDFCCFBA
:102850008FE19EE40197F1F700C00000DF5FDF1514
:1028600008F38091E8008B778093E80089CF80910E
:10287000430190914401A0914501B09146018054DB
:102880009109A109B1098093430190934401A09358
:102890004501B093460180E4F82EC3CF2091330167
:1028A0008091530190915401A0915501B09156012E
:1028B000C091330121508223C81BF4DE8091530163
:1028C00090915401A0915501B09156018C0F911D2A
:1028D000A11DB11D8093530190935401A093550104
:1028E000B093560180913501813509F09DCF8091DB
:1028F000E8008B778093E800DF91CF911F910F91D3
:10290000FF90089510925F0181E08093E900CADE94
:1029100090913501913509F474C08F5F72DE44ECFB
:1029200054E804C08091E80080FD17C08091430105
:1029300090914401A0914501B0914601892B8A2BC9
:102940008B2B81F784E98093BC008091BC0084FDCF
:10295000FCCF80E5809335010895809143019091EB
:102960004401A0914501B091460181349105A10532
:10297000B105F0F58091430190914401A09145018A
:10298000B0914601382F882369F120E080914301FE
:1029900090914401A0914501B09146010197A10594
:1029A000B10541F14093BC008091BC0087FFFCCF92
:1029B0008091BB008093F10080914301909144018C
:1029C000A0914501B09146010197A109B1098093F9
:1029D000430190934401A0934501B09346012F5FBA
:1029E0002317A0F28091E8008E778093E8009ECFB5
:1029F00030E4CBCF5093BC008091BC0087FFFCCF6C
:102A0000D7CF8091E8008E778093E80008951CBCB2
:102A10001092C90080E880BFE4E6F0E080818C621B
:102A20008083E5E6F0E08081816080831092BC00C5
:102A30008DEF84B980E185B90895FC018081809390
:102A4000140181818093130182818093120183811B
:102A500080931101848180931001089584E185B9E8
:102A600025E09FE19695892F880F880F84708061FB
:102A70002B9A85B92150B1F780E185B92B9A94E161
:102A800095B92B9A85B982E080930F010895209122
:102A90000F0190E1299F90011124282B30E0F901CA
:102AA000EA58FC4F4491F901EA58FD4F2491922FC6
:102AB000990F990F9470906195B93FEF340F4423AB
:102AC00051F02695922F990F990F947090612B9A3F
:102AD00095B93150B0F780930F01089580910F019F
:102AE0008B3009F18430D9F0813029F18230F9F04E
:102AF000893049F1833099F0853009F1863031F120
:102B00008730E9F08830B9F08A3069F08C3011F103
:102B10008D3021F18E30F1F08F3069F0089585E02D
:102B200080930F0108958CE080930F01089589E050
:102B300080930F01089582E080930F01089588E04B
:102B400080930F01089510920F01089587E08093FC
:102B50000F0108958FE080930F0108958EE0809318
:102B60000F010895CF92DF92EF92FF926B017C01EB
:102B700081E185B9442311F181E0C81AD108E10847
:102B8000F10811F180E090E0DC0169E151E031E110
:102B900065B9252F2A95F1F735B90196A11DB11D0B
:102BA0008C159D05AE05BF0598F341110DC080E160
:102BB00085B9FF90EF90DF90CF900895C114D104B4
:102BC000E104F104F9F6F3CF85E185B98DE185B92A
:102BD00081E08A95F1F781E185B980DF80E185B9EF
:102BE000FF90EF90DF90CF900895EF92FF920F93B8
:102BF0001F93CF93DF93EC01DB01109761F120E08D
:102C000030E060E070E080E001E010E02F5F3F4FD7
:102C1000FE01E80FF11D90819170A217B30781F1B9
:102C2000906195B92B9A50815695508395B9199B0F
:102C300007C07801072E01C0EE0C0A94EAF76E294E
:102C40007F5F783089F0A217B30701F7772319F077
:102C5000C80FD11D688341110CC0DF91CF911F9126
:102C60000F91FF90EF90089560838F5F60E070E0B8
:102C7000EACFDF91CF911F910F91FF90EF902ECF70
:102C8000442371F29461CDCFBF92CF92DF92EF9245
:102C9000FF920F931F93CF93DF9300D000D0CDB757
:102CA000DEB78C0180E4F80111928A95E9F7D6DE4F
:102CB0008BE0EDDE20E290E24FEF5FEFBA0183B1EF
:102CC000842F8170806185B92B9A85B97695679537
:102CD00057954795915099F7215069F784E0D7DED1
:102CE00030E290E180E223B195B92B9A95B98150F9
:102CF000D1F73150B9F79AE081E041E050E060E06F
:102D000070E0C12CD12C7601199B04C0C42AD52AAD
:102D1000E62AF72A806185B92B9A85B9440F551F99
:102D2000661F771F915080E079F7C114D104E10448
:102D3000F10409F453C0BB24B394F694E794D794F8
:102D4000C794C0FC04C0B394FAE0BF12F6CF80E091
:102D50009EDE8BE09CDE37E090E180E223B195B906
:102D60002B9A95B98150D1F73150B9F78FE19EE494
:102D70000197F1F700C0000083B181E185B92B9A7A
:102D800085B9FF24F39480E193B185B92B9A85B975
:102D900091FD05C0F3949FEFF912F6CFF12C82E07C
:102DA00076DEF801B082F18280E071DE84E06FDED1
:102DB000F12C40E060E270E0CE01019616DF8C81DC
:102DC000F80182838B8183838A81848389818583CF
:102DD000F3940C5F1F4FFB1460F302C080E057DEDA
:102DE0000F900F900F900F90DF91CF911F910F9147
:102DF000FF90EF90DF90CF90BF900895FF920F93D8
:102E00001F93CF93DF93EC018B01F42E8BE03FDE19
:102E1000409113014423D1F050E060E070E081E183
:102E200085B980E090E0DC01F9E1E1E031E1F5B95C
:102E30002E2F2A95F1F735B90196A11DB11D8417E2
:102E40009507A607B70798F380E185B9809112012D
:102E5000811109C04F2DB801CE01DF91CF911F9193
:102E60000F91FF90C2CE40E0B801CE01BEDE60916E
:102E7000120170E080E090E04F2DDF91CF911F9123
:102E80000F91FF906FCEFF920F931F93CF93DF931D
:102E9000EC018B01F42E84E0FADD40911101442312
:102EA000D1F050E060E070E081E185B980E090E031
:102EB000DC01F9E1E1E031E1F5B92E2F2A95F1F7D6
:102EC00035B90196A11DB11D84179507A607B7074F
:102ED00098F380E185B980911001811109C04F2DCF
:102EE000B801CE01DF91CF911F910F91FF907DCE60
:102EF00040E0B801CE0179DE6091100170E080E021
:102F000090E04F2DDF91CF911F910F91FF902ACE2E
:102F100020914101309142012617370750F0611589
:102F2000710579F52091E8002E772093E80020E0E4
:102F300030E0FC0190E00EC0853029F18091E8007E
:102F400083FD23C08091E80082FD15C08091E800D8
:102F500080FD1DC02115310511F4992361F0809188
:102F60003A018111E9CF82E0089580913A018823E6
:102F7000D1F3853041F08091E80082FFF6CF80E008
:102F800008959B01D6CF83E0089581E00895409194
:102F9000F2005091F3002115310519F0403451052C
:102FA00070F091E04034510509F090E08091E80024
:102FB0008E778093E800CECF4034510591F3819114
:102FC0008093F100215031094F5F5F4F211531058A
:102FD00099F7E7CF6115710591F48091E8008B773F
:102FE0008093E80006C080913A018823C1F08530C3
:102FF00069F18091E80080FFF6CF80E00895FC0140
:103000000AC0853019F18091E80083FD21C08091CC
:10301000E80082FD06C080913A018111F2CF82E082
:1030200008958091F2009091F300892B31F0809106
:10303000F100819361507109A1F78091E8008B77CD
:103040008093E8006115710531F7D3CF83E00895CF
:1030500081E0089520914101309142012617370700
:1030600050F06115710579F52091E8002E772093D5
:10307000E80020E030E0FC0190E00EC0853029F14E
:103080008091E80083FD23C08091E80082FD15C097
:103090008091E80080FD1DC02115310511F49923B0
:1030A00061F080913A018111E9CF82E00895809129
:1030B0003A018823D1F3853041F08091E80082FF06
:1030C000F6CF80E008959B01D6CF83E0089581E09C
:1030D00008954091F2005091F3002115310519F047
:1030E0004034510570F091E04034510509F090E012
:1030F0008091E8008E778093E800CECF4034510570
:1031000091F384918093F1003196215031094F5F02
:103110005F4F2115310591F7E6CF873078F5809321
:10312000E900982F242F762F50E00AC09093E900F1
:10313000891751F17091EC002091ED005091F00051
:1031400021FF19C03091EB003E7F3093EB003091AE
:10315000ED003D7F3093ED003091EB003160309316
:10316000EB007093EC002093ED005093F000209161
:10317000EE0027FF07C09F5F9730C1F68093E900FC
:1031800081E0089580E00895242F762F50E0D8CF75
:1031900080913B0187FF05C012C080913A018823CE
:1031A00049F08091E80080FFF8CF8091E8008E77A9
:1031B0008093E800089580913A018823D9F38091A3
:1031C000E80082FFF8CF8091E8008B778093E800D9
:1031D00008950F931F93CF93DF9349D050D0C8ED3C
:1031E000D0E088818F778883888180688883888110
:1031F0008F7D8883E7EDF0E080818068808319BC53
:1032000010923A0110923601109238011092370153
:1032100000EE10E0F80180818B7F808388818160DF
:10322000888342E360E080E078DFE1EEF0E08081D7
:103230008E7F8083E2EEF0E08081816080838081F8
:1032400088608083F80180818E7F8083888180619F
:103250008883DF91CF911F910F910895E7EDF0E002
:1032600080818160808381E080933901B2CFE8ED75
:10327000F0E080818C7F80831092E20008951092AC
:10328000DA001092E10008951F920F920FB60F928C
:1032900011242F933F934F935F936F937F938F935B
:1032A0009F93AF93BF93EF93FF938091E10082FFD1
:1032B00004C08091E20082FD88C08091DA0080FF26
:1032C00004C08091D80080FD6BC08091E10080FF38
:1032D00004C08091E20080FD7FC08091E10084FF06
:1032E00028C08091E20084FF24C088E189BD8AE182
:1032F00089BD09B400FEFDCF8091D8008F7D8093F9
:10330000D8008091E1008F7E8093E1008091E200FF
:103310008F7E8093E2008091E20081608093E200E2
:1033200080913601882309F46CC084E080933A01CF
:10333000DAD18091E10083FF22C08091E20083FF17
:103340001EC08091E100877F8093E10082E080933E
:103350003A01109236018091E1008E7F8093E10066
:103360008091E2008E7F8093E2008091E200806194
:103370008093E20042E360E080E0CFDEB4D1FF91D1
:10338000EF91BF91AF919F918F917F916F915F91DD
:103390004F913F912F910F900FBE0F901F90189556
:1033A0008091DA008E7F8093DA008091D90080FFCF
:1033B0002EC088E189BD8AE189BD09B400FEFDCF38
:1033C00081E080933A018FD180CF8091E1008B7FA3
:1033D0008093E100E4D171CF8091E2008E7F8093F1
:1033E000E2008091E20080618093E2008091D80049
:1033F00080628093D80019BC85E080933A0173D134
:103400006CCF8091E30087FD90CF81E08FCF19BC16
:1034100010923A0168D159CF0F931F93CF93DF9346
:10342000CDB7DEB7AA970FB6F894DEBF0FBECDBFFB
:10343000EBE3F1E023E431E08091F10081932E177A
:103440003F07D1F70E942A348091E80083FF09C02A
:1034500020913B0130913C01832F90E08A3091050F
:10346000C8F08091E80083FF0AC08091EB00806281
:103470008093EB008091E800877F8093E800AA9614
:103480000FB6F894DEBF0FBECDBFDF91CF911F9175
:103490000F910895FC01E45BFF4F0C943E3A21111B
:1034A000E0CF80913D0190913E0199270297CCF6A3
:1034B0008091E800877F8093E80080913D018093B0
:1034C000360166DE80913601811105C18091E300ED
:1034D00087FD01C181E080933A014BD1C2CF2038F2
:1034E00009F0BFCF8091E800877F8093E80080914A
:1034F00036018093F1008091E8008E778093E80098
:1035000047DEAFCF2058223008F0ABCF80913D018D
:1035100090913E018C3D53E0950709F4A8C0AE019F
:103520004F5F5F4F60913F010E940A3ABC01892BB7
:1035300009F497CF9091E800977F9093E8008981F4
:103540009A8188DD8091E8008B778093E80089CFAD
:10355000211187CF10913D011F770FB7F89480910B
:10356000E800877F8093E80013DE8091E80080FF09
:10357000FCCF8091E3008078812B8093E30080680A
:103580008093E300111171C082E080933A010FBF74
:1035900068CF222309F455C0223009F062CF809110
:1035A0003D01811124C080913F01877009F459CFFA
:1035B0008093E9009091EB0090FF19C0333009F43B
:1035C0008CC09091EB0090619093EB0021E030E093
:1035D000A90102C0440F551F8A95E2F74093EA0003
:1035E0001092EA008091EB0088608093EB001092CB
:1035F000E9008091E800877F8093E800C9DD31CF42
:10360000203859F1223809F02CCF80913F01877082
:103610008093E9008091EB0085FB882780F9109268
:10362000E9009091E800977F9093E8008093F10083
:103630001092F1008091E8008E778093E800A8DD79
:1036400010CF80913D01813009F00BCF81E0333004
:1036500009F080E080933801CACF809137019091C2
:1036600038019923F1F28260DCCF83E08ECF83E0D2
:103670008A838AE289835FB7F894DE01139620E09B
:103680003EE041E207C090E0C7968D939D932F5F87
:10369000243181F0E32FF0E040935700849120FF24
:1036A00003C082958F703F5F8F708A3060F790E023
:1036B000C096EBCF5FBF8091E800877F8093E800E2
:1036C0006AE270E0CE01019623DC8091E8008B77FE
:1036D0008093E800C6CE84E0FECE8091EB0080624D
:1036E0008093EB0084CF0895CF9380913A01882393
:1036F00059F0C091E900C7701092E9008091E8008C
:1037000083FD04C0C093E900CF91089585DEFACF10
:1037100004D0789457D0E8DFFDCF84B7877F84BF8B
:103720000FB6F894A895809160008861809360003E
:10373000109260000FBE90E080E80FB6F89480937E
:103740006100909361000FBE52985A9A8DB18B6CB4
:103750008DB98EB183608EB97098779873982FEF7A
:1037600080E792E0215080409040E1F700C00000E7
:1037700075CD42E360E882E0D0DC42E361E881E0BD
:10378000CCDCE2EEF0E08081846080831092430123
:1037900010924401109245011092460108958091C3
:1037A0005001882371F08091160191E0980F909359
:1037B0001601883C30F0109216019EB182E08927F4
:1037C0008EB9089580913A01843009F0089580916E
:1037D0005F01813009F445C080915F01823009F4B6
:1037E00042C080915F01833009F43FC080915F0146
:1037F0008430E9F180915F018530D9F180915F01DA
:103800008B30C9F180915F018C3031F180915F0183
:103810008E30B1F180915F018F3099F180915F011D
:10382000803189F180915F01813171F180915F0177
:10383000883059F180915F01873049F180915F01B3
:10384000893039F180915F01843129F180915F01E4
:10385000853109F0BBCF20C0E0911E01F0911F011E
:1038600009940C94B2270C9449270C94F2290C94D7
:103870007E2B0C94B02CE0912501F0912601099447
:1038800041C80C94AE1399C03FC10C9473300C9492
:1038900000300C94DF307EC740915E01609143019F
:1038A0007091440180914501909146015BD910923D
:1038B000430110924401109245011092460110926A
:1038C0005F0108951CBC87EF84B989E085B98091B8
:1038D0001701813009F008952F9A0895FC01615075
:1038E00021E030E002C0220F331F6A95E2F7211574
:1038F0003105B9F041E00EC02A9A36952795299AEC
:10390000942F9A95F1F72998942F9A95F1F721150C
:10391000310539F0BF0162237323672B69F72A98B9
:10392000ECCF0895289A60916201909162016D5FD9
:10393000925023E130E0A90102C0440F551F9A952F
:10394000E2F7CA01CBDF28980895ECDF289A60914E
:103950006201909162016D5F925022E130E0A90115
:1039600002C0440F551F9A95E2F7CA01B7DF2898A5
:103970000895289A60916201909162016D5F925062
:1039800020E130E0A90102C0440F551F9A95E2F7EB
:10399000CA01A4DF2898089598E080E031E0880FFC
:1039A000299A232F2A95F1F72998232F2A95F1F7A1
:1039B0001B998160915099F708951F93CF93DF93DE
:1039C000289A63E086E090E089DF6091620180914F
:1039D000530190915401A0915501B09156017EDFA1
:1039E00081E08093E900D4E004C08091E80080FD8C
:1039F00013C08091430190914401A0914501B09181
:103A00004601892B8A2B8B2B81F7289810925F0116
:103A1000DF91CF911F9108958091430190914401CE
:103A2000A0914501B091460181349105A105B105F0
:103A300070F58091430190914401A0914501B091AE
:103A40004601182F8823E9F0C0E0A6DF9D2F9A9544
:103A5000F1F78093F1008091430190914401A0918E
:103A60004501B09146010197A109B1098093430135
:103A700090934401A0934501B0934601CF5FC117D5
:103A800020F38091E8008E778093E800B2CF10E4B5
:103A9000DBCFCF93C82F289A63E085E090E01EDF4C
:103AA000609162018091530190915401A091550160
:103AB000B091560113DF68E08C2F90E00FDF28985B
:103AC000289A1B9BFECF2898CF910895CF93DF9320
:103AD000EC01289A63E085E090E000DF60916201EC
:103AE0008091530190915401A0915501B0915601DC
:103AF000F5DE60E1CE01F2DE2898289A1B9BFECF0E
:103B00002898DF91CF910895CF93DF93809117018B
:103B1000813009F4ACC006DF82E08093E90004C084
:103B20008091E80082FD12C0809143019091440190
:103B3000A0914501B0914601892B8A2B8B2B81F7EF
:103B400018DF10925F01DF91CF91089580914301BA
:103B500090914401A0914501B091460181349105B5
:103B6000A105B10508F04AC04091430150914401BC
:103B70006091450170914601C42F8091430190915D
:103B80004401A0914501B0914601841B9109A1090E
:103B9000B1098093430190934401A0934501B093F0
:103BA000460180911701882309F476C0442301F16E
:103BB000D0E08091F10090E0982F88272091F100CB
:103BC000822B84DF8091530190915401A091550183
:103BD000B09156010196A11DB11D809353019093A0
:103BE0005401A0935501B0935601DE5FDC1708F332
:103BF0008091E8008B778093E80096CF8091430115
:103C000090914401A0914501B091460180549109E1
:103C1000A109B1098093430190934401A093450108
:103C2000B093460180911701C0E48111C1CFD0E06B
:103C30008091F1002EDF8091530190915401A09169
:103C40005501B09156010196A11DB11D80935301FC
:103C500090935401A0935501B0935601DF5FDC1798
:103C600038F38091E8008B778093E8005DCF8091F6
:103C7000530190915401A0915501B0915601B69510
:103C8000A795979587958093530190935401A0939E
:103C90005501B09356013FCF4111C9CFA9CF83B190
:103CA00086FB882780F908958FB183FB882780F9E8
:103CB00008958FB182FB882780F908958FB186958A
:103CC000817008954F925F926F927F928F929F9230
:103CD000AF92BF92CF92DF92EF92FF920F931F931A
:103CE000CF93DF9381E08093E900A0907101B090C1
:103CF000720180916D0190916E01A80EB91EC09065
:103D00007501D090760180916F0190917001C80E7D
:103D1000D91E8091430190914401A0914501B09139
:103D20004601892B8A2B8B2B09F4D9C18091630121
:103D30008111B9C0809173019091740160917501F6
:103D4000709176010E942A3A6C9D70016D9DF00C75
:103D50007C9DF00C1124809173019091740160910D
:103D60007501709176010E942A3A8C010E0D1F1D7B
:103D7000A016B10609F473C0EC0CFD1C09C0C70104
:103D80008C0D9D1D8701EA14FB0409F468C07C01B9
:103D9000C0917501D0917601809173019091740169
:103DA00060917501709176010E942A3AC81BD90B67
:103DB000CE01A0E0B0E040914301509144016091F8
:103DC000450170914601481759076A077B0758F467
:103DD0008091430190914401A0914501B091460129
:103DE000EC01AA27BB274091430150914401609107
:103DF0004501709146013A014B01681A790A8A0A15
:103E00009B0A609243017092440180924501909216
:103E100046014091690150916A0160916B01709176
:103E20006C01E0912001F09121019E01C8010995EA
:103E30008091730190917401C80FD91FD0937401C0
:103E4000C09373018091430190914401A091450179
:103E5000B0914601892B8A2B8B2B09F090CF2091B2
:103E60007301309174018091710190917201281752
:103E7000390709F04ECF10927401109273018091AE
:103E8000690190916A01A0916B01B0916C0101965A
:103E9000A11DB11D8093690190936A01A0936B01EC
:103EA000B0936C0136CF80916301813009F45BC01F
:103EB00080916301823009F02CCF80917301909141
:103EC0007401E501C81BD90BCE01A0E0B0E0409120
:103ED000430150914401609145017091460148179A
:103EE00059076A077B0708F00DC1409043015090C5
:103EF000440160904501709046018091430190918A
:103F00004401A0914501B0914601B301A201662789
:103F10007727841B950BA60BB70B809343019093D7
:103F20004401A0934501B09346014091690150912D
:103F30006A0160916B0170916C01809173019091A5
:103F40007401E0912001F091210192010995C419B9
:103F5000D50909F4FFC0C5018C1B9D0B909374011A
:103F600080937301D6CE809173019091740160911A
:103F70006F01709170010E942A3A6F5F7F4F6C9DB4
:103F800070016D9DF00C7C9DF00C112420916F014F
:103F900030917001809173019091740160916F0173
:103FA000709170010E942A3A8C01021B130B0E0DB6
:103FB0001F1D80917501909176014801881A990A18
:103FC000A814B90409F47EC0EC0CFD1C14C0809147
:103FD0006F01909170018701081B190B8091750189
:103FE00090917601EC0CFD1C4801881A990AA814DE
:103FF000B90409F467C0C0916F01D091700180913C
:1040000073019091740160916F01709170010E9431
:104010002A3AC81BD90BCE01A0E0B0E04091430181
:10402000509144016091450170914601481759072C
:104030006A077B0758F48091430190914401A09155
:104040004501B0914601EC01AA27BB2740914301ED
:104050005091440160914501709146013A014B0134
:10406000681A790A8A0A9B0A609243017092440195
:1040700080924501909246014091690150916A01F8
:1040800060916B0170916C01E0912001F091210130
:104090009E01C80109958091730190917401C80F28
:1040A000D91FD0937401C093730180914301909103
:1040B0004401A0914501B0914601892B8A2B8B2B9D
:1040C00009F085CF209173013091740180916D01C9
:1040D00090916E012817390709F01BCECCCE1092B3
:1040E0005F01DF91CF911F910F91FF90EF90DF90D3
:1040F000CF90BF90AF909F908F907F906F905F9088
:104100004F900895409143015091440160914501C1
:10411000709146018A019B01081B190B2A0B3B0B6E
:1041200000934301109344012093450130934601CD
:104130004091690150916A0160916B0170916C012D
:104140008091730190917401E0912001F09121011F
:104150009E0109958091690190916A01A0916B017E
:10416000B0916C010196A11DB11D809369019093DE
:104170006A01A0936B01B0936C01109274011092CC
:104180007301C7CDCF92DF92EF92FF92CF93DF936F
:1041900082E08093E9008091430190914401A091D5
:1041A0004501B0914601892B8A2B8B2B09F491C0D4
:1041B000C0E0D0E066C0C0917101D0917201209141
:1041C000730130917401C21BD30B6E01E12CF12CF1
:1041D0004091430150914401609145017091460125
:1041E0004C155D056E057F0558F4C0904301D090D5
:1041F0004401E0904501F0904601E601EE24FF24E1
:104200004091690150916A0160916B0170916C015C
:10421000E0912701F09128019E01099580916901A3
:1042200090916A01A0916B01B0916C010196A11D62
:10423000B11D8093690190936A01A0936B01B093C3
:104240006C018091430190914401A0914501B0918E
:1042500046018C199D09AE09BF09809343019093D3
:104260004401A0934501B093460180914301909190
:104270004401A0914501B0914601892B8A2B8B2BDB
:1042800041F1809173019091740120916301222387
:1042900009F491CF20916301213081F020916301D5
:1042A000223009F08CCFC0917101D0917201209120
:1042B0006D0130916E01C20FD31F81CFC0916D018E
:1042C000D0916E012091710130917201820F931F84
:1042D00076CF10925F01DF91CF91FF90EF90DF904A
:1042E000CF900895CF92DF92EF92FF92CF938AE121
:1042F0008A95F1F700C080EBC82E81E7D82E8BE0BD
:10430000E82EF12CC8E009C08C2F8A95F1F781E0E6
:10431000C81AD108E108F10859F0E0911901F091AB
:104320001A010995882381F385E08A95F1F7000049
:10433000CF91FF90EF90DF90CF90089581112AC028
:104340008091640190916501A0916601B09167012F
:1043500087608093640190936501A0936601B09398
:1043600067015E981E9B51C082E791E290932E01F7
:1043700080932D018FE49EE190931A01809319019F
:10438000609164017091650180916601909167016F
:104390000C947202813009F445C0823009F475C072
:1043A000833071F75E9A8091640190916501A091CC
:1043B0006601B09167018760809364019093650105
:1043C000A0936601B09367018091640190916501AB
:1043D000A0916601B09167018B7FBB278093640138
:1043E00090936501A0936601B0936701799B9AC091
:1043F00082E791E290932E0180932D018EE59EE15C
:1044000090931A0180931901BBCF80E993E29093B6
:104410002E0180932D018FE49EE190931A018093E9
:104420001901AECF5E9A8091640190916501A091CF
:104430006601B09167018760809364019093650184
:10444000A0936601B093670180916401909165012A
:10445000A0916601B09167018E7FBB2780936401B4
:1044600090936501A0936601B09367017B9940C06A
:1044700080E993E290932E0180932D0184E59EE1E3
:1044800090931A01809319017BCF5E9A8091640109
:1044900090916501A0916601B0916701876080935A
:1044A000640190936501A0936601B09367018091C8
:1044B000640190916501A0916601B09167018D7FC3
:1044C000BB278093640190936501A0936601B0932C
:1044D00067017A991AC080E993E290932E01809344
:1044E0002D0189E59EE190931A018093190148CF2F
:1044F00082E791E290932E0180932D0184E59EE165
:1045000090931A01809319013BCF82E791E2909337
:104510002E0180932D0189E59EE190931A018093ED
:1045200019012ECF80E993E290932E0180932D0103
:104530008EE59EE190931A018093190121CF80931B
:104540006801409318018FEF82B911B887B92F9A8B
:1045500082E69EE1909326018093250182EC90E211
:1045600090931F0180931E018BE593E2909331019C
:10457000809330015A985B98269883988298819806
:104580002E9A8B9A8A9A899A80E490E0A0E0B0E013
:104590008093640190936501A0936601B0936701D5
:1045A0008FE39FE10197F1F700C0000080911801AF
:1045B000C5CE90910C01992321F010920C019FEF30
:1045C00091B982B95B9A82E0982F9A95F1F75D983C
:1045D00094E09A95F1F75D9A8A95F1F75B980895C2
:1045E000CF93DF93C82FE0911901F0911A0109953B
:1045F000D82F8C2FDEDF80912D0190912E018059D4
:10460000934279F0E0911901F0911A010995DD23A7
:1046100041F0882331F080E993E290932E0180935A
:104620002D01DF91CF9108955A9A8823F9F0FB016B
:104630008150282F30E02F5F3F4F260F371F6FEF3D
:1046400054E042E0819190910C01992319F010926D
:104650000C0161B982B95D98852F8A95F1F75D9A51
:10466000842F8A95F1F7E217F30761F75A988AE1E8
:104670008A95F1F700C0089520910C01211106C020
:1046800021E020930C012FEF22B911B8009791F08F
:10469000FB01AB01480F591F22E02F98922F9A95EA
:1046A000F1F790B191932F9A922F9A95F1F7E41721
:1046B000F50799F708950F931F93CF93DF9300D0D9
:1046C00000D000D0CDB7DEB78C011E828FEF71DF36
:1046D0008FE99FE00197F1F700C0000080E969DFF2
:1046E000BE016A5F7F4F81E09FDFBE016F5F7F4F3A
:1046F00085E090E0C1DF85E0FE013196D8010190B0
:104700000D928A95E1F78FEF54DF26960FB6F89455
:10471000DEBF0FBECDBFDF91CF911F910F910895E6
:10472000CF92DF92EF92FF92CF93DF931F92CDB79C
:10473000DEB78AE18A95F1F700C080E73ADF8FEAB9
:10474000C82E81E7D82E8BE0E82EF12C06C081E040
:10475000C81AD108E108F10899F0BE016F5F7F4FD8
:1047600081E090E089DF898186FFF1CF80E021DF61
:104770000F90DF91CF91FF90EF90DF90CF90089551
:104780008FEF17DF0F90DF91CF91FF90EF90DF90C9
:10479000CF900895CF92DF92EF92FF92CF93DF9365
:1047A0001F92CDB7DEB719828CEE03DFBE016F5FBB
:1047B0007F4F81E039DF8FE99FE00197F1F700C07B
:1047C0000000609102017091030180E091E054DFEC
:1047D00080E091E0A0E0B0E0809343019093440139
:1047E000A0934501B093460181E08093E90030E059
:1047F00004C08091E80080FD16C080914301909133
:104800004401A0914501B0914601892B8A2B8B2B45
:1048100081F710925F010F90DF91CF91FF90EF90A1
:10482000DF90CF9008958091430190914401A09131
:104830004501B091460181349105A105B105B8F556
:10484000C0904301D0904401E0904501F0904601B2
:104850004C2D8091430190914401A0914501B0916C
:1048600046018C199109A109B109809343019093E4
:104870004401A0934501B0934601CC2071F1832FF0
:1048800091E0980FE0910201F0910301E80FF11D12
:1048900080818093F100892F292F231B241780F317
:1048A0008091E8008E778093E800392FA6CF809121
:1048B000430190914401A0914501B091460180547B
:1048C0009109A109B1098093430190934401A093F8
:1048D0004501B093460140E4D2CF932FE1CFCF936F
:1048E000DF931F92CDB7DEB780E763DEBE016F5F57
:1048F0007F4F81E090E0C0DE80E05BDE89810F9039
:10490000DF91CF910895BF92CF92DF92EF92FF9205
:104910000F931F93CF93DF9300D000D01F92CDB79A
:10492000DEB77C01B42EC52ED62E8901E11482E0BB
:10493000F80608F07DC0F0FC72C080E03ADEE98243
:10494000BA82CB82DC8280917701BE016F5F7F4F9C
:104950006BDE81E080930C018FEF82B911B8E0919A
:104960002D01F0912E0109950115110591F180E4B9
:10497000C82E8091E80080FFFCCF8091F2009091DA
:10498000F300EC2CE81AF12C0E151F0508F4780141
:10499000DE2C6091020170910301C7016DDEEE20F3
:1049A00071F080E090E0E0910201F0910301E80FE6
:1049B000F91F20812093F10001968D15A0F38091BD
:1049C000F2009091F3008034910561F10E191F09F6
:1049D00081F68091430190914401A0914501B091ED
:1049E0004601892B8A2B8B2B59F48091F2009091F0
:1049F000F300892B29F08091E8008E778093E800FE
:104A00000F900F900F900F900F90DF91CF911F910B
:104A10000F91FF90EF90DF90CF90BF90089581E0CD
:104A2000C8DD8DCF8091E8008E778093E800CECFEF
:104A300080E5BFDD84CFEF92FF920F931F93CF935A
:104A4000DF9300D000D01F92CDB7DEB77C01890183
:104A5000E11482E0F80608F071C0F0FC55C080E077
:104A6000A8DD85E38A95F1F7000080E8A2DD80915A
:104A7000690190916A01A0916B01B0916C01E9828A
:104A80008A839B83AC8380917701BE016F5F7F4FE8
:104A9000CBDDE0912D01F0912E0109958AE18A95F7
:104AA000F1F700C091E00115110589F18091E8004E
:104AB00085FFFCCF8091E80082FFF5CF4091F200A6
:104AC0005091F30055270417150708F4A801342F57
:104AD000442361F080E02091F10022B95D98292FF4
:104AE0002A95F1F75D9A8F5F3813F5CF2091F20088
:104AF0003091F300232B29F48091E8008B77809389
:104B0000E800041B150BCFCF81E053DDAACF80E175
:104B100050DD8AE18A95F1F700C0E0912D01F09116
:104B20002E0109950F900F900F900F900F90DF912D
:104B3000CF911F910F91FF90EF90089580E539DD9F
:104B400090CFCF93DF9300D000D01F92CDB7DEB7C8
:104B500089839A834B835C836D8380917701BE0147
:104B60006F5F7F4F61DD0F900F900F900F900F9050
:104B7000DF91CF910895CF92DF92EF92FF920F9342
:104B80001F93CF93DF93EC016A017B01890180E0E1
:104B900010DDB701A601CE01D4DF80E321DD81E085
:104BA00080930C018FEF82B911B8E0912D01F09143
:104BB0002E0109950115110589F1D0E48091E800D5
:104BC00080FFFCCF8091F2009091F300ED2EE81A67
:104BD000F12C0E151F0508F47801CE2D609102010D
:104BE00070910301C70148DDEE2071F080E090E094
:104BF000E0910201F0910301E80FF91F2081209359
:104C0000F10001968C17A0F38091F2009091F300CF
:104C10008034910519F10E191F0981F68091430125
:104C200090914401A0914501B0914601892B8A2BB6
:104C30008B2B59F48091F2009091F300892B29F08D
:104C40008091E8008E778093E800DF91CF911F91EB
:104C50000F91FF90EF90DF90CF9008958091E80042
:104C60008E778093E800D7CFCF92DF92EF92FF92BA
:104C70000F931F93CF93DF938C016A017B01E901AE
:104C800080E897DCB701A601C8015BDFE0912D0148
:104C9000F0912E0109958AE18A95F1F700C091E023
:104CA000209771F18091E80085FFFCCF8091E800AA
:104CB00082FFF6CF4091F2005091F3005527C417C0
:104CC000D50708F4AE01342F442361F080E0209131
:104CD000F10022B95D98292F2A95F1F75D9A8F5F2F
:104CE0003813F5CF2091F2003091F300232B29F4F3
:104CF0008091E8008B778093E800C41BD50BD0CF60
:104D000080E157DC8AE18A95F1F700C0E0912D013E
:104D1000F0912E01DF91CF911F910F91FF90EF90B5
:104D2000DF90CF900994CF93DF9300D01F92CDB73F
:104D3000DEB780E63EDC85E08A95F1F78091690177
:104D400090916A01A0916B01B0916C01898380916F
:104D5000690190916A01A0916B01B0916C019A83F5
:104D60008091690190916A01A0916B01B0916C01F1
:104D7000AB8380917701BE016F5F7F4F815054DC20
:104D800080ED2EDCE0912D01F0912E0109950F9020
:104D90000F900F90DF91CF910895CF93DF9300D0C4
:104DA0001F92CDB7DEB780E604DC80916901909157
:104DB0006A01A0916B01B0916C01807C8983809124
:104DC000690190916A01A0916B01B0916C019A8385
:104DD0008091690190916A01A0916B01B0916C0181
:104DE000AB8380917701BE016F5F7F4F82501CDCE7
:104DF00080EDF6DBE0912D01F0912E0109950F90E9
:104E00000F900F90DF91CF91089527EB24B92BEBF2
:104E100025B92FEF2AB923E62BB9009741F081304D
:104E2000910531F18230910549F1039729F180E034
:104E30006830710549F06430710539F062307105F0
:104E400069F061307105B1F080689DB587FD0AC0D9
:104E50009E7F9DBD8F7780658CBD089581689DB5CF
:104E600087FFF6CF91609DBD8F7780658CBD0895DB
:104E700084E0DECF8160E9CF8CE0DACF88E0D8CF64
:104E800087EB84B98BEB85B98FEF8AB983E68BB951
:104E9000089582E08093E90004C08091E80082FDDB
:104EA0000FC08091430190914401A0914501B091C0
:104EB0004601892B8A2B8B2B81F710925F01089575
:104EC0008091430190914401A0914501B091460128
:104ED00081349105A105B10578F5409143015091C8
:104EE00044016091450170914601242F8091430156
:104EF00090914401A0914501B0914601841B910914
:104F0000A109B1098093430190934401A093450105
:104F1000B0934601442351F080E09091F1009EBD92
:104F20000DB407FEFDCF8F5F8217B8F38091E800C4
:104F30008B778093E800B5CF809143019091440135
:104F4000A0914501B091460180549109A109B10990
:104F50008093430190934401A0934501B09346018F
:104F600020E4DACFCF93DF931F92CDB7DEB781E095
:104F70008093E90004C08091E80080FD16C0809114
:104F8000430190914401A0914501B0914601892BC4
:104F90008A2B8B2B81F7809147018111289A1092DF
:104FA0005F010F90DF91CF9108951EBC8091430166
:104FB00090914401A0914501B09146018134910541
:104FC000A105B10598F180E489832981809143018D
:104FD00090914401A0914501B0914601821B910935
:104FE000A109B1098093430190934401A093450125
:104FF000B09346018981823068F08981815089832C
:105000000DB407FEFDCF8EB58EBD8093F100898172
:10501000823098F70DB407FEFDCF8EB58093F10076
:105020008091E8008E778093E800A9CF80914301BA
:1050300090914401A0914501B0914601C5CF809166
:105040004D018EBD0DB407FEFDCF80915901843016
:1050500041F180915901833009F45FC08091590179
:10506000823009F486C080915901813009F49EC0D4
:10507000209151013091520180915301909154013E
:10508000A0915501B0915601820F931FA11DB11D32
:105090008093530190935401A0935501B09356010E
:1050A00008958091530190915401A0915501B091C0
:1050B00056018B2F9927AA27BB278EBD0DB407FE5B
:1050C000FDCF8091530190915401A0915501B09171
:1050D0005601CD01AA27BB278EBD0DB407FEFDCF1B
:1050E0008091530190915401A0915501B0915601C6
:1050F000892F9A2FAB2FBB278EBD0DB407FEFDCF96
:105100008091530190915401A0915501B0915601A5
:105110008EBD0DB407FEFDCFABCF809153019091B2
:105120005401A0915501B0915601CD01AA27BB278A
:105130008EBD0DB407FEFDCF8091530190915401B7
:10514000A0915501B0915601892F9A2FAB2FBB2703
:105150008EBD0DB407FEFDCF809153019091540197
:10516000A0915501B09156018EBD0DB407FEFDCF43
:105170007FCF8091530190915401A0915501B0913E
:105180005601892F9A2FAB2FBB278EBD0DB407FE7A
:10519000FDCF8091530190915401A0915501B091A0
:1051A00056018EBD0DB407FEFDCF62CF8091530135
:1051B00090915401A0915501B09156018EBD0DB44E
:1051C00007FEFDCF55CF80915901843081F0809149
:1051D0005901833009F447C080915901823009F4A4
:1051E0006EC080915901813009F486C00895809184
:1051F000530190915401A0915501B09156018B2F0C
:105200009927AA27BB278EBD0DB407FEFDCF80913D
:10521000530190915401A0915501B0915601CD01D7
:10522000AA27BB278EBD0DB407FEFDCF8091530189
:1052300090915401A0915501B0915601892F9A2F58
:10524000AB2FBB278EBD0DB407FEFDCF8091530160
:1052500090915401A0915501B09156018EBD0DB4AD
:1052600007FEFDCF08958091530190915401A091C4
:105270005501B0915601CD01AA27BB278EBD0DB4B3
:1052800007FEFDCF8091530190915401A0915501EB
:10529000B0915601892F9A2FAB2FBB278EBD0DB42D
:1052A00007FEFDCF8091530190915401A0915501CB
:1052B000B09156018EBD0DB407FEFDCF08958091CB
:1052C000530190915401A0915501B0915601892F3D
:1052D0009A2FAB2FBB278EBD0DB407FEFDCF80915B
:1052E000530190915401A0915501B09156018EBD8A
:1052F0000DB407FEFDCF08958091530190915401A4
:10530000A0915501B09156018EBD0DB407FEFDCFA1
:1053100008952898809161018EBD0DB407FEFDCFE0
:10532000289A089528980895289A0895CF93DF938E
:1053300000D000D01F92CDB7DEB719821A821B822F
:105340001C82809157018823D9F0289880915701B9
:105350008EBD0DB407FEFDCF3AE13A95F1F700C0DE
:105360009FEF9EBD0DB407FEFDCF8EB58D838D8161
:10537000881F8827881F8D838D81882391F3289A21
:105380002898809158018EBD0DB407FEFDCF2FEFF8
:1053900085E08A95F1F7000089819A81AB81BC8113
:1053A0000196A11DB11D89839A83AB83BC8389813A
:1053B0009A81AB81BC8180319742A105B10549F04A
:1053C0002EBD0DB407FEFDCF8EB58D838D8180FD82
:1053D000DFCF289A0F900F900F900F900F90DF91D2
:1053E000CF910895CF92DF92EF92FF920F931F9388
:1053F00082E08093E90000E010E0980104C0809111
:10540000E80082FD16C08091430190914401A09173
:105410004501B0914601892B8A2B8B2B81F7109285
:105420005F01289A1F910F91FF90EF90DF90CF902E
:105430007DCF8091F2009091F300882309F467C03A
:105440009091F1000DB407FEFDCF9EBD482F50E0B6
:1054500060E070E0C0904301D0904401E0904501CD
:10546000F0904601C416D506E606F70660F44091B2
:105470004301509144016091450170914601842F90
:10548000552766277727C0904301D0904401E090CC
:105490004501F0904601C41AD50AE60AF70AC092FF
:1054A0004301D0924401E0924501F0924601040F7D
:1054B000151F261F371F813049F09091F100815050
:1054C0000DB407FEFDCF9EBD8130B9F78091E80095
:1054D0008B778093E8008091510190915201A0E078
:1054E000B0E0081719072A073B0709F08CCF809115
:1054F000430190914401A0914501B0914601892B4F
:105500008A2B8B2B51F400E010E098017CCF809126
:10551000E8008B778093E80076CF289A07DF2898F9
:10552000809161018EBD0DB407FEFDCF289A2898A9
:1055300080914D018EBD0DB407FEFDCF80915901C4
:10554000843059F180915901833009F48CC08091E5
:105550005901823009F46AC080915901813009F4FF
:1055600058C0209151013091520180915301909186
:105570005401A0915501B0915601820F931FA11DB6
:10558000B11D8093530190935401A0935501B093A2
:10559000560100E010E0980136CF809153019091C0
:1055A0005401A0915501B09156018B2F9927AA273C
:1055B000BB278EBD0DB407FEFDCF809153019091A6
:1055C0005401A0915501B0915601CD01AA27BB27E6
:1055D0008EBD0DB407FEFDCF809153019091540113
:1055E000A0915501B0915601892F9A2FAB2FBB275F
:1055F0008EBD0DB407FEFDCF8091530190915401F3
:10560000A0915501B09156018EBD0DB407FEFDCF9E
:10561000A8CF8091530190915401A0915501B09170
:1056200056018EBD0DB407FEFDCF9BCF8091530177
:1056300090915401A0915501B0915601892F9A2F54
:10564000AB2FBB278EBD0DB407FEFDCF809153015C
:1056500090915401A0915501B09156018EBD0DB4A9
:1056600007FEFDCF7ECF8091530190915401A09110
:105670005501B0915601CD01AA27BB278EBD0DB4AF
:1056800007FEFDCF8091530190915401A0915501E7
:10569000B0915601892F9A2FAB2FBB278EBD0DB429
:1056A00007FEFDCF8091530190915401A0915501C7
:1056B000B09156018EBD0DB407FEFDCF52CFCF93F2
:1056C000DF931F92CDB7DEB72898809158018EBD29
:1056D0000DB407FEFDCF22E09FEF822F8A95F1F7F0
:1056E0009EBD0DB407FEFDCF8EB58983898180FDF7
:1056F000F4CF289A0F90DF91CF910895CF92DF9247
:10570000EF92FF92CF93DF9382E08093E90021E054
:1057100004C08091E80085FD14C080914301909100
:105720004401A0914501B0914601892B8A2B8B2B16
:1057300081F7289ADF91CF91FF90EF90DF90CF9083
:1057400008958091E80082FFE8CF80914301909115
:105750004401A0914501B091460181349105A10514
:10576000B10508F0D5C0C0904301D0904401E0904D
:105770004501F0904601DC2DCC2009F4EDC0DD247C
:10578000EE24FF24C0E0289880914D018EBD0DB419
:1057900007FEFDCF211134C08091F1008EBD0DB404
:1057A00007FEFDCF289A8BDFCF5F20E0CD1758F39F
:1057B0008091430190914401A0914501B09146012F
:1057C0008C199D09AE09BF09809343019093440150
:1057D000A0934501B093460180914301909144010B
:1057E000A0914501B0914601892B8A2B8B2B11F496
:1057F00010925F018091E8008B778093E8008DCF55
:10580000809159018430E1F080915901833009F48D
:1058100053C080915901823009F481C080915901AF
:10582000813009F0B9CF8091530190915401A0913A
:105830005501B09156018EBD0DB407FEFDCFACCF22
:105840008091530190915401A0915501B09156015E
:105850008B2F9927AA27BB278EBD0DB407FEFDCF3E
:105860008091530190915401A0915501B09156013E
:10587000CD01AA27BB278EBD0DB407FEFDCF8091B9
:10588000530190915401A0915501B0915601892F77
:105890009A2FAB2FBB278EBD0DB407FEFDCF809195
:1058A000530190915401A0915501B09156018EBDC4
:1058B0000DB407FEFDCF70CF80915301909154013C
:1058C000A0915501B0915601CD01AA27BB278EBDED
:1058D0000DB407FEFDCF8091530190915401A0912A
:1058E0005501B0915601892F9A2FAB2FBB278EBD42
:1058F0000DB407FEFDCF8091530190915401A0910A
:105900005501B09156018EBD0DB407FEFDCF44CFB9
:10591000E0E4CE2ED12CE12CF12CD0E433CF8091D9
:10592000530190915401A0915501B0915601892FD6
:105930009A2FAB2FBB278EBD0DB407FEFDCF8091F4
:10594000530190915401A0915501B09156018EBD23
:105950000DB407FEFDCF20CFC12CD12C760128CF6E
:10596000CF92DF92EF92FF92CF93DF9382E080930A
:10597000E90021E004C08091E80085FD14C0809119
:10598000430190914401A0914501B0914601892BBA
:105990008A2B8B2B81F7289ADF91CF91FF90EF9084
:1059A000DF90CF9008958091E80082FFE8CF80914A
:1059B000430190914401A0914501B0914601813489
:1059C0009105A105B10508F0DBC0C0904301D0905E
:1059D0004401E0904501F0904601DC2DCC2009F413
:1059E000F3C0DD24EE24FF24C0E0289880914D010F
:1059F0008EBD0DB407FEFDCF21113AC08091F1009C
:105A00008EBD0DB407FEFDCF8091F1008EBD0DB4AB
:105A100007FEFDCF289A53DECE5F20E0CD1728F396
:105A20008091430190914401A0914501B0914601BC
:105A30008C199D09AE09BF098093430190934401DD
:105A4000A0934501B0934601809143019091440198
:105A5000A0914501B0914601892B8A2B8B2B11F423
:105A600010925F018091E8008B778093E80087CFE8
:105A7000809159018430E1F080915901833009F41B
:105A800053C080915901823009F481C0809159013D
:105A9000813009F0B3CF8091530190915401A091CE
:105AA0005501B09156018EBD0DB407FEFDCFA6CFB6
:105AB0008091530190915401A0915501B0915601EC
:105AC0008B2F9927AA27BB278EBD0DB407FEFDCFCC
:105AD0008091530190915401A0915501B0915601CC
